{
	"ChainLinkOracle.sol": {
		"ChainLinkOracle": {
			"abi": [
				{
					"inputs": [
						{
							"internalType": "address",
							"name": "_oracleAddressListen",
							"type": "address"
						}
					],
					"stateMutability": "nonpayable",
					"type": "constructor"
				},
				{
					"inputs": [],
					"name": "getLatestPrice",
					"outputs": [
						{
							"internalType": "int256",
							"name": "",
							"type": "int256"
						}
					],
					"stateMutability": "view",
					"type": "function"
				},
				{
					"inputs": [],
					"name": "getUSDPrice",
					"outputs": [
						{
							"internalType": "uint256",
							"name": "",
							"type": "uint256"
						}
					],
					"stateMutability": "view",
					"type": "function"
				}
			],
			"devdoc": {
				"kind": "dev",
				"methods": {},
				"version": 1
			},
			"evm": {
				"assembly": "    /* \"ChainLinkOracle.sol\":138:770  contract ChainLinkOracle {... */\n  mstore(0x40, 0x80)\n    /* \"ChainLinkOracle.sol\":253:422  constructor(address _oracleAddressListen)  {... */\n  callvalue\n  dup1\n  iszero\n  tag_1\n  jumpi\n  0x00\n  dup1\n  revert\ntag_1:\n  pop\n  mload(0x40)\n  sub(codesize, bytecodeSize)\n  dup1\n  bytecodeSize\n  dup4\n  codecopy\n  dup2\n  add\n  0x40\n  dup2\n  swap1\n  mstore\n  tag_2\n  swap2\n  tag_3\n  jump\t// in\ntag_2:\n    /* \"ChainLinkOracle.sol\":307:326  oracleAddressListen */\n  0x01\n    /* \"ChainLinkOracle.sol\":307:349  oracleAddressListen = _oracleAddressListen */\n  dup1\n  sload\n  sub(shl(0xa0, 0x01), 0x01)\n  swap1\n  swap3\n  and\n  not(sub(shl(0xa0, 0x01), 0x01))\n  swap3\n  dup4\n  and\n  dup2\n  or\n  swap1\n  swap2\n  sstore\n    /* \"ChainLinkOracle.sol\":307:326  oracleAddressListen */\n  0x00\n    /* \"ChainLinkOracle.sol\":360:414  priceFeed = AggregatorV3Interface(oracleAddressListen) */\n  dup1\n  sload\n  swap1\n  swap3\n  and\n  or\n  swap1\n  sstore\n    /* \"ChainLinkOracle.sol\":138:770  contract ChainLinkOracle {... */\n  jump(tag_7)\n    /* \"#utility.yul\":14:304   */\ntag_3:\n    /* \"#utility.yul\":84:90   */\n  0x00\n    /* \"#utility.yul\":137:139   */\n  0x20\n    /* \"#utility.yul\":125:134   */\n  dup3\n    /* \"#utility.yul\":116:123   */\n  dup5\n    /* \"#utility.yul\":112:135   */\n  sub\n    /* \"#utility.yul\":108:140   */\n  slt\n    /* \"#utility.yul\":105:157   */\n  iszero\n  tag_9\n  jumpi\n    /* \"#utility.yul\":153:154   */\n  0x00\n    /* \"#utility.yul\":150:151   */\n  dup1\n    /* \"#utility.yul\":143:155   */\n  revert\n    /* \"#utility.yul\":105:157   */\ntag_9:\n    /* \"#utility.yul\":179:195   */\n  dup2\n  mload\n  sub(shl(0xa0, 0x01), 0x01)\n    /* \"#utility.yul\":224:255   */\n  dup2\n  and\n    /* \"#utility.yul\":214:256   */\n  dup2\n  eq\n    /* \"#utility.yul\":204:274   */\n  tag_10\n  jumpi\n    /* \"#utility.yul\":270:271   */\n  0x00\n    /* \"#utility.yul\":267:268   */\n  dup1\n    /* \"#utility.yul\":260:272   */\n  revert\n    /* \"#utility.yul\":204:274   */\ntag_10:\n    /* \"#utility.yul\":293:298   */\n  swap4\n    /* \"#utility.yul\":14:304   */\n  swap3\n  pop\n  pop\n  pop\n  jump\t// out\ntag_7:\n    /* \"ChainLinkOracle.sol\":138:770  contract ChainLinkOracle {... */\n  dataSize(sub_0)\n  dup1\n  dataOffset(sub_0)\n  0x00\n  codecopy\n  0x00\n  return\nstop\n\nsub_0: assembly {\n        /* \"ChainLinkOracle.sol\":138:770  contract ChainLinkOracle {... */\n      mstore(0x40, 0x80)\n      callvalue\n      dup1\n      iszero\n      tag_1\n      jumpi\n      0x00\n      dup1\n      revert\n    tag_1:\n      pop\n      jumpi(tag_2, lt(calldatasize, 0x04))\n      shr(0xe0, calldataload(0x00))\n      dup1\n      0x8e15f473\n      eq\n      tag_3\n      jumpi\n      dup1\n      0xc338287f\n      eq\n      tag_4\n      jumpi\n    tag_2:\n      0x00\n      dup1\n      revert\n        /* \"ChainLinkOracle.sol\":430:569  function getLatestPrice() public view returns (int) {... */\n    tag_3:\n      tag_5\n      tag_6\n      jump\t// in\n    tag_5:\n      mload(0x40)\n        /* \"#utility.yul\":158:183   */\n      swap1\n      dup2\n      mstore\n        /* \"#utility.yul\":146:148   */\n      0x20\n        /* \"#utility.yul\":131:149   */\n      add\n        /* \"ChainLinkOracle.sol\":430:569  function getLatestPrice() public view returns (int) {... */\n      mload(0x40)\n      dup1\n      swap2\n      sub\n      swap1\n      return\n        /* \"ChainLinkOracle.sol\":577:765  function getUSDPrice() public view returns(uint256) {... */\n    tag_4:\n      tag_5\n      tag_10\n      jump\t// in\n        /* \"ChainLinkOracle.sol\":430:569  function getLatestPrice() public view returns (int) {... */\n    tag_6:\n        /* \"ChainLinkOracle.sol\":477:480  int */\n      0x00\n        /* \"ChainLinkOracle.sol\":511:520  priceFeed */\n      dup1\n      sload\n        /* \"ChainLinkOracle.sol\":511:538  priceFeed.latestRoundData() */\n      0x40\n      dup1\n      mload\n      shl(0xe2, 0x3fabe5a3)\n      dup2\n      mstore\n      swap1\n      mload\n        /* \"ChainLinkOracle.sol\":477:480  int */\n      dup4\n      swap3\n      sub(shl(0xa0, 0x01), 0x01)\n        /* \"ChainLinkOracle.sol\":511:520  priceFeed */\n      and\n      swap2\n        /* \"ChainLinkOracle.sol\":511:536  priceFeed.latestRoundData */\n      0xfeaf968c\n      swap2\n        /* \"ChainLinkOracle.sol\":511:538  priceFeed.latestRoundData() */\n      0x04\n      dup1\n      dup4\n      add\n      swap3\n      0xa0\n      swap3\n      swap2\n      swap1\n      dup3\n      swap1\n      sub\n      add\n      dup2\n        /* \"ChainLinkOracle.sol\":511:520  priceFeed */\n      dup7\n        /* \"ChainLinkOracle.sol\":511:538  priceFeed.latestRoundData() */\n      gas\n      staticcall\n      iszero\n      dup1\n      iszero\n      tag_15\n      jumpi\n      returndatasize\n      0x00\n      dup1\n      returndatacopy\n      revert(0x00, returndatasize)\n    tag_15:\n      pop\n      pop\n      pop\n      pop\n      mload(0x40)\n      returndatasize\n      not(0x1f)\n      0x1f\n      dup3\n      add\n      and\n      dup3\n      add\n      dup1\n      0x40\n      mstore\n      pop\n      dup2\n      add\n      swap1\n      tag_16\n      swap2\n      swap1\n      tag_17\n      jump\t// in\n    tag_16:\n      pop\n        /* \"ChainLinkOracle.sol\":493:538  (,int price,,,) = priceFeed.latestRoundData() */\n      swap2\n      swap6\n        /* \"ChainLinkOracle.sol\":430:569  function getLatestPrice() public view returns (int) {... */\n      swap5\n      pop\n      pop\n      pop\n      pop\n      pop\n      jump\t// out\n        /* \"ChainLinkOracle.sol\":577:765  function getUSDPrice() public view returns(uint256) {... */\n    tag_10:\n        /* \"ChainLinkOracle.sol\":620:627  uint256 */\n      0x00\n        /* \"ChainLinkOracle.sol\":640:658  int weth_usd_price */\n      dup1\n        /* \"ChainLinkOracle.sol\":661:677  getLatestPrice() */\n      tag_19\n        /* \"ChainLinkOracle.sol\":661:675  getLatestPrice */\n      tag_6\n        /* \"ChainLinkOracle.sol\":661:677  getLatestPrice() */\n      jump\t// in\n    tag_19:\n        /* \"ChainLinkOracle.sol\":640:677  int weth_usd_price = getLatestPrice() */\n      swap1\n      pop\n        /* \"ChainLinkOracle.sol\":703:756  ((1 * (10 ** 8)) * (1 * (10 ** 18))) / weth_usd_price */\n      tag_20\n        /* \"ChainLinkOracle.sol\":640:677  int weth_usd_price = getLatestPrice() */\n      dup2\n        /* \"ChainLinkOracle.sol\":704:738  (1 * (10 ** 8)) * (1 * (10 ** 18)) */\n      0x52b7d2dcc80cd2e4000000\n        /* \"ChainLinkOracle.sol\":703:756  ((1 * (10 ** 8)) * (1 * (10 ** 18))) / weth_usd_price */\n      tag_21\n      jump\t// in\n    tag_20:\n        /* \"ChainLinkOracle.sol\":688:757  return uint256(((1 * (10 ** 8)) * (1 * (10 ** 18))) / weth_usd_price) */\n      swap2\n      pop\n      pop\n        /* \"ChainLinkOracle.sol\":577:765  function getUSDPrice() public view returns(uint256) {... */\n      swap1\n      jump\t// out\n        /* \"#utility.yul\":376:555   */\n    tag_22:\n        /* \"#utility.yul\":454:467   */\n      dup1\n      mload\n        /* \"#utility.yul\":507:529   */\n      0xffffffffffffffffffff\n        /* \"#utility.yul\":496:530   */\n      dup2\n      and\n        /* \"#utility.yul\":486:531   */\n      dup2\n      eq\n        /* \"#utility.yul\":476:549   */\n      tag_27\n      jumpi\n        /* \"#utility.yul\":545:546   */\n      0x00\n        /* \"#utility.yul\":542:543   */\n      dup1\n        /* \"#utility.yul\":535:547   */\n      revert\n        /* \"#utility.yul\":476:549   */\n    tag_27:\n        /* \"#utility.yul\":376:555   */\n      swap2\n      swap1\n      pop\n      jump\t// out\n        /* \"#utility.yul\":560:1033   */\n    tag_17:\n        /* \"#utility.yul\":663:669   */\n      0x00\n        /* \"#utility.yul\":671:677   */\n      dup1\n        /* \"#utility.yul\":679:685   */\n      0x00\n        /* \"#utility.yul\":687:693   */\n      dup1\n        /* \"#utility.yul\":695:701   */\n      0x00\n        /* \"#utility.yul\":748:751   */\n      0xa0\n        /* \"#utility.yul\":736:745   */\n      dup7\n        /* \"#utility.yul\":727:734   */\n      dup9\n        /* \"#utility.yul\":723:746   */\n      sub\n        /* \"#utility.yul\":719:752   */\n      slt\n        /* \"#utility.yul\":716:769   */\n      iszero\n      tag_29\n      jumpi\n        /* \"#utility.yul\":765:766   */\n      0x00\n        /* \"#utility.yul\":762:763   */\n      dup1\n        /* \"#utility.yul\":755:767   */\n      revert\n        /* \"#utility.yul\":716:769   */\n    tag_29:\n        /* \"#utility.yul\":788:827   */\n      tag_30\n        /* \"#utility.yul\":817:826   */\n      dup7\n        /* \"#utility.yul\":788:827   */\n      tag_22\n      jump\t// in\n    tag_30:\n        /* \"#utility.yul\":778:827   */\n      swap5\n      pop\n        /* \"#utility.yul\":867:869   */\n      0x20\n        /* \"#utility.yul\":856:865   */\n      dup7\n        /* \"#utility.yul\":852:870   */\n      add\n        /* \"#utility.yul\":846:871   */\n      mload\n        /* \"#utility.yul\":836:871   */\n      swap4\n      pop\n        /* \"#utility.yul\":911:913   */\n      0x40\n        /* \"#utility.yul\":900:909   */\n      dup7\n        /* \"#utility.yul\":896:914   */\n      add\n        /* \"#utility.yul\":890:915   */\n      mload\n        /* \"#utility.yul\":880:915   */\n      swap3\n      pop\n        /* \"#utility.yul\":955:957   */\n      0x60\n        /* \"#utility.yul\":944:953   */\n      dup7\n        /* \"#utility.yul\":940:958   */\n      add\n        /* \"#utility.yul\":934:959   */\n      mload\n        /* \"#utility.yul\":924:959   */\n      swap2\n      pop\n        /* \"#utility.yul\":978:1027   */\n      tag_31\n        /* \"#utility.yul\":1022:1025   */\n      0x80\n        /* \"#utility.yul\":1011:1020   */\n      dup8\n        /* \"#utility.yul\":1007:1026   */\n      add\n        /* \"#utility.yul\":978:1027   */\n      tag_22\n      jump\t// in\n    tag_31:\n        /* \"#utility.yul\":968:1027   */\n      swap1\n      pop\n        /* \"#utility.yul\":560:1033   */\n      swap3\n      swap6\n      pop\n      swap3\n      swap6\n      swap1\n      swap4\n      pop\n      jump\t// out\n        /* \"#utility.yul\":1038:1425   */\n    tag_21:\n        /* \"#utility.yul\":1077:1078   */\n      0x00\n        /* \"#utility.yul\":1103:1104   */\n      dup3\n        /* \"#utility.yul\":1093:1225   */\n      tag_33\n      jumpi\n        /* \"#utility.yul\":1147:1157   */\n      0x4e487b71\n        /* \"#utility.yul\":1142:1145   */\n      0xe0\n        /* \"#utility.yul\":1138:1158   */\n      shl\n        /* \"#utility.yul\":1135:1136   */\n      0x00\n        /* \"#utility.yul\":1128:1159   */\n      mstore\n        /* \"#utility.yul\":1182:1186   */\n      0x12\n        /* \"#utility.yul\":1179:1180   */\n      0x04\n        /* \"#utility.yul\":1172:1187   */\n      mstore\n        /* \"#utility.yul\":1210:1214   */\n      0x24\n        /* \"#utility.yul\":1207:1208   */\n      0x00\n        /* \"#utility.yul\":1200:1215   */\n      revert\n        /* \"#utility.yul\":1093:1225   */\n    tag_33:\n      shl(0xff, 0x01)\n        /* \"#utility.yul\":1241:1259   */\n      dup3\n      eq\n      not(0x00)\n        /* \"#utility.yul\":1261:1274   */\n      dup5\n      eq\n        /* \"#utility.yul\":1237:1275   */\n      and\n        /* \"#utility.yul\":1234:1395   */\n      iszero\n      tag_34\n      jumpi\n        /* \"#utility.yul\":1317:1327   */\n      0x4e487b71\n        /* \"#utility.yul\":1312:1315   */\n      0xe0\n        /* \"#utility.yul\":1308:1328   */\n      shl\n        /* \"#utility.yul\":1305:1306   */\n      0x00\n        /* \"#utility.yul\":1298:1329   */\n      mstore\n        /* \"#utility.yul\":1352:1356   */\n      0x11\n        /* \"#utility.yul\":1349:1350   */\n      0x04\n        /* \"#utility.yul\":1342:1357   */\n      mstore\n        /* \"#utility.yul\":1380:1384   */\n      0x24\n        /* \"#utility.yul\":1377:1378   */\n      0x00\n        /* \"#utility.yul\":1370:1385   */\n      revert\n        /* \"#utility.yul\":1234:1395   */\n    tag_34:\n      pop\n        /* \"#utility.yul\":1409:1419   */\n      sdiv\n      swap1\n        /* \"#utility.yul\":1038:1425   */\n      jump\t// out\n\n    auxdata: 0xa26469706673582212204390b36ec61a0879d55736bc09d9714b34cd68c40330f2ce7e120e855d7b019464736f6c634300080a0033\n}\n",
				"bytecode": {
					"linkReferences": {},
					"object": "608060405234801561001057600080fd5b5060405161028a38038061028a83398101604081905261002f9161005e565b600180546001600160a01b039092166001600160a01b031992831681179091556000805490921617905561008e565b60006020828403121561007057600080fd5b81516001600160a01b038116811461008757600080fd5b9392505050565b6101ed8061009d6000396000f3fe608060405234801561001057600080fd5b50600436106100365760003560e01c80638e15f4731461003b578063c338287f14610055575b600080fd5b61004361005d565b60405190815260200160405180910390f35b6100436100d6565b6000805460408051633fabe5a360e21b8152905183926001600160a01b03169163feaf968c9160048083019260a09291908290030181865afa1580156100a7573d6000803e3d6000fd5b505050506040513d601f19601f820116820180604052508101906100cb919061011d565b509195945050505050565b6000806100e161005d565b90506100f8816a52b7d2dcc80cd2e400000061016d565b91505090565b805169ffffffffffffffffffff8116811461011857600080fd5b919050565b600080600080600060a0868803121561013557600080fd5b61013e866100fe565b9450602086015193506040860151925060608601519150610161608087016100fe565b90509295509295909350565b60008261018a57634e487b7160e01b600052601260045260246000fd5b600160ff1b8214600019841416156101b257634e487b7160e01b600052601160045260246000fd5b50059056fea26469706673582212204390b36ec61a0879d55736bc09d9714b34cd68c40330f2ce7e120e855d7b019464736f6c634300080a0033",
					"opcodes": "PUSH1 0x80 PUSH1 0x40 MSTORE CALLVALUE DUP1 ISZERO PUSH2 0x10 JUMPI PUSH1 0x0 DUP1 REVERT JUMPDEST POP PUSH1 0x40 MLOAD PUSH2 0x28A CODESIZE SUB DUP1 PUSH2 0x28A DUP4 CODECOPY DUP2 ADD PUSH1 0x40 DUP2 SWAP1 MSTORE PUSH2 0x2F SWAP2 PUSH2 0x5E JUMP JUMPDEST PUSH1 0x1 DUP1 SLOAD PUSH1 0x1 PUSH1 0x1 PUSH1 0xA0 SHL SUB SWAP1 SWAP3 AND PUSH1 0x1 PUSH1 0x1 PUSH1 0xA0 SHL SUB NOT SWAP3 DUP4 AND DUP2 OR SWAP1 SWAP2 SSTORE PUSH1 0x0 DUP1 SLOAD SWAP1 SWAP3 AND OR SWAP1 SSTORE PUSH2 0x8E JUMP JUMPDEST PUSH1 0x0 PUSH1 0x20 DUP3 DUP5 SUB SLT ISZERO PUSH2 0x70 JUMPI PUSH1 0x0 DUP1 REVERT JUMPDEST DUP2 MLOAD PUSH1 0x1 PUSH1 0x1 PUSH1 0xA0 SHL SUB DUP2 AND DUP2 EQ PUSH2 0x87 JUMPI PUSH1 0x0 DUP1 REVERT JUMPDEST SWAP4 SWAP3 POP POP POP JUMP JUMPDEST PUSH2 0x1ED DUP1 PUSH2 0x9D PUSH1 0x0 CODECOPY PUSH1 0x0 RETURN INVALID PUSH1 0x80 PUSH1 0x40 MSTORE CALLVALUE DUP1 ISZERO PUSH2 0x10 JUMPI PUSH1 0x0 DUP1 REVERT JUMPDEST POP PUSH1 0x4 CALLDATASIZE LT PUSH2 0x36 JUMPI PUSH1 0x0 CALLDATALOAD PUSH1 0xE0 SHR DUP1 PUSH4 0x8E15F473 EQ PUSH2 0x3B JUMPI DUP1 PUSH4 0xC338287F EQ PUSH2 0x55 JUMPI JUMPDEST PUSH1 0x0 DUP1 REVERT JUMPDEST PUSH2 0x43 PUSH2 0x5D JUMP JUMPDEST PUSH1 0x40 MLOAD SWAP1 DUP2 MSTORE PUSH1 0x20 ADD PUSH1 0x40 MLOAD DUP1 SWAP2 SUB SWAP1 RETURN JUMPDEST PUSH2 0x43 PUSH2 0xD6 JUMP JUMPDEST PUSH1 0x0 DUP1 SLOAD PUSH1 0x40 DUP1 MLOAD PUSH4 0x3FABE5A3 PUSH1 0xE2 SHL DUP2 MSTORE SWAP1 MLOAD DUP4 SWAP3 PUSH1 0x1 PUSH1 0x1 PUSH1 0xA0 SHL SUB AND SWAP2 PUSH4 0xFEAF968C SWAP2 PUSH1 0x4 DUP1 DUP4 ADD SWAP3 PUSH1 0xA0 SWAP3 SWAP2 SWAP1 DUP3 SWAP1 SUB ADD DUP2 DUP7 GAS STATICCALL ISZERO DUP1 ISZERO PUSH2 0xA7 JUMPI RETURNDATASIZE PUSH1 0x0 DUP1 RETURNDATACOPY RETURNDATASIZE PUSH1 0x0 REVERT JUMPDEST POP POP POP POP PUSH1 0x40 MLOAD RETURNDATASIZE PUSH1 0x1F NOT PUSH1 0x1F DUP3 ADD AND DUP3 ADD DUP1 PUSH1 0x40 MSTORE POP DUP2 ADD SWAP1 PUSH2 0xCB SWAP2 SWAP1 PUSH2 0x11D JUMP JUMPDEST POP SWAP2 SWAP6 SWAP5 POP POP POP POP POP JUMP JUMPDEST PUSH1 0x0 DUP1 PUSH2 0xE1 PUSH2 0x5D JUMP JUMPDEST SWAP1 POP PUSH2 0xF8 DUP2 PUSH11 0x52B7D2DCC80CD2E4000000 PUSH2 0x16D JUMP JUMPDEST SWAP2 POP POP SWAP1 JUMP JUMPDEST DUP1 MLOAD PUSH10 0xFFFFFFFFFFFFFFFFFFFF DUP2 AND DUP2 EQ PUSH2 0x118 JUMPI PUSH1 0x0 DUP1 REVERT JUMPDEST SWAP2 SWAP1 POP JUMP JUMPDEST PUSH1 0x0 DUP1 PUSH1 0x0 DUP1 PUSH1 0x0 PUSH1 0xA0 DUP7 DUP9 SUB SLT ISZERO PUSH2 0x135 JUMPI PUSH1 0x0 DUP1 REVERT JUMPDEST PUSH2 0x13E DUP7 PUSH2 0xFE JUMP JUMPDEST SWAP5 POP PUSH1 0x20 DUP7 ADD MLOAD SWAP4 POP PUSH1 0x40 DUP7 ADD MLOAD SWAP3 POP PUSH1 0x60 DUP7 ADD MLOAD SWAP2 POP PUSH2 0x161 PUSH1 0x80 DUP8 ADD PUSH2 0xFE JUMP JUMPDEST SWAP1 POP SWAP3 SWAP6 POP SWAP3 SWAP6 SWAP1 SWAP4 POP JUMP JUMPDEST PUSH1 0x0 DUP3 PUSH2 0x18A JUMPI PUSH4 0x4E487B71 PUSH1 0xE0 SHL PUSH1 0x0 MSTORE PUSH1 0x12 PUSH1 0x4 MSTORE PUSH1 0x24 PUSH1 0x0 REVERT JUMPDEST PUSH1 0x1 PUSH1 0xFF SHL DUP3 EQ PUSH1 0x0 NOT DUP5 EQ AND ISZERO PUSH2 0x1B2 JUMPI PUSH4 0x4E487B71 PUSH1 0xE0 SHL PUSH1 0x0 MSTORE PUSH1 0x11 PUSH1 0x4 MSTORE PUSH1 0x24 PUSH1 0x0 REVERT JUMPDEST POP SDIV SWAP1 JUMP INVALID LOG2 PUSH5 0x6970667358 0x22 SLT KECCAK256 NUMBER SWAP1 0xB3 PUSH15 0xC61A0879D55736BC09D9714B34CD68 0xC4 SUB ADDRESS CALLCODE 0xCE PUSH31 0x120E855D7B019464736F6C634300080A003300000000000000000000000000 "
				},
				"gasEstimates": {
					"creation": {
						"codeDepositCost": "98600",
						"executionCost": "infinite",
						"totalCost": "infinite"
					},
					"external": {
						"getLatestPrice()": "infinite",
						"getUSDPrice()": "infinite"
					}
				},
				"methodIdentifiers": {
					"getLatestPrice()": "8e15f473",
					"getUSDPrice()": "c338287f"
				}
			},
			"userdoc": {
				"kind": "user",
				"methods": {},
				"version": 1
			}
		}
	}
}