{
	"FeeManager.sol": {
		"FeeManager": {
			"abi": [
				{
					"anonymous": false,
					"inputs": [
						{
							"indexed": true,
							"internalType": "uint256",
							"name": "fee",
							"type": "uint256"
						},
						{
							"indexed": true,
							"internalType": "uint256",
							"name": "_cancelFee",
							"type": "uint256"
						},
						{
							"indexed": true,
							"internalType": "uint256",
							"name": "_acceptFee",
							"type": "uint256"
						}
					],
					"name": "Fee",
					"type": "event"
				},
				{
					"anonymous": false,
					"inputs": [
						{
							"indexed": true,
							"internalType": "address",
							"name": "holder",
							"type": "address"
						}
					],
					"name": "Holder",
					"type": "event"
				},
				{
					"anonymous": false,
					"inputs": [
						{
							"indexed": true,
							"internalType": "address",
							"name": "oracle",
							"type": "address"
						}
					],
					"name": "Oracle",
					"type": "event"
				},
				{
					"anonymous": false,
					"inputs": [
						{
							"indexed": true,
							"internalType": "address",
							"name": "previousOwner",
							"type": "address"
						},
						{
							"indexed": true,
							"internalType": "address",
							"name": "newOwner",
							"type": "address"
						}
					],
					"name": "OwnershipTransferred",
					"type": "event"
				},
				{
					"anonymous": false,
					"inputs": [
						{
							"indexed": false,
							"internalType": "address",
							"name": "account",
							"type": "address"
						}
					],
					"name": "Paused",
					"type": "event"
				},
				{
					"anonymous": false,
					"inputs": [
						{
							"indexed": false,
							"internalType": "address",
							"name": "account",
							"type": "address"
						}
					],
					"name": "Unpaused",
					"type": "event"
				},
				{
					"inputs": [],
					"name": "acceptFee",
					"outputs": [
						{
							"internalType": "uint256",
							"name": "",
							"type": "uint256"
						}
					],
					"stateMutability": "view",
					"type": "function"
				},
				{
					"inputs": [],
					"name": "cancelFee",
					"outputs": [
						{
							"internalType": "uint256",
							"name": "",
							"type": "uint256"
						}
					],
					"stateMutability": "view",
					"type": "function"
				},
				{
					"inputs": [],
					"name": "fee",
					"outputs": [
						{
							"internalType": "uint256",
							"name": "",
							"type": "uint256"
						}
					],
					"stateMutability": "view",
					"type": "function"
				},
				{
					"inputs": [],
					"name": "owner",
					"outputs": [
						{
							"internalType": "address",
							"name": "",
							"type": "address"
						}
					],
					"stateMutability": "view",
					"type": "function"
				},
				{
					"inputs": [],
					"name": "paused",
					"outputs": [
						{
							"internalType": "bool",
							"name": "",
							"type": "bool"
						}
					],
					"stateMutability": "view",
					"type": "function"
				},
				{
					"inputs": [],
					"name": "renounceOwnership",
					"outputs": [],
					"stateMutability": "nonpayable",
					"type": "function"
				},
				{
					"inputs": [
						{
							"internalType": "uint256",
							"name": "_acceptFee",
							"type": "uint256"
						}
					],
					"name": "setAcceptFee",
					"outputs": [
						{
							"internalType": "bool",
							"name": "",
							"type": "bool"
						}
					],
					"stateMutability": "nonpayable",
					"type": "function"
				},
				{
					"inputs": [
						{
							"internalType": "uint256",
							"name": "_cancelFee",
							"type": "uint256"
						}
					],
					"name": "setCancelFee",
					"outputs": [
						{
							"internalType": "bool",
							"name": "",
							"type": "bool"
						}
					],
					"stateMutability": "nonpayable",
					"type": "function"
				},
				{
					"inputs": [
						{
							"internalType": "uint256",
							"name": "_fee",
							"type": "uint256"
						}
					],
					"name": "setFee",
					"outputs": [
						{
							"internalType": "bool",
							"name": "",
							"type": "bool"
						}
					],
					"stateMutability": "nonpayable",
					"type": "function"
				},
				{
					"inputs": [
						{
							"internalType": "address payable",
							"name": "newHolder",
							"type": "address"
						}
					],
					"name": "setHolder",
					"outputs": [
						{
							"internalType": "bool",
							"name": "",
							"type": "bool"
						}
					],
					"stateMutability": "nonpayable",
					"type": "function"
				},
				{
					"inputs": [
						{
							"internalType": "address",
							"name": "newOracle",
							"type": "address"
						}
					],
					"name": "setOracle",
					"outputs": [
						{
							"internalType": "bool",
							"name": "",
							"type": "bool"
						}
					],
					"stateMutability": "nonpayable",
					"type": "function"
				},
				{
					"inputs": [
						{
							"internalType": "address",
							"name": "newOwner",
							"type": "address"
						}
					],
					"name": "transferOwnership",
					"outputs": [],
					"stateMutability": "nonpayable",
					"type": "function"
				}
			],
			"devdoc": {
				"details": "_Available since v1.0",
				"kind": "dev",
				"methods": {
					"owner()": {
						"details": "Returns the address of the current owner."
					},
					"paused()": {
						"details": "Returns true if the contract is paused, and false otherwise."
					},
					"renounceOwnership()": {
						"details": "Leaves the contract without owner. It will not be possible to call `onlyOwner` functions anymore. Can only be called by the current owner. NOTE: Renouncing ownership will leave the contract without an owner, thereby removing any functionality that is only available to the owner."
					},
					"setAcceptFee(uint256)": {
						"params": {
							"_acceptFee": "is the amount in USD"
						}
					},
					"transferOwnership(address)": {
						"details": "Transfers ownership of the contract to a new account (`newOwner`). Can only be called by the current owner."
					}
				},
				"version": 1
			},
			"evm": {
				"assembly": "    /* \"FeeManager.sol\":290:2610  contract FeeManager is Pausable(), Ownable {... */\n  mstore(0x40, 0x80)\n    /* \"FeeManager.sol\":370:371  1 */\n  0x01\n    /* \"FeeManager.sol\":340:371  uint256 private SERVICE_FEE = 1 */\n  dup1\n  sstore\n    /* \"FeeManager.sol\":415:416  2 */\n  0x02\n    /* \"FeeManager.sol\":378:416  uint256 private SERVICE_FEE_CANCEL = 2 */\n  dup1\n  sstore\n    /* \"FeeManager.sol\":460:461  2 */\n  0x02\n    /* \"FeeManager.sol\":423:461  uint256 private SERVICE_FEE_ACCEPT = 2 */\n  0x03\n  sstore\n    /* \"FeeManager.sol\":290:2610  contract FeeManager is Pausable(), Ownable {... */\n  callvalue\n  dup1\n  iszero\n  tag_1\n  jumpi\n  0x00\n  dup1\n  revert\ntag_1:\n  pop\n    /* \"@openzeppelin/contracts/security/Pausable.sol\":991:996  false */\n  0x00\n    /* \"@openzeppelin/contracts/security/Pausable.sol\":981:996  _paused = false */\n  dup1\n  sload\n  not(0xff)\n  and\n  swap1\n  sstore\n    /* \"@openzeppelin/contracts/access/Ownable.sol\":921:953  _transferOwnership(_msgSender()) */\n  tag_6\n    /* \"@openzeppelin/contracts/utils/Context.sol\":719:729  msg.sender */\n  caller\n    /* \"@openzeppelin/contracts/access/Ownable.sol\":921:939  _transferOwnership */\n  tag_9\n    /* \"@openzeppelin/contracts/access/Ownable.sol\":921:953  _transferOwnership(_msgSender()) */\n  jump\t// in\ntag_6:\n    /* \"FeeManager.sol\":290:2610  contract FeeManager is Pausable(), Ownable {... */\n  jump(tag_10)\n    /* \"@openzeppelin/contracts/access/Ownable.sol\":2270:2457  function _transferOwnership(address newOwner) internal virtual {... */\ntag_9:\n    /* \"@openzeppelin/contracts/access/Ownable.sol\":2343:2359  address oldOwner */\n  0x00\n    /* \"@openzeppelin/contracts/access/Ownable.sol\":2362:2368  _owner */\n  dup1\n  sload\n  sub(shl(0xa0, 0x01), 0x01)\n    /* \"@openzeppelin/contracts/access/Ownable.sol\":2378:2395  _owner = newOwner */\n  dup4\n  dup2\n  and\n    /* \"@openzeppelin/contracts/access/Ownable.sol\":2362:2368  _owner */\n  0x0100\n    /* \"@openzeppelin/contracts/access/Ownable.sol\":2378:2395  _owner = newOwner */\n  dup2\n  dup2\n  mul\n  not(sub(shl(0xa8, 0x01), 0x0100))\n  dup6\n  and\n  or\n  dup6\n  sstore\n    /* \"@openzeppelin/contracts/access/Ownable.sol\":2410:2450  OwnershipTransferred(oldOwner, newOwner) */\n  mload(0x40)\n    /* \"@openzeppelin/contracts/access/Ownable.sol\":2362:2368  _owner */\n  swap4\n  div\n  swap2\n  swap1\n  swap2\n  and\n  swap3\n    /* \"@openzeppelin/contracts/access/Ownable.sol\":2378:2395  _owner = newOwner */\n  swap1\n  swap2\n    /* \"@openzeppelin/contracts/access/Ownable.sol\":2362:2368  _owner */\n  dup4\n  swap2\n    /* \"@openzeppelin/contracts/access/Ownable.sol\":2410:2450  OwnershipTransferred(oldOwner, newOwner) */\n  0x8be0079c531659141344cd1fd0a4f28419497f9722a3daafe3b4186f6b6457e0\n  swap2\n  log3\n    /* \"@openzeppelin/contracts/access/Ownable.sol\":2333:2457  {... */\n  pop\n    /* \"@openzeppelin/contracts/access/Ownable.sol\":2270:2457  function _transferOwnership(address newOwner) internal virtual {... */\n  pop\n  jump\t// out\n    /* \"FeeManager.sol\":290:2610  contract FeeManager is Pausable(), Ownable {... */\ntag_10:\n  dataSize(sub_0)\n  dup1\n  dataOffset(sub_0)\n  0x00\n  codecopy\n  0x00\n  return\nstop\n\nsub_0: assembly {\n        /* \"FeeManager.sol\":290:2610  contract FeeManager is Pausable(), Ownable {... */\n      mstore(0x40, 0x80)\n      callvalue\n      dup1\n      iszero\n      tag_1\n      jumpi\n      0x00\n      dup1\n      revert\n    tag_1:\n      pop\n      jumpi(tag_2, lt(calldatasize, 0x04))\n      shr(0xe0, calldataload(0x00))\n      dup1\n      0x8da5cb5b\n      gt\n      tag_15\n      jumpi\n      dup1\n      0x8da5cb5b\n      eq\n      tag_9\n      jumpi\n      dup1\n      0xbff098b4\n      eq\n      tag_10\n      jumpi\n      dup1\n      0xc2fffd6b\n      eq\n      tag_11\n      jumpi\n      dup1\n      0xd979f5aa\n      eq\n      tag_12\n      jumpi\n      dup1\n      0xddca3f43\n      eq\n      tag_13\n      jumpi\n      dup1\n      0xf2fde38b\n      eq\n      tag_14\n      jumpi\n      0x00\n      dup1\n      revert\n    tag_15:\n      dup1\n      0x14025dcd\n      eq\n      tag_3\n      jumpi\n      dup1\n      0x3abecc49\n      eq\n      tag_4\n      jumpi\n      dup1\n      0x5c975abb\n      eq\n      tag_5\n      jumpi\n      dup1\n      0x69fe0e2d\n      eq\n      tag_6\n      jumpi\n      dup1\n      0x715018a6\n      eq\n      tag_7\n      jumpi\n      dup1\n      0x7adbf973\n      eq\n      tag_8\n      jumpi\n    tag_2:\n      0x00\n      dup1\n      revert\n        /* \"FeeManager.sol\":1882:2007  function cancelFee() public view returns(uint256) {... */\n    tag_3:\n      tag_16\n      tag_17\n      jump\t// in\n    tag_16:\n      mload(0x40)\n        /* \"#utility.yul\":160:185   */\n      swap1\n      dup2\n      mstore\n        /* \"#utility.yul\":148:150   */\n      0x20\n        /* \"#utility.yul\":133:151   */\n      add\n        /* \"FeeManager.sol\":1882:2007  function cancelFee() public view returns(uint256) {... */\n    tag_18:\n      mload(0x40)\n      dup1\n      swap2\n      sub\n      swap1\n      return\n        /* \"FeeManager.sol\":1749:1874  function acceptFee() public view returns(uint256) {... */\n    tag_4:\n      tag_16\n      tag_21\n      jump\t// in\n        /* \"@openzeppelin/contracts/security/Pausable.sol\":1098:1182  function paused() public view virtual returns (bool) {... */\n    tag_5:\n        /* \"@openzeppelin/contracts/security/Pausable.sol\":1145:1149  bool */\n      0x00\n        /* \"@openzeppelin/contracts/security/Pausable.sol\":1168:1175  _paused */\n      sload\n      0xff\n      and\n        /* \"@openzeppelin/contracts/security/Pausable.sol\":1098:1182  function paused() public view virtual returns (bool) {... */\n    tag_23:\n      mload(0x40)\n        /* \"#utility.yul\":361:375   */\n      swap1\n      iszero\n        /* \"#utility.yul\":354:376   */\n      iszero\n        /* \"#utility.yul\":336:377   */\n      dup2\n      mstore\n        /* \"#utility.yul\":324:326   */\n      0x20\n        /* \"#utility.yul\":309:327   */\n      add\n        /* \"@openzeppelin/contracts/security/Pausable.sol\":1098:1182  function paused() public view virtual returns (bool) {... */\n      tag_18\n        /* \"#utility.yul\":196:383   */\n      jump\n        /* \"FeeManager.sol\":1551:1741  function setFee(uint256 _fee) public onlyOwner returns(bool) {... */\n    tag_6:\n      tag_23\n      tag_28\n      calldatasize\n      0x04\n      tag_29\n      jump\t// in\n    tag_28:\n      tag_30\n      jump\t// in\n        /* \"@openzeppelin/contracts/access/Ownable.sol\":1668:1769  function renounceOwnership() public virtual onlyOwner {... */\n    tag_7:\n      tag_32\n      tag_33\n      jump\t// in\n    tag_32:\n      stop\n        /* \"FeeManager.sol\":2309:2487  function setOracle(address newOracle) public onlyOwner returns(bool) {... */\n    tag_8:\n      tag_23\n      tag_35\n      calldatasize\n      0x04\n      tag_36\n      jump\t// in\n    tag_35:\n      tag_37\n      jump\t// in\n        /* \"@openzeppelin/contracts/access/Ownable.sol\":1036:1121  function owner() public view virtual returns (address) {... */\n    tag_9:\n        /* \"@openzeppelin/contracts/access/Ownable.sol\":1082:1089  address */\n      0x00\n        /* \"@openzeppelin/contracts/access/Ownable.sol\":1108:1114  _owner */\n      sload\n      0x0100\n      swap1\n      div\n      sub(shl(0xa0, 0x01), 0x01)\n      and\n        /* \"@openzeppelin/contracts/access/Ownable.sol\":1036:1121  function owner() public view virtual returns (address) {... */\n      mload(0x40)\n      sub(shl(0xa0, 0x01), 0x01)\n        /* \"#utility.yul\":1125:1157   */\n      swap1\n      swap2\n      and\n        /* \"#utility.yul\":1107:1158   */\n      dup2\n      mstore\n        /* \"#utility.yul\":1095:1097   */\n      0x20\n        /* \"#utility.yul\":1080:1098   */\n      add\n        /* \"@openzeppelin/contracts/access/Ownable.sol\":1036:1121  function owner() public view virtual returns (address) {... */\n      tag_18\n        /* \"#utility.yul\":961:1164   */\n      jump\n        /* \"FeeManager.sol\":1017:1233  function setAcceptFee(uint256 _acceptFee) public onlyOwner  returns(bool) {... */\n    tag_10:\n      tag_23\n      tag_44\n      calldatasize\n      0x04\n      tag_29\n      jump\t// in\n    tag_44:\n      tag_45\n      jump\t// in\n        /* \"FeeManager.sol\":1286:1502  function setCancelFee(uint256 _cancelFee) public onlyOwner  returns(bool) {... */\n    tag_11:\n      tag_23\n      tag_48\n      calldatasize\n      0x04\n      tag_29\n      jump\t// in\n    tag_48:\n      tag_49\n      jump\t// in\n        /* \"FeeManager.sol\":2135:2301  function setHolder(address payable newHolder) public onlyOwner returns(bool) {... */\n    tag_12:\n      tag_23\n      tag_52\n      calldatasize\n      0x04\n      tag_36\n      jump\t// in\n    tag_52:\n      tag_54\n      jump\t// in\n        /* \"FeeManager.sol\":2015:2127  function fee() public view returns(uint256) {... */\n    tag_13:\n      tag_16\n      tag_57\n      jump\t// in\n        /* \"@openzeppelin/contracts/access/Ownable.sol\":1918:2116  function transferOwnership(address newOwner) public virtual onlyOwner {... */\n    tag_14:\n      tag_32\n      tag_60\n      calldatasize\n      0x04\n      tag_36\n      jump\t// in\n    tag_60:\n      tag_61\n      jump\t// in\n        /* \"FeeManager.sol\":1882:2007  function cancelFee() public view returns(uint256) {... */\n    tag_17:\n        /* \"FeeManager.sol\":1923:1930  uint256 */\n      0x00\n        /* \"FeeManager.sol\":1981:1999  SERVICE_FEE_CANCEL */\n      sload(0x02)\n        /* \"FeeManager.sol\":1974:1977  100 */\n      0x64\n        /* \"FeeManager.sol\":1951:1957  oracle */\n      0x05\n      0x00\n      swap1\n      sload\n      swap1\n      0x0100\n      exp\n      swap1\n      div\n      sub(shl(0xa0, 0x01), 0x01)\n      and\n      sub(shl(0xa0, 0x01), 0x01)\n        /* \"FeeManager.sol\":1951:1969  oracle.getUSDPrice */\n      and\n      0xc338287f\n        /* \"FeeManager.sol\":1951:1971  oracle.getUSDPrice() */\n      mload(0x40)\n      dup2\n      0xffffffff\n      and\n      0xe0\n      shl\n      dup2\n      mstore\n      0x04\n      add\n      0x20\n      mload(0x40)\n      dup1\n      dup4\n      sub\n      dup2\n      dup7\n      gas\n      staticcall\n      iszero\n      dup1\n      iszero\n      tag_64\n      jumpi\n      returndatasize\n      0x00\n      dup1\n      returndatacopy\n      revert(0x00, returndatasize)\n    tag_64:\n      pop\n      pop\n      pop\n      pop\n      mload(0x40)\n      returndatasize\n      not(0x1f)\n      0x1f\n      dup3\n      add\n      and\n      dup3\n      add\n      dup1\n      0x40\n      mstore\n      pop\n      dup2\n      add\n      swap1\n      tag_65\n      swap2\n      swap1\n      tag_66\n      jump\t// in\n    tag_65:\n        /* \"FeeManager.sol\":1951:1977  oracle.getUSDPrice() / 100 */\n      tag_67\n      swap2\n      swap1\n      tag_68\n      jump\t// in\n    tag_67:\n        /* \"FeeManager.sol\":1950:1999  (oracle.getUSDPrice() / 100) * SERVICE_FEE_CANCEL */\n      tag_69\n      swap2\n      swap1\n      tag_70\n      jump\t// in\n    tag_69:\n        /* \"FeeManager.sol\":1943:1999  return (oracle.getUSDPrice() / 100) * SERVICE_FEE_CANCEL */\n      swap1\n      pop\n        /* \"FeeManager.sol\":1882:2007  function cancelFee() public view returns(uint256) {... */\n      swap1\n      jump\t// out\n        /* \"FeeManager.sol\":1749:1874  function acceptFee() public view returns(uint256) {... */\n    tag_21:\n        /* \"FeeManager.sol\":1790:1797  uint256 */\n      0x00\n        /* \"FeeManager.sol\":1848:1866  SERVICE_FEE_ACCEPT */\n      sload(0x03)\n        /* \"FeeManager.sol\":1841:1844  100 */\n      0x64\n        /* \"FeeManager.sol\":1818:1824  oracle */\n      0x05\n      0x00\n      swap1\n      sload\n      swap1\n      0x0100\n      exp\n      swap1\n      div\n      sub(shl(0xa0, 0x01), 0x01)\n      and\n      sub(shl(0xa0, 0x01), 0x01)\n        /* \"FeeManager.sol\":1818:1836  oracle.getUSDPrice */\n      and\n      0xc338287f\n        /* \"FeeManager.sol\":1818:1838  oracle.getUSDPrice() */\n      mload(0x40)\n      dup2\n      0xffffffff\n      and\n      0xe0\n      shl\n      dup2\n      mstore\n      0x04\n      add\n      0x20\n      mload(0x40)\n      dup1\n      dup4\n      sub\n      dup2\n      dup7\n      gas\n      staticcall\n      iszero\n      dup1\n      iszero\n      tag_64\n      jumpi\n      returndatasize\n      0x00\n      dup1\n      returndatacopy\n      revert(0x00, returndatasize)\n        /* \"FeeManager.sol\":1551:1741  function setFee(uint256 _fee) public onlyOwner returns(bool) {... */\n    tag_30:\n        /* \"FeeManager.sol\":1606:1610  bool */\n      0x00\n        /* \"@openzeppelin/contracts/access/Ownable.sol\":1108:1114  _owner */\n      dup1\n      sload\n      sub(shl(0xa0, 0x01), 0x01)\n      0x0100\n      swap1\n      swap2\n      div\n      and\n        /* \"@openzeppelin/contracts/utils/Context.sol\":719:729  msg.sender */\n      caller\n        /* \"@openzeppelin/contracts/access/Ownable.sol\":1248:1271  owner() == _msgSender() */\n      eq\n        /* \"@openzeppelin/contracts/access/Ownable.sol\":1240:1308  require(owner() == _msgSender(), \"Ownable: caller is not the owner\") */\n      tag_82\n      jumpi\n      mload(0x40)\n      shl(0xe5, 0x461bcd)\n      dup2\n      mstore\n      0x04\n      add\n      tag_83\n      swap1\n      tag_84\n      jump\t// in\n    tag_83:\n      mload(0x40)\n      dup1\n      swap2\n      sub\n      swap1\n      revert\n    tag_82:\n        /* \"FeeManager.sol\":1623:1634  SERVICE_FEE */\n      0x01\n        /* \"FeeManager.sol\":1623:1641  SERVICE_FEE = _fee */\n      dup3\n      swap1\n      sstore\n        /* \"FeeManager.sol\":1692:1710  SERVICE_FEE_ACCEPT */\n      sload(0x03)\n        /* \"FeeManager.sol\":1673:1691  SERVICE_FEE_CANCEL */\n      sload(0x02)\n        /* \"FeeManager.sol\":1657:1711  Fee(SERVICE_FEE,SERVICE_FEE_CANCEL,SERVICE_FEE_ACCEPT) */\n      mload(0x40)\n        /* \"FeeManager.sol\":1637:1641  _fee */\n      dup5\n      swap1\n        /* \"FeeManager.sol\":1657:1711  Fee(SERVICE_FEE,SERVICE_FEE_CANCEL,SERVICE_FEE_ACCEPT) */\n      0x7db2709f6e7adf14b75ac6a4bc01b5f3ff9000017f9648c2b70f6ca8616d8f57\n      swap1\n      0x00\n      swap1\n      log4\n      pop\n        /* \"FeeManager.sol\":1729:1733  true */\n      0x01\n        /* \"FeeManager.sol\":1551:1741  function setFee(uint256 _fee) public onlyOwner returns(bool) {... */\n      swap2\n      swap1\n      pop\n      jump\t// out\n        /* \"@openzeppelin/contracts/access/Ownable.sol\":1668:1769  function renounceOwnership() public virtual onlyOwner {... */\n    tag_33:\n        /* \"@openzeppelin/contracts/access/Ownable.sol\":1082:1089  address */\n      0x00\n        /* \"@openzeppelin/contracts/access/Ownable.sol\":1108:1114  _owner */\n      sload\n      sub(shl(0xa0, 0x01), 0x01)\n      0x0100\n      swap1\n      swap2\n      div\n      and\n        /* \"@openzeppelin/contracts/utils/Context.sol\":719:729  msg.sender */\n      caller\n        /* \"@openzeppelin/contracts/access/Ownable.sol\":1248:1271  owner() == _msgSender() */\n      eq\n        /* \"@openzeppelin/contracts/access/Ownable.sol\":1240:1308  require(owner() == _msgSender(), \"Ownable: caller is not the owner\") */\n      tag_89\n      jumpi\n      mload(0x40)\n      shl(0xe5, 0x461bcd)\n      dup2\n      mstore\n      0x04\n      add\n      tag_83\n      swap1\n      tag_84\n      jump\t// in\n    tag_89:\n        /* \"@openzeppelin/contracts/access/Ownable.sol\":1732:1762  _transferOwnership(address(0)) */\n      tag_92\n        /* \"@openzeppelin/contracts/access/Ownable.sol\":1759:1760  0 */\n      0x00\n        /* \"@openzeppelin/contracts/access/Ownable.sol\":1732:1750  _transferOwnership */\n      tag_93\n        /* \"@openzeppelin/contracts/access/Ownable.sol\":1732:1762  _transferOwnership(address(0)) */\n      jump\t// in\n    tag_92:\n        /* \"@openzeppelin/contracts/access/Ownable.sol\":1668:1769  function renounceOwnership() public virtual onlyOwner {... */\n      jump\t// out\n        /* \"FeeManager.sol\":2309:2487  function setOracle(address newOracle) public onlyOwner returns(bool) {... */\n    tag_37:\n        /* \"FeeManager.sol\":2372:2376  bool */\n      0x00\n        /* \"@openzeppelin/contracts/access/Ownable.sol\":1108:1114  _owner */\n      dup1\n      sload\n      sub(shl(0xa0, 0x01), 0x01)\n      0x0100\n      swap1\n      swap2\n      div\n      and\n        /* \"@openzeppelin/contracts/utils/Context.sol\":719:729  msg.sender */\n      caller\n        /* \"@openzeppelin/contracts/access/Ownable.sol\":1248:1271  owner() == _msgSender() */\n      eq\n        /* \"@openzeppelin/contracts/access/Ownable.sol\":1240:1308  require(owner() == _msgSender(), \"Ownable: caller is not the owner\") */\n      tag_97\n      jumpi\n      mload(0x40)\n      shl(0xe5, 0x461bcd)\n      dup2\n      mstore\n      0x04\n      add\n      tag_83\n      swap1\n      tag_84\n      jump\t// in\n    tag_97:\n        /* \"FeeManager.sol\":2389:2395  oracle */\n      0x05\n        /* \"FeeManager.sol\":2389:2424  oracle = ChainLinkOracle(newOracle) */\n      dup1\n      sload\n      not(sub(shl(0xa0, 0x01), 0x01))\n      and\n      sub(shl(0xa0, 0x01), 0x01)\n      dup5\n      and\n      swap1\n      dup2\n      or\n      swap1\n      swap2\n      sstore\n        /* \"FeeManager.sol\":2440:2457  Oracle(newOracle) */\n      mload(0x40)\n      0x6d4881172853e787189216de6d514b739b8ad6a331e19518c66d3dc2b93639b5\n      swap1\n      0x00\n      swap1\n      log2\n      pop\n        /* \"FeeManager.sol\":2475:2479  true */\n      0x01\n        /* \"FeeManager.sol\":2309:2487  function setOracle(address newOracle) public onlyOwner returns(bool) {... */\n      swap2\n      swap1\n      pop\n      jump\t// out\n        /* \"FeeManager.sol\":1017:1233  function setAcceptFee(uint256 _acceptFee) public onlyOwner  returns(bool) {... */\n    tag_45:\n        /* \"FeeManager.sol\":1085:1089  bool */\n      0x00\n        /* \"@openzeppelin/contracts/access/Ownable.sol\":1108:1114  _owner */\n      dup1\n      sload\n      sub(shl(0xa0, 0x01), 0x01)\n      0x0100\n      swap1\n      swap2\n      div\n      and\n        /* \"@openzeppelin/contracts/utils/Context.sol\":719:729  msg.sender */\n      caller\n        /* \"@openzeppelin/contracts/access/Ownable.sol\":1248:1271  owner() == _msgSender() */\n      eq\n        /* \"@openzeppelin/contracts/access/Ownable.sol\":1240:1308  require(owner() == _msgSender(), \"Ownable: caller is not the owner\") */\n      tag_104\n      jumpi\n      mload(0x40)\n      shl(0xe5, 0x461bcd)\n      dup2\n      mstore\n      0x04\n      add\n      tag_83\n      swap1\n      tag_84\n      jump\t// in\n    tag_104:\n        /* \"FeeManager.sol\":1102:1120  SERVICE_FEE_ACCEPT */\n      0x03\n        /* \"FeeManager.sol\":1102:1133  SERVICE_FEE_ACCEPT = _acceptFee */\n      dup3\n      swap1\n      sstore\n        /* \"FeeManager.sol\":1165:1183  SERVICE_FEE_CANCEL */\n      sload(0x02)\n        /* \"FeeManager.sol\":1153:1164  SERVICE_FEE */\n      sload(0x01)\n        /* \"FeeManager.sol\":1149:1203  Fee(SERVICE_FEE,SERVICE_FEE_CANCEL,SERVICE_FEE_ACCEPT) */\n      mload(0x40)\n        /* \"FeeManager.sol\":1123:1133  _acceptFee */\n      dup5\n      swap3\n        /* \"FeeManager.sol\":1165:1183  SERVICE_FEE_CANCEL */\n      swap2\n        /* \"FeeManager.sol\":1153:1164  SERVICE_FEE */\n      swap1\n        /* \"FeeManager.sol\":1149:1203  Fee(SERVICE_FEE,SERVICE_FEE_CANCEL,SERVICE_FEE_ACCEPT) */\n      0x7db2709f6e7adf14b75ac6a4bc01b5f3ff9000017f9648c2b70f6ca8616d8f57\n      swap1\n      0x00\n      swap1\n      log4\n      pop\n        /* \"FeeManager.sol\":1221:1225  true */\n      0x01\n        /* \"FeeManager.sol\":1017:1233  function setAcceptFee(uint256 _acceptFee) public onlyOwner  returns(bool) {... */\n      swap2\n      swap1\n      pop\n      jump\t// out\n        /* \"FeeManager.sol\":1286:1502  function setCancelFee(uint256 _cancelFee) public onlyOwner  returns(bool) {... */\n    tag_49:\n        /* \"FeeManager.sol\":1354:1358  bool */\n      0x00\n        /* \"@openzeppelin/contracts/access/Ownable.sol\":1108:1114  _owner */\n      dup1\n      sload\n      sub(shl(0xa0, 0x01), 0x01)\n      0x0100\n      swap1\n      swap2\n      div\n      and\n        /* \"@openzeppelin/contracts/utils/Context.sol\":719:729  msg.sender */\n      caller\n        /* \"@openzeppelin/contracts/access/Ownable.sol\":1248:1271  owner() == _msgSender() */\n      eq\n        /* \"@openzeppelin/contracts/access/Ownable.sol\":1240:1308  require(owner() == _msgSender(), \"Ownable: caller is not the owner\") */\n      tag_110\n      jumpi\n      mload(0x40)\n      shl(0xe5, 0x461bcd)\n      dup2\n      mstore\n      0x04\n      add\n      tag_83\n      swap1\n      tag_84\n      jump\t// in\n    tag_110:\n        /* \"FeeManager.sol\":1371:1389  SERVICE_FEE_CANCEL */\n      0x02\n        /* \"FeeManager.sol\":1371:1402  SERVICE_FEE_CANCEL = _cancelFee */\n      dup3\n      swap1\n      sstore\n        /* \"FeeManager.sol\":1453:1471  SERVICE_FEE_ACCEPT */\n      sload(0x03)\n        /* \"FeeManager.sol\":1422:1433  SERVICE_FEE */\n      sload(0x01)\n        /* \"FeeManager.sol\":1418:1472  Fee(SERVICE_FEE,SERVICE_FEE_CANCEL,SERVICE_FEE_ACCEPT) */\n      mload(0x40)\n        /* \"FeeManager.sol\":1392:1402  _cancelFee */\n      dup5\n      swap2\n        /* \"FeeManager.sol\":1422:1433  SERVICE_FEE */\n      swap1\n        /* \"FeeManager.sol\":1418:1472  Fee(SERVICE_FEE,SERVICE_FEE_CANCEL,SERVICE_FEE_ACCEPT) */\n      0x7db2709f6e7adf14b75ac6a4bc01b5f3ff9000017f9648c2b70f6ca8616d8f57\n      swap1\n      0x00\n      swap1\n      log4\n      pop\n        /* \"FeeManager.sol\":1490:1494  true */\n      0x01\n        /* \"FeeManager.sol\":1286:1502  function setCancelFee(uint256 _cancelFee) public onlyOwner  returns(bool) {... */\n      swap2\n      swap1\n      pop\n      jump\t// out\n        /* \"FeeManager.sol\":2135:2301  function setHolder(address payable newHolder) public onlyOwner returns(bool) {... */\n    tag_54:\n        /* \"FeeManager.sol\":2206:2210  bool */\n      0x00\n        /* \"@openzeppelin/contracts/access/Ownable.sol\":1108:1114  _owner */\n      dup1\n      sload\n      sub(shl(0xa0, 0x01), 0x01)\n      0x0100\n      swap1\n      swap2\n      div\n      and\n        /* \"@openzeppelin/contracts/utils/Context.sol\":719:729  msg.sender */\n      caller\n        /* \"@openzeppelin/contracts/access/Ownable.sol\":1248:1271  owner() == _msgSender() */\n      eq\n        /* \"@openzeppelin/contracts/access/Ownable.sol\":1240:1308  require(owner() == _msgSender(), \"Ownable: caller is not the owner\") */\n      tag_116\n      jumpi\n      mload(0x40)\n      shl(0xe5, 0x461bcd)\n      dup2\n      mstore\n      0x04\n      add\n      tag_83\n      swap1\n      tag_84\n      jump\t// in\n    tag_116:\n        /* \"FeeManager.sol\":2223:2229  holder */\n      0x04\n        /* \"FeeManager.sol\":2223:2241  holder = newHolder */\n      dup1\n      sload\n      not(sub(shl(0xa0, 0x01), 0x01))\n      and\n      sub(shl(0xa0, 0x01), 0x01)\n      dup5\n      and\n      swap1\n      dup2\n      or\n      swap1\n      swap2\n      sstore\n        /* \"FeeManager.sol\":2257:2271  Holder(holder) */\n      mload(0x40)\n      0x66743038d969508e26e3d032a34d950971853817a94fd22e88316055e1145bf4\n      swap1\n      0x00\n      swap1\n      log2\n      pop\n        /* \"FeeManager.sol\":2289:2293  true */\n      0x01\n        /* \"FeeManager.sol\":2135:2301  function setHolder(address payable newHolder) public onlyOwner returns(bool) {... */\n      swap2\n      swap1\n      pop\n      jump\t// out\n        /* \"FeeManager.sol\":2015:2127  function fee() public view returns(uint256) {... */\n    tag_57:\n        /* \"FeeManager.sol\":2050:2057  uint256 */\n      0x00\n        /* \"FeeManager.sol\":2108:2119  SERVICE_FEE */\n      sload(0x01)\n        /* \"FeeManager.sol\":2101:2104  100 */\n      0x64\n        /* \"FeeManager.sol\":2078:2084  oracle */\n      0x05\n      0x00\n      swap1\n      sload\n      swap1\n      0x0100\n      exp\n      swap1\n      div\n      sub(shl(0xa0, 0x01), 0x01)\n      and\n      sub(shl(0xa0, 0x01), 0x01)\n        /* \"FeeManager.sol\":2078:2096  oracle.getUSDPrice */\n      and\n      0xc338287f\n        /* \"FeeManager.sol\":2078:2098  oracle.getUSDPrice() */\n      mload(0x40)\n      dup2\n      0xffffffff\n      and\n      0xe0\n      shl\n      dup2\n      mstore\n      0x04\n      add\n      0x20\n      mload(0x40)\n      dup1\n      dup4\n      sub\n      dup2\n      dup7\n      gas\n      staticcall\n      iszero\n      dup1\n      iszero\n      tag_64\n      jumpi\n      returndatasize\n      0x00\n      dup1\n      returndatacopy\n      revert(0x00, returndatasize)\n        /* \"@openzeppelin/contracts/access/Ownable.sol\":1918:2116  function transferOwnership(address newOwner) public virtual onlyOwner {... */\n    tag_61:\n        /* \"@openzeppelin/contracts/access/Ownable.sol\":1082:1089  address */\n      0x00\n        /* \"@openzeppelin/contracts/access/Ownable.sol\":1108:1114  _owner */\n      sload\n      sub(shl(0xa0, 0x01), 0x01)\n      0x0100\n      swap1\n      swap2\n      div\n      and\n        /* \"@openzeppelin/contracts/utils/Context.sol\":719:729  msg.sender */\n      caller\n        /* \"@openzeppelin/contracts/access/Ownable.sol\":1248:1271  owner() == _msgSender() */\n      eq\n        /* \"@openzeppelin/contracts/access/Ownable.sol\":1240:1308  require(owner() == _msgSender(), \"Ownable: caller is not the owner\") */\n      tag_128\n      jumpi\n      mload(0x40)\n      shl(0xe5, 0x461bcd)\n      dup2\n      mstore\n      0x04\n      add\n      tag_83\n      swap1\n      tag_84\n      jump\t// in\n    tag_128:\n      sub(shl(0xa0, 0x01), 0x01)\n        /* \"@openzeppelin/contracts/access/Ownable.sol\":2006:2028  newOwner != address(0) */\n      dup2\n      and\n        /* \"@openzeppelin/contracts/access/Ownable.sol\":1998:2071  require(newOwner != address(0), \"Ownable: new owner is the zero address\") */\n      tag_131\n      jumpi\n      mload(0x40)\n      shl(0xe5, 0x461bcd)\n      dup2\n      mstore\n        /* \"#utility.yul\":2673:2675   */\n      0x20\n        /* \"@openzeppelin/contracts/access/Ownable.sol\":1998:2071  require(newOwner != address(0), \"Ownable: new owner is the zero address\") */\n      0x04\n      dup3\n      add\n        /* \"#utility.yul\":2655:2676   */\n      mstore\n        /* \"#utility.yul\":2712:2714   */\n      0x26\n        /* \"#utility.yul\":2692:2710   */\n      0x24\n      dup3\n      add\n        /* \"#utility.yul\":2685:2715   */\n      mstore\n        /* \"#utility.yul\":2751:2785   */\n      0x4f776e61626c653a206e6577206f776e657220697320746865207a65726f2061\n        /* \"#utility.yul\":2731:2749   */\n      0x44\n      dup3\n      add\n        /* \"#utility.yul\":2724:2786   */\n      mstore\n      shl(0xd0, 0x646472657373)\n        /* \"#utility.yul\":2802:2820   */\n      0x64\n      dup3\n      add\n        /* \"#utility.yul\":2795:2831   */\n      mstore\n        /* \"#utility.yul\":2848:2867   */\n      0x84\n      add\n        /* \"@openzeppelin/contracts/access/Ownable.sol\":1998:2071  require(newOwner != address(0), \"Ownable: new owner is the zero address\") */\n      tag_83\n        /* \"#utility.yul\":2471:2873   */\n      jump\n        /* \"@openzeppelin/contracts/access/Ownable.sol\":1998:2071  require(newOwner != address(0), \"Ownable: new owner is the zero address\") */\n    tag_131:\n        /* \"@openzeppelin/contracts/access/Ownable.sol\":2081:2109  _transferOwnership(newOwner) */\n      tag_134\n        /* \"@openzeppelin/contracts/access/Ownable.sol\":2100:2108  newOwner */\n      dup2\n        /* \"@openzeppelin/contracts/access/Ownable.sol\":2081:2099  _transferOwnership */\n      tag_93\n        /* \"@openzeppelin/contracts/access/Ownable.sol\":2081:2109  _transferOwnership(newOwner) */\n      jump\t// in\n    tag_134:\n        /* \"@openzeppelin/contracts/access/Ownable.sol\":1918:2116  function transferOwnership(address newOwner) public virtual onlyOwner {... */\n      pop\n      jump\t// out\n        /* \"@openzeppelin/contracts/access/Ownable.sol\":2270:2457  function _transferOwnership(address newOwner) internal virtual {... */\n    tag_93:\n        /* \"@openzeppelin/contracts/access/Ownable.sol\":2343:2359  address oldOwner */\n      0x00\n        /* \"@openzeppelin/contracts/access/Ownable.sol\":2362:2368  _owner */\n      dup1\n      sload\n      sub(shl(0xa0, 0x01), 0x01)\n        /* \"@openzeppelin/contracts/access/Ownable.sol\":2378:2395  _owner = newOwner */\n      dup4\n      dup2\n      and\n        /* \"@openzeppelin/contracts/access/Ownable.sol\":2362:2368  _owner */\n      0x0100\n        /* \"@openzeppelin/contracts/access/Ownable.sol\":2378:2395  _owner = newOwner */\n      dup2\n      dup2\n      mul\n      not(sub(shl(0xa8, 0x01), 0x0100))\n      dup6\n      and\n      or\n      dup6\n      sstore\n        /* \"@openzeppelin/contracts/access/Ownable.sol\":2410:2450  OwnershipTransferred(oldOwner, newOwner) */\n      mload(0x40)\n        /* \"@openzeppelin/contracts/access/Ownable.sol\":2362:2368  _owner */\n      swap4\n      div\n      swap2\n      swap1\n      swap2\n      and\n      swap3\n        /* \"@openzeppelin/contracts/access/Ownable.sol\":2378:2395  _owner = newOwner */\n      swap1\n      swap2\n        /* \"@openzeppelin/contracts/access/Ownable.sol\":2362:2368  _owner */\n      dup4\n      swap2\n        /* \"@openzeppelin/contracts/access/Ownable.sol\":2410:2450  OwnershipTransferred(oldOwner, newOwner) */\n      0x8be0079c531659141344cd1fd0a4f28419497f9722a3daafe3b4186f6b6457e0\n      swap2\n      log3\n        /* \"@openzeppelin/contracts/access/Ownable.sol\":2333:2457  {... */\n      pop\n        /* \"@openzeppelin/contracts/access/Ownable.sol\":2270:2457  function _transferOwnership(address newOwner) internal virtual {... */\n      pop\n      jump\t// out\n        /* \"#utility.yul\":388:568   */\n    tag_29:\n        /* \"#utility.yul\":447:453   */\n      0x00\n        /* \"#utility.yul\":500:502   */\n      0x20\n        /* \"#utility.yul\":488:497   */\n      dup3\n        /* \"#utility.yul\":479:486   */\n      dup5\n        /* \"#utility.yul\":475:498   */\n      sub\n        /* \"#utility.yul\":471:503   */\n      slt\n        /* \"#utility.yul\":468:520   */\n      iszero\n      tag_142\n      jumpi\n        /* \"#utility.yul\":516:517   */\n      0x00\n        /* \"#utility.yul\":513:514   */\n      dup1\n        /* \"#utility.yul\":506:518   */\n      revert\n        /* \"#utility.yul\":468:520   */\n    tag_142:\n      pop\n        /* \"#utility.yul\":539:562   */\n      calldataload\n      swap2\n        /* \"#utility.yul\":388:568   */\n      swap1\n      pop\n      jump\t// out\n        /* \"#utility.yul\":573:704   */\n    tag_137:\n      sub(shl(0xa0, 0x01), 0x01)\n        /* \"#utility.yul\":648:679   */\n      dup2\n      and\n        /* \"#utility.yul\":638:680   */\n      dup2\n      eq\n        /* \"#utility.yul\":628:698   */\n      tag_134\n      jumpi\n        /* \"#utility.yul\":694:695   */\n      0x00\n        /* \"#utility.yul\":691:692   */\n      dup1\n        /* \"#utility.yul\":684:696   */\n      revert\n        /* \"#utility.yul\":709:956   */\n    tag_36:\n        /* \"#utility.yul\":768:774   */\n      0x00\n        /* \"#utility.yul\":821:823   */\n      0x20\n        /* \"#utility.yul\":809:818   */\n      dup3\n        /* \"#utility.yul\":800:807   */\n      dup5\n        /* \"#utility.yul\":796:819   */\n      sub\n        /* \"#utility.yul\":792:824   */\n      slt\n        /* \"#utility.yul\":789:841   */\n      iszero\n      tag_146\n      jumpi\n        /* \"#utility.yul\":837:838   */\n      0x00\n        /* \"#utility.yul\":834:835   */\n      dup1\n        /* \"#utility.yul\":827:839   */\n      revert\n        /* \"#utility.yul\":789:841   */\n    tag_146:\n        /* \"#utility.yul\":876:885   */\n      dup2\n        /* \"#utility.yul\":863:886   */\n      calldataload\n        /* \"#utility.yul\":895:926   */\n      tag_147\n        /* \"#utility.yul\":920:925   */\n      dup2\n        /* \"#utility.yul\":895:926   */\n      tag_137\n      jump\t// in\n    tag_147:\n        /* \"#utility.yul\":945:950   */\n      swap4\n        /* \"#utility.yul\":709:956   */\n      swap3\n      pop\n      pop\n      pop\n      jump\t// out\n        /* \"#utility.yul\":1429:1613   */\n    tag_66:\n        /* \"#utility.yul\":1499:1505   */\n      0x00\n        /* \"#utility.yul\":1552:1554   */\n      0x20\n        /* \"#utility.yul\":1540:1549   */\n      dup3\n        /* \"#utility.yul\":1531:1538   */\n      dup5\n        /* \"#utility.yul\":1527:1550   */\n      sub\n        /* \"#utility.yul\":1523:1555   */\n      slt\n        /* \"#utility.yul\":1520:1572   */\n      iszero\n      tag_153\n      jumpi\n        /* \"#utility.yul\":1568:1569   */\n      0x00\n        /* \"#utility.yul\":1565:1566   */\n      dup1\n        /* \"#utility.yul\":1558:1570   */\n      revert\n        /* \"#utility.yul\":1520:1572   */\n    tag_153:\n      pop\n        /* \"#utility.yul\":1591:1607   */\n      mload\n      swap2\n        /* \"#utility.yul\":1429:1613   */\n      swap1\n      pop\n      jump\t// out\n        /* \"#utility.yul\":1618:1835   */\n    tag_68:\n        /* \"#utility.yul\":1658:1659   */\n      0x00\n        /* \"#utility.yul\":1684:1685   */\n      dup3\n        /* \"#utility.yul\":1674:1806   */\n      tag_155\n      jumpi\n        /* \"#utility.yul\":1728:1738   */\n      0x4e487b71\n        /* \"#utility.yul\":1723:1726   */\n      0xe0\n        /* \"#utility.yul\":1719:1739   */\n      shl\n        /* \"#utility.yul\":1716:1717   */\n      0x00\n        /* \"#utility.yul\":1709:1740   */\n      mstore\n        /* \"#utility.yul\":1763:1767   */\n      0x12\n        /* \"#utility.yul\":1760:1761   */\n      0x04\n        /* \"#utility.yul\":1753:1768   */\n      mstore\n        /* \"#utility.yul\":1791:1795   */\n      0x24\n        /* \"#utility.yul\":1788:1789   */\n      0x00\n        /* \"#utility.yul\":1781:1796   */\n      revert\n        /* \"#utility.yul\":1674:1806   */\n    tag_155:\n      pop\n        /* \"#utility.yul\":1820:1829   */\n      div\n      swap1\n        /* \"#utility.yul\":1618:1835   */\n      jump\t// out\n        /* \"#utility.yul\":1840:2105   */\n    tag_70:\n        /* \"#utility.yul\":1880:1887   */\n      0x00\n        /* \"#utility.yul\":1946:1947   */\n      dup2\n        /* \"#utility.yul\":1942:1943   */\n      0x00\n        /* \"#utility.yul\":1938:1944   */\n      not\n        /* \"#utility.yul\":1934:1948   */\n      div\n        /* \"#utility.yul\":1931:1932   */\n      dup4\n        /* \"#utility.yul\":1928:1949   */\n      gt\n        /* \"#utility.yul\":1923:1924   */\n      dup3\n        /* \"#utility.yul\":1916:1925   */\n      iszero\n        /* \"#utility.yul\":1909:1926   */\n      iszero\n        /* \"#utility.yul\":1905:1950   */\n      and\n        /* \"#utility.yul\":1902:2070   */\n      iszero\n      tag_157\n      jumpi\n        /* \"#utility.yul\":1992:2002   */\n      0x4e487b71\n        /* \"#utility.yul\":1987:1990   */\n      0xe0\n        /* \"#utility.yul\":1983:2003   */\n      shl\n        /* \"#utility.yul\":1980:1981   */\n      0x00\n        /* \"#utility.yul\":1973:2004   */\n      mstore\n        /* \"#utility.yul\":2027:2031   */\n      0x11\n        /* \"#utility.yul\":2024:2025   */\n      0x04\n        /* \"#utility.yul\":2017:2032   */\n      mstore\n        /* \"#utility.yul\":2055:2059   */\n      0x24\n        /* \"#utility.yul\":2052:2053   */\n      0x00\n        /* \"#utility.yul\":2045:2060   */\n      revert\n        /* \"#utility.yul\":1902:2070   */\n    tag_157:\n      pop\n        /* \"#utility.yul\":2090:2099   */\n      mul\n      swap1\n        /* \"#utility.yul\":1840:2105   */\n      jump\t// out\n        /* \"#utility.yul\":2110:2466   */\n    tag_84:\n        /* \"#utility.yul\":2312:2314   */\n      0x20\n        /* \"#utility.yul\":2294:2315   */\n      dup1\n      dup3\n      mstore\n        /* \"#utility.yul\":2331:2349   */\n      dup2\n      dup2\n      add\n        /* \"#utility.yul\":2324:2354   */\n      mstore\n        /* \"#utility.yul\":2390:2424   */\n      0x4f776e61626c653a2063616c6c6572206973206e6f7420746865206f776e6572\n        /* \"#utility.yul\":2385:2387   */\n      0x40\n        /* \"#utility.yul\":2370:2388   */\n      dup3\n      add\n        /* \"#utility.yul\":2363:2425   */\n      mstore\n        /* \"#utility.yul\":2457:2459   */\n      0x60\n        /* \"#utility.yul\":2442:2460   */\n      add\n      swap1\n        /* \"#utility.yul\":2110:2466   */\n      jump\t// out\n\n    auxdata: 0xa26469706673582212204d3dbcd8781826f7ef81c86de274c09b1d2de0604277e9d149f3d6a75b74df8f64736f6c634300080a0033\n}\n",
				"bytecode": {
					"linkReferences": {},
					"object": "60806040526001805560028055600260035534801561001d57600080fd5b506000805460ff1916905561003133610036565b61008f565b600080546001600160a01b03838116610100818102610100600160a81b0319851617855560405193049190911692909183917f8be0079c531659141344cd1fd0a4f28419497f9722a3daafe3b4186f6b6457e091a35050565b61079f8061009e6000396000f3fe608060405234801561001057600080fd5b50600436106100b45760003560e01c80638da5cb5b116100715780638da5cb5b14610123578063bff098b41461014c578063c2fffd6b1461015f578063d979f5aa14610172578063ddca3f4314610185578063f2fde38b1461018d57600080fd5b806314025dcd146100b95780633abecc49146100d45780635c975abb146100dc57806369fe0e2d146100f3578063715018a6146101065780637adbf97314610110575b600080fd5b6100c16101a0565b6040519081526020015b60405180910390f35b6100c1610237565b60005460ff165b60405190151581526020016100cb565b6100e361010136600461067a565b610291565b61010e610309565b005b6100e361011e3660046106a8565b610345565b60005461010090046001600160a01b03166040516001600160a01b0390911681526020016100cb565b6100e361015a36600461067a565b6103c5565b6100e361016d36600461067a565b610436565b6100e36101803660046106a8565b6104a6565b6100c1610526565b61010e61019b3660046106a8565b610580565b60006002546064600560009054906101000a90046001600160a01b03166001600160a01b031663c338287f6040518163ffffffff1660e01b8152600401602060405180830381865afa1580156101fa573d6000803e3d6000fd5b505050506040513d601f19601f8201168201806040525081019061021e91906106cc565b61022891906106e5565b6102329190610707565b905090565b60006003546064600560009054906101000a90046001600160a01b03166001600160a01b031663c338287f6040518163ffffffff1660e01b8152600401602060405180830381865afa1580156101fa573d6000803e3d6000fd5b600080546001600160a01b036101009091041633146102cb5760405162461bcd60e51b81526004016102c290610734565b60405180910390fd5b600182905560035460025460405184907f7db2709f6e7adf14b75ac6a4bc01b5f3ff9000017f9648c2b70f6ca8616d8f5790600090a4506001919050565b6000546001600160a01b036101009091041633146103395760405162461bcd60e51b81526004016102c290610734565b6103436000610621565b565b600080546001600160a01b036101009091041633146103765760405162461bcd60e51b81526004016102c290610734565b600580546001600160a01b0319166001600160a01b0384169081179091556040517f6d4881172853e787189216de6d514b739b8ad6a331e19518c66d3dc2b93639b590600090a2506001919050565b600080546001600160a01b036101009091041633146103f65760405162461bcd60e51b81526004016102c290610734565b6003829055600254600154604051849291907f7db2709f6e7adf14b75ac6a4bc01b5f3ff9000017f9648c2b70f6ca8616d8f5790600090a4506001919050565b600080546001600160a01b036101009091041633146104675760405162461bcd60e51b81526004016102c290610734565b60028290556003546001546040518491907f7db2709f6e7adf14b75ac6a4bc01b5f3ff9000017f9648c2b70f6ca8616d8f5790600090a4506001919050565b600080546001600160a01b036101009091041633146104d75760405162461bcd60e51b81526004016102c290610734565b600480546001600160a01b0319166001600160a01b0384169081179091556040517f66743038d969508e26e3d032a34d950971853817a94fd22e88316055e1145bf490600090a2506001919050565b60006001546064600560009054906101000a90046001600160a01b03166001600160a01b031663c338287f6040518163ffffffff1660e01b8152600401602060405180830381865afa1580156101fa573d6000803e3d6000fd5b6000546001600160a01b036101009091041633146105b05760405162461bcd60e51b81526004016102c290610734565b6001600160a01b0381166106155760405162461bcd60e51b815260206004820152602660248201527f4f776e61626c653a206e6577206f776e657220697320746865207a65726f206160448201526564647265737360d01b60648201526084016102c2565b61061e81610621565b50565b600080546001600160a01b03838116610100818102610100600160a81b0319851617855560405193049190911692909183917f8be0079c531659141344cd1fd0a4f28419497f9722a3daafe3b4186f6b6457e091a35050565b60006020828403121561068c57600080fd5b5035919050565b6001600160a01b038116811461061e57600080fd5b6000602082840312156106ba57600080fd5b81356106c581610693565b9392505050565b6000602082840312156106de57600080fd5b5051919050565b60008261070257634e487b7160e01b600052601260045260246000fd5b500490565b600081600019048311821515161561072f57634e487b7160e01b600052601160045260246000fd5b500290565b6020808252818101527f4f776e61626c653a2063616c6c6572206973206e6f7420746865206f776e657260408201526060019056fea26469706673582212204d3dbcd8781826f7ef81c86de274c09b1d2de0604277e9d149f3d6a75b74df8f64736f6c634300080a0033",
					"opcodes": "PUSH1 0x80 PUSH1 0x40 MSTORE PUSH1 0x1 DUP1 SSTORE PUSH1 0x2 DUP1 SSTORE PUSH1 0x2 PUSH1 0x3 SSTORE CALLVALUE DUP1 ISZERO PUSH2 0x1D JUMPI PUSH1 0x0 DUP1 REVERT JUMPDEST POP PUSH1 0x0 DUP1 SLOAD PUSH1 0xFF NOT AND SWAP1 SSTORE PUSH2 0x31 CALLER PUSH2 0x36 JUMP JUMPDEST PUSH2 0x8F JUMP JUMPDEST PUSH1 0x0 DUP1 SLOAD PUSH1 0x1 PUSH1 0x1 PUSH1 0xA0 SHL SUB DUP4 DUP2 AND PUSH2 0x100 DUP2 DUP2 MUL PUSH2 0x100 PUSH1 0x1 PUSH1 0xA8 SHL SUB NOT DUP6 AND OR DUP6 SSTORE PUSH1 0x40 MLOAD SWAP4 DIV SWAP2 SWAP1 SWAP2 AND SWAP3 SWAP1 SWAP2 DUP4 SWAP2 PUSH32 0x8BE0079C531659141344CD1FD0A4F28419497F9722A3DAAFE3B4186F6B6457E0 SWAP2 LOG3 POP POP JUMP JUMPDEST PUSH2 0x79F DUP1 PUSH2 0x9E PUSH1 0x0 CODECOPY PUSH1 0x0 RETURN INVALID PUSH1 0x80 PUSH1 0x40 MSTORE CALLVALUE DUP1 ISZERO PUSH2 0x10 JUMPI PUSH1 0x0 DUP1 REVERT JUMPDEST POP PUSH1 0x4 CALLDATASIZE LT PUSH2 0xB4 JUMPI PUSH1 0x0 CALLDATALOAD PUSH1 0xE0 SHR DUP1 PUSH4 0x8DA5CB5B GT PUSH2 0x71 JUMPI DUP1 PUSH4 0x8DA5CB5B EQ PUSH2 0x123 JUMPI DUP1 PUSH4 0xBFF098B4 EQ PUSH2 0x14C JUMPI DUP1 PUSH4 0xC2FFFD6B EQ PUSH2 0x15F JUMPI DUP1 PUSH4 0xD979F5AA EQ PUSH2 0x172 JUMPI DUP1 PUSH4 0xDDCA3F43 EQ PUSH2 0x185 JUMPI DUP1 PUSH4 0xF2FDE38B EQ PUSH2 0x18D JUMPI PUSH1 0x0 DUP1 REVERT JUMPDEST DUP1 PUSH4 0x14025DCD EQ PUSH2 0xB9 JUMPI DUP1 PUSH4 0x3ABECC49 EQ PUSH2 0xD4 JUMPI DUP1 PUSH4 0x5C975ABB EQ PUSH2 0xDC JUMPI DUP1 PUSH4 0x69FE0E2D EQ PUSH2 0xF3 JUMPI DUP1 PUSH4 0x715018A6 EQ PUSH2 0x106 JUMPI DUP1 PUSH4 0x7ADBF973 EQ PUSH2 0x110 JUMPI JUMPDEST PUSH1 0x0 DUP1 REVERT JUMPDEST PUSH2 0xC1 PUSH2 0x1A0 JUMP JUMPDEST PUSH1 0x40 MLOAD SWAP1 DUP2 MSTORE PUSH1 0x20 ADD JUMPDEST PUSH1 0x40 MLOAD DUP1 SWAP2 SUB SWAP1 RETURN JUMPDEST PUSH2 0xC1 PUSH2 0x237 JUMP JUMPDEST PUSH1 0x0 SLOAD PUSH1 0xFF AND JUMPDEST PUSH1 0x40 MLOAD SWAP1 ISZERO ISZERO DUP2 MSTORE PUSH1 0x20 ADD PUSH2 0xCB JUMP JUMPDEST PUSH2 0xE3 PUSH2 0x101 CALLDATASIZE PUSH1 0x4 PUSH2 0x67A JUMP JUMPDEST PUSH2 0x291 JUMP JUMPDEST PUSH2 0x10E PUSH2 0x309 JUMP JUMPDEST STOP JUMPDEST PUSH2 0xE3 PUSH2 0x11E CALLDATASIZE PUSH1 0x4 PUSH2 0x6A8 JUMP JUMPDEST PUSH2 0x345 JUMP JUMPDEST PUSH1 0x0 SLOAD PUSH2 0x100 SWAP1 DIV PUSH1 0x1 PUSH1 0x1 PUSH1 0xA0 SHL SUB AND PUSH1 0x40 MLOAD PUSH1 0x1 PUSH1 0x1 PUSH1 0xA0 SHL SUB SWAP1 SWAP2 AND DUP2 MSTORE PUSH1 0x20 ADD PUSH2 0xCB JUMP JUMPDEST PUSH2 0xE3 PUSH2 0x15A CALLDATASIZE PUSH1 0x4 PUSH2 0x67A JUMP JUMPDEST PUSH2 0x3C5 JUMP JUMPDEST PUSH2 0xE3 PUSH2 0x16D CALLDATASIZE PUSH1 0x4 PUSH2 0x67A JUMP JUMPDEST PUSH2 0x436 JUMP JUMPDEST PUSH2 0xE3 PUSH2 0x180 CALLDATASIZE PUSH1 0x4 PUSH2 0x6A8 JUMP JUMPDEST PUSH2 0x4A6 JUMP JUMPDEST PUSH2 0xC1 PUSH2 0x526 JUMP JUMPDEST PUSH2 0x10E PUSH2 0x19B CALLDATASIZE PUSH1 0x4 PUSH2 0x6A8 JUMP JUMPDEST PUSH2 0x580 JUMP JUMPDEST PUSH1 0x0 PUSH1 0x2 SLOAD PUSH1 0x64 PUSH1 0x5 PUSH1 0x0 SWAP1 SLOAD SWAP1 PUSH2 0x100 EXP SWAP1 DIV PUSH1 0x1 PUSH1 0x1 PUSH1 0xA0 SHL SUB AND PUSH1 0x1 PUSH1 0x1 PUSH1 0xA0 SHL SUB AND PUSH4 0xC338287F PUSH1 0x40 MLOAD DUP2 PUSH4 0xFFFFFFFF AND PUSH1 0xE0 SHL DUP2 MSTORE PUSH1 0x4 ADD PUSH1 0x20 PUSH1 0x40 MLOAD DUP1 DUP4 SUB DUP2 DUP7 GAS STATICCALL ISZERO DUP1 ISZERO PUSH2 0x1FA JUMPI RETURNDATASIZE PUSH1 0x0 DUP1 RETURNDATACOPY RETURNDATASIZE PUSH1 0x0 REVERT JUMPDEST POP POP POP POP PUSH1 0x40 MLOAD RETURNDATASIZE PUSH1 0x1F NOT PUSH1 0x1F DUP3 ADD AND DUP3 ADD DUP1 PUSH1 0x40 MSTORE POP DUP2 ADD SWAP1 PUSH2 0x21E SWAP2 SWAP1 PUSH2 0x6CC JUMP JUMPDEST PUSH2 0x228 SWAP2 SWAP1 PUSH2 0x6E5 JUMP JUMPDEST PUSH2 0x232 SWAP2 SWAP1 PUSH2 0x707 JUMP JUMPDEST SWAP1 POP SWAP1 JUMP JUMPDEST PUSH1 0x0 PUSH1 0x3 SLOAD PUSH1 0x64 PUSH1 0x5 PUSH1 0x0 SWAP1 SLOAD SWAP1 PUSH2 0x100 EXP SWAP1 DIV PUSH1 0x1 PUSH1 0x1 PUSH1 0xA0 SHL SUB AND PUSH1 0x1 PUSH1 0x1 PUSH1 0xA0 SHL SUB AND PUSH4 0xC338287F PUSH1 0x40 MLOAD DUP2 PUSH4 0xFFFFFFFF AND PUSH1 0xE0 SHL DUP2 MSTORE PUSH1 0x4 ADD PUSH1 0x20 PUSH1 0x40 MLOAD DUP1 DUP4 SUB DUP2 DUP7 GAS STATICCALL ISZERO DUP1 ISZERO PUSH2 0x1FA JUMPI RETURNDATASIZE PUSH1 0x0 DUP1 RETURNDATACOPY RETURNDATASIZE PUSH1 0x0 REVERT JUMPDEST PUSH1 0x0 DUP1 SLOAD PUSH1 0x1 PUSH1 0x1 PUSH1 0xA0 SHL SUB PUSH2 0x100 SWAP1 SWAP2 DIV AND CALLER EQ PUSH2 0x2CB JUMPI PUSH1 0x40 MLOAD PUSH3 0x461BCD PUSH1 0xE5 SHL DUP2 MSTORE PUSH1 0x4 ADD PUSH2 0x2C2 SWAP1 PUSH2 0x734 JUMP JUMPDEST PUSH1 0x40 MLOAD DUP1 SWAP2 SUB SWAP1 REVERT JUMPDEST PUSH1 0x1 DUP3 SWAP1 SSTORE PUSH1 0x3 SLOAD PUSH1 0x2 SLOAD PUSH1 0x40 MLOAD DUP5 SWAP1 PUSH32 0x7DB2709F6E7ADF14B75AC6A4BC01B5F3FF9000017F9648C2B70F6CA8616D8F57 SWAP1 PUSH1 0x0 SWAP1 LOG4 POP PUSH1 0x1 SWAP2 SWAP1 POP JUMP JUMPDEST PUSH1 0x0 SLOAD PUSH1 0x1 PUSH1 0x1 PUSH1 0xA0 SHL SUB PUSH2 0x100 SWAP1 SWAP2 DIV AND CALLER EQ PUSH2 0x339 JUMPI PUSH1 0x40 MLOAD PUSH3 0x461BCD PUSH1 0xE5 SHL DUP2 MSTORE PUSH1 0x4 ADD PUSH2 0x2C2 SWAP1 PUSH2 0x734 JUMP JUMPDEST PUSH2 0x343 PUSH1 0x0 PUSH2 0x621 JUMP JUMPDEST JUMP JUMPDEST PUSH1 0x0 DUP1 SLOAD PUSH1 0x1 PUSH1 0x1 PUSH1 0xA0 SHL SUB PUSH2 0x100 SWAP1 SWAP2 DIV AND CALLER EQ PUSH2 0x376 JUMPI PUSH1 0x40 MLOAD PUSH3 0x461BCD PUSH1 0xE5 SHL DUP2 MSTORE PUSH1 0x4 ADD PUSH2 0x2C2 SWAP1 PUSH2 0x734 JUMP JUMPDEST PUSH1 0x5 DUP1 SLOAD PUSH1 0x1 PUSH1 0x1 PUSH1 0xA0 SHL SUB NOT AND PUSH1 0x1 PUSH1 0x1 PUSH1 0xA0 SHL SUB DUP5 AND SWAP1 DUP2 OR SWAP1 SWAP2 SSTORE PUSH1 0x40 MLOAD PUSH32 0x6D4881172853E787189216DE6D514B739B8AD6A331E19518C66D3DC2B93639B5 SWAP1 PUSH1 0x0 SWAP1 LOG2 POP PUSH1 0x1 SWAP2 SWAP1 POP JUMP JUMPDEST PUSH1 0x0 DUP1 SLOAD PUSH1 0x1 PUSH1 0x1 PUSH1 0xA0 SHL SUB PUSH2 0x100 SWAP1 SWAP2 DIV AND CALLER EQ PUSH2 0x3F6 JUMPI PUSH1 0x40 MLOAD PUSH3 0x461BCD PUSH1 0xE5 SHL DUP2 MSTORE PUSH1 0x4 ADD PUSH2 0x2C2 SWAP1 PUSH2 0x734 JUMP JUMPDEST PUSH1 0x3 DUP3 SWAP1 SSTORE PUSH1 0x2 SLOAD PUSH1 0x1 SLOAD PUSH1 0x40 MLOAD DUP5 SWAP3 SWAP2 SWAP1 PUSH32 0x7DB2709F6E7ADF14B75AC6A4BC01B5F3FF9000017F9648C2B70F6CA8616D8F57 SWAP1 PUSH1 0x0 SWAP1 LOG4 POP PUSH1 0x1 SWAP2 SWAP1 POP JUMP JUMPDEST PUSH1 0x0 DUP1 SLOAD PUSH1 0x1 PUSH1 0x1 PUSH1 0xA0 SHL SUB PUSH2 0x100 SWAP1 SWAP2 DIV AND CALLER EQ PUSH2 0x467 JUMPI PUSH1 0x40 MLOAD PUSH3 0x461BCD PUSH1 0xE5 SHL DUP2 MSTORE PUSH1 0x4 ADD PUSH2 0x2C2 SWAP1 PUSH2 0x734 JUMP JUMPDEST PUSH1 0x2 DUP3 SWAP1 SSTORE PUSH1 0x3 SLOAD PUSH1 0x1 SLOAD PUSH1 0x40 MLOAD DUP5 SWAP2 SWAP1 PUSH32 0x7DB2709F6E7ADF14B75AC6A4BC01B5F3FF9000017F9648C2B70F6CA8616D8F57 SWAP1 PUSH1 0x0 SWAP1 LOG4 POP PUSH1 0x1 SWAP2 SWAP1 POP JUMP JUMPDEST PUSH1 0x0 DUP1 SLOAD PUSH1 0x1 PUSH1 0x1 PUSH1 0xA0 SHL SUB PUSH2 0x100 SWAP1 SWAP2 DIV AND CALLER EQ PUSH2 0x4D7 JUMPI PUSH1 0x40 MLOAD PUSH3 0x461BCD PUSH1 0xE5 SHL DUP2 MSTORE PUSH1 0x4 ADD PUSH2 0x2C2 SWAP1 PUSH2 0x734 JUMP JUMPDEST PUSH1 0x4 DUP1 SLOAD PUSH1 0x1 PUSH1 0x1 PUSH1 0xA0 SHL SUB NOT AND PUSH1 0x1 PUSH1 0x1 PUSH1 0xA0 SHL SUB DUP5 AND SWAP1 DUP2 OR SWAP1 SWAP2 SSTORE PUSH1 0x40 MLOAD PUSH32 0x66743038D969508E26E3D032A34D950971853817A94FD22E88316055E1145BF4 SWAP1 PUSH1 0x0 SWAP1 LOG2 POP PUSH1 0x1 SWAP2 SWAP1 POP JUMP JUMPDEST PUSH1 0x0 PUSH1 0x1 SLOAD PUSH1 0x64 PUSH1 0x5 PUSH1 0x0 SWAP1 SLOAD SWAP1 PUSH2 0x100 EXP SWAP1 DIV PUSH1 0x1 PUSH1 0x1 PUSH1 0xA0 SHL SUB AND PUSH1 0x1 PUSH1 0x1 PUSH1 0xA0 SHL SUB AND PUSH4 0xC338287F PUSH1 0x40 MLOAD DUP2 PUSH4 0xFFFFFFFF AND PUSH1 0xE0 SHL DUP2 MSTORE PUSH1 0x4 ADD PUSH1 0x20 PUSH1 0x40 MLOAD DUP1 DUP4 SUB DUP2 DUP7 GAS STATICCALL ISZERO DUP1 ISZERO PUSH2 0x1FA JUMPI RETURNDATASIZE PUSH1 0x0 DUP1 RETURNDATACOPY RETURNDATASIZE PUSH1 0x0 REVERT JUMPDEST PUSH1 0x0 SLOAD PUSH1 0x1 PUSH1 0x1 PUSH1 0xA0 SHL SUB PUSH2 0x100 SWAP1 SWAP2 DIV AND CALLER EQ PUSH2 0x5B0 JUMPI PUSH1 0x40 MLOAD PUSH3 0x461BCD PUSH1 0xE5 SHL DUP2 MSTORE PUSH1 0x4 ADD PUSH2 0x2C2 SWAP1 PUSH2 0x734 JUMP JUMPDEST PUSH1 0x1 PUSH1 0x1 PUSH1 0xA0 SHL SUB DUP2 AND PUSH2 0x615 JUMPI PUSH1 0x40 MLOAD PUSH3 0x461BCD PUSH1 0xE5 SHL DUP2 MSTORE PUSH1 0x20 PUSH1 0x4 DUP3 ADD MSTORE PUSH1 0x26 PUSH1 0x24 DUP3 ADD MSTORE PUSH32 0x4F776E61626C653A206E6577206F776E657220697320746865207A65726F2061 PUSH1 0x44 DUP3 ADD MSTORE PUSH6 0x646472657373 PUSH1 0xD0 SHL PUSH1 0x64 DUP3 ADD MSTORE PUSH1 0x84 ADD PUSH2 0x2C2 JUMP JUMPDEST PUSH2 0x61E DUP2 PUSH2 0x621 JUMP JUMPDEST POP JUMP JUMPDEST PUSH1 0x0 DUP1 SLOAD PUSH1 0x1 PUSH1 0x1 PUSH1 0xA0 SHL SUB DUP4 DUP2 AND PUSH2 0x100 DUP2 DUP2 MUL PUSH2 0x100 PUSH1 0x1 PUSH1 0xA8 SHL SUB NOT DUP6 AND OR DUP6 SSTORE PUSH1 0x40 MLOAD SWAP4 DIV SWAP2 SWAP1 SWAP2 AND SWAP3 SWAP1 SWAP2 DUP4 SWAP2 PUSH32 0x8BE0079C531659141344CD1FD0A4F28419497F9722A3DAAFE3B4186F6B6457E0 SWAP2 LOG3 POP POP JUMP JUMPDEST PUSH1 0x0 PUSH1 0x20 DUP3 DUP5 SUB SLT ISZERO PUSH2 0x68C JUMPI PUSH1 0x0 DUP1 REVERT JUMPDEST POP CALLDATALOAD SWAP2 SWAP1 POP JUMP JUMPDEST PUSH1 0x1 PUSH1 0x1 PUSH1 0xA0 SHL SUB DUP2 AND DUP2 EQ PUSH2 0x61E JUMPI PUSH1 0x0 DUP1 REVERT JUMPDEST PUSH1 0x0 PUSH1 0x20 DUP3 DUP5 SUB SLT ISZERO PUSH2 0x6BA JUMPI PUSH1 0x0 DUP1 REVERT JUMPDEST DUP2 CALLDATALOAD PUSH2 0x6C5 DUP2 PUSH2 0x693 JUMP JUMPDEST SWAP4 SWAP3 POP POP POP JUMP JUMPDEST PUSH1 0x0 PUSH1 0x20 DUP3 DUP5 SUB SLT ISZERO PUSH2 0x6DE JUMPI PUSH1 0x0 DUP1 REVERT JUMPDEST POP MLOAD SWAP2 SWAP1 POP JUMP JUMPDEST PUSH1 0x0 DUP3 PUSH2 0x702 JUMPI PUSH4 0x4E487B71 PUSH1 0xE0 SHL PUSH1 0x0 MSTORE PUSH1 0x12 PUSH1 0x4 MSTORE PUSH1 0x24 PUSH1 0x0 REVERT JUMPDEST POP DIV SWAP1 JUMP JUMPDEST PUSH1 0x0 DUP2 PUSH1 0x0 NOT DIV DUP4 GT DUP3 ISZERO ISZERO AND ISZERO PUSH2 0x72F JUMPI PUSH4 0x4E487B71 PUSH1 0xE0 SHL PUSH1 0x0 MSTORE PUSH1 0x11 PUSH1 0x4 MSTORE PUSH1 0x24 PUSH1 0x0 REVERT JUMPDEST POP MUL SWAP1 JUMP JUMPDEST PUSH1 0x20 DUP1 DUP3 MSTORE DUP2 DUP2 ADD MSTORE PUSH32 0x4F776E61626C653A2063616C6C6572206973206E6F7420746865206F776E6572 PUSH1 0x40 DUP3 ADD MSTORE PUSH1 0x60 ADD SWAP1 JUMP INVALID LOG2 PUSH5 0x6970667358 0x22 SLT KECCAK256 0x4D RETURNDATASIZE 0xBC 0xD8 PUSH25 0x1826F7EF81C86DE274C09B1D2DE0604277E9D149F3D6A75B74 0xDF DUP16 PUSH5 0x736F6C6343 STOP ADDMOD EXP STOP CALLER "
				},
				"gasEstimates": {
					"creation": {
						"codeDepositCost": "390200",
						"executionCost": "116823",
						"totalCost": "507023"
					},
					"external": {
						"acceptFee()": "infinite",
						"cancelFee()": "infinite",
						"fee()": "infinite",
						"owner()": "2330",
						"paused()": "2338",
						"renounceOwnership()": "28239",
						"setAcceptFee(uint256)": "30696",
						"setCancelFee(uint256)": "30715",
						"setFee(uint256)": "30735",
						"setHolder(address)": "28001",
						"setOracle(address)": "28046",
						"transferOwnership(address)": "infinite"
					},
					"internal": {
						"retriveFee()": "infinite"
					}
				},
				"methodIdentifiers": {
					"acceptFee()": "3abecc49",
					"cancelFee()": "14025dcd",
					"fee()": "ddca3f43",
					"owner()": "8da5cb5b",
					"paused()": "5c975abb",
					"renounceOwnership()": "715018a6",
					"setAcceptFee(uint256)": "bff098b4",
					"setCancelFee(uint256)": "c2fffd6b",
					"setFee(uint256)": "69fe0e2d",
					"setHolder(address)": "d979f5aa",
					"setOracle(address)": "7adbf973",
					"transferOwnership(address)": "f2fde38b"
				}
			},
			"userdoc": {
				"kind": "user",
				"methods": {
					"setAcceptFee(uint256)": {
						"notice": "NOTE: _acceptFee is the amount in USD that de user pay to use this function, only de owner can change this amount by default is 2 USD Requirements:"
					},
					"setCancelFee(uint256)": {
						"notice": "NOTE: _cancelFee"
					},
					"setFee(uint256)": {
						"notice": "NOTE: _fee"
					}
				},
				"version": 1
			}
		}
	}
}