{
	"FeeManager.sol": {
		"FeeManager": {
			"abi": [
				{
					"anonymous": false,
					"inputs": [
						{
							"indexed": true,
							"internalType": "uint256",
							"name": "fee",
							"type": "uint256"
						},
						{
							"indexed": true,
							"internalType": "uint256",
							"name": "_cancelFee",
							"type": "uint256"
						},
						{
							"indexed": true,
							"internalType": "uint256",
							"name": "_acceptFee",
							"type": "uint256"
						}
					],
					"name": "Fee",
					"type": "event"
				},
				{
					"anonymous": false,
					"inputs": [
						{
							"indexed": true,
							"internalType": "address",
							"name": "holder",
							"type": "address"
						}
					],
					"name": "Holder",
					"type": "event"
				},
				{
					"anonymous": false,
					"inputs": [
						{
							"indexed": true,
							"internalType": "address",
							"name": "oracle",
							"type": "address"
						}
					],
					"name": "Oracle",
					"type": "event"
				},
				{
					"anonymous": false,
					"inputs": [
						{
							"indexed": true,
							"internalType": "address",
							"name": "previousOwner",
							"type": "address"
						},
						{
							"indexed": true,
							"internalType": "address",
							"name": "newOwner",
							"type": "address"
						}
					],
					"name": "OwnershipTransferred",
					"type": "event"
				},
				{
					"anonymous": false,
					"inputs": [
						{
							"indexed": false,
							"internalType": "address",
							"name": "account",
							"type": "address"
						}
					],
					"name": "Paused",
					"type": "event"
				},
				{
					"anonymous": false,
					"inputs": [
						{
							"indexed": false,
							"internalType": "address",
							"name": "account",
							"type": "address"
						}
					],
					"name": "Unpaused",
					"type": "event"
				},
				{
					"inputs": [],
					"name": "acceptFee",
					"outputs": [
						{
							"internalType": "uint256",
							"name": "",
							"type": "uint256"
						}
					],
					"stateMutability": "view",
					"type": "function"
				},
				{
					"inputs": [],
					"name": "cancelFee",
					"outputs": [
						{
							"internalType": "uint256",
							"name": "",
							"type": "uint256"
						}
					],
					"stateMutability": "view",
					"type": "function"
				},
				{
					"inputs": [],
					"name": "fee",
					"outputs": [
						{
							"internalType": "uint256",
							"name": "",
							"type": "uint256"
						}
					],
					"stateMutability": "view",
					"type": "function"
				},
				{
					"inputs": [],
					"name": "owner",
					"outputs": [
						{
							"internalType": "address",
							"name": "",
							"type": "address"
						}
					],
					"stateMutability": "view",
					"type": "function"
				},
				{
					"inputs": [],
					"name": "paused",
					"outputs": [
						{
							"internalType": "bool",
							"name": "",
							"type": "bool"
						}
					],
					"stateMutability": "view",
					"type": "function"
				},
				{
					"inputs": [],
					"name": "renounceOwnership",
					"outputs": [],
					"stateMutability": "nonpayable",
					"type": "function"
				},
				{
					"inputs": [
						{
							"internalType": "uint256",
							"name": "_acceptFee",
							"type": "uint256"
						}
					],
					"name": "setAcceptFee",
					"outputs": [
						{
							"internalType": "bool",
							"name": "",
							"type": "bool"
						}
					],
					"stateMutability": "nonpayable",
					"type": "function"
				},
				{
					"inputs": [
						{
							"internalType": "uint256",
							"name": "_cancelFee",
							"type": "uint256"
						}
					],
					"name": "setCancelFee",
					"outputs": [
						{
							"internalType": "bool",
							"name": "",
							"type": "bool"
						}
					],
					"stateMutability": "nonpayable",
					"type": "function"
				},
				{
					"inputs": [
						{
							"internalType": "uint256",
							"name": "_fee",
							"type": "uint256"
						}
					],
					"name": "setFee",
					"outputs": [
						{
							"internalType": "bool",
							"name": "",
							"type": "bool"
						}
					],
					"stateMutability": "nonpayable",
					"type": "function"
				},
				{
					"inputs": [
						{
							"internalType": "address payable",
							"name": "newHolder",
							"type": "address"
						}
					],
					"name": "setHolder",
					"outputs": [
						{
							"internalType": "bool",
							"name": "",
							"type": "bool"
						}
					],
					"stateMutability": "nonpayable",
					"type": "function"
				},
				{
					"inputs": [
						{
							"internalType": "address",
							"name": "newOracle",
							"type": "address"
						}
					],
					"name": "setOracle",
					"outputs": [
						{
							"internalType": "bool",
							"name": "",
							"type": "bool"
						}
					],
					"stateMutability": "nonpayable",
					"type": "function"
				},
				{
					"inputs": [
						{
							"internalType": "address",
							"name": "newOwner",
							"type": "address"
						}
					],
					"name": "transferOwnership",
					"outputs": [],
					"stateMutability": "nonpayable",
					"type": "function"
				}
			],
			"devdoc": {
				"details": "_Available since v1.0",
				"kind": "dev",
				"methods": {
					"owner()": {
						"details": "Returns the address of the current owner."
					},
					"paused()": {
						"details": "Returns true if the contract is paused, and false otherwise."
					},
					"renounceOwnership()": {
						"details": "Leaves the contract without owner. It will not be possible to call `onlyOwner` functions anymore. Can only be called by the current owner. NOTE: Renouncing ownership will leave the contract without an owner, thereby removing any functionality that is only available to the owner."
					},
					"setAcceptFee(uint256)": {
						"params": {
							"_acceptFee": "is the amount in USD"
						}
					},
					"transferOwnership(address)": {
						"details": "Transfers ownership of the contract to a new account (`newOwner`). Can only be called by the current owner."
					}
				},
				"version": 1
			},
			"evm": {
				"assembly": "    /* \"FeeManager.sol\":290:2610  contract FeeManager is Pausable(), Ownable {\r... */\n  mstore(0x40, 0x80)\n    /* \"FeeManager.sol\":370:371  1 */\n  0x01\n    /* \"FeeManager.sol\":340:371  uint256 private SERVICE_FEE = 1 */\n  dup1\n  sstore\n    /* \"FeeManager.sol\":415:416  2 */\n  0x02\n    /* \"FeeManager.sol\":378:416  uint256 private SERVICE_FEE_CANCEL = 2 */\n  dup1\n  sstore\n    /* \"FeeManager.sol\":460:461  2 */\n  0x02\n    /* \"FeeManager.sol\":423:461  uint256 private SERVICE_FEE_ACCEPT = 2 */\n  0x03\n  sstore\n    /* \"FeeManager.sol\":290:2610  contract FeeManager is Pausable(), Ownable {\r... */\n  callvalue\n  dup1\n  iszero\n  tag_1\n  jumpi\n  0x00\n  dup1\n  revert\ntag_1:\n  pop\n    /* \"@openzeppelin/contracts/security/Pausable.sol\":991:996  false */\n  0x00\n    /* \"@openzeppelin/contracts/security/Pausable.sol\":981:988  _paused */\n  dup1\n  0x00\n    /* \"@openzeppelin/contracts/security/Pausable.sol\":981:996  _paused = false */\n  0x0100\n  exp\n  dup2\n  sload\n  dup2\n  0xff\n  mul\n  not\n  and\n  swap1\n  dup4\n  iszero\n  iszero\n  mul\n  or\n  swap1\n  sstore\n  pop\n    /* \"@openzeppelin/contracts/access/Ownable.sol\":921:953  _transferOwnership(_msgSender()) */\n  tag_6\n    /* \"@openzeppelin/contracts/access/Ownable.sol\":940:952  _msgSender() */\n  tag_7\n    /* \"@openzeppelin/contracts/access/Ownable.sol\":940:950  _msgSender */\n  shl(0x20, tag_8)\n    /* \"@openzeppelin/contracts/access/Ownable.sol\":940:952  _msgSender() */\n  0x20\n  shr\n  jump\t// in\ntag_7:\n    /* \"@openzeppelin/contracts/access/Ownable.sol\":921:939  _transferOwnership */\n  shl(0x20, tag_9)\n    /* \"@openzeppelin/contracts/access/Ownable.sol\":921:953  _transferOwnership(_msgSender()) */\n  0x20\n  shr\n  jump\t// in\ntag_6:\n    /* \"FeeManager.sol\":290:2610  contract FeeManager is Pausable(), Ownable {\r... */\n  jump(tag_10)\n    /* \"@openzeppelin/contracts/utils/Context.sol\":640:736  function _msgSender() internal view virtual returns (address) {... */\ntag_8:\n    /* \"@openzeppelin/contracts/utils/Context.sol\":693:700  address */\n  0x00\n    /* \"@openzeppelin/contracts/utils/Context.sol\":719:729  msg.sender */\n  caller\n    /* \"@openzeppelin/contracts/utils/Context.sol\":712:729  return msg.sender */\n  swap1\n  pop\n    /* \"@openzeppelin/contracts/utils/Context.sol\":640:736  function _msgSender() internal view virtual returns (address) {... */\n  swap1\n  jump\t// out\n    /* \"@openzeppelin/contracts/access/Ownable.sol\":2270:2457  function _transferOwnership(address newOwner) internal virtual {... */\ntag_9:\n    /* \"@openzeppelin/contracts/access/Ownable.sol\":2343:2359  address oldOwner */\n  0x00\n    /* \"@openzeppelin/contracts/access/Ownable.sol\":2362:2368  _owner */\n  dup1\n  0x01\n  swap1\n  sload\n  swap1\n  0x0100\n  exp\n  swap1\n  div\n  0xffffffffffffffffffffffffffffffffffffffff\n  and\n    /* \"@openzeppelin/contracts/access/Ownable.sol\":2343:2368  address oldOwner = _owner */\n  swap1\n  pop\n    /* \"@openzeppelin/contracts/access/Ownable.sol\":2387:2395  newOwner */\n  dup2\n    /* \"@openzeppelin/contracts/access/Ownable.sol\":2378:2384  _owner */\n  0x00\n  0x01\n    /* \"@openzeppelin/contracts/access/Ownable.sol\":2378:2395  _owner = newOwner */\n  0x0100\n  exp\n  dup2\n  sload\n  dup2\n  0xffffffffffffffffffffffffffffffffffffffff\n  mul\n  not\n  and\n  swap1\n  dup4\n  0xffffffffffffffffffffffffffffffffffffffff\n  and\n  mul\n  or\n  swap1\n  sstore\n  pop\n    /* \"@openzeppelin/contracts/access/Ownable.sol\":2441:2449  newOwner */\n  dup2\n    /* \"@openzeppelin/contracts/access/Ownable.sol\":2410:2450  OwnershipTransferred(oldOwner, newOwner) */\n  0xffffffffffffffffffffffffffffffffffffffff\n  and\n    /* \"@openzeppelin/contracts/access/Ownable.sol\":2431:2439  oldOwner */\n  dup2\n    /* \"@openzeppelin/contracts/access/Ownable.sol\":2410:2450  OwnershipTransferred(oldOwner, newOwner) */\n  0xffffffffffffffffffffffffffffffffffffffff\n  and\n  0x8be0079c531659141344cd1fd0a4f28419497f9722a3daafe3b4186f6b6457e0\n  mload(0x40)\n  mload(0x40)\n  dup1\n  swap2\n  sub\n  swap1\n  log3\n    /* \"@openzeppelin/contracts/access/Ownable.sol\":2333:2457  {... */\n  pop\n    /* \"@openzeppelin/contracts/access/Ownable.sol\":2270:2457  function _transferOwnership(address newOwner) internal virtual {... */\n  pop\n  jump\t// out\n    /* \"FeeManager.sol\":290:2610  contract FeeManager is Pausable(), Ownable {\r... */\ntag_10:\n  dataSize(sub_0)\n  dup1\n  dataOffset(sub_0)\n  0x00\n  codecopy\n  0x00\n  return\nstop\n\nsub_0: assembly {\n        /* \"FeeManager.sol\":290:2610  contract FeeManager is Pausable(), Ownable {\r... */\n      mstore(0x40, 0x80)\n      callvalue\n      dup1\n      iszero\n      tag_1\n      jumpi\n      0x00\n      dup1\n      revert\n    tag_1:\n      pop\n      jumpi(tag_2, lt(calldatasize, 0x04))\n      shr(0xe0, calldataload(0x00))\n      dup1\n      0x8da5cb5b\n      gt\n      tag_15\n      jumpi\n      dup1\n      0x8da5cb5b\n      eq\n      tag_9\n      jumpi\n      dup1\n      0xbff098b4\n      eq\n      tag_10\n      jumpi\n      dup1\n      0xc2fffd6b\n      eq\n      tag_11\n      jumpi\n      dup1\n      0xd979f5aa\n      eq\n      tag_12\n      jumpi\n      dup1\n      0xddca3f43\n      eq\n      tag_13\n      jumpi\n      dup1\n      0xf2fde38b\n      eq\n      tag_14\n      jumpi\n      jump(tag_2)\n    tag_15:\n      dup1\n      0x14025dcd\n      eq\n      tag_3\n      jumpi\n      dup1\n      0x3abecc49\n      eq\n      tag_4\n      jumpi\n      dup1\n      0x5c975abb\n      eq\n      tag_5\n      jumpi\n      dup1\n      0x69fe0e2d\n      eq\n      tag_6\n      jumpi\n      dup1\n      0x715018a6\n      eq\n      tag_7\n      jumpi\n      dup1\n      0x7adbf973\n      eq\n      tag_8\n      jumpi\n    tag_2:\n      0x00\n      dup1\n      revert\n        /* \"FeeManager.sol\":1882:2007  function cancelFee() public view returns(uint256) {\r... */\n    tag_3:\n      tag_16\n      tag_17\n      jump\t// in\n    tag_16:\n      mload(0x40)\n      tag_18\n      swap2\n      swap1\n      tag_19\n      jump\t// in\n    tag_18:\n      mload(0x40)\n      dup1\n      swap2\n      sub\n      swap1\n      return\n        /* \"FeeManager.sol\":1749:1874  function acceptFee() public view returns(uint256) {\r... */\n    tag_4:\n      tag_20\n      tag_21\n      jump\t// in\n    tag_20:\n      mload(0x40)\n      tag_22\n      swap2\n      swap1\n      tag_19\n      jump\t// in\n    tag_22:\n      mload(0x40)\n      dup1\n      swap2\n      sub\n      swap1\n      return\n        /* \"@openzeppelin/contracts/security/Pausable.sol\":1098:1182  function paused() public view virtual returns (bool) {... */\n    tag_5:\n      tag_23\n      tag_24\n      jump\t// in\n    tag_23:\n      mload(0x40)\n      tag_25\n      swap2\n      swap1\n      tag_26\n      jump\t// in\n    tag_25:\n      mload(0x40)\n      dup1\n      swap2\n      sub\n      swap1\n      return\n        /* \"FeeManager.sol\":1551:1741  function setFee(uint256 _fee) public onlyOwner returns(bool) {\r... */\n    tag_6:\n      tag_27\n      0x04\n      dup1\n      calldatasize\n      sub\n      dup2\n      add\n      swap1\n      tag_28\n      swap2\n      swap1\n      tag_29\n      jump\t// in\n    tag_28:\n      tag_30\n      jump\t// in\n    tag_27:\n      mload(0x40)\n      tag_31\n      swap2\n      swap1\n      tag_26\n      jump\t// in\n    tag_31:\n      mload(0x40)\n      dup1\n      swap2\n      sub\n      swap1\n      return\n        /* \"@openzeppelin/contracts/access/Ownable.sol\":1668:1769  function renounceOwnership() public virtual onlyOwner {... */\n    tag_7:\n      tag_32\n      tag_33\n      jump\t// in\n    tag_32:\n      stop\n        /* \"FeeManager.sol\":2309:2487  function setOracle(address newOracle) public onlyOwner returns(bool) {\r... */\n    tag_8:\n      tag_34\n      0x04\n      dup1\n      calldatasize\n      sub\n      dup2\n      add\n      swap1\n      tag_35\n      swap2\n      swap1\n      tag_36\n      jump\t// in\n    tag_35:\n      tag_37\n      jump\t// in\n    tag_34:\n      mload(0x40)\n      tag_38\n      swap2\n      swap1\n      tag_26\n      jump\t// in\n    tag_38:\n      mload(0x40)\n      dup1\n      swap2\n      sub\n      swap1\n      return\n        /* \"@openzeppelin/contracts/access/Ownable.sol\":1036:1121  function owner() public view virtual returns (address) {... */\n    tag_9:\n      tag_39\n      tag_40\n      jump\t// in\n    tag_39:\n      mload(0x40)\n      tag_41\n      swap2\n      swap1\n      tag_42\n      jump\t// in\n    tag_41:\n      mload(0x40)\n      dup1\n      swap2\n      sub\n      swap1\n      return\n        /* \"FeeManager.sol\":1017:1233  function setAcceptFee(uint256 _acceptFee) public onlyOwner  returns(bool) {\r... */\n    tag_10:\n      tag_43\n      0x04\n      dup1\n      calldatasize\n      sub\n      dup2\n      add\n      swap1\n      tag_44\n      swap2\n      swap1\n      tag_29\n      jump\t// in\n    tag_44:\n      tag_45\n      jump\t// in\n    tag_43:\n      mload(0x40)\n      tag_46\n      swap2\n      swap1\n      tag_26\n      jump\t// in\n    tag_46:\n      mload(0x40)\n      dup1\n      swap2\n      sub\n      swap1\n      return\n        /* \"FeeManager.sol\":1286:1502  function setCancelFee(uint256 _cancelFee) public onlyOwner  returns(bool) {\r... */\n    tag_11:\n      tag_47\n      0x04\n      dup1\n      calldatasize\n      sub\n      dup2\n      add\n      swap1\n      tag_48\n      swap2\n      swap1\n      tag_29\n      jump\t// in\n    tag_48:\n      tag_49\n      jump\t// in\n    tag_47:\n      mload(0x40)\n      tag_50\n      swap2\n      swap1\n      tag_26\n      jump\t// in\n    tag_50:\n      mload(0x40)\n      dup1\n      swap2\n      sub\n      swap1\n      return\n        /* \"FeeManager.sol\":2135:2301  function setHolder(address payable newHolder) public onlyOwner returns(bool) {\r... */\n    tag_12:\n      tag_51\n      0x04\n      dup1\n      calldatasize\n      sub\n      dup2\n      add\n      swap1\n      tag_52\n      swap2\n      swap1\n      tag_53\n      jump\t// in\n    tag_52:\n      tag_54\n      jump\t// in\n    tag_51:\n      mload(0x40)\n      tag_55\n      swap2\n      swap1\n      tag_26\n      jump\t// in\n    tag_55:\n      mload(0x40)\n      dup1\n      swap2\n      sub\n      swap1\n      return\n        /* \"FeeManager.sol\":2015:2127  function fee() public view returns(uint256) {\r... */\n    tag_13:\n      tag_56\n      tag_57\n      jump\t// in\n    tag_56:\n      mload(0x40)\n      tag_58\n      swap2\n      swap1\n      tag_19\n      jump\t// in\n    tag_58:\n      mload(0x40)\n      dup1\n      swap2\n      sub\n      swap1\n      return\n        /* \"@openzeppelin/contracts/access/Ownable.sol\":1918:2116  function transferOwnership(address newOwner) public virtual onlyOwner {... */\n    tag_14:\n      tag_59\n      0x04\n      dup1\n      calldatasize\n      sub\n      dup2\n      add\n      swap1\n      tag_60\n      swap2\n      swap1\n      tag_36\n      jump\t// in\n    tag_60:\n      tag_61\n      jump\t// in\n    tag_59:\n      stop\n        /* \"FeeManager.sol\":1882:2007  function cancelFee() public view returns(uint256) {\r... */\n    tag_17:\n        /* \"FeeManager.sol\":1923:1930  uint256 */\n      0x00\n        /* \"FeeManager.sol\":1981:1999  SERVICE_FEE_CANCEL */\n      sload(0x02)\n        /* \"FeeManager.sol\":1974:1977  100 */\n      0x64\n        /* \"FeeManager.sol\":1951:1957  oracle */\n      0x05\n      0x00\n      swap1\n      sload\n      swap1\n      0x0100\n      exp\n      swap1\n      div\n      0xffffffffffffffffffffffffffffffffffffffff\n      and\n        /* \"FeeManager.sol\":1951:1969  oracle.getUSDPrice */\n      0xffffffffffffffffffffffffffffffffffffffff\n      and\n      0xc338287f\n        /* \"FeeManager.sol\":1951:1971  oracle.getUSDPrice() */\n      mload(0x40)\n      dup2\n      0xffffffff\n      and\n      0xe0\n      shl\n      dup2\n      mstore\n      0x04\n      add\n      0x20\n      mload(0x40)\n      dup1\n      dup4\n      sub\n      dup2\n      dup7\n      dup1\n      extcodesize\n      iszero\n      dup1\n      iszero\n      tag_63\n      jumpi\n      0x00\n      dup1\n      revert\n    tag_63:\n      pop\n      gas\n      staticcall\n      iszero\n      dup1\n      iszero\n      tag_65\n      jumpi\n      returndatasize\n      0x00\n      dup1\n      returndatacopy\n      revert(0x00, returndatasize)\n    tag_65:\n      pop\n      pop\n      pop\n      pop\n      mload(0x40)\n      returndatasize\n      not(0x1f)\n      0x1f\n      dup3\n      add\n      and\n      dup3\n      add\n      dup1\n      0x40\n      mstore\n      pop\n      dup2\n      add\n      swap1\n      tag_66\n      swap2\n      swap1\n      tag_67\n      jump\t// in\n    tag_66:\n        /* \"FeeManager.sol\":1951:1977  oracle.getUSDPrice() / 100 */\n      tag_68\n      swap2\n      swap1\n      tag_69\n      jump\t// in\n    tag_68:\n        /* \"FeeManager.sol\":1950:1999  (oracle.getUSDPrice() / 100) * SERVICE_FEE_CANCEL */\n      tag_70\n      swap2\n      swap1\n      tag_71\n      jump\t// in\n    tag_70:\n        /* \"FeeManager.sol\":1943:1999  return (oracle.getUSDPrice() / 100) * SERVICE_FEE_CANCEL */\n      swap1\n      pop\n        /* \"FeeManager.sol\":1882:2007  function cancelFee() public view returns(uint256) {\r... */\n      swap1\n      jump\t// out\n        /* \"FeeManager.sol\":1749:1874  function acceptFee() public view returns(uint256) {\r... */\n    tag_21:\n        /* \"FeeManager.sol\":1790:1797  uint256 */\n      0x00\n        /* \"FeeManager.sol\":1848:1866  SERVICE_FEE_ACCEPT */\n      sload(0x03)\n        /* \"FeeManager.sol\":1841:1844  100 */\n      0x64\n        /* \"FeeManager.sol\":1818:1824  oracle */\n      0x05\n      0x00\n      swap1\n      sload\n      swap1\n      0x0100\n      exp\n      swap1\n      div\n      0xffffffffffffffffffffffffffffffffffffffff\n      and\n        /* \"FeeManager.sol\":1818:1836  oracle.getUSDPrice */\n      0xffffffffffffffffffffffffffffffffffffffff\n      and\n      0xc338287f\n        /* \"FeeManager.sol\":1818:1838  oracle.getUSDPrice() */\n      mload(0x40)\n      dup2\n      0xffffffff\n      and\n      0xe0\n      shl\n      dup2\n      mstore\n      0x04\n      add\n      0x20\n      mload(0x40)\n      dup1\n      dup4\n      sub\n      dup2\n      dup7\n      dup1\n      extcodesize\n      iszero\n      dup1\n      iszero\n      tag_73\n      jumpi\n      0x00\n      dup1\n      revert\n    tag_73:\n      pop\n      gas\n      staticcall\n      iszero\n      dup1\n      iszero\n      tag_75\n      jumpi\n      returndatasize\n      0x00\n      dup1\n      returndatacopy\n      revert(0x00, returndatasize)\n    tag_75:\n      pop\n      pop\n      pop\n      pop\n      mload(0x40)\n      returndatasize\n      not(0x1f)\n      0x1f\n      dup3\n      add\n      and\n      dup3\n      add\n      dup1\n      0x40\n      mstore\n      pop\n      dup2\n      add\n      swap1\n      tag_76\n      swap2\n      swap1\n      tag_67\n      jump\t// in\n    tag_76:\n        /* \"FeeManager.sol\":1818:1844  oracle.getUSDPrice() / 100 */\n      tag_77\n      swap2\n      swap1\n      tag_69\n      jump\t// in\n    tag_77:\n        /* \"FeeManager.sol\":1817:1866  (oracle.getUSDPrice() / 100) * SERVICE_FEE_ACCEPT */\n      tag_78\n      swap2\n      swap1\n      tag_71\n      jump\t// in\n    tag_78:\n        /* \"FeeManager.sol\":1810:1866  return (oracle.getUSDPrice() / 100) * SERVICE_FEE_ACCEPT */\n      swap1\n      pop\n        /* \"FeeManager.sol\":1749:1874  function acceptFee() public view returns(uint256) {\r... */\n      swap1\n      jump\t// out\n        /* \"@openzeppelin/contracts/security/Pausable.sol\":1098:1182  function paused() public view virtual returns (bool) {... */\n    tag_24:\n        /* \"@openzeppelin/contracts/security/Pausable.sol\":1145:1149  bool */\n      0x00\n        /* \"@openzeppelin/contracts/security/Pausable.sol\":1168:1175  _paused */\n      dup1\n      0x00\n      swap1\n      sload\n      swap1\n      0x0100\n      exp\n      swap1\n      div\n      0xff\n      and\n        /* \"@openzeppelin/contracts/security/Pausable.sol\":1161:1175  return _paused */\n      swap1\n      pop\n        /* \"@openzeppelin/contracts/security/Pausable.sol\":1098:1182  function paused() public view virtual returns (bool) {... */\n      swap1\n      jump\t// out\n        /* \"FeeManager.sol\":1551:1741  function setFee(uint256 _fee) public onlyOwner returns(bool) {\r... */\n    tag_30:\n        /* \"FeeManager.sol\":1606:1610  bool */\n      0x00\n        /* \"@openzeppelin/contracts/access/Ownable.sol\":1259:1271  _msgSender() */\n      tag_81\n        /* \"@openzeppelin/contracts/access/Ownable.sol\":1259:1269  _msgSender */\n      tag_82\n        /* \"@openzeppelin/contracts/access/Ownable.sol\":1259:1271  _msgSender() */\n      jump\t// in\n    tag_81:\n        /* \"@openzeppelin/contracts/access/Ownable.sol\":1248:1271  owner() == _msgSender() */\n      0xffffffffffffffffffffffffffffffffffffffff\n      and\n        /* \"@openzeppelin/contracts/access/Ownable.sol\":1248:1255  owner() */\n      tag_83\n        /* \"@openzeppelin/contracts/access/Ownable.sol\":1248:1253  owner */\n      tag_40\n        /* \"@openzeppelin/contracts/access/Ownable.sol\":1248:1255  owner() */\n      jump\t// in\n    tag_83:\n        /* \"@openzeppelin/contracts/access/Ownable.sol\":1248:1271  owner() == _msgSender() */\n      0xffffffffffffffffffffffffffffffffffffffff\n      and\n      eq\n        /* \"@openzeppelin/contracts/access/Ownable.sol\":1240:1308  require(owner() == _msgSender(), \"Ownable: caller is not the owner\") */\n      tag_84\n      jumpi\n      mload(0x40)\n      0x08c379a000000000000000000000000000000000000000000000000000000000\n      dup2\n      mstore\n      0x04\n      add\n      tag_85\n      swap1\n      tag_86\n      jump\t// in\n    tag_85:\n      mload(0x40)\n      dup1\n      swap2\n      sub\n      swap1\n      revert\n    tag_84:\n        /* \"FeeManager.sol\":1637:1641  _fee */\n      dup2\n        /* \"FeeManager.sol\":1623:1634  SERVICE_FEE */\n      0x01\n        /* \"FeeManager.sol\":1623:1641  SERVICE_FEE = _fee */\n      dup2\n      swap1\n      sstore\n      pop\n        /* \"FeeManager.sol\":1692:1710  SERVICE_FEE_ACCEPT */\n      sload(0x03)\n        /* \"FeeManager.sol\":1673:1691  SERVICE_FEE_CANCEL */\n      sload(0x02)\n        /* \"FeeManager.sol\":1661:1672  SERVICE_FEE */\n      sload(0x01)\n        /* \"FeeManager.sol\":1657:1711  Fee(SERVICE_FEE,SERVICE_FEE_CANCEL,SERVICE_FEE_ACCEPT) */\n      0x7db2709f6e7adf14b75ac6a4bc01b5f3ff9000017f9648c2b70f6ca8616d8f57\n      mload(0x40)\n      mload(0x40)\n      dup1\n      swap2\n      sub\n      swap1\n      log4\n        /* \"FeeManager.sol\":1729:1733  true */\n      0x01\n        /* \"FeeManager.sol\":1722:1733  return true */\n      swap1\n      pop\n        /* \"FeeManager.sol\":1551:1741  function setFee(uint256 _fee) public onlyOwner returns(bool) {\r... */\n      swap2\n      swap1\n      pop\n      jump\t// out\n        /* \"@openzeppelin/contracts/access/Ownable.sol\":1668:1769  function renounceOwnership() public virtual onlyOwner {... */\n    tag_33:\n        /* \"@openzeppelin/contracts/access/Ownable.sol\":1259:1271  _msgSender() */\n      tag_89\n        /* \"@openzeppelin/contracts/access/Ownable.sol\":1259:1269  _msgSender */\n      tag_82\n        /* \"@openzeppelin/contracts/access/Ownable.sol\":1259:1271  _msgSender() */\n      jump\t// in\n    tag_89:\n        /* \"@openzeppelin/contracts/access/Ownable.sol\":1248:1271  owner() == _msgSender() */\n      0xffffffffffffffffffffffffffffffffffffffff\n      and\n        /* \"@openzeppelin/contracts/access/Ownable.sol\":1248:1255  owner() */\n      tag_90\n        /* \"@openzeppelin/contracts/access/Ownable.sol\":1248:1253  owner */\n      tag_40\n        /* \"@openzeppelin/contracts/access/Ownable.sol\":1248:1255  owner() */\n      jump\t// in\n    tag_90:\n        /* \"@openzeppelin/contracts/access/Ownable.sol\":1248:1271  owner() == _msgSender() */\n      0xffffffffffffffffffffffffffffffffffffffff\n      and\n      eq\n        /* \"@openzeppelin/contracts/access/Ownable.sol\":1240:1308  require(owner() == _msgSender(), \"Ownable: caller is not the owner\") */\n      tag_91\n      jumpi\n      mload(0x40)\n      0x08c379a000000000000000000000000000000000000000000000000000000000\n      dup2\n      mstore\n      0x04\n      add\n      tag_92\n      swap1\n      tag_86\n      jump\t// in\n    tag_92:\n      mload(0x40)\n      dup1\n      swap2\n      sub\n      swap1\n      revert\n    tag_91:\n        /* \"@openzeppelin/contracts/access/Ownable.sol\":1732:1762  _transferOwnership(address(0)) */\n      tag_94\n        /* \"@openzeppelin/contracts/access/Ownable.sol\":1759:1760  0 */\n      0x00\n        /* \"@openzeppelin/contracts/access/Ownable.sol\":1732:1750  _transferOwnership */\n      tag_95\n        /* \"@openzeppelin/contracts/access/Ownable.sol\":1732:1762  _transferOwnership(address(0)) */\n      jump\t// in\n    tag_94:\n        /* \"@openzeppelin/contracts/access/Ownable.sol\":1668:1769  function renounceOwnership() public virtual onlyOwner {... */\n      jump\t// out\n        /* \"FeeManager.sol\":2309:2487  function setOracle(address newOracle) public onlyOwner returns(bool) {\r... */\n    tag_37:\n        /* \"FeeManager.sol\":2372:2376  bool */\n      0x00\n        /* \"@openzeppelin/contracts/access/Ownable.sol\":1259:1271  _msgSender() */\n      tag_97\n        /* \"@openzeppelin/contracts/access/Ownable.sol\":1259:1269  _msgSender */\n      tag_82\n        /* \"@openzeppelin/contracts/access/Ownable.sol\":1259:1271  _msgSender() */\n      jump\t// in\n    tag_97:\n        /* \"@openzeppelin/contracts/access/Ownable.sol\":1248:1271  owner() == _msgSender() */\n      0xffffffffffffffffffffffffffffffffffffffff\n      and\n        /* \"@openzeppelin/contracts/access/Ownable.sol\":1248:1255  owner() */\n      tag_98\n        /* \"@openzeppelin/contracts/access/Ownable.sol\":1248:1253  owner */\n      tag_40\n        /* \"@openzeppelin/contracts/access/Ownable.sol\":1248:1255  owner() */\n      jump\t// in\n    tag_98:\n        /* \"@openzeppelin/contracts/access/Ownable.sol\":1248:1271  owner() == _msgSender() */\n      0xffffffffffffffffffffffffffffffffffffffff\n      and\n      eq\n        /* \"@openzeppelin/contracts/access/Ownable.sol\":1240:1308  require(owner() == _msgSender(), \"Ownable: caller is not the owner\") */\n      tag_99\n      jumpi\n      mload(0x40)\n      0x08c379a000000000000000000000000000000000000000000000000000000000\n      dup2\n      mstore\n      0x04\n      add\n      tag_100\n      swap1\n      tag_86\n      jump\t// in\n    tag_100:\n      mload(0x40)\n      dup1\n      swap2\n      sub\n      swap1\n      revert\n    tag_99:\n        /* \"FeeManager.sol\":2414:2423  newOracle */\n      dup2\n        /* \"FeeManager.sol\":2389:2395  oracle */\n      0x05\n      0x00\n        /* \"FeeManager.sol\":2389:2424  oracle = ChainLinkOracle(newOracle) */\n      0x0100\n      exp\n      dup2\n      sload\n      dup2\n      0xffffffffffffffffffffffffffffffffffffffff\n      mul\n      not\n      and\n      swap1\n      dup4\n      0xffffffffffffffffffffffffffffffffffffffff\n      and\n      mul\n      or\n      swap1\n      sstore\n      pop\n        /* \"FeeManager.sol\":2447:2456  newOracle */\n      dup2\n        /* \"FeeManager.sol\":2440:2457  Oracle(newOracle) */\n      0xffffffffffffffffffffffffffffffffffffffff\n      and\n      0x6d4881172853e787189216de6d514b739b8ad6a331e19518c66d3dc2b93639b5\n      mload(0x40)\n      mload(0x40)\n      dup1\n      swap2\n      sub\n      swap1\n      log2\n        /* \"FeeManager.sol\":2475:2479  true */\n      0x01\n        /* \"FeeManager.sol\":2468:2479  return true */\n      swap1\n      pop\n        /* \"FeeManager.sol\":2309:2487  function setOracle(address newOracle) public onlyOwner returns(bool) {\r... */\n      swap2\n      swap1\n      pop\n      jump\t// out\n        /* \"@openzeppelin/contracts/access/Ownable.sol\":1036:1121  function owner() public view virtual returns (address) {... */\n    tag_40:\n        /* \"@openzeppelin/contracts/access/Ownable.sol\":1082:1089  address */\n      0x00\n        /* \"@openzeppelin/contracts/access/Ownable.sol\":1108:1114  _owner */\n      dup1\n      0x01\n      swap1\n      sload\n      swap1\n      0x0100\n      exp\n      swap1\n      div\n      0xffffffffffffffffffffffffffffffffffffffff\n      and\n        /* \"@openzeppelin/contracts/access/Ownable.sol\":1101:1114  return _owner */\n      swap1\n      pop\n        /* \"@openzeppelin/contracts/access/Ownable.sol\":1036:1121  function owner() public view virtual returns (address) {... */\n      swap1\n      jump\t// out\n        /* \"FeeManager.sol\":1017:1233  function setAcceptFee(uint256 _acceptFee) public onlyOwner  returns(bool) {\r... */\n    tag_45:\n        /* \"FeeManager.sol\":1085:1089  bool */\n      0x00\n        /* \"@openzeppelin/contracts/access/Ownable.sol\":1259:1271  _msgSender() */\n      tag_104\n        /* \"@openzeppelin/contracts/access/Ownable.sol\":1259:1269  _msgSender */\n      tag_82\n        /* \"@openzeppelin/contracts/access/Ownable.sol\":1259:1271  _msgSender() */\n      jump\t// in\n    tag_104:\n        /* \"@openzeppelin/contracts/access/Ownable.sol\":1248:1271  owner() == _msgSender() */\n      0xffffffffffffffffffffffffffffffffffffffff\n      and\n        /* \"@openzeppelin/contracts/access/Ownable.sol\":1248:1255  owner() */\n      tag_105\n        /* \"@openzeppelin/contracts/access/Ownable.sol\":1248:1253  owner */\n      tag_40\n        /* \"@openzeppelin/contracts/access/Ownable.sol\":1248:1255  owner() */\n      jump\t// in\n    tag_105:\n        /* \"@openzeppelin/contracts/access/Ownable.sol\":1248:1271  owner() == _msgSender() */\n      0xffffffffffffffffffffffffffffffffffffffff\n      and\n      eq\n        /* \"@openzeppelin/contracts/access/Ownable.sol\":1240:1308  require(owner() == _msgSender(), \"Ownable: caller is not the owner\") */\n      tag_106\n      jumpi\n      mload(0x40)\n      0x08c379a000000000000000000000000000000000000000000000000000000000\n      dup2\n      mstore\n      0x04\n      add\n      tag_107\n      swap1\n      tag_86\n      jump\t// in\n    tag_107:\n      mload(0x40)\n      dup1\n      swap2\n      sub\n      swap1\n      revert\n    tag_106:\n        /* \"FeeManager.sol\":1123:1133  _acceptFee */\n      dup2\n        /* \"FeeManager.sol\":1102:1120  SERVICE_FEE_ACCEPT */\n      0x03\n        /* \"FeeManager.sol\":1102:1133  SERVICE_FEE_ACCEPT = _acceptFee */\n      dup2\n      swap1\n      sstore\n      pop\n        /* \"FeeManager.sol\":1184:1202  SERVICE_FEE_ACCEPT */\n      sload(0x03)\n        /* \"FeeManager.sol\":1165:1183  SERVICE_FEE_CANCEL */\n      sload(0x02)\n        /* \"FeeManager.sol\":1153:1164  SERVICE_FEE */\n      sload(0x01)\n        /* \"FeeManager.sol\":1149:1203  Fee(SERVICE_FEE,SERVICE_FEE_CANCEL,SERVICE_FEE_ACCEPT) */\n      0x7db2709f6e7adf14b75ac6a4bc01b5f3ff9000017f9648c2b70f6ca8616d8f57\n      mload(0x40)\n      mload(0x40)\n      dup1\n      swap2\n      sub\n      swap1\n      log4\n        /* \"FeeManager.sol\":1221:1225  true */\n      0x01\n        /* \"FeeManager.sol\":1214:1225  return true */\n      swap1\n      pop\n        /* \"FeeManager.sol\":1017:1233  function setAcceptFee(uint256 _acceptFee) public onlyOwner  returns(bool) {\r... */\n      swap2\n      swap1\n      pop\n      jump\t// out\n        /* \"FeeManager.sol\":1286:1502  function setCancelFee(uint256 _cancelFee) public onlyOwner  returns(bool) {\r... */\n    tag_49:\n        /* \"FeeManager.sol\":1354:1358  bool */\n      0x00\n        /* \"@openzeppelin/contracts/access/Ownable.sol\":1259:1271  _msgSender() */\n      tag_110\n        /* \"@openzeppelin/contracts/access/Ownable.sol\":1259:1269  _msgSender */\n      tag_82\n        /* \"@openzeppelin/contracts/access/Ownable.sol\":1259:1271  _msgSender() */\n      jump\t// in\n    tag_110:\n        /* \"@openzeppelin/contracts/access/Ownable.sol\":1248:1271  owner() == _msgSender() */\n      0xffffffffffffffffffffffffffffffffffffffff\n      and\n        /* \"@openzeppelin/contracts/access/Ownable.sol\":1248:1255  owner() */\n      tag_111\n        /* \"@openzeppelin/contracts/access/Ownable.sol\":1248:1253  owner */\n      tag_40\n        /* \"@openzeppelin/contracts/access/Ownable.sol\":1248:1255  owner() */\n      jump\t// in\n    tag_111:\n        /* \"@openzeppelin/contracts/access/Ownable.sol\":1248:1271  owner() == _msgSender() */\n      0xffffffffffffffffffffffffffffffffffffffff\n      and\n      eq\n        /* \"@openzeppelin/contracts/access/Ownable.sol\":1240:1308  require(owner() == _msgSender(), \"Ownable: caller is not the owner\") */\n      tag_112\n      jumpi\n      mload(0x40)\n      0x08c379a000000000000000000000000000000000000000000000000000000000\n      dup2\n      mstore\n      0x04\n      add\n      tag_113\n      swap1\n      tag_86\n      jump\t// in\n    tag_113:\n      mload(0x40)\n      dup1\n      swap2\n      sub\n      swap1\n      revert\n    tag_112:\n        /* \"FeeManager.sol\":1392:1402  _cancelFee */\n      dup2\n        /* \"FeeManager.sol\":1371:1389  SERVICE_FEE_CANCEL */\n      0x02\n        /* \"FeeManager.sol\":1371:1402  SERVICE_FEE_CANCEL = _cancelFee */\n      dup2\n      swap1\n      sstore\n      pop\n        /* \"FeeManager.sol\":1453:1471  SERVICE_FEE_ACCEPT */\n      sload(0x03)\n        /* \"FeeManager.sol\":1434:1452  SERVICE_FEE_CANCEL */\n      sload(0x02)\n        /* \"FeeManager.sol\":1422:1433  SERVICE_FEE */\n      sload(0x01)\n        /* \"FeeManager.sol\":1418:1472  Fee(SERVICE_FEE,SERVICE_FEE_CANCEL,SERVICE_FEE_ACCEPT) */\n      0x7db2709f6e7adf14b75ac6a4bc01b5f3ff9000017f9648c2b70f6ca8616d8f57\n      mload(0x40)\n      mload(0x40)\n      dup1\n      swap2\n      sub\n      swap1\n      log4\n        /* \"FeeManager.sol\":1490:1494  true */\n      0x01\n        /* \"FeeManager.sol\":1483:1494  return true */\n      swap1\n      pop\n        /* \"FeeManager.sol\":1286:1502  function setCancelFee(uint256 _cancelFee) public onlyOwner  returns(bool) {\r... */\n      swap2\n      swap1\n      pop\n      jump\t// out\n        /* \"FeeManager.sol\":2135:2301  function setHolder(address payable newHolder) public onlyOwner returns(bool) {\r... */\n    tag_54:\n        /* \"FeeManager.sol\":2206:2210  bool */\n      0x00\n        /* \"@openzeppelin/contracts/access/Ownable.sol\":1259:1271  _msgSender() */\n      tag_116\n        /* \"@openzeppelin/contracts/access/Ownable.sol\":1259:1269  _msgSender */\n      tag_82\n        /* \"@openzeppelin/contracts/access/Ownable.sol\":1259:1271  _msgSender() */\n      jump\t// in\n    tag_116:\n        /* \"@openzeppelin/contracts/access/Ownable.sol\":1248:1271  owner() == _msgSender() */\n      0xffffffffffffffffffffffffffffffffffffffff\n      and\n        /* \"@openzeppelin/contracts/access/Ownable.sol\":1248:1255  owner() */\n      tag_117\n        /* \"@openzeppelin/contracts/access/Ownable.sol\":1248:1253  owner */\n      tag_40\n        /* \"@openzeppelin/contracts/access/Ownable.sol\":1248:1255  owner() */\n      jump\t// in\n    tag_117:\n        /* \"@openzeppelin/contracts/access/Ownable.sol\":1248:1271  owner() == _msgSender() */\n      0xffffffffffffffffffffffffffffffffffffffff\n      and\n      eq\n        /* \"@openzeppelin/contracts/access/Ownable.sol\":1240:1308  require(owner() == _msgSender(), \"Ownable: caller is not the owner\") */\n      tag_118\n      jumpi\n      mload(0x40)\n      0x08c379a000000000000000000000000000000000000000000000000000000000\n      dup2\n      mstore\n      0x04\n      add\n      tag_119\n      swap1\n      tag_86\n      jump\t// in\n    tag_119:\n      mload(0x40)\n      dup1\n      swap2\n      sub\n      swap1\n      revert\n    tag_118:\n        /* \"FeeManager.sol\":2232:2241  newHolder */\n      dup2\n        /* \"FeeManager.sol\":2223:2229  holder */\n      0x04\n      0x00\n        /* \"FeeManager.sol\":2223:2241  holder = newHolder */\n      0x0100\n      exp\n      dup2\n      sload\n      dup2\n      0xffffffffffffffffffffffffffffffffffffffff\n      mul\n      not\n      and\n      swap1\n      dup4\n      0xffffffffffffffffffffffffffffffffffffffff\n      and\n      mul\n      or\n      swap1\n      sstore\n      pop\n        /* \"FeeManager.sol\":2264:2270  holder */\n      0x04\n      0x00\n      swap1\n      sload\n      swap1\n      0x0100\n      exp\n      swap1\n      div\n      0xffffffffffffffffffffffffffffffffffffffff\n      and\n        /* \"FeeManager.sol\":2257:2271  Holder(holder) */\n      0xffffffffffffffffffffffffffffffffffffffff\n      and\n      0x66743038d969508e26e3d032a34d950971853817a94fd22e88316055e1145bf4\n      mload(0x40)\n      mload(0x40)\n      dup1\n      swap2\n      sub\n      swap1\n      log2\n        /* \"FeeManager.sol\":2289:2293  true */\n      0x01\n        /* \"FeeManager.sol\":2282:2293  return true */\n      swap1\n      pop\n        /* \"FeeManager.sol\":2135:2301  function setHolder(address payable newHolder) public onlyOwner returns(bool) {\r... */\n      swap2\n      swap1\n      pop\n      jump\t// out\n        /* \"FeeManager.sol\":2015:2127  function fee() public view returns(uint256) {\r... */\n    tag_57:\n        /* \"FeeManager.sol\":2050:2057  uint256 */\n      0x00\n        /* \"FeeManager.sol\":2108:2119  SERVICE_FEE */\n      sload(0x01)\n        /* \"FeeManager.sol\":2101:2104  100 */\n      0x64\n        /* \"FeeManager.sol\":2078:2084  oracle */\n      0x05\n      0x00\n      swap1\n      sload\n      swap1\n      0x0100\n      exp\n      swap1\n      div\n      0xffffffffffffffffffffffffffffffffffffffff\n      and\n        /* \"FeeManager.sol\":2078:2096  oracle.getUSDPrice */\n      0xffffffffffffffffffffffffffffffffffffffff\n      and\n      0xc338287f\n        /* \"FeeManager.sol\":2078:2098  oracle.getUSDPrice() */\n      mload(0x40)\n      dup2\n      0xffffffff\n      and\n      0xe0\n      shl\n      dup2\n      mstore\n      0x04\n      add\n      0x20\n      mload(0x40)\n      dup1\n      dup4\n      sub\n      dup2\n      dup7\n      dup1\n      extcodesize\n      iszero\n      dup1\n      iszero\n      tag_122\n      jumpi\n      0x00\n      dup1\n      revert\n    tag_122:\n      pop\n      gas\n      staticcall\n      iszero\n      dup1\n      iszero\n      tag_124\n      jumpi\n      returndatasize\n      0x00\n      dup1\n      returndatacopy\n      revert(0x00, returndatasize)\n    tag_124:\n      pop\n      pop\n      pop\n      pop\n      mload(0x40)\n      returndatasize\n      not(0x1f)\n      0x1f\n      dup3\n      add\n      and\n      dup3\n      add\n      dup1\n      0x40\n      mstore\n      pop\n      dup2\n      add\n      swap1\n      tag_125\n      swap2\n      swap1\n      tag_67\n      jump\t// in\n    tag_125:\n        /* \"FeeManager.sol\":2078:2104  oracle.getUSDPrice() / 100 */\n      tag_126\n      swap2\n      swap1\n      tag_69\n      jump\t// in\n    tag_126:\n        /* \"FeeManager.sol\":2077:2119  (oracle.getUSDPrice() / 100) * SERVICE_FEE */\n      tag_127\n      swap2\n      swap1\n      tag_71\n      jump\t// in\n    tag_127:\n        /* \"FeeManager.sol\":2070:2119  return (oracle.getUSDPrice() / 100) * SERVICE_FEE */\n      swap1\n      pop\n        /* \"FeeManager.sol\":2015:2127  function fee() public view returns(uint256) {\r... */\n      swap1\n      jump\t// out\n        /* \"@openzeppelin/contracts/access/Ownable.sol\":1918:2116  function transferOwnership(address newOwner) public virtual onlyOwner {... */\n    tag_61:\n        /* \"@openzeppelin/contracts/access/Ownable.sol\":1259:1271  _msgSender() */\n      tag_129\n        /* \"@openzeppelin/contracts/access/Ownable.sol\":1259:1269  _msgSender */\n      tag_82\n        /* \"@openzeppelin/contracts/access/Ownable.sol\":1259:1271  _msgSender() */\n      jump\t// in\n    tag_129:\n        /* \"@openzeppelin/contracts/access/Ownable.sol\":1248:1271  owner() == _msgSender() */\n      0xffffffffffffffffffffffffffffffffffffffff\n      and\n        /* \"@openzeppelin/contracts/access/Ownable.sol\":1248:1255  owner() */\n      tag_130\n        /* \"@openzeppelin/contracts/access/Ownable.sol\":1248:1253  owner */\n      tag_40\n        /* \"@openzeppelin/contracts/access/Ownable.sol\":1248:1255  owner() */\n      jump\t// in\n    tag_130:\n        /* \"@openzeppelin/contracts/access/Ownable.sol\":1248:1271  owner() == _msgSender() */\n      0xffffffffffffffffffffffffffffffffffffffff\n      and\n      eq\n        /* \"@openzeppelin/contracts/access/Ownable.sol\":1240:1308  require(owner() == _msgSender(), \"Ownable: caller is not the owner\") */\n      tag_131\n      jumpi\n      mload(0x40)\n      0x08c379a000000000000000000000000000000000000000000000000000000000\n      dup2\n      mstore\n      0x04\n      add\n      tag_132\n      swap1\n      tag_86\n      jump\t// in\n    tag_132:\n      mload(0x40)\n      dup1\n      swap2\n      sub\n      swap1\n      revert\n    tag_131:\n        /* \"@openzeppelin/contracts/access/Ownable.sol\":2026:2027  0 */\n      0x00\n        /* \"@openzeppelin/contracts/access/Ownable.sol\":2006:2028  newOwner != address(0) */\n      0xffffffffffffffffffffffffffffffffffffffff\n      and\n        /* \"@openzeppelin/contracts/access/Ownable.sol\":2006:2014  newOwner */\n      dup2\n        /* \"@openzeppelin/contracts/access/Ownable.sol\":2006:2028  newOwner != address(0) */\n      0xffffffffffffffffffffffffffffffffffffffff\n      and\n      eq\n      iszero\n        /* \"@openzeppelin/contracts/access/Ownable.sol\":1998:2071  require(newOwner != address(0), \"Ownable: new owner is the zero address\") */\n      tag_134\n      jumpi\n      mload(0x40)\n      0x08c379a000000000000000000000000000000000000000000000000000000000\n      dup2\n      mstore\n      0x04\n      add\n      tag_135\n      swap1\n      tag_136\n      jump\t// in\n    tag_135:\n      mload(0x40)\n      dup1\n      swap2\n      sub\n      swap1\n      revert\n    tag_134:\n        /* \"@openzeppelin/contracts/access/Ownable.sol\":2081:2109  _transferOwnership(newOwner) */\n      tag_137\n        /* \"@openzeppelin/contracts/access/Ownable.sol\":2100:2108  newOwner */\n      dup2\n        /* \"@openzeppelin/contracts/access/Ownable.sol\":2081:2099  _transferOwnership */\n      tag_95\n        /* \"@openzeppelin/contracts/access/Ownable.sol\":2081:2109  _transferOwnership(newOwner) */\n      jump\t// in\n    tag_137:\n        /* \"@openzeppelin/contracts/access/Ownable.sol\":1918:2116  function transferOwnership(address newOwner) public virtual onlyOwner {... */\n      pop\n      jump\t// out\n        /* \"@openzeppelin/contracts/utils/Context.sol\":640:736  function _msgSender() internal view virtual returns (address) {... */\n    tag_82:\n        /* \"@openzeppelin/contracts/utils/Context.sol\":693:700  address */\n      0x00\n        /* \"@openzeppelin/contracts/utils/Context.sol\":719:729  msg.sender */\n      caller\n        /* \"@openzeppelin/contracts/utils/Context.sol\":712:729  return msg.sender */\n      swap1\n      pop\n        /* \"@openzeppelin/contracts/utils/Context.sol\":640:736  function _msgSender() internal view virtual returns (address) {... */\n      swap1\n      jump\t// out\n        /* \"@openzeppelin/contracts/access/Ownable.sol\":2270:2457  function _transferOwnership(address newOwner) internal virtual {... */\n    tag_95:\n        /* \"@openzeppelin/contracts/access/Ownable.sol\":2343:2359  address oldOwner */\n      0x00\n        /* \"@openzeppelin/contracts/access/Ownable.sol\":2362:2368  _owner */\n      dup1\n      0x01\n      swap1\n      sload\n      swap1\n      0x0100\n      exp\n      swap1\n      div\n      0xffffffffffffffffffffffffffffffffffffffff\n      and\n        /* \"@openzeppelin/contracts/access/Ownable.sol\":2343:2368  address oldOwner = _owner */\n      swap1\n      pop\n        /* \"@openzeppelin/contracts/access/Ownable.sol\":2387:2395  newOwner */\n      dup2\n        /* \"@openzeppelin/contracts/access/Ownable.sol\":2378:2384  _owner */\n      0x00\n      0x01\n        /* \"@openzeppelin/contracts/access/Ownable.sol\":2378:2395  _owner = newOwner */\n      0x0100\n      exp\n      dup2\n      sload\n      dup2\n      0xffffffffffffffffffffffffffffffffffffffff\n      mul\n      not\n      and\n      swap1\n      dup4\n      0xffffffffffffffffffffffffffffffffffffffff\n      and\n      mul\n      or\n      swap1\n      sstore\n      pop\n        /* \"@openzeppelin/contracts/access/Ownable.sol\":2441:2449  newOwner */\n      dup2\n        /* \"@openzeppelin/contracts/access/Ownable.sol\":2410:2450  OwnershipTransferred(oldOwner, newOwner) */\n      0xffffffffffffffffffffffffffffffffffffffff\n      and\n        /* \"@openzeppelin/contracts/access/Ownable.sol\":2431:2439  oldOwner */\n      dup2\n        /* \"@openzeppelin/contracts/access/Ownable.sol\":2410:2450  OwnershipTransferred(oldOwner, newOwner) */\n      0xffffffffffffffffffffffffffffffffffffffff\n      and\n      0x8be0079c531659141344cd1fd0a4f28419497f9722a3daafe3b4186f6b6457e0\n      mload(0x40)\n      mload(0x40)\n      dup1\n      swap2\n      sub\n      swap1\n      log3\n        /* \"@openzeppelin/contracts/access/Ownable.sol\":2333:2457  {... */\n      pop\n        /* \"@openzeppelin/contracts/access/Ownable.sol\":2270:2457  function _transferOwnership(address newOwner) internal virtual {... */\n      pop\n      jump\t// out\n        /* \"#utility.yul\":7:146   */\n    tag_141:\n        /* \"#utility.yul\":53:58   */\n      0x00\n        /* \"#utility.yul\":91:97   */\n      dup2\n        /* \"#utility.yul\":78:98   */\n      calldataload\n        /* \"#utility.yul\":69:98   */\n      swap1\n      pop\n        /* \"#utility.yul\":107:140   */\n      tag_143\n        /* \"#utility.yul\":134:139   */\n      dup2\n        /* \"#utility.yul\":107:140   */\n      tag_144\n      jump\t// in\n    tag_143:\n        /* \"#utility.yul\":59:146   */\n      swap3\n      swap2\n      pop\n      pop\n      jump\t// out\n        /* \"#utility.yul\":152:307   */\n    tag_145:\n        /* \"#utility.yul\":206:211   */\n      0x00\n        /* \"#utility.yul\":244:250   */\n      dup2\n        /* \"#utility.yul\":231:251   */\n      calldataload\n        /* \"#utility.yul\":222:251   */\n      swap1\n      pop\n        /* \"#utility.yul\":260:301   */\n      tag_147\n        /* \"#utility.yul\":295:300   */\n      dup2\n        /* \"#utility.yul\":260:301   */\n      tag_148\n      jump\t// in\n    tag_147:\n        /* \"#utility.yul\":212:307   */\n      swap3\n      swap2\n      pop\n      pop\n      jump\t// out\n        /* \"#utility.yul\":313:452   */\n    tag_149:\n        /* \"#utility.yul\":359:364   */\n      0x00\n        /* \"#utility.yul\":397:403   */\n      dup2\n        /* \"#utility.yul\":384:404   */\n      calldataload\n        /* \"#utility.yul\":375:404   */\n      swap1\n      pop\n        /* \"#utility.yul\":413:446   */\n      tag_151\n        /* \"#utility.yul\":440:445   */\n      dup2\n        /* \"#utility.yul\":413:446   */\n      tag_152\n      jump\t// in\n    tag_151:\n        /* \"#utility.yul\":365:452   */\n      swap3\n      swap2\n      pop\n      pop\n      jump\t// out\n        /* \"#utility.yul\":458:601   */\n    tag_153:\n        /* \"#utility.yul\":515:520   */\n      0x00\n        /* \"#utility.yul\":546:552   */\n      dup2\n        /* \"#utility.yul\":540:553   */\n      mload\n        /* \"#utility.yul\":531:553   */\n      swap1\n      pop\n        /* \"#utility.yul\":562:595   */\n      tag_155\n        /* \"#utility.yul\":589:594   */\n      dup2\n        /* \"#utility.yul\":562:595   */\n      tag_152\n      jump\t// in\n    tag_155:\n        /* \"#utility.yul\":521:601   */\n      swap3\n      swap2\n      pop\n      pop\n      jump\t// out\n        /* \"#utility.yul\":607:936   */\n    tag_36:\n        /* \"#utility.yul\":666:672   */\n      0x00\n        /* \"#utility.yul\":715:717   */\n      0x20\n        /* \"#utility.yul\":703:712   */\n      dup3\n        /* \"#utility.yul\":694:701   */\n      dup5\n        /* \"#utility.yul\":690:713   */\n      sub\n        /* \"#utility.yul\":686:718   */\n      slt\n        /* \"#utility.yul\":683:685   */\n      iszero\n      tag_157\n      jumpi\n        /* \"#utility.yul\":721:800   */\n      tag_158\n      tag_159\n      jump\t// in\n    tag_158:\n        /* \"#utility.yul\":683:685   */\n    tag_157:\n        /* \"#utility.yul\":841:842   */\n      0x00\n        /* \"#utility.yul\":866:919   */\n      tag_160\n        /* \"#utility.yul\":911:918   */\n      dup5\n        /* \"#utility.yul\":902:908   */\n      dup3\n        /* \"#utility.yul\":891:900   */\n      dup6\n        /* \"#utility.yul\":887:909   */\n      add\n        /* \"#utility.yul\":866:919   */\n      tag_141\n      jump\t// in\n    tag_160:\n        /* \"#utility.yul\":856:919   */\n      swap2\n      pop\n        /* \"#utility.yul\":812:929   */\n      pop\n        /* \"#utility.yul\":673:936   */\n      swap3\n      swap2\n      pop\n      pop\n      jump\t// out\n        /* \"#utility.yul\":942:1287   */\n    tag_53:\n        /* \"#utility.yul\":1009:1015   */\n      0x00\n        /* \"#utility.yul\":1058:1060   */\n      0x20\n        /* \"#utility.yul\":1046:1055   */\n      dup3\n        /* \"#utility.yul\":1037:1044   */\n      dup5\n        /* \"#utility.yul\":1033:1056   */\n      sub\n        /* \"#utility.yul\":1029:1061   */\n      slt\n        /* \"#utility.yul\":1026:1028   */\n      iszero\n      tag_162\n      jumpi\n        /* \"#utility.yul\":1064:1143   */\n      tag_163\n      tag_159\n      jump\t// in\n    tag_163:\n        /* \"#utility.yul\":1026:1028   */\n    tag_162:\n        /* \"#utility.yul\":1184:1185   */\n      0x00\n        /* \"#utility.yul\":1209:1270   */\n      tag_164\n        /* \"#utility.yul\":1262:1269   */\n      dup5\n        /* \"#utility.yul\":1253:1259   */\n      dup3\n        /* \"#utility.yul\":1242:1251   */\n      dup6\n        /* \"#utility.yul\":1238:1260   */\n      add\n        /* \"#utility.yul\":1209:1270   */\n      tag_145\n      jump\t// in\n    tag_164:\n        /* \"#utility.yul\":1199:1270   */\n      swap2\n      pop\n        /* \"#utility.yul\":1155:1280   */\n      pop\n        /* \"#utility.yul\":1016:1287   */\n      swap3\n      swap2\n      pop\n      pop\n      jump\t// out\n        /* \"#utility.yul\":1293:1622   */\n    tag_29:\n        /* \"#utility.yul\":1352:1358   */\n      0x00\n        /* \"#utility.yul\":1401:1403   */\n      0x20\n        /* \"#utility.yul\":1389:1398   */\n      dup3\n        /* \"#utility.yul\":1380:1387   */\n      dup5\n        /* \"#utility.yul\":1376:1399   */\n      sub\n        /* \"#utility.yul\":1372:1404   */\n      slt\n        /* \"#utility.yul\":1369:1371   */\n      iszero\n      tag_166\n      jumpi\n        /* \"#utility.yul\":1407:1486   */\n      tag_167\n      tag_159\n      jump\t// in\n    tag_167:\n        /* \"#utility.yul\":1369:1371   */\n    tag_166:\n        /* \"#utility.yul\":1527:1528   */\n      0x00\n        /* \"#utility.yul\":1552:1605   */\n      tag_168\n        /* \"#utility.yul\":1597:1604   */\n      dup5\n        /* \"#utility.yul\":1588:1594   */\n      dup3\n        /* \"#utility.yul\":1577:1586   */\n      dup6\n        /* \"#utility.yul\":1573:1595   */\n      add\n        /* \"#utility.yul\":1552:1605   */\n      tag_149\n      jump\t// in\n    tag_168:\n        /* \"#utility.yul\":1542:1605   */\n      swap2\n      pop\n        /* \"#utility.yul\":1498:1615   */\n      pop\n        /* \"#utility.yul\":1359:1622   */\n      swap3\n      swap2\n      pop\n      pop\n      jump\t// out\n        /* \"#utility.yul\":1628:1979   */\n    tag_67:\n        /* \"#utility.yul\":1698:1704   */\n      0x00\n        /* \"#utility.yul\":1747:1749   */\n      0x20\n        /* \"#utility.yul\":1735:1744   */\n      dup3\n        /* \"#utility.yul\":1726:1733   */\n      dup5\n        /* \"#utility.yul\":1722:1745   */\n      sub\n        /* \"#utility.yul\":1718:1750   */\n      slt\n        /* \"#utility.yul\":1715:1717   */\n      iszero\n      tag_170\n      jumpi\n        /* \"#utility.yul\":1753:1832   */\n      tag_171\n      tag_159\n      jump\t// in\n    tag_171:\n        /* \"#utility.yul\":1715:1717   */\n    tag_170:\n        /* \"#utility.yul\":1873:1874   */\n      0x00\n        /* \"#utility.yul\":1898:1962   */\n      tag_172\n        /* \"#utility.yul\":1954:1961   */\n      dup5\n        /* \"#utility.yul\":1945:1951   */\n      dup3\n        /* \"#utility.yul\":1934:1943   */\n      dup6\n        /* \"#utility.yul\":1930:1952   */\n      add\n        /* \"#utility.yul\":1898:1962   */\n      tag_153\n      jump\t// in\n    tag_172:\n        /* \"#utility.yul\":1888:1962   */\n      swap2\n      pop\n        /* \"#utility.yul\":1844:1972   */\n      pop\n        /* \"#utility.yul\":1705:1979   */\n      swap3\n      swap2\n      pop\n      pop\n      jump\t// out\n        /* \"#utility.yul\":1985:2103   */\n    tag_173:\n        /* \"#utility.yul\":2072:2096   */\n      tag_175\n        /* \"#utility.yul\":2090:2095   */\n      dup2\n        /* \"#utility.yul\":2072:2096   */\n      tag_176\n      jump\t// in\n    tag_175:\n        /* \"#utility.yul\":2067:2070   */\n      dup3\n        /* \"#utility.yul\":2060:2097   */\n      mstore\n        /* \"#utility.yul\":2050:2103   */\n      pop\n      pop\n      jump\t// out\n        /* \"#utility.yul\":2109:2218   */\n    tag_177:\n        /* \"#utility.yul\":2190:2211   */\n      tag_179\n        /* \"#utility.yul\":2205:2210   */\n      dup2\n        /* \"#utility.yul\":2190:2211   */\n      tag_180\n      jump\t// in\n    tag_179:\n        /* \"#utility.yul\":2185:2188   */\n      dup3\n        /* \"#utility.yul\":2178:2212   */\n      mstore\n        /* \"#utility.yul\":2168:2218   */\n      pop\n      pop\n      jump\t// out\n        /* \"#utility.yul\":2224:2590   */\n    tag_181:\n        /* \"#utility.yul\":2366:2369   */\n      0x00\n        /* \"#utility.yul\":2387:2454   */\n      tag_183\n        /* \"#utility.yul\":2451:2453   */\n      0x26\n        /* \"#utility.yul\":2446:2449   */\n      dup4\n        /* \"#utility.yul\":2387:2454   */\n      tag_184\n      jump\t// in\n    tag_183:\n        /* \"#utility.yul\":2380:2454   */\n      swap2\n      pop\n        /* \"#utility.yul\":2463:2556   */\n      tag_185\n        /* \"#utility.yul\":2552:2555   */\n      dup3\n        /* \"#utility.yul\":2463:2556   */\n      tag_186\n      jump\t// in\n    tag_185:\n        /* \"#utility.yul\":2581:2583   */\n      0x40\n        /* \"#utility.yul\":2576:2579   */\n      dup3\n        /* \"#utility.yul\":2572:2584   */\n      add\n        /* \"#utility.yul\":2565:2584   */\n      swap1\n      pop\n        /* \"#utility.yul\":2370:2590   */\n      swap2\n      swap1\n      pop\n      jump\t// out\n        /* \"#utility.yul\":2596:2962   */\n    tag_187:\n        /* \"#utility.yul\":2738:2741   */\n      0x00\n        /* \"#utility.yul\":2759:2826   */\n      tag_189\n        /* \"#utility.yul\":2823:2825   */\n      0x20\n        /* \"#utility.yul\":2818:2821   */\n      dup4\n        /* \"#utility.yul\":2759:2826   */\n      tag_184\n      jump\t// in\n    tag_189:\n        /* \"#utility.yul\":2752:2826   */\n      swap2\n      pop\n        /* \"#utility.yul\":2835:2928   */\n      tag_190\n        /* \"#utility.yul\":2924:2927   */\n      dup3\n        /* \"#utility.yul\":2835:2928   */\n      tag_191\n      jump\t// in\n    tag_190:\n        /* \"#utility.yul\":2953:2955   */\n      0x20\n        /* \"#utility.yul\":2948:2951   */\n      dup3\n        /* \"#utility.yul\":2944:2956   */\n      add\n        /* \"#utility.yul\":2937:2956   */\n      swap1\n      pop\n        /* \"#utility.yul\":2742:2962   */\n      swap2\n      swap1\n      pop\n      jump\t// out\n        /* \"#utility.yul\":2968:3086   */\n    tag_192:\n        /* \"#utility.yul\":3055:3079   */\n      tag_194\n        /* \"#utility.yul\":3073:3078   */\n      dup2\n        /* \"#utility.yul\":3055:3079   */\n      tag_195\n      jump\t// in\n    tag_194:\n        /* \"#utility.yul\":3050:3053   */\n      dup3\n        /* \"#utility.yul\":3043:3080   */\n      mstore\n        /* \"#utility.yul\":3033:3086   */\n      pop\n      pop\n      jump\t// out\n        /* \"#utility.yul\":3092:3314   */\n    tag_42:\n        /* \"#utility.yul\":3185:3189   */\n      0x00\n        /* \"#utility.yul\":3223:3225   */\n      0x20\n        /* \"#utility.yul\":3212:3221   */\n      dup3\n        /* \"#utility.yul\":3208:3226   */\n      add\n        /* \"#utility.yul\":3200:3226   */\n      swap1\n      pop\n        /* \"#utility.yul\":3236:3307   */\n      tag_197\n        /* \"#utility.yul\":3304:3305   */\n      0x00\n        /* \"#utility.yul\":3293:3302   */\n      dup4\n        /* \"#utility.yul\":3289:3306   */\n      add\n        /* \"#utility.yul\":3280:3286   */\n      dup5\n        /* \"#utility.yul\":3236:3307   */\n      tag_173\n      jump\t// in\n    tag_197:\n        /* \"#utility.yul\":3190:3314   */\n      swap3\n      swap2\n      pop\n      pop\n      jump\t// out\n        /* \"#utility.yul\":3320:3530   */\n    tag_26:\n        /* \"#utility.yul\":3407:3411   */\n      0x00\n        /* \"#utility.yul\":3445:3447   */\n      0x20\n        /* \"#utility.yul\":3434:3443   */\n      dup3\n        /* \"#utility.yul\":3430:3448   */\n      add\n        /* \"#utility.yul\":3422:3448   */\n      swap1\n      pop\n        /* \"#utility.yul\":3458:3523   */\n      tag_199\n        /* \"#utility.yul\":3520:3521   */\n      0x00\n        /* \"#utility.yul\":3509:3518   */\n      dup4\n        /* \"#utility.yul\":3505:3522   */\n      add\n        /* \"#utility.yul\":3496:3502   */\n      dup5\n        /* \"#utility.yul\":3458:3523   */\n      tag_177\n      jump\t// in\n    tag_199:\n        /* \"#utility.yul\":3412:3530   */\n      swap3\n      swap2\n      pop\n      pop\n      jump\t// out\n        /* \"#utility.yul\":3536:3955   */\n    tag_136:\n        /* \"#utility.yul\":3702:3706   */\n      0x00\n        /* \"#utility.yul\":3740:3742   */\n      0x20\n        /* \"#utility.yul\":3729:3738   */\n      dup3\n        /* \"#utility.yul\":3725:3743   */\n      add\n        /* \"#utility.yul\":3717:3743   */\n      swap1\n      pop\n        /* \"#utility.yul\":3789:3798   */\n      dup2\n        /* \"#utility.yul\":3783:3787   */\n      dup2\n        /* \"#utility.yul\":3779:3799   */\n      sub\n        /* \"#utility.yul\":3775:3776   */\n      0x00\n        /* \"#utility.yul\":3764:3773   */\n      dup4\n        /* \"#utility.yul\":3760:3777   */\n      add\n        /* \"#utility.yul\":3753:3800   */\n      mstore\n        /* \"#utility.yul\":3817:3948   */\n      tag_201\n        /* \"#utility.yul\":3943:3947   */\n      dup2\n        /* \"#utility.yul\":3817:3948   */\n      tag_181\n      jump\t// in\n    tag_201:\n        /* \"#utility.yul\":3809:3948   */\n      swap1\n      pop\n        /* \"#utility.yul\":3707:3955   */\n      swap2\n      swap1\n      pop\n      jump\t// out\n        /* \"#utility.yul\":3961:4380   */\n    tag_86:\n        /* \"#utility.yul\":4127:4131   */\n      0x00\n        /* \"#utility.yul\":4165:4167   */\n      0x20\n        /* \"#utility.yul\":4154:4163   */\n      dup3\n        /* \"#utility.yul\":4150:4168   */\n      add\n        /* \"#utility.yul\":4142:4168   */\n      swap1\n      pop\n        /* \"#utility.yul\":4214:4223   */\n      dup2\n        /* \"#utility.yul\":4208:4212   */\n      dup2\n        /* \"#utility.yul\":4204:4224   */\n      sub\n        /* \"#utility.yul\":4200:4201   */\n      0x00\n        /* \"#utility.yul\":4189:4198   */\n      dup4\n        /* \"#utility.yul\":4185:4202   */\n      add\n        /* \"#utility.yul\":4178:4225   */\n      mstore\n        /* \"#utility.yul\":4242:4373   */\n      tag_203\n        /* \"#utility.yul\":4368:4372   */\n      dup2\n        /* \"#utility.yul\":4242:4373   */\n      tag_187\n      jump\t// in\n    tag_203:\n        /* \"#utility.yul\":4234:4373   */\n      swap1\n      pop\n        /* \"#utility.yul\":4132:4380   */\n      swap2\n      swap1\n      pop\n      jump\t// out\n        /* \"#utility.yul\":4386:4608   */\n    tag_19:\n        /* \"#utility.yul\":4479:4483   */\n      0x00\n        /* \"#utility.yul\":4517:4519   */\n      0x20\n        /* \"#utility.yul\":4506:4515   */\n      dup3\n        /* \"#utility.yul\":4502:4520   */\n      add\n        /* \"#utility.yul\":4494:4520   */\n      swap1\n      pop\n        /* \"#utility.yul\":4530:4601   */\n      tag_205\n        /* \"#utility.yul\":4598:4599   */\n      0x00\n        /* \"#utility.yul\":4587:4596   */\n      dup4\n        /* \"#utility.yul\":4583:4600   */\n      add\n        /* \"#utility.yul\":4574:4580   */\n      dup5\n        /* \"#utility.yul\":4530:4601   */\n      tag_192\n      jump\t// in\n    tag_205:\n        /* \"#utility.yul\":4484:4608   */\n      swap3\n      swap2\n      pop\n      pop\n      jump\t// out\n        /* \"#utility.yul\":4695:4864   */\n    tag_184:\n        /* \"#utility.yul\":4779:4790   */\n      0x00\n        /* \"#utility.yul\":4813:4819   */\n      dup3\n        /* \"#utility.yul\":4808:4811   */\n      dup3\n        /* \"#utility.yul\":4801:4820   */\n      mstore\n        /* \"#utility.yul\":4853:4857   */\n      0x20\n        /* \"#utility.yul\":4848:4851   */\n      dup3\n        /* \"#utility.yul\":4844:4858   */\n      add\n        /* \"#utility.yul\":4829:4858   */\n      swap1\n      pop\n        /* \"#utility.yul\":4791:4864   */\n      swap3\n      swap2\n      pop\n      pop\n      jump\t// out\n        /* \"#utility.yul\":4870:5055   */\n    tag_69:\n        /* \"#utility.yul\":4910:4911   */\n      0x00\n        /* \"#utility.yul\":4927:4947   */\n      tag_210\n        /* \"#utility.yul\":4945:4946   */\n      dup3\n        /* \"#utility.yul\":4927:4947   */\n      tag_195\n      jump\t// in\n    tag_210:\n        /* \"#utility.yul\":4922:4947   */\n      swap2\n      pop\n        /* \"#utility.yul\":4961:4981   */\n      tag_211\n        /* \"#utility.yul\":4979:4980   */\n      dup4\n        /* \"#utility.yul\":4961:4981   */\n      tag_195\n      jump\t// in\n    tag_211:\n        /* \"#utility.yul\":4956:4981   */\n      swap3\n      pop\n        /* \"#utility.yul\":5000:5001   */\n      dup3\n        /* \"#utility.yul\":4990:4992   */\n      tag_212\n      jumpi\n        /* \"#utility.yul\":5005:5023   */\n      tag_213\n      tag_214\n      jump\t// in\n    tag_213:\n        /* \"#utility.yul\":4990:4992   */\n    tag_212:\n        /* \"#utility.yul\":5047:5048   */\n      dup3\n        /* \"#utility.yul\":5044:5045   */\n      dup3\n        /* \"#utility.yul\":5040:5049   */\n      div\n        /* \"#utility.yul\":5035:5049   */\n      swap1\n      pop\n        /* \"#utility.yul\":4912:5055   */\n      swap3\n      swap2\n      pop\n      pop\n      jump\t// out\n        /* \"#utility.yul\":5061:5409   */\n    tag_71:\n        /* \"#utility.yul\":5101:5108   */\n      0x00\n        /* \"#utility.yul\":5124:5144   */\n      tag_216\n        /* \"#utility.yul\":5142:5143   */\n      dup3\n        /* \"#utility.yul\":5124:5144   */\n      tag_195\n      jump\t// in\n    tag_216:\n        /* \"#utility.yul\":5119:5144   */\n      swap2\n      pop\n        /* \"#utility.yul\":5158:5178   */\n      tag_217\n        /* \"#utility.yul\":5176:5177   */\n      dup4\n        /* \"#utility.yul\":5158:5178   */\n      tag_195\n      jump\t// in\n    tag_217:\n        /* \"#utility.yul\":5153:5178   */\n      swap3\n      pop\n        /* \"#utility.yul\":5346:5347   */\n      dup2\n        /* \"#utility.yul\":5278:5344   */\n      0xffffffffffffffffffffffffffffffffffffffffffffffffffffffffffffffff\n        /* \"#utility.yul\":5274:5348   */\n      div\n        /* \"#utility.yul\":5271:5272   */\n      dup4\n        /* \"#utility.yul\":5268:5349   */\n      gt\n        /* \"#utility.yul\":5263:5264   */\n      dup3\n        /* \"#utility.yul\":5256:5265   */\n      iszero\n        /* \"#utility.yul\":5249:5266   */\n      iszero\n        /* \"#utility.yul\":5245:5350   */\n      and\n        /* \"#utility.yul\":5242:5244   */\n      iszero\n      tag_218\n      jumpi\n        /* \"#utility.yul\":5353:5371   */\n      tag_219\n      tag_220\n      jump\t// in\n    tag_219:\n        /* \"#utility.yul\":5242:5244   */\n    tag_218:\n        /* \"#utility.yul\":5401:5402   */\n      dup3\n        /* \"#utility.yul\":5398:5399   */\n      dup3\n        /* \"#utility.yul\":5394:5403   */\n      mul\n        /* \"#utility.yul\":5383:5403   */\n      swap1\n      pop\n        /* \"#utility.yul\":5109:5409   */\n      swap3\n      swap2\n      pop\n      pop\n      jump\t// out\n        /* \"#utility.yul\":5415:5511   */\n    tag_176:\n        /* \"#utility.yul\":5452:5459   */\n      0x00\n        /* \"#utility.yul\":5481:5505   */\n      tag_222\n        /* \"#utility.yul\":5499:5504   */\n      dup3\n        /* \"#utility.yul\":5481:5505   */\n      tag_223\n      jump\t// in\n    tag_222:\n        /* \"#utility.yul\":5470:5505   */\n      swap1\n      pop\n        /* \"#utility.yul\":5460:5511   */\n      swap2\n      swap1\n      pop\n      jump\t// out\n        /* \"#utility.yul\":5517:5621   */\n    tag_224:\n        /* \"#utility.yul\":5562:5569   */\n      0x00\n        /* \"#utility.yul\":5591:5615   */\n      tag_226\n        /* \"#utility.yul\":5609:5614   */\n      dup3\n        /* \"#utility.yul\":5591:5615   */\n      tag_223\n      jump\t// in\n    tag_226:\n        /* \"#utility.yul\":5580:5615   */\n      swap1\n      pop\n        /* \"#utility.yul\":5570:5621   */\n      swap2\n      swap1\n      pop\n      jump\t// out\n        /* \"#utility.yul\":5627:5717   */\n    tag_180:\n        /* \"#utility.yul\":5661:5668   */\n      0x00\n        /* \"#utility.yul\":5704:5709   */\n      dup2\n        /* \"#utility.yul\":5697:5710   */\n      iszero\n        /* \"#utility.yul\":5690:5711   */\n      iszero\n        /* \"#utility.yul\":5679:5711   */\n      swap1\n      pop\n        /* \"#utility.yul\":5669:5717   */\n      swap2\n      swap1\n      pop\n      jump\t// out\n        /* \"#utility.yul\":5723:5849   */\n    tag_223:\n        /* \"#utility.yul\":5760:5767   */\n      0x00\n        /* \"#utility.yul\":5800:5842   */\n      0xffffffffffffffffffffffffffffffffffffffff\n        /* \"#utility.yul\":5793:5798   */\n      dup3\n        /* \"#utility.yul\":5789:5843   */\n      and\n        /* \"#utility.yul\":5778:5843   */\n      swap1\n      pop\n        /* \"#utility.yul\":5768:5849   */\n      swap2\n      swap1\n      pop\n      jump\t// out\n        /* \"#utility.yul\":5855:5932   */\n    tag_195:\n        /* \"#utility.yul\":5892:5899   */\n      0x00\n        /* \"#utility.yul\":5921:5926   */\n      dup2\n        /* \"#utility.yul\":5910:5926   */\n      swap1\n      pop\n        /* \"#utility.yul\":5900:5932   */\n      swap2\n      swap1\n      pop\n      jump\t// out\n        /* \"#utility.yul\":5938:6118   */\n    tag_220:\n        /* \"#utility.yul\":5986:6063   */\n      0x4e487b7100000000000000000000000000000000000000000000000000000000\n        /* \"#utility.yul\":5983:5984   */\n      0x00\n        /* \"#utility.yul\":5976:6064   */\n      mstore\n        /* \"#utility.yul\":6083:6087   */\n      0x11\n        /* \"#utility.yul\":6080:6081   */\n      0x04\n        /* \"#utility.yul\":6073:6088   */\n      mstore\n        /* \"#utility.yul\":6107:6111   */\n      0x24\n        /* \"#utility.yul\":6104:6105   */\n      0x00\n        /* \"#utility.yul\":6097:6112   */\n      revert\n        /* \"#utility.yul\":6124:6304   */\n    tag_214:\n        /* \"#utility.yul\":6172:6249   */\n      0x4e487b7100000000000000000000000000000000000000000000000000000000\n        /* \"#utility.yul\":6169:6170   */\n      0x00\n        /* \"#utility.yul\":6162:6250   */\n      mstore\n        /* \"#utility.yul\":6269:6273   */\n      0x12\n        /* \"#utility.yul\":6266:6267   */\n      0x04\n        /* \"#utility.yul\":6259:6274   */\n      mstore\n        /* \"#utility.yul\":6293:6297   */\n      0x24\n        /* \"#utility.yul\":6290:6291   */\n      0x00\n        /* \"#utility.yul\":6283:6298   */\n      revert\n        /* \"#utility.yul\":6433:6550   */\n    tag_159:\n        /* \"#utility.yul\":6542:6543   */\n      0x00\n        /* \"#utility.yul\":6539:6540   */\n      dup1\n        /* \"#utility.yul\":6532:6544   */\n      revert\n        /* \"#utility.yul\":6556:6781   */\n    tag_186:\n        /* \"#utility.yul\":6696:6730   */\n      0x4f776e61626c653a206e6577206f776e657220697320746865207a65726f2061\n        /* \"#utility.yul\":6692:6693   */\n      0x00\n        /* \"#utility.yul\":6684:6690   */\n      dup3\n        /* \"#utility.yul\":6680:6694   */\n      add\n        /* \"#utility.yul\":6673:6731   */\n      mstore\n        /* \"#utility.yul\":6765:6773   */\n      0x6464726573730000000000000000000000000000000000000000000000000000\n        /* \"#utility.yul\":6760:6762   */\n      0x20\n        /* \"#utility.yul\":6752:6758   */\n      dup3\n        /* \"#utility.yul\":6748:6763   */\n      add\n        /* \"#utility.yul\":6741:6774   */\n      mstore\n        /* \"#utility.yul\":6662:6781   */\n      pop\n      jump\t// out\n        /* \"#utility.yul\":6787:6969   */\n    tag_191:\n        /* \"#utility.yul\":6927:6961   */\n      0x4f776e61626c653a2063616c6c6572206973206e6f7420746865206f776e6572\n        /* \"#utility.yul\":6923:6924   */\n      0x00\n        /* \"#utility.yul\":6915:6921   */\n      dup3\n        /* \"#utility.yul\":6911:6925   */\n      add\n        /* \"#utility.yul\":6904:6962   */\n      mstore\n        /* \"#utility.yul\":6893:6969   */\n      pop\n      jump\t// out\n        /* \"#utility.yul\":6975:7097   */\n    tag_144:\n        /* \"#utility.yul\":7048:7072   */\n      tag_238\n        /* \"#utility.yul\":7066:7071   */\n      dup2\n        /* \"#utility.yul\":7048:7072   */\n      tag_176\n      jump\t// in\n    tag_238:\n        /* \"#utility.yul\":7041:7046   */\n      dup2\n        /* \"#utility.yul\":7038:7073   */\n      eq\n        /* \"#utility.yul\":7028:7030   */\n      tag_239\n      jumpi\n        /* \"#utility.yul\":7087:7088   */\n      0x00\n        /* \"#utility.yul\":7084:7085   */\n      dup1\n        /* \"#utility.yul\":7077:7089   */\n      revert\n        /* \"#utility.yul\":7028:7030   */\n    tag_239:\n        /* \"#utility.yul\":7018:7097   */\n      pop\n      jump\t// out\n        /* \"#utility.yul\":7103:7241   */\n    tag_148:\n        /* \"#utility.yul\":7184:7216   */\n      tag_241\n        /* \"#utility.yul\":7210:7215   */\n      dup2\n        /* \"#utility.yul\":7184:7216   */\n      tag_224\n      jump\t// in\n    tag_241:\n        /* \"#utility.yul\":7177:7182   */\n      dup2\n        /* \"#utility.yul\":7174:7217   */\n      eq\n        /* \"#utility.yul\":7164:7166   */\n      tag_242\n      jumpi\n        /* \"#utility.yul\":7231:7232   */\n      0x00\n        /* \"#utility.yul\":7228:7229   */\n      dup1\n        /* \"#utility.yul\":7221:7233   */\n      revert\n        /* \"#utility.yul\":7164:7166   */\n    tag_242:\n        /* \"#utility.yul\":7154:7241   */\n      pop\n      jump\t// out\n        /* \"#utility.yul\":7247:7369   */\n    tag_152:\n        /* \"#utility.yul\":7320:7344   */\n      tag_244\n        /* \"#utility.yul\":7338:7343   */\n      dup2\n        /* \"#utility.yul\":7320:7344   */\n      tag_195\n      jump\t// in\n    tag_244:\n        /* \"#utility.yul\":7313:7318   */\n      dup2\n        /* \"#utility.yul\":7310:7345   */\n      eq\n        /* \"#utility.yul\":7300:7302   */\n      tag_245\n      jumpi\n        /* \"#utility.yul\":7359:7360   */\n      0x00\n        /* \"#utility.yul\":7356:7357   */\n      dup1\n        /* \"#utility.yul\":7349:7361   */\n      revert\n        /* \"#utility.yul\":7300:7302   */\n    tag_245:\n        /* \"#utility.yul\":7290:7369   */\n      pop\n      jump\t// out\n\n    auxdata: 0xa2646970667358221220539ee428c6c2702e29e1abfd774aa5ce731408c82168ebd79a097d3f0ff7fa4264736f6c63430008050033\n}\n",
				"bytecode": {
					"linkReferences": {},
					"object": "60806040526001805560028055600260035534801561001d57600080fd5b5060008060006101000a81548160ff02191690831515021790555061005461004961005960201b60201c565b61006160201b60201c565b610126565b600033905090565b60008060019054906101000a900473ffffffffffffffffffffffffffffffffffffffff16905081600060016101000a81548173ffffffffffffffffffffffffffffffffffffffff021916908373ffffffffffffffffffffffffffffffffffffffff1602179055508173ffffffffffffffffffffffffffffffffffffffff168173ffffffffffffffffffffffffffffffffffffffff167f8be0079c531659141344cd1fd0a4f28419497f9722a3daafe3b4186f6b6457e060405160405180910390a35050565b61100a806101356000396000f3fe608060405234801561001057600080fd5b50600436106100b45760003560e01c80638da5cb5b116100715780638da5cb5b1461017d578063bff098b41461019b578063c2fffd6b146101cb578063d979f5aa146101fb578063ddca3f431461022b578063f2fde38b14610249576100b4565b806314025dcd146100b95780633abecc49146100d75780635c975abb146100f557806369fe0e2d14610113578063715018a6146101435780637adbf9731461014d575b600080fd5b6100c1610265565b6040516100ce9190610da3565b60405180910390f35b6100df610325565b6040516100ec9190610da3565b60405180910390f35b6100fd6103e5565b60405161010a9190610d48565b60405180910390f35b61012d60048036038101906101289190610c60565b6103fb565b60405161013a9190610d48565b60405180910390f35b61014b6104be565b005b61016760048036038101906101629190610c06565b610546565b6040516101749190610d48565b60405180910390f35b610185610651565b6040516101929190610d2d565b60405180910390f35b6101b560048036038101906101b09190610c60565b61067a565b6040516101c29190610d48565b60405180910390f35b6101e560048036038101906101e09190610c60565b61073d565b6040516101f29190610d48565b60405180910390f35b61021560048036038101906102109190610c33565b610800565b6040516102229190610d48565b60405180910390f35b61023361092d565b6040516102409190610da3565b60405180910390f35b610263600480360381019061025e9190610c06565b6109ed565b005b60006002546064600560009054906101000a900473ffffffffffffffffffffffffffffffffffffffff1673ffffffffffffffffffffffffffffffffffffffff1663c338287f6040518163ffffffff1660e01b815260040160206040518083038186803b1580156102d457600080fd5b505afa1580156102e8573d6000803e3d6000fd5b505050506040513d601f19601f8201168201806040525081019061030c9190610c8d565b6103169190610dcf565b6103209190610e00565b905090565b60006003546064600560009054906101000a900473ffffffffffffffffffffffffffffffffffffffff1673ffffffffffffffffffffffffffffffffffffffff1663c338287f6040518163ffffffff1660e01b815260040160206040518083038186803b15801561039457600080fd5b505afa1580156103a8573d6000803e3d6000fd5b505050506040513d601f19601f820116820180604052508101906103cc9190610c8d565b6103d69190610dcf565b6103e09190610e00565b905090565b60008060009054906101000a900460ff16905090565b6000610405610ae5565b73ffffffffffffffffffffffffffffffffffffffff16610423610651565b73ffffffffffffffffffffffffffffffffffffffff1614610479576040517f08c379a000000000000000000000000000000000000000000000000000000000815260040161047090610d83565b60405180910390fd5b816001819055506003546002546001547f7db2709f6e7adf14b75ac6a4bc01b5f3ff9000017f9648c2b70f6ca8616d8f5760405160405180910390a460019050919050565b6104c6610ae5565b73ffffffffffffffffffffffffffffffffffffffff166104e4610651565b73ffffffffffffffffffffffffffffffffffffffff161461053a576040517f08c379a000000000000000000000000000000000000000000000000000000000815260040161053190610d83565b60405180910390fd5b6105446000610aed565b565b6000610550610ae5565b73ffffffffffffffffffffffffffffffffffffffff1661056e610651565b73ffffffffffffffffffffffffffffffffffffffff16146105c4576040517f08c379a00000000000000000000000000000000000000000000000000000000081526004016105bb90610d83565b60405180910390fd5b81600560006101000a81548173ffffffffffffffffffffffffffffffffffffffff021916908373ffffffffffffffffffffffffffffffffffffffff1602179055508173ffffffffffffffffffffffffffffffffffffffff167f6d4881172853e787189216de6d514b739b8ad6a331e19518c66d3dc2b93639b560405160405180910390a260019050919050565b60008060019054906101000a900473ffffffffffffffffffffffffffffffffffffffff16905090565b6000610684610ae5565b73ffffffffffffffffffffffffffffffffffffffff166106a2610651565b73ffffffffffffffffffffffffffffffffffffffff16146106f8576040517f08c379a00000000000000000000000000000000000000000000000000000000081526004016106ef90610d83565b60405180910390fd5b816003819055506003546002546001547f7db2709f6e7adf14b75ac6a4bc01b5f3ff9000017f9648c2b70f6ca8616d8f5760405160405180910390a460019050919050565b6000610747610ae5565b73ffffffffffffffffffffffffffffffffffffffff16610765610651565b73ffffffffffffffffffffffffffffffffffffffff16146107bb576040517f08c379a00000000000000000000000000000000000000000000000000000000081526004016107b290610d83565b60405180910390fd5b816002819055506003546002546001547f7db2709f6e7adf14b75ac6a4bc01b5f3ff9000017f9648c2b70f6ca8616d8f5760405160405180910390a460019050919050565b600061080a610ae5565b73ffffffffffffffffffffffffffffffffffffffff16610828610651565b73ffffffffffffffffffffffffffffffffffffffff161461087e576040517f08c379a000000000000000000000000000000000000000000000000000000000815260040161087590610d83565b60405180910390fd5b81600460006101000a81548173ffffffffffffffffffffffffffffffffffffffff021916908373ffffffffffffffffffffffffffffffffffffffff160217905550600460009054906101000a900473ffffffffffffffffffffffffffffffffffffffff1673ffffffffffffffffffffffffffffffffffffffff167f66743038d969508e26e3d032a34d950971853817a94fd22e88316055e1145bf460405160405180910390a260019050919050565b60006001546064600560009054906101000a900473ffffffffffffffffffffffffffffffffffffffff1673ffffffffffffffffffffffffffffffffffffffff1663c338287f6040518163ffffffff1660e01b815260040160206040518083038186803b15801561099c57600080fd5b505afa1580156109b0573d6000803e3d6000fd5b505050506040513d601f19601f820116820180604052508101906109d49190610c8d565b6109de9190610dcf565b6109e89190610e00565b905090565b6109f5610ae5565b73ffffffffffffffffffffffffffffffffffffffff16610a13610651565b73ffffffffffffffffffffffffffffffffffffffff1614610a69576040517f08c379a0000000000000000000000000000000000000000000000000000000008152600401610a6090610d83565b60405180910390fd5b600073ffffffffffffffffffffffffffffffffffffffff168173ffffffffffffffffffffffffffffffffffffffff161415610ad9576040517f08c379a0000000000000000000000000000000000000000000000000000000008152600401610ad090610d63565b60405180910390fd5b610ae281610aed565b50565b600033905090565b60008060019054906101000a900473ffffffffffffffffffffffffffffffffffffffff16905081600060016101000a81548173ffffffffffffffffffffffffffffffffffffffff021916908373ffffffffffffffffffffffffffffffffffffffff1602179055508173ffffffffffffffffffffffffffffffffffffffff168173ffffffffffffffffffffffffffffffffffffffff167f8be0079c531659141344cd1fd0a4f28419497f9722a3daafe3b4186f6b6457e060405160405180910390a35050565b600081359050610bc181610f8f565b92915050565b600081359050610bd681610fa6565b92915050565b600081359050610beb81610fbd565b92915050565b600081519050610c0081610fbd565b92915050565b600060208284031215610c1c57610c1b610f12565b5b6000610c2a84828501610bb2565b91505092915050565b600060208284031215610c4957610c48610f12565b5b6000610c5784828501610bc7565b91505092915050565b600060208284031215610c7657610c75610f12565b5b6000610c8484828501610bdc565b91505092915050565b600060208284031215610ca357610ca2610f12565b5b6000610cb184828501610bf1565b91505092915050565b610cc381610e5a565b82525050565b610cd281610e7e565b82525050565b6000610ce5602683610dbe565b9150610cf082610f17565b604082019050919050565b6000610d08602083610dbe565b9150610d1382610f66565b602082019050919050565b610d2781610eaa565b82525050565b6000602082019050610d426000830184610cba565b92915050565b6000602082019050610d5d6000830184610cc9565b92915050565b60006020820190508181036000830152610d7c81610cd8565b9050919050565b60006020820190508181036000830152610d9c81610cfb565b9050919050565b6000602082019050610db86000830184610d1e565b92915050565b600082825260208201905092915050565b6000610dda82610eaa565b9150610de583610eaa565b925082610df557610df4610ee3565b5b828204905092915050565b6000610e0b82610eaa565b9150610e1683610eaa565b9250817fffffffffffffffffffffffffffffffffffffffffffffffffffffffffffffffff0483118215151615610e4f57610e4e610eb4565b5b828202905092915050565b6000610e6582610e8a565b9050919050565b6000610e7782610e8a565b9050919050565b60008115159050919050565b600073ffffffffffffffffffffffffffffffffffffffff82169050919050565b6000819050919050565b7f4e487b7100000000000000000000000000000000000000000000000000000000600052601160045260246000fd5b7f4e487b7100000000000000000000000000000000000000000000000000000000600052601260045260246000fd5b600080fd5b7f4f776e61626c653a206e6577206f776e657220697320746865207a65726f206160008201527f6464726573730000000000000000000000000000000000000000000000000000602082015250565b7f4f776e61626c653a2063616c6c6572206973206e6f7420746865206f776e6572600082015250565b610f9881610e5a565b8114610fa357600080fd5b50565b610faf81610e6c565b8114610fba57600080fd5b50565b610fc681610eaa565b8114610fd157600080fd5b5056fea2646970667358221220539ee428c6c2702e29e1abfd774aa5ce731408c82168ebd79a097d3f0ff7fa4264736f6c63430008050033",
					"opcodes": "PUSH1 0x80 PUSH1 0x40 MSTORE PUSH1 0x1 DUP1 SSTORE PUSH1 0x2 DUP1 SSTORE PUSH1 0x2 PUSH1 0x3 SSTORE CALLVALUE DUP1 ISZERO PUSH2 0x1D JUMPI PUSH1 0x0 DUP1 REVERT JUMPDEST POP PUSH1 0x0 DUP1 PUSH1 0x0 PUSH2 0x100 EXP DUP2 SLOAD DUP2 PUSH1 0xFF MUL NOT AND SWAP1 DUP4 ISZERO ISZERO MUL OR SWAP1 SSTORE POP PUSH2 0x54 PUSH2 0x49 PUSH2 0x59 PUSH1 0x20 SHL PUSH1 0x20 SHR JUMP JUMPDEST PUSH2 0x61 PUSH1 0x20 SHL PUSH1 0x20 SHR JUMP JUMPDEST PUSH2 0x126 JUMP JUMPDEST PUSH1 0x0 CALLER SWAP1 POP SWAP1 JUMP JUMPDEST PUSH1 0x0 DUP1 PUSH1 0x1 SWAP1 SLOAD SWAP1 PUSH2 0x100 EXP SWAP1 DIV PUSH20 0xFFFFFFFFFFFFFFFFFFFFFFFFFFFFFFFFFFFFFFFF AND SWAP1 POP DUP2 PUSH1 0x0 PUSH1 0x1 PUSH2 0x100 EXP DUP2 SLOAD DUP2 PUSH20 0xFFFFFFFFFFFFFFFFFFFFFFFFFFFFFFFFFFFFFFFF MUL NOT AND SWAP1 DUP4 PUSH20 0xFFFFFFFFFFFFFFFFFFFFFFFFFFFFFFFFFFFFFFFF AND MUL OR SWAP1 SSTORE POP DUP2 PUSH20 0xFFFFFFFFFFFFFFFFFFFFFFFFFFFFFFFFFFFFFFFF AND DUP2 PUSH20 0xFFFFFFFFFFFFFFFFFFFFFFFFFFFFFFFFFFFFFFFF AND PUSH32 0x8BE0079C531659141344CD1FD0A4F28419497F9722A3DAAFE3B4186F6B6457E0 PUSH1 0x40 MLOAD PUSH1 0x40 MLOAD DUP1 SWAP2 SUB SWAP1 LOG3 POP POP JUMP JUMPDEST PUSH2 0x100A DUP1 PUSH2 0x135 PUSH1 0x0 CODECOPY PUSH1 0x0 RETURN INVALID PUSH1 0x80 PUSH1 0x40 MSTORE CALLVALUE DUP1 ISZERO PUSH2 0x10 JUMPI PUSH1 0x0 DUP1 REVERT JUMPDEST POP PUSH1 0x4 CALLDATASIZE LT PUSH2 0xB4 JUMPI PUSH1 0x0 CALLDATALOAD PUSH1 0xE0 SHR DUP1 PUSH4 0x8DA5CB5B GT PUSH2 0x71 JUMPI DUP1 PUSH4 0x8DA5CB5B EQ PUSH2 0x17D JUMPI DUP1 PUSH4 0xBFF098B4 EQ PUSH2 0x19B JUMPI DUP1 PUSH4 0xC2FFFD6B EQ PUSH2 0x1CB JUMPI DUP1 PUSH4 0xD979F5AA EQ PUSH2 0x1FB JUMPI DUP1 PUSH4 0xDDCA3F43 EQ PUSH2 0x22B JUMPI DUP1 PUSH4 0xF2FDE38B EQ PUSH2 0x249 JUMPI PUSH2 0xB4 JUMP JUMPDEST DUP1 PUSH4 0x14025DCD EQ PUSH2 0xB9 JUMPI DUP1 PUSH4 0x3ABECC49 EQ PUSH2 0xD7 JUMPI DUP1 PUSH4 0x5C975ABB EQ PUSH2 0xF5 JUMPI DUP1 PUSH4 0x69FE0E2D EQ PUSH2 0x113 JUMPI DUP1 PUSH4 0x715018A6 EQ PUSH2 0x143 JUMPI DUP1 PUSH4 0x7ADBF973 EQ PUSH2 0x14D JUMPI JUMPDEST PUSH1 0x0 DUP1 REVERT JUMPDEST PUSH2 0xC1 PUSH2 0x265 JUMP JUMPDEST PUSH1 0x40 MLOAD PUSH2 0xCE SWAP2 SWAP1 PUSH2 0xDA3 JUMP JUMPDEST PUSH1 0x40 MLOAD DUP1 SWAP2 SUB SWAP1 RETURN JUMPDEST PUSH2 0xDF PUSH2 0x325 JUMP JUMPDEST PUSH1 0x40 MLOAD PUSH2 0xEC SWAP2 SWAP1 PUSH2 0xDA3 JUMP JUMPDEST PUSH1 0x40 MLOAD DUP1 SWAP2 SUB SWAP1 RETURN JUMPDEST PUSH2 0xFD PUSH2 0x3E5 JUMP JUMPDEST PUSH1 0x40 MLOAD PUSH2 0x10A SWAP2 SWAP1 PUSH2 0xD48 JUMP JUMPDEST PUSH1 0x40 MLOAD DUP1 SWAP2 SUB SWAP1 RETURN JUMPDEST PUSH2 0x12D PUSH1 0x4 DUP1 CALLDATASIZE SUB DUP2 ADD SWAP1 PUSH2 0x128 SWAP2 SWAP1 PUSH2 0xC60 JUMP JUMPDEST PUSH2 0x3FB JUMP JUMPDEST PUSH1 0x40 MLOAD PUSH2 0x13A SWAP2 SWAP1 PUSH2 0xD48 JUMP JUMPDEST PUSH1 0x40 MLOAD DUP1 SWAP2 SUB SWAP1 RETURN JUMPDEST PUSH2 0x14B PUSH2 0x4BE JUMP JUMPDEST STOP JUMPDEST PUSH2 0x167 PUSH1 0x4 DUP1 CALLDATASIZE SUB DUP2 ADD SWAP1 PUSH2 0x162 SWAP2 SWAP1 PUSH2 0xC06 JUMP JUMPDEST PUSH2 0x546 JUMP JUMPDEST PUSH1 0x40 MLOAD PUSH2 0x174 SWAP2 SWAP1 PUSH2 0xD48 JUMP JUMPDEST PUSH1 0x40 MLOAD DUP1 SWAP2 SUB SWAP1 RETURN JUMPDEST PUSH2 0x185 PUSH2 0x651 JUMP JUMPDEST PUSH1 0x40 MLOAD PUSH2 0x192 SWAP2 SWAP1 PUSH2 0xD2D JUMP JUMPDEST PUSH1 0x40 MLOAD DUP1 SWAP2 SUB SWAP1 RETURN JUMPDEST PUSH2 0x1B5 PUSH1 0x4 DUP1 CALLDATASIZE SUB DUP2 ADD SWAP1 PUSH2 0x1B0 SWAP2 SWAP1 PUSH2 0xC60 JUMP JUMPDEST PUSH2 0x67A JUMP JUMPDEST PUSH1 0x40 MLOAD PUSH2 0x1C2 SWAP2 SWAP1 PUSH2 0xD48 JUMP JUMPDEST PUSH1 0x40 MLOAD DUP1 SWAP2 SUB SWAP1 RETURN JUMPDEST PUSH2 0x1E5 PUSH1 0x4 DUP1 CALLDATASIZE SUB DUP2 ADD SWAP1 PUSH2 0x1E0 SWAP2 SWAP1 PUSH2 0xC60 JUMP JUMPDEST PUSH2 0x73D JUMP JUMPDEST PUSH1 0x40 MLOAD PUSH2 0x1F2 SWAP2 SWAP1 PUSH2 0xD48 JUMP JUMPDEST PUSH1 0x40 MLOAD DUP1 SWAP2 SUB SWAP1 RETURN JUMPDEST PUSH2 0x215 PUSH1 0x4 DUP1 CALLDATASIZE SUB DUP2 ADD SWAP1 PUSH2 0x210 SWAP2 SWAP1 PUSH2 0xC33 JUMP JUMPDEST PUSH2 0x800 JUMP JUMPDEST PUSH1 0x40 MLOAD PUSH2 0x222 SWAP2 SWAP1 PUSH2 0xD48 JUMP JUMPDEST PUSH1 0x40 MLOAD DUP1 SWAP2 SUB SWAP1 RETURN JUMPDEST PUSH2 0x233 PUSH2 0x92D JUMP JUMPDEST PUSH1 0x40 MLOAD PUSH2 0x240 SWAP2 SWAP1 PUSH2 0xDA3 JUMP JUMPDEST PUSH1 0x40 MLOAD DUP1 SWAP2 SUB SWAP1 RETURN JUMPDEST PUSH2 0x263 PUSH1 0x4 DUP1 CALLDATASIZE SUB DUP2 ADD SWAP1 PUSH2 0x25E SWAP2 SWAP1 PUSH2 0xC06 JUMP JUMPDEST PUSH2 0x9ED JUMP JUMPDEST STOP JUMPDEST PUSH1 0x0 PUSH1 0x2 SLOAD PUSH1 0x64 PUSH1 0x5 PUSH1 0x0 SWAP1 SLOAD SWAP1 PUSH2 0x100 EXP SWAP1 DIV PUSH20 0xFFFFFFFFFFFFFFFFFFFFFFFFFFFFFFFFFFFFFFFF AND PUSH20 0xFFFFFFFFFFFFFFFFFFFFFFFFFFFFFFFFFFFFFFFF AND PUSH4 0xC338287F PUSH1 0x40 MLOAD DUP2 PUSH4 0xFFFFFFFF AND PUSH1 0xE0 SHL DUP2 MSTORE PUSH1 0x4 ADD PUSH1 0x20 PUSH1 0x40 MLOAD DUP1 DUP4 SUB DUP2 DUP7 DUP1 EXTCODESIZE ISZERO DUP1 ISZERO PUSH2 0x2D4 JUMPI PUSH1 0x0 DUP1 REVERT JUMPDEST POP GAS STATICCALL ISZERO DUP1 ISZERO PUSH2 0x2E8 JUMPI RETURNDATASIZE PUSH1 0x0 DUP1 RETURNDATACOPY RETURNDATASIZE PUSH1 0x0 REVERT JUMPDEST POP POP POP POP PUSH1 0x40 MLOAD RETURNDATASIZE PUSH1 0x1F NOT PUSH1 0x1F DUP3 ADD AND DUP3 ADD DUP1 PUSH1 0x40 MSTORE POP DUP2 ADD SWAP1 PUSH2 0x30C SWAP2 SWAP1 PUSH2 0xC8D JUMP JUMPDEST PUSH2 0x316 SWAP2 SWAP1 PUSH2 0xDCF JUMP JUMPDEST PUSH2 0x320 SWAP2 SWAP1 PUSH2 0xE00 JUMP JUMPDEST SWAP1 POP SWAP1 JUMP JUMPDEST PUSH1 0x0 PUSH1 0x3 SLOAD PUSH1 0x64 PUSH1 0x5 PUSH1 0x0 SWAP1 SLOAD SWAP1 PUSH2 0x100 EXP SWAP1 DIV PUSH20 0xFFFFFFFFFFFFFFFFFFFFFFFFFFFFFFFFFFFFFFFF AND PUSH20 0xFFFFFFFFFFFFFFFFFFFFFFFFFFFFFFFFFFFFFFFF AND PUSH4 0xC338287F PUSH1 0x40 MLOAD DUP2 PUSH4 0xFFFFFFFF AND PUSH1 0xE0 SHL DUP2 MSTORE PUSH1 0x4 ADD PUSH1 0x20 PUSH1 0x40 MLOAD DUP1 DUP4 SUB DUP2 DUP7 DUP1 EXTCODESIZE ISZERO DUP1 ISZERO PUSH2 0x394 JUMPI PUSH1 0x0 DUP1 REVERT JUMPDEST POP GAS STATICCALL ISZERO DUP1 ISZERO PUSH2 0x3A8 JUMPI RETURNDATASIZE PUSH1 0x0 DUP1 RETURNDATACOPY RETURNDATASIZE PUSH1 0x0 REVERT JUMPDEST POP POP POP POP PUSH1 0x40 MLOAD RETURNDATASIZE PUSH1 0x1F NOT PUSH1 0x1F DUP3 ADD AND DUP3 ADD DUP1 PUSH1 0x40 MSTORE POP DUP2 ADD SWAP1 PUSH2 0x3CC SWAP2 SWAP1 PUSH2 0xC8D JUMP JUMPDEST PUSH2 0x3D6 SWAP2 SWAP1 PUSH2 0xDCF JUMP JUMPDEST PUSH2 0x3E0 SWAP2 SWAP1 PUSH2 0xE00 JUMP JUMPDEST SWAP1 POP SWAP1 JUMP JUMPDEST PUSH1 0x0 DUP1 PUSH1 0x0 SWAP1 SLOAD SWAP1 PUSH2 0x100 EXP SWAP1 DIV PUSH1 0xFF AND SWAP1 POP SWAP1 JUMP JUMPDEST PUSH1 0x0 PUSH2 0x405 PUSH2 0xAE5 JUMP JUMPDEST PUSH20 0xFFFFFFFFFFFFFFFFFFFFFFFFFFFFFFFFFFFFFFFF AND PUSH2 0x423 PUSH2 0x651 JUMP JUMPDEST PUSH20 0xFFFFFFFFFFFFFFFFFFFFFFFFFFFFFFFFFFFFFFFF AND EQ PUSH2 0x479 JUMPI PUSH1 0x40 MLOAD PUSH32 0x8C379A000000000000000000000000000000000000000000000000000000000 DUP2 MSTORE PUSH1 0x4 ADD PUSH2 0x470 SWAP1 PUSH2 0xD83 JUMP JUMPDEST PUSH1 0x40 MLOAD DUP1 SWAP2 SUB SWAP1 REVERT JUMPDEST DUP2 PUSH1 0x1 DUP2 SWAP1 SSTORE POP PUSH1 0x3 SLOAD PUSH1 0x2 SLOAD PUSH1 0x1 SLOAD PUSH32 0x7DB2709F6E7ADF14B75AC6A4BC01B5F3FF9000017F9648C2B70F6CA8616D8F57 PUSH1 0x40 MLOAD PUSH1 0x40 MLOAD DUP1 SWAP2 SUB SWAP1 LOG4 PUSH1 0x1 SWAP1 POP SWAP2 SWAP1 POP JUMP JUMPDEST PUSH2 0x4C6 PUSH2 0xAE5 JUMP JUMPDEST PUSH20 0xFFFFFFFFFFFFFFFFFFFFFFFFFFFFFFFFFFFFFFFF AND PUSH2 0x4E4 PUSH2 0x651 JUMP JUMPDEST PUSH20 0xFFFFFFFFFFFFFFFFFFFFFFFFFFFFFFFFFFFFFFFF AND EQ PUSH2 0x53A JUMPI PUSH1 0x40 MLOAD PUSH32 0x8C379A000000000000000000000000000000000000000000000000000000000 DUP2 MSTORE PUSH1 0x4 ADD PUSH2 0x531 SWAP1 PUSH2 0xD83 JUMP JUMPDEST PUSH1 0x40 MLOAD DUP1 SWAP2 SUB SWAP1 REVERT JUMPDEST PUSH2 0x544 PUSH1 0x0 PUSH2 0xAED JUMP JUMPDEST JUMP JUMPDEST PUSH1 0x0 PUSH2 0x550 PUSH2 0xAE5 JUMP JUMPDEST PUSH20 0xFFFFFFFFFFFFFFFFFFFFFFFFFFFFFFFFFFFFFFFF AND PUSH2 0x56E PUSH2 0x651 JUMP JUMPDEST PUSH20 0xFFFFFFFFFFFFFFFFFFFFFFFFFFFFFFFFFFFFFFFF AND EQ PUSH2 0x5C4 JUMPI PUSH1 0x40 MLOAD PUSH32 0x8C379A000000000000000000000000000000000000000000000000000000000 DUP2 MSTORE PUSH1 0x4 ADD PUSH2 0x5BB SWAP1 PUSH2 0xD83 JUMP JUMPDEST PUSH1 0x40 MLOAD DUP1 SWAP2 SUB SWAP1 REVERT JUMPDEST DUP2 PUSH1 0x5 PUSH1 0x0 PUSH2 0x100 EXP DUP2 SLOAD DUP2 PUSH20 0xFFFFFFFFFFFFFFFFFFFFFFFFFFFFFFFFFFFFFFFF MUL NOT AND SWAP1 DUP4 PUSH20 0xFFFFFFFFFFFFFFFFFFFFFFFFFFFFFFFFFFFFFFFF AND MUL OR SWAP1 SSTORE POP DUP2 PUSH20 0xFFFFFFFFFFFFFFFFFFFFFFFFFFFFFFFFFFFFFFFF AND PUSH32 0x6D4881172853E787189216DE6D514B739B8AD6A331E19518C66D3DC2B93639B5 PUSH1 0x40 MLOAD PUSH1 0x40 MLOAD DUP1 SWAP2 SUB SWAP1 LOG2 PUSH1 0x1 SWAP1 POP SWAP2 SWAP1 POP JUMP JUMPDEST PUSH1 0x0 DUP1 PUSH1 0x1 SWAP1 SLOAD SWAP1 PUSH2 0x100 EXP SWAP1 DIV PUSH20 0xFFFFFFFFFFFFFFFFFFFFFFFFFFFFFFFFFFFFFFFF AND SWAP1 POP SWAP1 JUMP JUMPDEST PUSH1 0x0 PUSH2 0x684 PUSH2 0xAE5 JUMP JUMPDEST PUSH20 0xFFFFFFFFFFFFFFFFFFFFFFFFFFFFFFFFFFFFFFFF AND PUSH2 0x6A2 PUSH2 0x651 JUMP JUMPDEST PUSH20 0xFFFFFFFFFFFFFFFFFFFFFFFFFFFFFFFFFFFFFFFF AND EQ PUSH2 0x6F8 JUMPI PUSH1 0x40 MLOAD PUSH32 0x8C379A000000000000000000000000000000000000000000000000000000000 DUP2 MSTORE PUSH1 0x4 ADD PUSH2 0x6EF SWAP1 PUSH2 0xD83 JUMP JUMPDEST PUSH1 0x40 MLOAD DUP1 SWAP2 SUB SWAP1 REVERT JUMPDEST DUP2 PUSH1 0x3 DUP2 SWAP1 SSTORE POP PUSH1 0x3 SLOAD PUSH1 0x2 SLOAD PUSH1 0x1 SLOAD PUSH32 0x7DB2709F6E7ADF14B75AC6A4BC01B5F3FF9000017F9648C2B70F6CA8616D8F57 PUSH1 0x40 MLOAD PUSH1 0x40 MLOAD DUP1 SWAP2 SUB SWAP1 LOG4 PUSH1 0x1 SWAP1 POP SWAP2 SWAP1 POP JUMP JUMPDEST PUSH1 0x0 PUSH2 0x747 PUSH2 0xAE5 JUMP JUMPDEST PUSH20 0xFFFFFFFFFFFFFFFFFFFFFFFFFFFFFFFFFFFFFFFF AND PUSH2 0x765 PUSH2 0x651 JUMP JUMPDEST PUSH20 0xFFFFFFFFFFFFFFFFFFFFFFFFFFFFFFFFFFFFFFFF AND EQ PUSH2 0x7BB JUMPI PUSH1 0x40 MLOAD PUSH32 0x8C379A000000000000000000000000000000000000000000000000000000000 DUP2 MSTORE PUSH1 0x4 ADD PUSH2 0x7B2 SWAP1 PUSH2 0xD83 JUMP JUMPDEST PUSH1 0x40 MLOAD DUP1 SWAP2 SUB SWAP1 REVERT JUMPDEST DUP2 PUSH1 0x2 DUP2 SWAP1 SSTORE POP PUSH1 0x3 SLOAD PUSH1 0x2 SLOAD PUSH1 0x1 SLOAD PUSH32 0x7DB2709F6E7ADF14B75AC6A4BC01B5F3FF9000017F9648C2B70F6CA8616D8F57 PUSH1 0x40 MLOAD PUSH1 0x40 MLOAD DUP1 SWAP2 SUB SWAP1 LOG4 PUSH1 0x1 SWAP1 POP SWAP2 SWAP1 POP JUMP JUMPDEST PUSH1 0x0 PUSH2 0x80A PUSH2 0xAE5 JUMP JUMPDEST PUSH20 0xFFFFFFFFFFFFFFFFFFFFFFFFFFFFFFFFFFFFFFFF AND PUSH2 0x828 PUSH2 0x651 JUMP JUMPDEST PUSH20 0xFFFFFFFFFFFFFFFFFFFFFFFFFFFFFFFFFFFFFFFF AND EQ PUSH2 0x87E JUMPI PUSH1 0x40 MLOAD PUSH32 0x8C379A000000000000000000000000000000000000000000000000000000000 DUP2 MSTORE PUSH1 0x4 ADD PUSH2 0x875 SWAP1 PUSH2 0xD83 JUMP JUMPDEST PUSH1 0x40 MLOAD DUP1 SWAP2 SUB SWAP1 REVERT JUMPDEST DUP2 PUSH1 0x4 PUSH1 0x0 PUSH2 0x100 EXP DUP2 SLOAD DUP2 PUSH20 0xFFFFFFFFFFFFFFFFFFFFFFFFFFFFFFFFFFFFFFFF MUL NOT AND SWAP1 DUP4 PUSH20 0xFFFFFFFFFFFFFFFFFFFFFFFFFFFFFFFFFFFFFFFF AND MUL OR SWAP1 SSTORE POP PUSH1 0x4 PUSH1 0x0 SWAP1 SLOAD SWAP1 PUSH2 0x100 EXP SWAP1 DIV PUSH20 0xFFFFFFFFFFFFFFFFFFFFFFFFFFFFFFFFFFFFFFFF AND PUSH20 0xFFFFFFFFFFFFFFFFFFFFFFFFFFFFFFFFFFFFFFFF AND PUSH32 0x66743038D969508E26E3D032A34D950971853817A94FD22E88316055E1145BF4 PUSH1 0x40 MLOAD PUSH1 0x40 MLOAD DUP1 SWAP2 SUB SWAP1 LOG2 PUSH1 0x1 SWAP1 POP SWAP2 SWAP1 POP JUMP JUMPDEST PUSH1 0x0 PUSH1 0x1 SLOAD PUSH1 0x64 PUSH1 0x5 PUSH1 0x0 SWAP1 SLOAD SWAP1 PUSH2 0x100 EXP SWAP1 DIV PUSH20 0xFFFFFFFFFFFFFFFFFFFFFFFFFFFFFFFFFFFFFFFF AND PUSH20 0xFFFFFFFFFFFFFFFFFFFFFFFFFFFFFFFFFFFFFFFF AND PUSH4 0xC338287F PUSH1 0x40 MLOAD DUP2 PUSH4 0xFFFFFFFF AND PUSH1 0xE0 SHL DUP2 MSTORE PUSH1 0x4 ADD PUSH1 0x20 PUSH1 0x40 MLOAD DUP1 DUP4 SUB DUP2 DUP7 DUP1 EXTCODESIZE ISZERO DUP1 ISZERO PUSH2 0x99C JUMPI PUSH1 0x0 DUP1 REVERT JUMPDEST POP GAS STATICCALL ISZERO DUP1 ISZERO PUSH2 0x9B0 JUMPI RETURNDATASIZE PUSH1 0x0 DUP1 RETURNDATACOPY RETURNDATASIZE PUSH1 0x0 REVERT JUMPDEST POP POP POP POP PUSH1 0x40 MLOAD RETURNDATASIZE PUSH1 0x1F NOT PUSH1 0x1F DUP3 ADD AND DUP3 ADD DUP1 PUSH1 0x40 MSTORE POP DUP2 ADD SWAP1 PUSH2 0x9D4 SWAP2 SWAP1 PUSH2 0xC8D JUMP JUMPDEST PUSH2 0x9DE SWAP2 SWAP1 PUSH2 0xDCF JUMP JUMPDEST PUSH2 0x9E8 SWAP2 SWAP1 PUSH2 0xE00 JUMP JUMPDEST SWAP1 POP SWAP1 JUMP JUMPDEST PUSH2 0x9F5 PUSH2 0xAE5 JUMP JUMPDEST PUSH20 0xFFFFFFFFFFFFFFFFFFFFFFFFFFFFFFFFFFFFFFFF AND PUSH2 0xA13 PUSH2 0x651 JUMP JUMPDEST PUSH20 0xFFFFFFFFFFFFFFFFFFFFFFFFFFFFFFFFFFFFFFFF AND EQ PUSH2 0xA69 JUMPI PUSH1 0x40 MLOAD PUSH32 0x8C379A000000000000000000000000000000000000000000000000000000000 DUP2 MSTORE PUSH1 0x4 ADD PUSH2 0xA60 SWAP1 PUSH2 0xD83 JUMP JUMPDEST PUSH1 0x40 MLOAD DUP1 SWAP2 SUB SWAP1 REVERT JUMPDEST PUSH1 0x0 PUSH20 0xFFFFFFFFFFFFFFFFFFFFFFFFFFFFFFFFFFFFFFFF AND DUP2 PUSH20 0xFFFFFFFFFFFFFFFFFFFFFFFFFFFFFFFFFFFFFFFF AND EQ ISZERO PUSH2 0xAD9 JUMPI PUSH1 0x40 MLOAD PUSH32 0x8C379A000000000000000000000000000000000000000000000000000000000 DUP2 MSTORE PUSH1 0x4 ADD PUSH2 0xAD0 SWAP1 PUSH2 0xD63 JUMP JUMPDEST PUSH1 0x40 MLOAD DUP1 SWAP2 SUB SWAP1 REVERT JUMPDEST PUSH2 0xAE2 DUP2 PUSH2 0xAED JUMP JUMPDEST POP JUMP JUMPDEST PUSH1 0x0 CALLER SWAP1 POP SWAP1 JUMP JUMPDEST PUSH1 0x0 DUP1 PUSH1 0x1 SWAP1 SLOAD SWAP1 PUSH2 0x100 EXP SWAP1 DIV PUSH20 0xFFFFFFFFFFFFFFFFFFFFFFFFFFFFFFFFFFFFFFFF AND SWAP1 POP DUP2 PUSH1 0x0 PUSH1 0x1 PUSH2 0x100 EXP DUP2 SLOAD DUP2 PUSH20 0xFFFFFFFFFFFFFFFFFFFFFFFFFFFFFFFFFFFFFFFF MUL NOT AND SWAP1 DUP4 PUSH20 0xFFFFFFFFFFFFFFFFFFFFFFFFFFFFFFFFFFFFFFFF AND MUL OR SWAP1 SSTORE POP DUP2 PUSH20 0xFFFFFFFFFFFFFFFFFFFFFFFFFFFFFFFFFFFFFFFF AND DUP2 PUSH20 0xFFFFFFFFFFFFFFFFFFFFFFFFFFFFFFFFFFFFFFFF AND PUSH32 0x8BE0079C531659141344CD1FD0A4F28419497F9722A3DAAFE3B4186F6B6457E0 PUSH1 0x40 MLOAD PUSH1 0x40 MLOAD DUP1 SWAP2 SUB SWAP1 LOG3 POP POP JUMP JUMPDEST PUSH1 0x0 DUP2 CALLDATALOAD SWAP1 POP PUSH2 0xBC1 DUP2 PUSH2 0xF8F JUMP JUMPDEST SWAP3 SWAP2 POP POP JUMP JUMPDEST PUSH1 0x0 DUP2 CALLDATALOAD SWAP1 POP PUSH2 0xBD6 DUP2 PUSH2 0xFA6 JUMP JUMPDEST SWAP3 SWAP2 POP POP JUMP JUMPDEST PUSH1 0x0 DUP2 CALLDATALOAD SWAP1 POP PUSH2 0xBEB DUP2 PUSH2 0xFBD JUMP JUMPDEST SWAP3 SWAP2 POP POP JUMP JUMPDEST PUSH1 0x0 DUP2 MLOAD SWAP1 POP PUSH2 0xC00 DUP2 PUSH2 0xFBD JUMP JUMPDEST SWAP3 SWAP2 POP POP JUMP JUMPDEST PUSH1 0x0 PUSH1 0x20 DUP3 DUP5 SUB SLT ISZERO PUSH2 0xC1C JUMPI PUSH2 0xC1B PUSH2 0xF12 JUMP JUMPDEST JUMPDEST PUSH1 0x0 PUSH2 0xC2A DUP5 DUP3 DUP6 ADD PUSH2 0xBB2 JUMP JUMPDEST SWAP2 POP POP SWAP3 SWAP2 POP POP JUMP JUMPDEST PUSH1 0x0 PUSH1 0x20 DUP3 DUP5 SUB SLT ISZERO PUSH2 0xC49 JUMPI PUSH2 0xC48 PUSH2 0xF12 JUMP JUMPDEST JUMPDEST PUSH1 0x0 PUSH2 0xC57 DUP5 DUP3 DUP6 ADD PUSH2 0xBC7 JUMP JUMPDEST SWAP2 POP POP SWAP3 SWAP2 POP POP JUMP JUMPDEST PUSH1 0x0 PUSH1 0x20 DUP3 DUP5 SUB SLT ISZERO PUSH2 0xC76 JUMPI PUSH2 0xC75 PUSH2 0xF12 JUMP JUMPDEST JUMPDEST PUSH1 0x0 PUSH2 0xC84 DUP5 DUP3 DUP6 ADD PUSH2 0xBDC JUMP JUMPDEST SWAP2 POP POP SWAP3 SWAP2 POP POP JUMP JUMPDEST PUSH1 0x0 PUSH1 0x20 DUP3 DUP5 SUB SLT ISZERO PUSH2 0xCA3 JUMPI PUSH2 0xCA2 PUSH2 0xF12 JUMP JUMPDEST JUMPDEST PUSH1 0x0 PUSH2 0xCB1 DUP5 DUP3 DUP6 ADD PUSH2 0xBF1 JUMP JUMPDEST SWAP2 POP POP SWAP3 SWAP2 POP POP JUMP JUMPDEST PUSH2 0xCC3 DUP2 PUSH2 0xE5A JUMP JUMPDEST DUP3 MSTORE POP POP JUMP JUMPDEST PUSH2 0xCD2 DUP2 PUSH2 0xE7E JUMP JUMPDEST DUP3 MSTORE POP POP JUMP JUMPDEST PUSH1 0x0 PUSH2 0xCE5 PUSH1 0x26 DUP4 PUSH2 0xDBE JUMP JUMPDEST SWAP2 POP PUSH2 0xCF0 DUP3 PUSH2 0xF17 JUMP JUMPDEST PUSH1 0x40 DUP3 ADD SWAP1 POP SWAP2 SWAP1 POP JUMP JUMPDEST PUSH1 0x0 PUSH2 0xD08 PUSH1 0x20 DUP4 PUSH2 0xDBE JUMP JUMPDEST SWAP2 POP PUSH2 0xD13 DUP3 PUSH2 0xF66 JUMP JUMPDEST PUSH1 0x20 DUP3 ADD SWAP1 POP SWAP2 SWAP1 POP JUMP JUMPDEST PUSH2 0xD27 DUP2 PUSH2 0xEAA JUMP JUMPDEST DUP3 MSTORE POP POP JUMP JUMPDEST PUSH1 0x0 PUSH1 0x20 DUP3 ADD SWAP1 POP PUSH2 0xD42 PUSH1 0x0 DUP4 ADD DUP5 PUSH2 0xCBA JUMP JUMPDEST SWAP3 SWAP2 POP POP JUMP JUMPDEST PUSH1 0x0 PUSH1 0x20 DUP3 ADD SWAP1 POP PUSH2 0xD5D PUSH1 0x0 DUP4 ADD DUP5 PUSH2 0xCC9 JUMP JUMPDEST SWAP3 SWAP2 POP POP JUMP JUMPDEST PUSH1 0x0 PUSH1 0x20 DUP3 ADD SWAP1 POP DUP2 DUP2 SUB PUSH1 0x0 DUP4 ADD MSTORE PUSH2 0xD7C DUP2 PUSH2 0xCD8 JUMP JUMPDEST SWAP1 POP SWAP2 SWAP1 POP JUMP JUMPDEST PUSH1 0x0 PUSH1 0x20 DUP3 ADD SWAP1 POP DUP2 DUP2 SUB PUSH1 0x0 DUP4 ADD MSTORE PUSH2 0xD9C DUP2 PUSH2 0xCFB JUMP JUMPDEST SWAP1 POP SWAP2 SWAP1 POP JUMP JUMPDEST PUSH1 0x0 PUSH1 0x20 DUP3 ADD SWAP1 POP PUSH2 0xDB8 PUSH1 0x0 DUP4 ADD DUP5 PUSH2 0xD1E JUMP JUMPDEST SWAP3 SWAP2 POP POP JUMP JUMPDEST PUSH1 0x0 DUP3 DUP3 MSTORE PUSH1 0x20 DUP3 ADD SWAP1 POP SWAP3 SWAP2 POP POP JUMP JUMPDEST PUSH1 0x0 PUSH2 0xDDA DUP3 PUSH2 0xEAA JUMP JUMPDEST SWAP2 POP PUSH2 0xDE5 DUP4 PUSH2 0xEAA JUMP JUMPDEST SWAP3 POP DUP3 PUSH2 0xDF5 JUMPI PUSH2 0xDF4 PUSH2 0xEE3 JUMP JUMPDEST JUMPDEST DUP3 DUP3 DIV SWAP1 POP SWAP3 SWAP2 POP POP JUMP JUMPDEST PUSH1 0x0 PUSH2 0xE0B DUP3 PUSH2 0xEAA JUMP JUMPDEST SWAP2 POP PUSH2 0xE16 DUP4 PUSH2 0xEAA JUMP JUMPDEST SWAP3 POP DUP2 PUSH32 0xFFFFFFFFFFFFFFFFFFFFFFFFFFFFFFFFFFFFFFFFFFFFFFFFFFFFFFFFFFFFFFFF DIV DUP4 GT DUP3 ISZERO ISZERO AND ISZERO PUSH2 0xE4F JUMPI PUSH2 0xE4E PUSH2 0xEB4 JUMP JUMPDEST JUMPDEST DUP3 DUP3 MUL SWAP1 POP SWAP3 SWAP2 POP POP JUMP JUMPDEST PUSH1 0x0 PUSH2 0xE65 DUP3 PUSH2 0xE8A JUMP JUMPDEST SWAP1 POP SWAP2 SWAP1 POP JUMP JUMPDEST PUSH1 0x0 PUSH2 0xE77 DUP3 PUSH2 0xE8A JUMP JUMPDEST SWAP1 POP SWAP2 SWAP1 POP JUMP JUMPDEST PUSH1 0x0 DUP2 ISZERO ISZERO SWAP1 POP SWAP2 SWAP1 POP JUMP JUMPDEST PUSH1 0x0 PUSH20 0xFFFFFFFFFFFFFFFFFFFFFFFFFFFFFFFFFFFFFFFF DUP3 AND SWAP1 POP SWAP2 SWAP1 POP JUMP JUMPDEST PUSH1 0x0 DUP2 SWAP1 POP SWAP2 SWAP1 POP JUMP JUMPDEST PUSH32 0x4E487B7100000000000000000000000000000000000000000000000000000000 PUSH1 0x0 MSTORE PUSH1 0x11 PUSH1 0x4 MSTORE PUSH1 0x24 PUSH1 0x0 REVERT JUMPDEST PUSH32 0x4E487B7100000000000000000000000000000000000000000000000000000000 PUSH1 0x0 MSTORE PUSH1 0x12 PUSH1 0x4 MSTORE PUSH1 0x24 PUSH1 0x0 REVERT JUMPDEST PUSH1 0x0 DUP1 REVERT JUMPDEST PUSH32 0x4F776E61626C653A206E6577206F776E657220697320746865207A65726F2061 PUSH1 0x0 DUP3 ADD MSTORE PUSH32 0x6464726573730000000000000000000000000000000000000000000000000000 PUSH1 0x20 DUP3 ADD MSTORE POP JUMP JUMPDEST PUSH32 0x4F776E61626C653A2063616C6C6572206973206E6F7420746865206F776E6572 PUSH1 0x0 DUP3 ADD MSTORE POP JUMP JUMPDEST PUSH2 0xF98 DUP2 PUSH2 0xE5A JUMP JUMPDEST DUP2 EQ PUSH2 0xFA3 JUMPI PUSH1 0x0 DUP1 REVERT JUMPDEST POP JUMP JUMPDEST PUSH2 0xFAF DUP2 PUSH2 0xE6C JUMP JUMPDEST DUP2 EQ PUSH2 0xFBA JUMPI PUSH1 0x0 DUP1 REVERT JUMPDEST POP JUMP JUMPDEST PUSH2 0xFC6 DUP2 PUSH2 0xEAA JUMP JUMPDEST DUP2 EQ PUSH2 0xFD1 JUMPI PUSH1 0x0 DUP1 REVERT JUMPDEST POP JUMP INVALID LOG2 PUSH5 0x6970667358 0x22 SLT KECCAK256 MSTORE8 SWAP15 0xE4 0x28 0xC6 0xC2 PUSH17 0x2E29E1ABFD774AA5CE731408C82168EBD7 SWAP11 MULMOD PUSH30 0x3F0FF7FA4264736F6C634300080500330000000000000000000000000000 "
				},
				"gasEstimates": {
					"creation": {
						"codeDepositCost": "821200",
						"executionCost": "infinite",
						"totalCost": "infinite"
					},
					"external": {
						"acceptFee()": "infinite",
						"cancelFee()": "infinite",
						"fee()": "infinite",
						"owner()": "2572",
						"paused()": "2524",
						"renounceOwnership()": "30613",
						"setAcceptFee(uint256)": "33245",
						"setCancelFee(uint256)": "33267",
						"setFee(uint256)": "33290",
						"setHolder(address)": "30577",
						"setOracle(address)": "28486",
						"transferOwnership(address)": "30983"
					},
					"internal": {
						"retriveFee()": "infinite"
					}
				},
				"methodIdentifiers": {
					"acceptFee()": "3abecc49",
					"cancelFee()": "14025dcd",
					"fee()": "ddca3f43",
					"owner()": "8da5cb5b",
					"paused()": "5c975abb",
					"renounceOwnership()": "715018a6",
					"setAcceptFee(uint256)": "bff098b4",
					"setCancelFee(uint256)": "c2fffd6b",
					"setFee(uint256)": "69fe0e2d",
					"setHolder(address)": "d979f5aa",
					"setOracle(address)": "7adbf973",
					"transferOwnership(address)": "f2fde38b"
				}
			},
			"userdoc": {
				"kind": "user",
				"methods": {
					"setAcceptFee(uint256)": {
						"notice": "NOTE: _acceptFee is the amount in USD that de user pay to use this function, only de owner can change this amount by default is 2 USD Requirements:"
					},
					"setCancelFee(uint256)": {
						"notice": "NOTE: _cancelFee"
					},
					"setFee(uint256)": {
						"notice": "NOTE: _fee"
					}
				},
				"version": 1
			}
		}
	}
}