{
	"ChainLinkOracle.sol": {
		"ChainLinkOracle": {
			"abi": [
				{
					"inputs": [
						{
							"internalType": "address",
							"name": "_oracleAddressListen",
							"type": "address"
						}
					],
					"stateMutability": "nonpayable",
					"type": "constructor"
				},
				{
					"inputs": [],
					"name": "getLatestPrice",
					"outputs": [
						{
							"internalType": "int256",
							"name": "",
							"type": "int256"
						}
					],
					"stateMutability": "view",
					"type": "function"
				},
				{
					"inputs": [],
					"name": "getUSDPrice",
					"outputs": [
						{
							"internalType": "uint256",
							"name": "",
							"type": "uint256"
						}
					],
					"stateMutability": "view",
					"type": "function"
				}
			],
			"devdoc": {
				"kind": "dev",
				"methods": {},
				"version": 1
			},
			"evm": {
				"assembly": "    /* \"ChainLinkOracle.sol\":138:770  contract ChainLinkOracle {\r... */\n  mstore(0x40, 0x80)\n    /* \"ChainLinkOracle.sol\":253:422  constructor(address _oracleAddressListen)  {\r... */\n  callvalue\n  dup1\n  iszero\n  tag_1\n  jumpi\n  0x00\n  dup1\n  revert\ntag_1:\n  pop\n  mload(0x40)\n  sub(codesize, bytecodeSize)\n  dup1\n  bytecodeSize\n  dup4\n  codecopy\n  dup2\n  dup2\n  add\n  0x40\n  mstore\n  dup2\n  add\n  swap1\n  tag_2\n  swap2\n  swap1\n  tag_3\n  jump\t// in\ntag_2:\n    /* \"ChainLinkOracle.sol\":329:349  _oracleAddressListen */\n  dup1\n    /* \"ChainLinkOracle.sol\":307:326  oracleAddressListen */\n  0x01\n  0x00\n    /* \"ChainLinkOracle.sol\":307:349  oracleAddressListen = _oracleAddressListen */\n  0x0100\n  exp\n  dup2\n  sload\n  dup2\n  0xffffffffffffffffffffffffffffffffffffffff\n  mul\n  not\n  and\n  swap1\n  dup4\n  0xffffffffffffffffffffffffffffffffffffffff\n  and\n  mul\n  or\n  swap1\n  sstore\n  pop\n    /* \"ChainLinkOracle.sol\":394:413  oracleAddressListen */\n  0x01\n  0x00\n  swap1\n  sload\n  swap1\n  0x0100\n  exp\n  swap1\n  div\n  0xffffffffffffffffffffffffffffffffffffffff\n  and\n    /* \"ChainLinkOracle.sol\":360:369  priceFeed */\n  0x00\n  dup1\n    /* \"ChainLinkOracle.sol\":360:414  priceFeed = AggregatorV3Interface(oracleAddressListen) */\n  0x0100\n  exp\n  dup2\n  sload\n  dup2\n  0xffffffffffffffffffffffffffffffffffffffff\n  mul\n  not\n  and\n  swap1\n  dup4\n  0xffffffffffffffffffffffffffffffffffffffff\n  and\n  mul\n  or\n  swap1\n  sstore\n  pop\n    /* \"ChainLinkOracle.sol\":253:422  constructor(address _oracleAddressListen)  {\r... */\n  pop\n    /* \"ChainLinkOracle.sol\":138:770  contract ChainLinkOracle {\r... */\n  jump(tag_6)\n    /* \"#utility.yul\":7:150   */\ntag_8:\n    /* \"#utility.yul\":64:69   */\n  0x00\n    /* \"#utility.yul\":95:101   */\n  dup2\n    /* \"#utility.yul\":89:102   */\n  mload\n    /* \"#utility.yul\":80:102   */\n  swap1\n  pop\n    /* \"#utility.yul\":111:144   */\n  tag_10\n    /* \"#utility.yul\":138:143   */\n  dup2\n    /* \"#utility.yul\":111:144   */\n  tag_11\n  jump\t// in\ntag_10:\n    /* \"#utility.yul\":70:150   */\n  swap3\n  swap2\n  pop\n  pop\n  jump\t// out\n    /* \"#utility.yul\":156:507   */\ntag_3:\n    /* \"#utility.yul\":226:232   */\n  0x00\n    /* \"#utility.yul\":275:277   */\n  0x20\n    /* \"#utility.yul\":263:272   */\n  dup3\n    /* \"#utility.yul\":254:261   */\n  dup5\n    /* \"#utility.yul\":250:273   */\n  sub\n    /* \"#utility.yul\":246:278   */\n  slt\n    /* \"#utility.yul\":243:245   */\n  iszero\n  tag_13\n  jumpi\n    /* \"#utility.yul\":281:360   */\n  tag_14\n  tag_15\n  jump\t// in\ntag_14:\n    /* \"#utility.yul\":243:245   */\ntag_13:\n    /* \"#utility.yul\":401:402   */\n  0x00\n    /* \"#utility.yul\":426:490   */\n  tag_16\n    /* \"#utility.yul\":482:489   */\n  dup5\n    /* \"#utility.yul\":473:479   */\n  dup3\n    /* \"#utility.yul\":462:471   */\n  dup6\n    /* \"#utility.yul\":458:480   */\n  add\n    /* \"#utility.yul\":426:490   */\n  tag_8\n  jump\t// in\ntag_16:\n    /* \"#utility.yul\":416:490   */\n  swap2\n  pop\n    /* \"#utility.yul\":372:500   */\n  pop\n    /* \"#utility.yul\":233:507   */\n  swap3\n  swap2\n  pop\n  pop\n  jump\t// out\n    /* \"#utility.yul\":594:690   */\ntag_19:\n    /* \"#utility.yul\":631:638   */\n  0x00\n    /* \"#utility.yul\":660:684   */\n  tag_21\n    /* \"#utility.yul\":678:683   */\n  dup3\n    /* \"#utility.yul\":660:684   */\n  tag_22\n  jump\t// in\ntag_21:\n    /* \"#utility.yul\":649:684   */\n  swap1\n  pop\n    /* \"#utility.yul\":639:690   */\n  swap2\n  swap1\n  pop\n  jump\t// out\n    /* \"#utility.yul\":696:822   */\ntag_22:\n    /* \"#utility.yul\":733:740   */\n  0x00\n    /* \"#utility.yul\":773:815   */\n  0xffffffffffffffffffffffffffffffffffffffff\n    /* \"#utility.yul\":766:771   */\n  dup3\n    /* \"#utility.yul\":762:816   */\n  and\n    /* \"#utility.yul\":751:816   */\n  swap1\n  pop\n    /* \"#utility.yul\":741:822   */\n  swap2\n  swap1\n  pop\n  jump\t// out\n    /* \"#utility.yul\":951:1068   */\ntag_15:\n    /* \"#utility.yul\":1060:1061   */\n  0x00\n    /* \"#utility.yul\":1057:1058   */\n  dup1\n    /* \"#utility.yul\":1050:1062   */\n  revert\n    /* \"#utility.yul\":1074:1196   */\ntag_11:\n    /* \"#utility.yul\":1147:1171   */\n  tag_28\n    /* \"#utility.yul\":1165:1170   */\n  dup2\n    /* \"#utility.yul\":1147:1171   */\n  tag_19\n  jump\t// in\ntag_28:\n    /* \"#utility.yul\":1140:1145   */\n  dup2\n    /* \"#utility.yul\":1137:1172   */\n  eq\n    /* \"#utility.yul\":1127:1129   */\n  tag_29\n  jumpi\n    /* \"#utility.yul\":1186:1187   */\n  0x00\n    /* \"#utility.yul\":1183:1184   */\n  dup1\n    /* \"#utility.yul\":1176:1188   */\n  revert\n    /* \"#utility.yul\":1127:1129   */\ntag_29:\n    /* \"#utility.yul\":1117:1196   */\n  pop\n  jump\t// out\n    /* \"ChainLinkOracle.sol\":138:770  contract ChainLinkOracle {\r... */\ntag_6:\n  dataSize(sub_0)\n  dup1\n  dataOffset(sub_0)\n  0x00\n  codecopy\n  0x00\n  return\nstop\n\nsub_0: assembly {\n        /* \"ChainLinkOracle.sol\":138:770  contract ChainLinkOracle {\r... */\n      mstore(0x40, 0x80)\n      callvalue\n      dup1\n      iszero\n      tag_1\n      jumpi\n      0x00\n      dup1\n      revert\n    tag_1:\n      pop\n      jumpi(tag_2, lt(calldatasize, 0x04))\n      shr(0xe0, calldataload(0x00))\n      dup1\n      0x8e15f473\n      eq\n      tag_3\n      jumpi\n      dup1\n      0xc338287f\n      eq\n      tag_4\n      jumpi\n    tag_2:\n      0x00\n      dup1\n      revert\n        /* \"ChainLinkOracle.sol\":430:569  function getLatestPrice() public view returns (int) {\r... */\n    tag_3:\n      tag_5\n      tag_6\n      jump\t// in\n    tag_5:\n      mload(0x40)\n      tag_7\n      swap2\n      swap1\n      tag_8\n      jump\t// in\n    tag_7:\n      mload(0x40)\n      dup1\n      swap2\n      sub\n      swap1\n      return\n        /* \"ChainLinkOracle.sol\":577:765  function getUSDPrice() public view returns(uint256) {\r... */\n    tag_4:\n      tag_9\n      tag_10\n      jump\t// in\n    tag_9:\n      mload(0x40)\n      tag_11\n      swap2\n      swap1\n      tag_12\n      jump\t// in\n    tag_11:\n      mload(0x40)\n      dup1\n      swap2\n      sub\n      swap1\n      return\n        /* \"ChainLinkOracle.sol\":430:569  function getLatestPrice() public view returns (int) {\r... */\n    tag_6:\n        /* \"ChainLinkOracle.sol\":477:480  int */\n      0x00\n        /* \"ChainLinkOracle.sol\":495:504  int price */\n      dup1\n        /* \"ChainLinkOracle.sol\":511:520  priceFeed */\n      0x00\n      dup1\n      sload\n      swap1\n      0x0100\n      exp\n      swap1\n      div\n      0xffffffffffffffffffffffffffffffffffffffff\n      and\n        /* \"ChainLinkOracle.sol\":511:536  priceFeed.latestRoundData */\n      0xffffffffffffffffffffffffffffffffffffffff\n      and\n      0xfeaf968c\n        /* \"ChainLinkOracle.sol\":511:538  priceFeed.latestRoundData() */\n      mload(0x40)\n      dup2\n      0xffffffff\n      and\n      0xe0\n      shl\n      dup2\n      mstore\n      0x04\n      add\n      0xa0\n      mload(0x40)\n      dup1\n      dup4\n      sub\n      dup2\n      dup7\n      dup1\n      extcodesize\n      iszero\n      dup1\n      iszero\n      tag_14\n      jumpi\n      0x00\n      dup1\n      revert\n    tag_14:\n      pop\n      gas\n      staticcall\n      iszero\n      dup1\n      iszero\n      tag_16\n      jumpi\n      returndatasize\n      0x00\n      dup1\n      returndatacopy\n      revert(0x00, returndatasize)\n    tag_16:\n      pop\n      pop\n      pop\n      pop\n      mload(0x40)\n      returndatasize\n      not(0x1f)\n      0x1f\n      dup3\n      add\n      and\n      dup3\n      add\n      dup1\n      0x40\n      mstore\n      pop\n      dup2\n      add\n      swap1\n      tag_17\n      swap2\n      swap1\n      tag_18\n      jump\t// in\n    tag_17:\n        /* \"ChainLinkOracle.sol\":493:538  (,int price,,,) = priceFeed.latestRoundData() */\n      pop\n      pop\n      pop\n      swap2\n      pop\n      pop\n        /* \"ChainLinkOracle.sol\":556:561  price */\n      dup1\n        /* \"ChainLinkOracle.sol\":549:561  return price */\n      swap2\n      pop\n      pop\n        /* \"ChainLinkOracle.sol\":430:569  function getLatestPrice() public view returns (int) {\r... */\n      swap1\n      jump\t// out\n        /* \"ChainLinkOracle.sol\":577:765  function getUSDPrice() public view returns(uint256) {\r... */\n    tag_10:\n        /* \"ChainLinkOracle.sol\":620:627  uint256 */\n      0x00\n        /* \"ChainLinkOracle.sol\":640:658  int weth_usd_price */\n      dup1\n        /* \"ChainLinkOracle.sol\":661:677  getLatestPrice() */\n      tag_20\n        /* \"ChainLinkOracle.sol\":661:675  getLatestPrice */\n      tag_6\n        /* \"ChainLinkOracle.sol\":661:677  getLatestPrice() */\n      jump\t// in\n    tag_20:\n        /* \"ChainLinkOracle.sol\":640:677  int weth_usd_price = getLatestPrice() */\n      swap1\n      pop\n        /* \"ChainLinkOracle.sol\":742:756  weth_usd_price */\n      dup1\n        /* \"ChainLinkOracle.sol\":704:738  (1 * (10 ** 8)) * (1 * (10 ** 18)) */\n      0x52b7d2dcc80cd2e4000000\n        /* \"ChainLinkOracle.sol\":703:756  ((1 * (10 ** 8)) * (1 * (10 ** 18))) / weth_usd_price */\n      tag_21\n      swap2\n      swap1\n      tag_22\n      jump\t// in\n    tag_21:\n        /* \"ChainLinkOracle.sol\":688:757  return uint256(((1 * (10 ** 8)) * (1 * (10 ** 18))) / weth_usd_price) */\n      swap2\n      pop\n      pop\n        /* \"ChainLinkOracle.sol\":577:765  function getUSDPrice() public view returns(uint256) {\r... */\n      swap1\n      jump\t// out\n        /* \"#utility.yul\":7:148   */\n    tag_24:\n        /* \"#utility.yul\":63:68   */\n      0x00\n        /* \"#utility.yul\":94:100   */\n      dup2\n        /* \"#utility.yul\":88:101   */\n      mload\n        /* \"#utility.yul\":79:101   */\n      swap1\n      pop\n        /* \"#utility.yul\":110:142   */\n      tag_26\n        /* \"#utility.yul\":136:141   */\n      dup2\n        /* \"#utility.yul\":110:142   */\n      tag_27\n      jump\t// in\n    tag_26:\n        /* \"#utility.yul\":69:148   */\n      swap3\n      swap2\n      pop\n      pop\n      jump\t// out\n        /* \"#utility.yul\":154:297   */\n    tag_28:\n        /* \"#utility.yul\":211:216   */\n      0x00\n        /* \"#utility.yul\":242:248   */\n      dup2\n        /* \"#utility.yul\":236:249   */\n      mload\n        /* \"#utility.yul\":227:249   */\n      swap1\n      pop\n        /* \"#utility.yul\":258:291   */\n      tag_30\n        /* \"#utility.yul\":285:290   */\n      dup2\n        /* \"#utility.yul\":258:291   */\n      tag_31\n      jump\t// in\n    tag_30:\n        /* \"#utility.yul\":217:297   */\n      swap3\n      swap2\n      pop\n      pop\n      jump\t// out\n        /* \"#utility.yul\":303:444   */\n    tag_32:\n        /* \"#utility.yul\":359:364   */\n      0x00\n        /* \"#utility.yul\":390:396   */\n      dup2\n        /* \"#utility.yul\":384:397   */\n      mload\n        /* \"#utility.yul\":375:397   */\n      swap1\n      pop\n        /* \"#utility.yul\":406:438   */\n      tag_34\n        /* \"#utility.yul\":432:437   */\n      dup2\n        /* \"#utility.yul\":406:438   */\n      tag_35\n      jump\t// in\n    tag_34:\n        /* \"#utility.yul\":365:444   */\n      swap3\n      swap2\n      pop\n      pop\n      jump\t// out\n        /* \"#utility.yul\":450:1421   */\n    tag_18:\n        /* \"#utility.yul\":553:559   */\n      0x00\n        /* \"#utility.yul\":561:567   */\n      dup1\n        /* \"#utility.yul\":569:575   */\n      0x00\n        /* \"#utility.yul\":577:583   */\n      dup1\n        /* \"#utility.yul\":585:591   */\n      0x00\n        /* \"#utility.yul\":634:637   */\n      0xa0\n        /* \"#utility.yul\":622:631   */\n      dup7\n        /* \"#utility.yul\":613:620   */\n      dup9\n        /* \"#utility.yul\":609:632   */\n      sub\n        /* \"#utility.yul\":605:638   */\n      slt\n        /* \"#utility.yul\":602:604   */\n      iszero\n      tag_37\n      jumpi\n        /* \"#utility.yul\":641:720   */\n      tag_38\n      tag_39\n      jump\t// in\n    tag_38:\n        /* \"#utility.yul\":602:604   */\n    tag_37:\n        /* \"#utility.yul\":761:762   */\n      0x00\n        /* \"#utility.yul\":786:849   */\n      tag_40\n        /* \"#utility.yul\":841:848   */\n      dup9\n        /* \"#utility.yul\":832:838   */\n      dup3\n        /* \"#utility.yul\":821:830   */\n      dup10\n        /* \"#utility.yul\":817:839   */\n      add\n        /* \"#utility.yul\":786:849   */\n      tag_32\n      jump\t// in\n    tag_40:\n        /* \"#utility.yul\":776:849   */\n      swap6\n      pop\n        /* \"#utility.yul\":732:859   */\n      pop\n        /* \"#utility.yul\":898:900   */\n      0x20\n        /* \"#utility.yul\":924:987   */\n      tag_41\n        /* \"#utility.yul\":979:986   */\n      dup9\n        /* \"#utility.yul\":970:976   */\n      dup3\n        /* \"#utility.yul\":959:968   */\n      dup10\n        /* \"#utility.yul\":955:977   */\n      add\n        /* \"#utility.yul\":924:987   */\n      tag_24\n      jump\t// in\n    tag_41:\n        /* \"#utility.yul\":914:987   */\n      swap5\n      pop\n        /* \"#utility.yul\":869:997   */\n      pop\n        /* \"#utility.yul\":1036:1038   */\n      0x40\n        /* \"#utility.yul\":1062:1126   */\n      tag_42\n        /* \"#utility.yul\":1118:1125   */\n      dup9\n        /* \"#utility.yul\":1109:1115   */\n      dup3\n        /* \"#utility.yul\":1098:1107   */\n      dup10\n        /* \"#utility.yul\":1094:1116   */\n      add\n        /* \"#utility.yul\":1062:1126   */\n      tag_28\n      jump\t// in\n    tag_42:\n        /* \"#utility.yul\":1052:1126   */\n      swap4\n      pop\n        /* \"#utility.yul\":1007:1136   */\n      pop\n        /* \"#utility.yul\":1175:1177   */\n      0x60\n        /* \"#utility.yul\":1201:1265   */\n      tag_43\n        /* \"#utility.yul\":1257:1264   */\n      dup9\n        /* \"#utility.yul\":1248:1254   */\n      dup3\n        /* \"#utility.yul\":1237:1246   */\n      dup10\n        /* \"#utility.yul\":1233:1255   */\n      add\n        /* \"#utility.yul\":1201:1265   */\n      tag_28\n      jump\t// in\n    tag_43:\n        /* \"#utility.yul\":1191:1265   */\n      swap3\n      pop\n        /* \"#utility.yul\":1146:1275   */\n      pop\n        /* \"#utility.yul\":1314:1317   */\n      0x80\n        /* \"#utility.yul\":1341:1404   */\n      tag_44\n        /* \"#utility.yul\":1396:1403   */\n      dup9\n        /* \"#utility.yul\":1387:1393   */\n      dup3\n        /* \"#utility.yul\":1376:1385   */\n      dup10\n        /* \"#utility.yul\":1372:1394   */\n      add\n        /* \"#utility.yul\":1341:1404   */\n      tag_32\n      jump\t// in\n    tag_44:\n        /* \"#utility.yul\":1331:1404   */\n      swap2\n      pop\n        /* \"#utility.yul\":1285:1414   */\n      pop\n        /* \"#utility.yul\":592:1421   */\n      swap3\n      swap6\n      pop\n      swap3\n      swap6\n      swap1\n      swap4\n      pop\n      jump\t// out\n        /* \"#utility.yul\":1427:1542   */\n    tag_45:\n        /* \"#utility.yul\":1512:1535   */\n      tag_47\n        /* \"#utility.yul\":1529:1534   */\n      dup2\n        /* \"#utility.yul\":1512:1535   */\n      tag_48\n      jump\t// in\n    tag_47:\n        /* \"#utility.yul\":1507:1510   */\n      dup3\n        /* \"#utility.yul\":1500:1536   */\n      mstore\n        /* \"#utility.yul\":1490:1542   */\n      pop\n      pop\n      jump\t// out\n        /* \"#utility.yul\":1548:1666   */\n    tag_49:\n        /* \"#utility.yul\":1635:1659   */\n      tag_51\n        /* \"#utility.yul\":1653:1658   */\n      dup2\n        /* \"#utility.yul\":1635:1659   */\n      tag_52\n      jump\t// in\n    tag_51:\n        /* \"#utility.yul\":1630:1633   */\n      dup3\n        /* \"#utility.yul\":1623:1660   */\n      mstore\n        /* \"#utility.yul\":1613:1666   */\n      pop\n      pop\n      jump\t// out\n        /* \"#utility.yul\":1672:1890   */\n    tag_8:\n        /* \"#utility.yul\":1763:1767   */\n      0x00\n        /* \"#utility.yul\":1801:1803   */\n      0x20\n        /* \"#utility.yul\":1790:1799   */\n      dup3\n        /* \"#utility.yul\":1786:1804   */\n      add\n        /* \"#utility.yul\":1778:1804   */\n      swap1\n      pop\n        /* \"#utility.yul\":1814:1883   */\n      tag_54\n        /* \"#utility.yul\":1880:1881   */\n      0x00\n        /* \"#utility.yul\":1869:1878   */\n      dup4\n        /* \"#utility.yul\":1865:1882   */\n      add\n        /* \"#utility.yul\":1856:1862   */\n      dup5\n        /* \"#utility.yul\":1814:1883   */\n      tag_45\n      jump\t// in\n    tag_54:\n        /* \"#utility.yul\":1768:1890   */\n      swap3\n      swap2\n      pop\n      pop\n      jump\t// out\n        /* \"#utility.yul\":1896:2118   */\n    tag_12:\n        /* \"#utility.yul\":1989:1993   */\n      0x00\n        /* \"#utility.yul\":2027:2029   */\n      0x20\n        /* \"#utility.yul\":2016:2025   */\n      dup3\n        /* \"#utility.yul\":2012:2030   */\n      add\n        /* \"#utility.yul\":2004:2030   */\n      swap1\n      pop\n        /* \"#utility.yul\":2040:2111   */\n      tag_56\n        /* \"#utility.yul\":2108:2109   */\n      0x00\n        /* \"#utility.yul\":2097:2106   */\n      dup4\n        /* \"#utility.yul\":2093:2110   */\n      add\n        /* \"#utility.yul\":2084:2090   */\n      dup5\n        /* \"#utility.yul\":2040:2111   */\n      tag_49\n      jump\t// in\n    tag_56:\n        /* \"#utility.yul\":1994:2118   */\n      swap3\n      swap2\n      pop\n      pop\n      jump\t// out\n        /* \"#utility.yul\":2205:2590   */\n    tag_22:\n        /* \"#utility.yul\":2244:2245   */\n      0x00\n        /* \"#utility.yul\":2261:2280   */\n      tag_60\n        /* \"#utility.yul\":2278:2279   */\n      dup3\n        /* \"#utility.yul\":2261:2280   */\n      tag_48\n      jump\t// in\n    tag_60:\n        /* \"#utility.yul\":2256:2280   */\n      swap2\n      pop\n        /* \"#utility.yul\":2294:2313   */\n      tag_61\n        /* \"#utility.yul\":2311:2312   */\n      dup4\n        /* \"#utility.yul\":2294:2313   */\n      tag_48\n      jump\t// in\n    tag_61:\n        /* \"#utility.yul\":2289:2313   */\n      swap3\n      pop\n        /* \"#utility.yul\":2332:2333   */\n      dup3\n        /* \"#utility.yul\":2322:2324   */\n      tag_62\n      jumpi\n        /* \"#utility.yul\":2337:2355   */\n      tag_63\n      tag_64\n      jump\t// in\n    tag_63:\n        /* \"#utility.yul\":2322:2324   */\n    tag_62:\n        /* \"#utility.yul\":2523:2524   */\n      0x01\n        /* \"#utility.yul\":2520:2521   */\n      0x00\n        /* \"#utility.yul\":2516:2525   */\n      sub\n        /* \"#utility.yul\":2513:2514   */\n      dup4\n        /* \"#utility.yul\":2510:2526   */\n      eq\n        /* \"#utility.yul\":2429:2495   */\n      0x8000000000000000000000000000000000000000000000000000000000000000\n        /* \"#utility.yul\":2426:2427   */\n      dup4\n        /* \"#utility.yul\":2423:2496   */\n      eq\n        /* \"#utility.yul\":2406:2536   */\n      and\n        /* \"#utility.yul\":2403:2405   */\n      iszero\n      tag_65\n      jumpi\n        /* \"#utility.yul\":2539:2557   */\n      tag_66\n      tag_67\n      jump\t// in\n    tag_66:\n        /* \"#utility.yul\":2403:2405   */\n    tag_65:\n        /* \"#utility.yul\":2582:2583   */\n      dup3\n        /* \"#utility.yul\":2579:2580   */\n      dup3\n        /* \"#utility.yul\":2574:2584   */\n      sdiv\n        /* \"#utility.yul\":2569:2584   */\n      swap1\n      pop\n        /* \"#utility.yul\":2246:2590   */\n      swap3\n      swap2\n      pop\n      pop\n      jump\t// out\n        /* \"#utility.yul\":2596:2672   */\n    tag_48:\n        /* \"#utility.yul\":2632:2639   */\n      0x00\n        /* \"#utility.yul\":2661:2666   */\n      dup2\n        /* \"#utility.yul\":2650:2666   */\n      swap1\n      pop\n        /* \"#utility.yul\":2640:2672   */\n      swap2\n      swap1\n      pop\n      jump\t// out\n        /* \"#utility.yul\":2678:2755   */\n    tag_52:\n        /* \"#utility.yul\":2715:2722   */\n      0x00\n        /* \"#utility.yul\":2744:2749   */\n      dup2\n        /* \"#utility.yul\":2733:2749   */\n      swap1\n      pop\n        /* \"#utility.yul\":2723:2755   */\n      swap2\n      swap1\n      pop\n      jump\t// out\n        /* \"#utility.yul\":2761:2866   */\n    tag_70:\n        /* \"#utility.yul\":2797:2804   */\n      0x00\n        /* \"#utility.yul\":2837:2859   */\n      0xffffffffffffffffffff\n        /* \"#utility.yul\":2830:2835   */\n      dup3\n        /* \"#utility.yul\":2826:2860   */\n      and\n        /* \"#utility.yul\":2815:2860   */\n      swap1\n      pop\n        /* \"#utility.yul\":2805:2866   */\n      swap2\n      swap1\n      pop\n      jump\t// out\n        /* \"#utility.yul\":2872:3052   */\n    tag_67:\n        /* \"#utility.yul\":2920:2997   */\n      0x4e487b7100000000000000000000000000000000000000000000000000000000\n        /* \"#utility.yul\":2917:2918   */\n      0x00\n        /* \"#utility.yul\":2910:2998   */\n      mstore\n        /* \"#utility.yul\":3017:3021   */\n      0x11\n        /* \"#utility.yul\":3014:3015   */\n      0x04\n        /* \"#utility.yul\":3007:3022   */\n      mstore\n        /* \"#utility.yul\":3041:3045   */\n      0x24\n        /* \"#utility.yul\":3038:3039   */\n      0x00\n        /* \"#utility.yul\":3031:3046   */\n      revert\n        /* \"#utility.yul\":3058:3238   */\n    tag_64:\n        /* \"#utility.yul\":3106:3183   */\n      0x4e487b7100000000000000000000000000000000000000000000000000000000\n        /* \"#utility.yul\":3103:3104   */\n      0x00\n        /* \"#utility.yul\":3096:3184   */\n      mstore\n        /* \"#utility.yul\":3203:3207   */\n      0x12\n        /* \"#utility.yul\":3200:3201   */\n      0x04\n        /* \"#utility.yul\":3193:3208   */\n      mstore\n        /* \"#utility.yul\":3227:3231   */\n      0x24\n        /* \"#utility.yul\":3224:3225   */\n      0x00\n        /* \"#utility.yul\":3217:3232   */\n      revert\n        /* \"#utility.yul\":3367:3484   */\n    tag_39:\n        /* \"#utility.yul\":3476:3477   */\n      0x00\n        /* \"#utility.yul\":3473:3474   */\n      dup1\n        /* \"#utility.yul\":3466:3478   */\n      revert\n        /* \"#utility.yul\":3490:3610   */\n    tag_27:\n        /* \"#utility.yul\":3562:3585   */\n      tag_78\n        /* \"#utility.yul\":3579:3584   */\n      dup2\n        /* \"#utility.yul\":3562:3585   */\n      tag_48\n      jump\t// in\n    tag_78:\n        /* \"#utility.yul\":3555:3560   */\n      dup2\n        /* \"#utility.yul\":3552:3586   */\n      eq\n        /* \"#utility.yul\":3542:3544   */\n      tag_79\n      jumpi\n        /* \"#utility.yul\":3600:3601   */\n      0x00\n        /* \"#utility.yul\":3597:3598   */\n      dup1\n        /* \"#utility.yul\":3590:3602   */\n      revert\n        /* \"#utility.yul\":3542:3544   */\n    tag_79:\n        /* \"#utility.yul\":3532:3610   */\n      pop\n      jump\t// out\n        /* \"#utility.yul\":3616:3738   */\n    tag_31:\n        /* \"#utility.yul\":3689:3713   */\n      tag_81\n        /* \"#utility.yul\":3707:3712   */\n      dup2\n        /* \"#utility.yul\":3689:3713   */\n      tag_52\n      jump\t// in\n    tag_81:\n        /* \"#utility.yul\":3682:3687   */\n      dup2\n        /* \"#utility.yul\":3679:3714   */\n      eq\n        /* \"#utility.yul\":3669:3671   */\n      tag_82\n      jumpi\n        /* \"#utility.yul\":3728:3729   */\n      0x00\n        /* \"#utility.yul\":3725:3726   */\n      dup1\n        /* \"#utility.yul\":3718:3730   */\n      revert\n        /* \"#utility.yul\":3669:3671   */\n    tag_82:\n        /* \"#utility.yul\":3659:3738   */\n      pop\n      jump\t// out\n        /* \"#utility.yul\":3744:3864   */\n    tag_35:\n        /* \"#utility.yul\":3816:3839   */\n      tag_84\n        /* \"#utility.yul\":3833:3838   */\n      dup2\n        /* \"#utility.yul\":3816:3839   */\n      tag_70\n      jump\t// in\n    tag_84:\n        /* \"#utility.yul\":3809:3814   */\n      dup2\n        /* \"#utility.yul\":3806:3840   */\n      eq\n        /* \"#utility.yul\":3796:3798   */\n      tag_85\n      jumpi\n        /* \"#utility.yul\":3854:3855   */\n      0x00\n        /* \"#utility.yul\":3851:3852   */\n      dup1\n        /* \"#utility.yul\":3844:3856   */\n      revert\n        /* \"#utility.yul\":3796:3798   */\n    tag_85:\n        /* \"#utility.yul\":3786:3864   */\n      pop\n      jump\t// out\n\n    auxdata: 0xa2646970667358221220c6f8f1df2d34fe486db0d37f35c2bd5c4941f6de84de62aa5a1509036205403864736f6c63430008050033\n}\n",
				"bytecode": {
					"linkReferences": {},
					"object": "608060405234801561001057600080fd5b50604051610549380380610549833981810160405281019061003291906100f0565b80600160006101000a81548173ffffffffffffffffffffffffffffffffffffffff021916908373ffffffffffffffffffffffffffffffffffffffff160217905550600160009054906101000a900473ffffffffffffffffffffffffffffffffffffffff166000806101000a81548173ffffffffffffffffffffffffffffffffffffffff021916908373ffffffffffffffffffffffffffffffffffffffff1602179055505061016b565b6000815190506100ea81610154565b92915050565b6000602082840312156101065761010561014f565b5b6000610114848285016100db565b91505092915050565b60006101288261012f565b9050919050565b600073ffffffffffffffffffffffffffffffffffffffff82169050919050565b600080fd5b61015d8161011d565b811461016857600080fd5b50565b6103cf8061017a6000396000f3fe608060405234801561001057600080fd5b50600436106100365760003560e01c80638e15f4731461003b578063c338287f14610059575b600080fd5b610043610077565b6040516100509190610227565b60405180910390f35b610061610125565b60405161006e9190610242565b60405180910390f35b60008060008054906101000a900473ffffffffffffffffffffffffffffffffffffffff1673ffffffffffffffffffffffffffffffffffffffff1663feaf968c6040518163ffffffff1660e01b815260040160a06040518083038186803b1580156100e057600080fd5b505afa1580156100f4573d6000803e3d6000fd5b505050506040513d601f19601f82011682018060405250810190610118919061018e565b5050509150508091505090565b600080610130610077565b9050806a52b7d2dcc80cd2e4000000610149919061025d565b91505090565b60008151905061015e81610354565b92915050565b6000815190506101738161036b565b92915050565b60008151905061018881610382565b92915050565b600080600080600060a086880312156101aa576101a961034f565b5b60006101b888828901610179565b95505060206101c98882890161014f565b94505060406101da88828901610164565b93505060606101eb88828901610164565b92505060806101fc88828901610179565b9150509295509295909350565b610212816102c7565b82525050565b610221816102d1565b82525050565b600060208201905061023c6000830184610209565b92915050565b60006020820190506102576000830184610218565b92915050565b6000610268826102c7565b9150610273836102c7565b92508261028357610282610320565b5b600160000383147f8000000000000000000000000000000000000000000000000000000000000000831416156102bc576102bb6102f1565b5b828205905092915050565b6000819050919050565b6000819050919050565b600069ffffffffffffffffffff82169050919050565b7f4e487b7100000000000000000000000000000000000000000000000000000000600052601160045260246000fd5b7f4e487b7100000000000000000000000000000000000000000000000000000000600052601260045260246000fd5b600080fd5b61035d816102c7565b811461036857600080fd5b50565b610374816102d1565b811461037f57600080fd5b50565b61038b816102db565b811461039657600080fd5b5056fea2646970667358221220c6f8f1df2d34fe486db0d37f35c2bd5c4941f6de84de62aa5a1509036205403864736f6c63430008050033",
					"opcodes": "PUSH1 0x80 PUSH1 0x40 MSTORE CALLVALUE DUP1 ISZERO PUSH2 0x10 JUMPI PUSH1 0x0 DUP1 REVERT JUMPDEST POP PUSH1 0x40 MLOAD PUSH2 0x549 CODESIZE SUB DUP1 PUSH2 0x549 DUP4 CODECOPY DUP2 DUP2 ADD PUSH1 0x40 MSTORE DUP2 ADD SWAP1 PUSH2 0x32 SWAP2 SWAP1 PUSH2 0xF0 JUMP JUMPDEST DUP1 PUSH1 0x1 PUSH1 0x0 PUSH2 0x100 EXP DUP2 SLOAD DUP2 PUSH20 0xFFFFFFFFFFFFFFFFFFFFFFFFFFFFFFFFFFFFFFFF MUL NOT AND SWAP1 DUP4 PUSH20 0xFFFFFFFFFFFFFFFFFFFFFFFFFFFFFFFFFFFFFFFF AND MUL OR SWAP1 SSTORE POP PUSH1 0x1 PUSH1 0x0 SWAP1 SLOAD SWAP1 PUSH2 0x100 EXP SWAP1 DIV PUSH20 0xFFFFFFFFFFFFFFFFFFFFFFFFFFFFFFFFFFFFFFFF AND PUSH1 0x0 DUP1 PUSH2 0x100 EXP DUP2 SLOAD DUP2 PUSH20 0xFFFFFFFFFFFFFFFFFFFFFFFFFFFFFFFFFFFFFFFF MUL NOT AND SWAP1 DUP4 PUSH20 0xFFFFFFFFFFFFFFFFFFFFFFFFFFFFFFFFFFFFFFFF AND MUL OR SWAP1 SSTORE POP POP PUSH2 0x16B JUMP JUMPDEST PUSH1 0x0 DUP2 MLOAD SWAP1 POP PUSH2 0xEA DUP2 PUSH2 0x154 JUMP JUMPDEST SWAP3 SWAP2 POP POP JUMP JUMPDEST PUSH1 0x0 PUSH1 0x20 DUP3 DUP5 SUB SLT ISZERO PUSH2 0x106 JUMPI PUSH2 0x105 PUSH2 0x14F JUMP JUMPDEST JUMPDEST PUSH1 0x0 PUSH2 0x114 DUP5 DUP3 DUP6 ADD PUSH2 0xDB JUMP JUMPDEST SWAP2 POP POP SWAP3 SWAP2 POP POP JUMP JUMPDEST PUSH1 0x0 PUSH2 0x128 DUP3 PUSH2 0x12F JUMP JUMPDEST SWAP1 POP SWAP2 SWAP1 POP JUMP JUMPDEST PUSH1 0x0 PUSH20 0xFFFFFFFFFFFFFFFFFFFFFFFFFFFFFFFFFFFFFFFF DUP3 AND SWAP1 POP SWAP2 SWAP1 POP JUMP JUMPDEST PUSH1 0x0 DUP1 REVERT JUMPDEST PUSH2 0x15D DUP2 PUSH2 0x11D JUMP JUMPDEST DUP2 EQ PUSH2 0x168 JUMPI PUSH1 0x0 DUP1 REVERT JUMPDEST POP JUMP JUMPDEST PUSH2 0x3CF DUP1 PUSH2 0x17A PUSH1 0x0 CODECOPY PUSH1 0x0 RETURN INVALID PUSH1 0x80 PUSH1 0x40 MSTORE CALLVALUE DUP1 ISZERO PUSH2 0x10 JUMPI PUSH1 0x0 DUP1 REVERT JUMPDEST POP PUSH1 0x4 CALLDATASIZE LT PUSH2 0x36 JUMPI PUSH1 0x0 CALLDATALOAD PUSH1 0xE0 SHR DUP1 PUSH4 0x8E15F473 EQ PUSH2 0x3B JUMPI DUP1 PUSH4 0xC338287F EQ PUSH2 0x59 JUMPI JUMPDEST PUSH1 0x0 DUP1 REVERT JUMPDEST PUSH2 0x43 PUSH2 0x77 JUMP JUMPDEST PUSH1 0x40 MLOAD PUSH2 0x50 SWAP2 SWAP1 PUSH2 0x227 JUMP JUMPDEST PUSH1 0x40 MLOAD DUP1 SWAP2 SUB SWAP1 RETURN JUMPDEST PUSH2 0x61 PUSH2 0x125 JUMP JUMPDEST PUSH1 0x40 MLOAD PUSH2 0x6E SWAP2 SWAP1 PUSH2 0x242 JUMP JUMPDEST PUSH1 0x40 MLOAD DUP1 SWAP2 SUB SWAP1 RETURN JUMPDEST PUSH1 0x0 DUP1 PUSH1 0x0 DUP1 SLOAD SWAP1 PUSH2 0x100 EXP SWAP1 DIV PUSH20 0xFFFFFFFFFFFFFFFFFFFFFFFFFFFFFFFFFFFFFFFF AND PUSH20 0xFFFFFFFFFFFFFFFFFFFFFFFFFFFFFFFFFFFFFFFF AND PUSH4 0xFEAF968C PUSH1 0x40 MLOAD DUP2 PUSH4 0xFFFFFFFF AND PUSH1 0xE0 SHL DUP2 MSTORE PUSH1 0x4 ADD PUSH1 0xA0 PUSH1 0x40 MLOAD DUP1 DUP4 SUB DUP2 DUP7 DUP1 EXTCODESIZE ISZERO DUP1 ISZERO PUSH2 0xE0 JUMPI PUSH1 0x0 DUP1 REVERT JUMPDEST POP GAS STATICCALL ISZERO DUP1 ISZERO PUSH2 0xF4 JUMPI RETURNDATASIZE PUSH1 0x0 DUP1 RETURNDATACOPY RETURNDATASIZE PUSH1 0x0 REVERT JUMPDEST POP POP POP POP PUSH1 0x40 MLOAD RETURNDATASIZE PUSH1 0x1F NOT PUSH1 0x1F DUP3 ADD AND DUP3 ADD DUP1 PUSH1 0x40 MSTORE POP DUP2 ADD SWAP1 PUSH2 0x118 SWAP2 SWAP1 PUSH2 0x18E JUMP JUMPDEST POP POP POP SWAP2 POP POP DUP1 SWAP2 POP POP SWAP1 JUMP JUMPDEST PUSH1 0x0 DUP1 PUSH2 0x130 PUSH2 0x77 JUMP JUMPDEST SWAP1 POP DUP1 PUSH11 0x52B7D2DCC80CD2E4000000 PUSH2 0x149 SWAP2 SWAP1 PUSH2 0x25D JUMP JUMPDEST SWAP2 POP POP SWAP1 JUMP JUMPDEST PUSH1 0x0 DUP2 MLOAD SWAP1 POP PUSH2 0x15E DUP2 PUSH2 0x354 JUMP JUMPDEST SWAP3 SWAP2 POP POP JUMP JUMPDEST PUSH1 0x0 DUP2 MLOAD SWAP1 POP PUSH2 0x173 DUP2 PUSH2 0x36B JUMP JUMPDEST SWAP3 SWAP2 POP POP JUMP JUMPDEST PUSH1 0x0 DUP2 MLOAD SWAP1 POP PUSH2 0x188 DUP2 PUSH2 0x382 JUMP JUMPDEST SWAP3 SWAP2 POP POP JUMP JUMPDEST PUSH1 0x0 DUP1 PUSH1 0x0 DUP1 PUSH1 0x0 PUSH1 0xA0 DUP7 DUP9 SUB SLT ISZERO PUSH2 0x1AA JUMPI PUSH2 0x1A9 PUSH2 0x34F JUMP JUMPDEST JUMPDEST PUSH1 0x0 PUSH2 0x1B8 DUP9 DUP3 DUP10 ADD PUSH2 0x179 JUMP JUMPDEST SWAP6 POP POP PUSH1 0x20 PUSH2 0x1C9 DUP9 DUP3 DUP10 ADD PUSH2 0x14F JUMP JUMPDEST SWAP5 POP POP PUSH1 0x40 PUSH2 0x1DA DUP9 DUP3 DUP10 ADD PUSH2 0x164 JUMP JUMPDEST SWAP4 POP POP PUSH1 0x60 PUSH2 0x1EB DUP9 DUP3 DUP10 ADD PUSH2 0x164 JUMP JUMPDEST SWAP3 POP POP PUSH1 0x80 PUSH2 0x1FC DUP9 DUP3 DUP10 ADD PUSH2 0x179 JUMP JUMPDEST SWAP2 POP POP SWAP3 SWAP6 POP SWAP3 SWAP6 SWAP1 SWAP4 POP JUMP JUMPDEST PUSH2 0x212 DUP2 PUSH2 0x2C7 JUMP JUMPDEST DUP3 MSTORE POP POP JUMP JUMPDEST PUSH2 0x221 DUP2 PUSH2 0x2D1 JUMP JUMPDEST DUP3 MSTORE POP POP JUMP JUMPDEST PUSH1 0x0 PUSH1 0x20 DUP3 ADD SWAP1 POP PUSH2 0x23C PUSH1 0x0 DUP4 ADD DUP5 PUSH2 0x209 JUMP JUMPDEST SWAP3 SWAP2 POP POP JUMP JUMPDEST PUSH1 0x0 PUSH1 0x20 DUP3 ADD SWAP1 POP PUSH2 0x257 PUSH1 0x0 DUP4 ADD DUP5 PUSH2 0x218 JUMP JUMPDEST SWAP3 SWAP2 POP POP JUMP JUMPDEST PUSH1 0x0 PUSH2 0x268 DUP3 PUSH2 0x2C7 JUMP JUMPDEST SWAP2 POP PUSH2 0x273 DUP4 PUSH2 0x2C7 JUMP JUMPDEST SWAP3 POP DUP3 PUSH2 0x283 JUMPI PUSH2 0x282 PUSH2 0x320 JUMP JUMPDEST JUMPDEST PUSH1 0x1 PUSH1 0x0 SUB DUP4 EQ PUSH32 0x8000000000000000000000000000000000000000000000000000000000000000 DUP4 EQ AND ISZERO PUSH2 0x2BC JUMPI PUSH2 0x2BB PUSH2 0x2F1 JUMP JUMPDEST JUMPDEST DUP3 DUP3 SDIV SWAP1 POP SWAP3 SWAP2 POP POP JUMP JUMPDEST PUSH1 0x0 DUP2 SWAP1 POP SWAP2 SWAP1 POP JUMP JUMPDEST PUSH1 0x0 DUP2 SWAP1 POP SWAP2 SWAP1 POP JUMP JUMPDEST PUSH1 0x0 PUSH10 0xFFFFFFFFFFFFFFFFFFFF DUP3 AND SWAP1 POP SWAP2 SWAP1 POP JUMP JUMPDEST PUSH32 0x4E487B7100000000000000000000000000000000000000000000000000000000 PUSH1 0x0 MSTORE PUSH1 0x11 PUSH1 0x4 MSTORE PUSH1 0x24 PUSH1 0x0 REVERT JUMPDEST PUSH32 0x4E487B7100000000000000000000000000000000000000000000000000000000 PUSH1 0x0 MSTORE PUSH1 0x12 PUSH1 0x4 MSTORE PUSH1 0x24 PUSH1 0x0 REVERT JUMPDEST PUSH1 0x0 DUP1 REVERT JUMPDEST PUSH2 0x35D DUP2 PUSH2 0x2C7 JUMP JUMPDEST DUP2 EQ PUSH2 0x368 JUMPI PUSH1 0x0 DUP1 REVERT JUMPDEST POP JUMP JUMPDEST PUSH2 0x374 DUP2 PUSH2 0x2D1 JUMP JUMPDEST DUP2 EQ PUSH2 0x37F JUMPI PUSH1 0x0 DUP1 REVERT JUMPDEST POP JUMP JUMPDEST PUSH2 0x38B DUP2 PUSH2 0x2DB JUMP JUMPDEST DUP2 EQ PUSH2 0x396 JUMPI PUSH1 0x0 DUP1 REVERT JUMPDEST POP JUMP INVALID LOG2 PUSH5 0x6970667358 0x22 SLT KECCAK256 0xC6 0xF8 CALL 0xDF 0x2D CALLVALUE INVALID 0x48 PUSH14 0xB0D37F35C2BD5C4941F6DE84DE62 0xAA GAS ISZERO MULMOD SUB PUSH3 0x54038 PUSH5 0x736F6C6343 STOP ADDMOD SDIV STOP CALLER "
				},
				"gasEstimates": {
					"creation": {
						"codeDepositCost": "195000",
						"executionCost": "infinite",
						"totalCost": "infinite"
					},
					"external": {
						"getLatestPrice()": "infinite",
						"getUSDPrice()": "infinite"
					}
				},
				"methodIdentifiers": {
					"getLatestPrice()": "8e15f473",
					"getUSDPrice()": "c338287f"
				}
			},
			"userdoc": {
				"kind": "user",
				"methods": {},
				"version": 1
			}
		}
	}
}