{
	"ExchangeNFTBeacon.sol": {
		"ExchangeNFTBeacon": {
			"abi": [
				{
					"inputs": [
						{
							"internalType": "address",
							"name": "_implementation",
							"type": "address"
						}
					],
					"stateMutability": "nonpayable",
					"type": "constructor"
				},
				{
					"anonymous": false,
					"inputs": [
						{
							"indexed": true,
							"internalType": "address",
							"name": "previousOwner",
							"type": "address"
						},
						{
							"indexed": true,
							"internalType": "address",
							"name": "newOwner",
							"type": "address"
						}
					],
					"name": "OwnershipTransferred",
					"type": "event"
				},
				{
					"inputs": [],
					"name": "implementation",
					"outputs": [
						{
							"internalType": "address",
							"name": "",
							"type": "address"
						}
					],
					"stateMutability": "view",
					"type": "function"
				},
				{
					"inputs": [],
					"name": "owner",
					"outputs": [
						{
							"internalType": "address",
							"name": "",
							"type": "address"
						}
					],
					"stateMutability": "view",
					"type": "function"
				},
				{
					"inputs": [],
					"name": "renounceOwnership",
					"outputs": [],
					"stateMutability": "nonpayable",
					"type": "function"
				},
				{
					"inputs": [
						{
							"internalType": "address",
							"name": "newOwner",
							"type": "address"
						}
					],
					"name": "transferOwnership",
					"outputs": [],
					"stateMutability": "nonpayable",
					"type": "function"
				},
				{
					"inputs": [
						{
							"internalType": "address",
							"name": "_newImplementation",
							"type": "address"
						}
					],
					"name": "update",
					"outputs": [],
					"stateMutability": "nonpayable",
					"type": "function"
				}
			],
			"devdoc": {
				"kind": "dev",
				"methods": {
					"owner()": {
						"details": "Returns the address of the current owner."
					},
					"renounceOwnership()": {
						"details": "Leaves the contract without owner. It will not be possible to call `onlyOwner` functions anymore. Can only be called by the current owner. NOTE: Renouncing ownership will leave the contract without an owner, thereby removing any functionality that is only available to the owner."
					},
					"transferOwnership(address)": {
						"details": "Transfers ownership of the contract to a new account (`newOwner`). Can only be called by the current owner."
					}
				},
				"version": 1
			},
			"evm": {
				"assembly": "    /* \"ExchangeNFTBeacon.sol\":231:715  contract ExchangeNFTBeacon is Ownable {\r... */\n  mstore(0x40, 0xa0)\n    /* \"ExchangeNFTBeacon.sol\":354:540  constructor(address _implementation) {\r... */\n  callvalue\n  dup1\n  iszero\n  tag_1\n  jumpi\n  0x00\n  dup1\n  revert\ntag_1:\n  pop\n  mload(0x40)\n  sub(codesize, bytecodeSize)\n  dup1\n  bytecodeSize\n  dup4\n  codecopy\n  dup2\n  dup2\n  add\n  0x40\n  mstore\n  dup2\n  add\n  swap1\n  tag_2\n  swap2\n  swap1\n  tag_3\n  jump\t// in\ntag_2:\n    /* \"@openzeppelin/contracts/access/Ownable.sol\":921:953  _transferOwnership(_msgSender()) */\n  tag_7\n    /* \"@openzeppelin/contracts/access/Ownable.sol\":940:952  _msgSender() */\n  tag_8\n    /* \"@openzeppelin/contracts/access/Ownable.sol\":940:950  _msgSender */\n  shl(0x20, tag_9)\n    /* \"@openzeppelin/contracts/access/Ownable.sol\":940:952  _msgSender() */\n  0x20\n  shr\n  jump\t// in\ntag_8:\n    /* \"@openzeppelin/contracts/access/Ownable.sol\":921:939  _transferOwnership */\n  shl(0x20, tag_10)\n    /* \"@openzeppelin/contracts/access/Ownable.sol\":921:953  _transferOwnership(_msgSender()) */\n  0x20\n  shr\n  jump\t// in\ntag_7:\n    /* \"ExchangeNFTBeacon.sol\":434:449  _implementation */\n  dup1\n    /* \"ExchangeNFTBeacon.sol\":412:450  new UpgradeableBeacon(_implementation) */\n  mload(0x40)\n  tag_12\n  swap1\n  tag_13\n  jump\t// in\ntag_12:\n  tag_14\n  swap2\n  swap1\n  tag_15\n  jump\t// in\ntag_14:\n  mload(0x40)\n  dup1\n  swap2\n  sub\n  swap1\n  0x00\n  create\n  dup1\n  iszero\n  dup1\n  iszero\n  tag_16\n  jumpi\n  returndatasize\n  0x00\n  dup1\n  returndatacopy\n  revert(0x00, returndatasize)\ntag_16:\n  pop\n    /* \"ExchangeNFTBeacon.sol\":402:450  beacon =  new UpgradeableBeacon(_implementation) */\n  0xffffffffffffffffffffffffffffffffffffffff\n  and\n  0x80\n  dup2\n  0xffffffffffffffffffffffffffffffffffffffff\n  and\n  0x60\n  shl\n  dup2\n  mstore\n  pop\n  pop\n    /* \"ExchangeNFTBeacon.sol\":478:493  _implementation */\n  dup1\n    /* \"ExchangeNFTBeacon.sol\":461:475  implementation */\n  0x01\n  0x00\n    /* \"ExchangeNFTBeacon.sol\":461:493  implementation = _implementation */\n  0x0100\n  exp\n  dup2\n  sload\n  dup2\n  0xffffffffffffffffffffffffffffffffffffffff\n  mul\n  not\n  and\n  swap1\n  dup4\n  0xffffffffffffffffffffffffffffffffffffffff\n  and\n  mul\n  or\n  swap1\n  sstore\n  pop\n    /* \"ExchangeNFTBeacon.sol\":504:532  transferOwnership(tx.origin) */\n  tag_17\n    /* \"ExchangeNFTBeacon.sol\":522:531  tx.origin */\n  origin\n    /* \"ExchangeNFTBeacon.sol\":504:521  transferOwnership */\n  shl(0x20, tag_18)\n    /* \"ExchangeNFTBeacon.sol\":504:532  transferOwnership(tx.origin) */\n  0x20\n  shr\n  jump\t// in\ntag_17:\n    /* \"ExchangeNFTBeacon.sol\":354:540  constructor(address _implementation) {\r... */\n  pop\n    /* \"ExchangeNFTBeacon.sol\":231:715  contract ExchangeNFTBeacon is Ownable {\r... */\n  jump(tag_19)\n    /* \"@openzeppelin/contracts/utils/Context.sol\":640:736  function _msgSender() internal view virtual returns (address) {... */\ntag_9:\n    /* \"@openzeppelin/contracts/utils/Context.sol\":693:700  address */\n  0x00\n    /* \"@openzeppelin/contracts/utils/Context.sol\":719:729  msg.sender */\n  caller\n    /* \"@openzeppelin/contracts/utils/Context.sol\":712:729  return msg.sender */\n  swap1\n  pop\n    /* \"@openzeppelin/contracts/utils/Context.sol\":640:736  function _msgSender() internal view virtual returns (address) {... */\n  swap1\n  jump\t// out\n    /* \"@openzeppelin/contracts/access/Ownable.sol\":2270:2457  function _transferOwnership(address newOwner) internal virtual {... */\ntag_10:\n    /* \"@openzeppelin/contracts/access/Ownable.sol\":2343:2359  address oldOwner */\n  0x00\n    /* \"@openzeppelin/contracts/access/Ownable.sol\":2362:2368  _owner */\n  dup1\n  0x00\n  swap1\n  sload\n  swap1\n  0x0100\n  exp\n  swap1\n  div\n  0xffffffffffffffffffffffffffffffffffffffff\n  and\n    /* \"@openzeppelin/contracts/access/Ownable.sol\":2343:2368  address oldOwner = _owner */\n  swap1\n  pop\n    /* \"@openzeppelin/contracts/access/Ownable.sol\":2387:2395  newOwner */\n  dup2\n    /* \"@openzeppelin/contracts/access/Ownable.sol\":2378:2384  _owner */\n  0x00\n  dup1\n    /* \"@openzeppelin/contracts/access/Ownable.sol\":2378:2395  _owner = newOwner */\n  0x0100\n  exp\n  dup2\n  sload\n  dup2\n  0xffffffffffffffffffffffffffffffffffffffff\n  mul\n  not\n  and\n  swap1\n  dup4\n  0xffffffffffffffffffffffffffffffffffffffff\n  and\n  mul\n  or\n  swap1\n  sstore\n  pop\n    /* \"@openzeppelin/contracts/access/Ownable.sol\":2441:2449  newOwner */\n  dup2\n    /* \"@openzeppelin/contracts/access/Ownable.sol\":2410:2450  OwnershipTransferred(oldOwner, newOwner) */\n  0xffffffffffffffffffffffffffffffffffffffff\n  and\n    /* \"@openzeppelin/contracts/access/Ownable.sol\":2431:2439  oldOwner */\n  dup2\n    /* \"@openzeppelin/contracts/access/Ownable.sol\":2410:2450  OwnershipTransferred(oldOwner, newOwner) */\n  0xffffffffffffffffffffffffffffffffffffffff\n  and\n  0x8be0079c531659141344cd1fd0a4f28419497f9722a3daafe3b4186f6b6457e0\n  mload(0x40)\n  mload(0x40)\n  dup1\n  swap2\n  sub\n  swap1\n  log3\n    /* \"@openzeppelin/contracts/access/Ownable.sol\":2333:2457  {... */\n  pop\n    /* \"@openzeppelin/contracts/access/Ownable.sol\":2270:2457  function _transferOwnership(address newOwner) internal virtual {... */\n  pop\n  jump\t// out\n    /* \"@openzeppelin/contracts/access/Ownable.sol\":1918:2116  function transferOwnership(address newOwner) public virtual onlyOwner {... */\ntag_18:\n    /* \"@openzeppelin/contracts/access/Ownable.sol\":1259:1271  _msgSender() */\n  tag_23\n    /* \"@openzeppelin/contracts/access/Ownable.sol\":1259:1269  _msgSender */\n  shl(0x20, tag_9)\n    /* \"@openzeppelin/contracts/access/Ownable.sol\":1259:1271  _msgSender() */\n  0x20\n  shr\n  jump\t// in\ntag_23:\n    /* \"@openzeppelin/contracts/access/Ownable.sol\":1248:1271  owner() == _msgSender() */\n  0xffffffffffffffffffffffffffffffffffffffff\n  and\n    /* \"@openzeppelin/contracts/access/Ownable.sol\":1248:1255  owner() */\n  tag_24\n    /* \"@openzeppelin/contracts/access/Ownable.sol\":1248:1253  owner */\n  shl(0x20, tag_25)\n    /* \"@openzeppelin/contracts/access/Ownable.sol\":1248:1255  owner() */\n  0x20\n  shr\n  jump\t// in\ntag_24:\n    /* \"@openzeppelin/contracts/access/Ownable.sol\":1248:1271  owner() == _msgSender() */\n  0xffffffffffffffffffffffffffffffffffffffff\n  and\n  eq\n    /* \"@openzeppelin/contracts/access/Ownable.sol\":1240:1308  require(owner() == _msgSender(), \"Ownable: caller is not the owner\") */\n  tag_26\n  jumpi\n  mload(0x40)\n  0x08c379a000000000000000000000000000000000000000000000000000000000\n  dup2\n  mstore\n  0x04\n  add\n  tag_27\n  swap1\n  tag_28\n  jump\t// in\ntag_27:\n  mload(0x40)\n  dup1\n  swap2\n  sub\n  swap1\n  revert\ntag_26:\n    /* \"@openzeppelin/contracts/access/Ownable.sol\":2026:2027  0 */\n  0x00\n    /* \"@openzeppelin/contracts/access/Ownable.sol\":2006:2028  newOwner != address(0) */\n  0xffffffffffffffffffffffffffffffffffffffff\n  and\n    /* \"@openzeppelin/contracts/access/Ownable.sol\":2006:2014  newOwner */\n  dup2\n    /* \"@openzeppelin/contracts/access/Ownable.sol\":2006:2028  newOwner != address(0) */\n  0xffffffffffffffffffffffffffffffffffffffff\n  and\n  eq\n  iszero\n    /* \"@openzeppelin/contracts/access/Ownable.sol\":1998:2071  require(newOwner != address(0), \"Ownable: new owner is the zero address\") */\n  tag_30\n  jumpi\n  mload(0x40)\n  0x08c379a000000000000000000000000000000000000000000000000000000000\n  dup2\n  mstore\n  0x04\n  add\n  tag_31\n  swap1\n  tag_32\n  jump\t// in\ntag_31:\n  mload(0x40)\n  dup1\n  swap2\n  sub\n  swap1\n  revert\ntag_30:\n    /* \"@openzeppelin/contracts/access/Ownable.sol\":2081:2109  _transferOwnership(newOwner) */\n  tag_33\n    /* \"@openzeppelin/contracts/access/Ownable.sol\":2100:2108  newOwner */\n  dup2\n    /* \"@openzeppelin/contracts/access/Ownable.sol\":2081:2099  _transferOwnership */\n  shl(0x20, tag_10)\n    /* \"@openzeppelin/contracts/access/Ownable.sol\":2081:2109  _transferOwnership(newOwner) */\n  0x20\n  shr\n  jump\t// in\ntag_33:\n    /* \"@openzeppelin/contracts/access/Ownable.sol\":1918:2116  function transferOwnership(address newOwner) public virtual onlyOwner {... */\n  pop\n  jump\t// out\n    /* \"@openzeppelin/contracts/access/Ownable.sol\":1036:1121  function owner() public view virtual returns (address) {... */\ntag_25:\n    /* \"@openzeppelin/contracts/access/Ownable.sol\":1082:1089  address */\n  0x00\n    /* \"@openzeppelin/contracts/access/Ownable.sol\":1108:1114  _owner */\n  dup1\n  0x00\n  swap1\n  sload\n  swap1\n  0x0100\n  exp\n  swap1\n  div\n  0xffffffffffffffffffffffffffffffffffffffff\n  and\n    /* \"@openzeppelin/contracts/access/Ownable.sol\":1101:1114  return _owner */\n  swap1\n  pop\n    /* \"@openzeppelin/contracts/access/Ownable.sol\":1036:1121  function owner() public view virtual returns (address) {... */\n  swap1\n  jump\t// out\n    /* \"ExchangeNFTBeacon.sol\":231:715  contract ExchangeNFTBeacon is Ownable {\r... */\ntag_13:\n  dataSize(sub_1)\n  dup1\n  dataOffset(sub_1)\n  dup4\n  codecopy\n  add\n  swap1\n  jump\t// out\n    /* \"#utility.yul\":7:150   */\ntag_36:\n    /* \"#utility.yul\":64:69   */\n  0x00\n    /* \"#utility.yul\":95:101   */\n  dup2\n    /* \"#utility.yul\":89:102   */\n  mload\n    /* \"#utility.yul\":80:102   */\n  swap1\n  pop\n    /* \"#utility.yul\":111:144   */\n  tag_38\n    /* \"#utility.yul\":138:143   */\n  dup2\n    /* \"#utility.yul\":111:144   */\n  tag_39\n  jump\t// in\ntag_38:\n    /* \"#utility.yul\":70:150   */\n  swap3\n  swap2\n  pop\n  pop\n  jump\t// out\n    /* \"#utility.yul\":156:507   */\ntag_3:\n    /* \"#utility.yul\":226:232   */\n  0x00\n    /* \"#utility.yul\":275:277   */\n  0x20\n    /* \"#utility.yul\":263:272   */\n  dup3\n    /* \"#utility.yul\":254:261   */\n  dup5\n    /* \"#utility.yul\":250:273   */\n  sub\n    /* \"#utility.yul\":246:278   */\n  slt\n    /* \"#utility.yul\":243:245   */\n  iszero\n  tag_41\n  jumpi\n    /* \"#utility.yul\":281:360   */\n  tag_42\n  tag_43\n  jump\t// in\ntag_42:\n    /* \"#utility.yul\":243:245   */\ntag_41:\n    /* \"#utility.yul\":401:402   */\n  0x00\n    /* \"#utility.yul\":426:490   */\n  tag_44\n    /* \"#utility.yul\":482:489   */\n  dup5\n    /* \"#utility.yul\":473:479   */\n  dup3\n    /* \"#utility.yul\":462:471   */\n  dup6\n    /* \"#utility.yul\":458:480   */\n  add\n    /* \"#utility.yul\":426:490   */\n  tag_36\n  jump\t// in\ntag_44:\n    /* \"#utility.yul\":416:490   */\n  swap2\n  pop\n    /* \"#utility.yul\":372:500   */\n  pop\n    /* \"#utility.yul\":233:507   */\n  swap3\n  swap2\n  pop\n  pop\n  jump\t// out\n    /* \"#utility.yul\":513:631   */\ntag_45:\n    /* \"#utility.yul\":600:624   */\n  tag_47\n    /* \"#utility.yul\":618:623   */\n  dup2\n    /* \"#utility.yul\":600:624   */\n  tag_48\n  jump\t// in\ntag_47:\n    /* \"#utility.yul\":595:598   */\n  dup3\n    /* \"#utility.yul\":588:625   */\n  mstore\n    /* \"#utility.yul\":578:631   */\n  pop\n  pop\n  jump\t// out\n    /* \"#utility.yul\":637:1003   */\ntag_49:\n    /* \"#utility.yul\":779:782   */\n  0x00\n    /* \"#utility.yul\":800:867   */\n  tag_51\n    /* \"#utility.yul\":864:866   */\n  0x26\n    /* \"#utility.yul\":859:862   */\n  dup4\n    /* \"#utility.yul\":800:867   */\n  tag_52\n  jump\t// in\ntag_51:\n    /* \"#utility.yul\":793:867   */\n  swap2\n  pop\n    /* \"#utility.yul\":876:969   */\n  tag_53\n    /* \"#utility.yul\":965:968   */\n  dup3\n    /* \"#utility.yul\":876:969   */\n  tag_54\n  jump\t// in\ntag_53:\n    /* \"#utility.yul\":994:996   */\n  0x40\n    /* \"#utility.yul\":989:992   */\n  dup3\n    /* \"#utility.yul\":985:997   */\n  add\n    /* \"#utility.yul\":978:997   */\n  swap1\n  pop\n    /* \"#utility.yul\":783:1003   */\n  swap2\n  swap1\n  pop\n  jump\t// out\n    /* \"#utility.yul\":1009:1375   */\ntag_55:\n    /* \"#utility.yul\":1151:1154   */\n  0x00\n    /* \"#utility.yul\":1172:1239   */\n  tag_57\n    /* \"#utility.yul\":1236:1238   */\n  0x20\n    /* \"#utility.yul\":1231:1234   */\n  dup4\n    /* \"#utility.yul\":1172:1239   */\n  tag_52\n  jump\t// in\ntag_57:\n    /* \"#utility.yul\":1165:1239   */\n  swap2\n  pop\n    /* \"#utility.yul\":1248:1341   */\n  tag_58\n    /* \"#utility.yul\":1337:1340   */\n  dup3\n    /* \"#utility.yul\":1248:1341   */\n  tag_59\n  jump\t// in\ntag_58:\n    /* \"#utility.yul\":1366:1368   */\n  0x20\n    /* \"#utility.yul\":1361:1364   */\n  dup3\n    /* \"#utility.yul\":1357:1369   */\n  add\n    /* \"#utility.yul\":1350:1369   */\n  swap1\n  pop\n    /* \"#utility.yul\":1155:1375   */\n  swap2\n  swap1\n  pop\n  jump\t// out\n    /* \"#utility.yul\":1381:1603   */\ntag_15:\n    /* \"#utility.yul\":1474:1478   */\n  0x00\n    /* \"#utility.yul\":1512:1514   */\n  0x20\n    /* \"#utility.yul\":1501:1510   */\n  dup3\n    /* \"#utility.yul\":1497:1515   */\n  add\n    /* \"#utility.yul\":1489:1515   */\n  swap1\n  pop\n    /* \"#utility.yul\":1525:1596   */\n  tag_61\n    /* \"#utility.yul\":1593:1594   */\n  0x00\n    /* \"#utility.yul\":1582:1591   */\n  dup4\n    /* \"#utility.yul\":1578:1595   */\n  add\n    /* \"#utility.yul\":1569:1575   */\n  dup5\n    /* \"#utility.yul\":1525:1596   */\n  tag_45\n  jump\t// in\ntag_61:\n    /* \"#utility.yul\":1479:1603   */\n  swap3\n  swap2\n  pop\n  pop\n  jump\t// out\n    /* \"#utility.yul\":1609:2028   */\ntag_32:\n    /* \"#utility.yul\":1775:1779   */\n  0x00\n    /* \"#utility.yul\":1813:1815   */\n  0x20\n    /* \"#utility.yul\":1802:1811   */\n  dup3\n    /* \"#utility.yul\":1798:1816   */\n  add\n    /* \"#utility.yul\":1790:1816   */\n  swap1\n  pop\n    /* \"#utility.yul\":1862:1871   */\n  dup2\n    /* \"#utility.yul\":1856:1860   */\n  dup2\n    /* \"#utility.yul\":1852:1872   */\n  sub\n    /* \"#utility.yul\":1848:1849   */\n  0x00\n    /* \"#utility.yul\":1837:1846   */\n  dup4\n    /* \"#utility.yul\":1833:1850   */\n  add\n    /* \"#utility.yul\":1826:1873   */\n  mstore\n    /* \"#utility.yul\":1890:2021   */\n  tag_63\n    /* \"#utility.yul\":2016:2020   */\n  dup2\n    /* \"#utility.yul\":1890:2021   */\n  tag_49\n  jump\t// in\ntag_63:\n    /* \"#utility.yul\":1882:2021   */\n  swap1\n  pop\n    /* \"#utility.yul\":1780:2028   */\n  swap2\n  swap1\n  pop\n  jump\t// out\n    /* \"#utility.yul\":2034:2453   */\ntag_28:\n    /* \"#utility.yul\":2200:2204   */\n  0x00\n    /* \"#utility.yul\":2238:2240   */\n  0x20\n    /* \"#utility.yul\":2227:2236   */\n  dup3\n    /* \"#utility.yul\":2223:2241   */\n  add\n    /* \"#utility.yul\":2215:2241   */\n  swap1\n  pop\n    /* \"#utility.yul\":2287:2296   */\n  dup2\n    /* \"#utility.yul\":2281:2285   */\n  dup2\n    /* \"#utility.yul\":2277:2297   */\n  sub\n    /* \"#utility.yul\":2273:2274   */\n  0x00\n    /* \"#utility.yul\":2262:2271   */\n  dup4\n    /* \"#utility.yul\":2258:2275   */\n  add\n    /* \"#utility.yul\":2251:2298   */\n  mstore\n    /* \"#utility.yul\":2315:2446   */\n  tag_65\n    /* \"#utility.yul\":2441:2445   */\n  dup2\n    /* \"#utility.yul\":2315:2446   */\n  tag_55\n  jump\t// in\ntag_65:\n    /* \"#utility.yul\":2307:2446   */\n  swap1\n  pop\n    /* \"#utility.yul\":2205:2453   */\n  swap2\n  swap1\n  pop\n  jump\t// out\n    /* \"#utility.yul\":2540:2709   */\ntag_52:\n    /* \"#utility.yul\":2624:2635   */\n  0x00\n    /* \"#utility.yul\":2658:2664   */\n  dup3\n    /* \"#utility.yul\":2653:2656   */\n  dup3\n    /* \"#utility.yul\":2646:2665   */\n  mstore\n    /* \"#utility.yul\":2698:2702   */\n  0x20\n    /* \"#utility.yul\":2693:2696   */\n  dup3\n    /* \"#utility.yul\":2689:2703   */\n  add\n    /* \"#utility.yul\":2674:2703   */\n  swap1\n  pop\n    /* \"#utility.yul\":2636:2709   */\n  swap3\n  swap2\n  pop\n  pop\n  jump\t// out\n    /* \"#utility.yul\":2715:2811   */\ntag_48:\n    /* \"#utility.yul\":2752:2759   */\n  0x00\n    /* \"#utility.yul\":2781:2805   */\n  tag_70\n    /* \"#utility.yul\":2799:2804   */\n  dup3\n    /* \"#utility.yul\":2781:2805   */\n  tag_71\n  jump\t// in\ntag_70:\n    /* \"#utility.yul\":2770:2805   */\n  swap1\n  pop\n    /* \"#utility.yul\":2760:2811   */\n  swap2\n  swap1\n  pop\n  jump\t// out\n    /* \"#utility.yul\":2817:2943   */\ntag_71:\n    /* \"#utility.yul\":2854:2861   */\n  0x00\n    /* \"#utility.yul\":2894:2936   */\n  0xffffffffffffffffffffffffffffffffffffffff\n    /* \"#utility.yul\":2887:2892   */\n  dup3\n    /* \"#utility.yul\":2883:2937   */\n  and\n    /* \"#utility.yul\":2872:2937   */\n  swap1\n  pop\n    /* \"#utility.yul\":2862:2943   */\n  swap2\n  swap1\n  pop\n  jump\t// out\n    /* \"#utility.yul\":3072:3189   */\ntag_43:\n    /* \"#utility.yul\":3181:3182   */\n  0x00\n    /* \"#utility.yul\":3178:3179   */\n  dup1\n    /* \"#utility.yul\":3171:3183   */\n  revert\n    /* \"#utility.yul\":3195:3420   */\ntag_54:\n    /* \"#utility.yul\":3335:3369   */\n  0x4f776e61626c653a206e6577206f776e657220697320746865207a65726f2061\n    /* \"#utility.yul\":3331:3332   */\n  0x00\n    /* \"#utility.yul\":3323:3329   */\n  dup3\n    /* \"#utility.yul\":3319:3333   */\n  add\n    /* \"#utility.yul\":3312:3370   */\n  mstore\n    /* \"#utility.yul\":3404:3412   */\n  0x6464726573730000000000000000000000000000000000000000000000000000\n    /* \"#utility.yul\":3399:3401   */\n  0x20\n    /* \"#utility.yul\":3391:3397   */\n  dup3\n    /* \"#utility.yul\":3387:3402   */\n  add\n    /* \"#utility.yul\":3380:3413   */\n  mstore\n    /* \"#utility.yul\":3301:3420   */\n  pop\n  jump\t// out\n    /* \"#utility.yul\":3426:3608   */\ntag_59:\n    /* \"#utility.yul\":3566:3600   */\n  0x4f776e61626c653a2063616c6c6572206973206e6f7420746865206f776e6572\n    /* \"#utility.yul\":3562:3563   */\n  0x00\n    /* \"#utility.yul\":3554:3560   */\n  dup3\n    /* \"#utility.yul\":3550:3564   */\n  add\n    /* \"#utility.yul\":3543:3601   */\n  mstore\n    /* \"#utility.yul\":3532:3608   */\n  pop\n  jump\t// out\n    /* \"#utility.yul\":3614:3736   */\ntag_39:\n    /* \"#utility.yul\":3687:3711   */\n  tag_79\n    /* \"#utility.yul\":3705:3710   */\n  dup2\n    /* \"#utility.yul\":3687:3711   */\n  tag_48\n  jump\t// in\ntag_79:\n    /* \"#utility.yul\":3680:3685   */\n  dup2\n    /* \"#utility.yul\":3677:3712   */\n  eq\n    /* \"#utility.yul\":3667:3669   */\n  tag_80\n  jumpi\n    /* \"#utility.yul\":3726:3727   */\n  0x00\n    /* \"#utility.yul\":3723:3724   */\n  dup1\n    /* \"#utility.yul\":3716:3728   */\n  revert\n    /* \"#utility.yul\":3667:3669   */\ntag_80:\n    /* \"#utility.yul\":3657:3736   */\n  pop\n  jump\t// out\n    /* \"ExchangeNFTBeacon.sol\":231:715  contract ExchangeNFTBeacon is Ownable {\r... */\ntag_19:\n  shr(0x60, mload(0x80))\n  codecopy(0x00, dataOffset(sub_0), dataSize(sub_0))\n  0x00\n  assignImmutable(\"0xa9bbaa6544f2f8b29c05f1a13be9707eb10dfac9213907aecb24a613b51d37c6\")\n  return(0x00, dataSize(sub_0))\nstop\n\nsub_0: assembly {\n        /* \"ExchangeNFTBeacon.sol\":231:715  contract ExchangeNFTBeacon is Ownable {\r... */\n      mstore(0x40, 0x80)\n      callvalue\n      dup1\n      iszero\n      tag_1\n      jumpi\n      0x00\n      dup1\n      revert\n    tag_1:\n      pop\n      jumpi(tag_2, lt(calldatasize, 0x04))\n      shr(0xe0, calldataload(0x00))\n      dup1\n      0x1c1b8772\n      eq\n      tag_3\n      jumpi\n      dup1\n      0x5c60da1b\n      eq\n      tag_4\n      jumpi\n      dup1\n      0x715018a6\n      eq\n      tag_5\n      jumpi\n      dup1\n      0x8da5cb5b\n      eq\n      tag_6\n      jumpi\n      dup1\n      0xf2fde38b\n      eq\n      tag_7\n      jumpi\n    tag_2:\n      0x00\n      dup1\n      revert\n        /* \"ExchangeNFTBeacon.sol\":548:710  function update(address _newImplementation) public onlyOwner {\r... */\n    tag_3:\n      tag_8\n      0x04\n      dup1\n      calldatasize\n      sub\n      dup2\n      add\n      swap1\n      tag_9\n      swap2\n      swap1\n      tag_10\n      jump\t// in\n    tag_9:\n      tag_11\n      jump\t// in\n    tag_8:\n      stop\n        /* \"ExchangeNFTBeacon.sol\":317:347  address public  implementation */\n    tag_4:\n      tag_12\n      tag_13\n      jump\t// in\n    tag_12:\n      mload(0x40)\n      tag_14\n      swap2\n      swap1\n      tag_15\n      jump\t// in\n    tag_14:\n      mload(0x40)\n      dup1\n      swap2\n      sub\n      swap1\n      return\n        /* \"@openzeppelin/contracts/access/Ownable.sol\":1668:1769  function renounceOwnership() public virtual onlyOwner {... */\n    tag_5:\n      tag_16\n      tag_17\n      jump\t// in\n    tag_16:\n      stop\n        /* \"@openzeppelin/contracts/access/Ownable.sol\":1036:1121  function owner() public view virtual returns (address) {... */\n    tag_6:\n      tag_18\n      tag_19\n      jump\t// in\n    tag_18:\n      mload(0x40)\n      tag_20\n      swap2\n      swap1\n      tag_15\n      jump\t// in\n    tag_20:\n      mload(0x40)\n      dup1\n      swap2\n      sub\n      swap1\n      return\n        /* \"@openzeppelin/contracts/access/Ownable.sol\":1918:2116  function transferOwnership(address newOwner) public virtual onlyOwner {... */\n    tag_7:\n      tag_21\n      0x04\n      dup1\n      calldatasize\n      sub\n      dup2\n      add\n      swap1\n      tag_22\n      swap2\n      swap1\n      tag_10\n      jump\t// in\n    tag_22:\n      tag_23\n      jump\t// in\n    tag_21:\n      stop\n        /* \"ExchangeNFTBeacon.sol\":548:710  function update(address _newImplementation) public onlyOwner {\r... */\n    tag_11:\n        /* \"@openzeppelin/contracts/access/Ownable.sol\":1259:1271  _msgSender() */\n      tag_25\n        /* \"@openzeppelin/contracts/access/Ownable.sol\":1259:1269  _msgSender */\n      tag_26\n        /* \"@openzeppelin/contracts/access/Ownable.sol\":1259:1271  _msgSender() */\n      jump\t// in\n    tag_25:\n        /* \"@openzeppelin/contracts/access/Ownable.sol\":1248:1271  owner() == _msgSender() */\n      0xffffffffffffffffffffffffffffffffffffffff\n      and\n        /* \"@openzeppelin/contracts/access/Ownable.sol\":1248:1255  owner() */\n      tag_27\n        /* \"@openzeppelin/contracts/access/Ownable.sol\":1248:1253  owner */\n      tag_19\n        /* \"@openzeppelin/contracts/access/Ownable.sol\":1248:1255  owner() */\n      jump\t// in\n    tag_27:\n        /* \"@openzeppelin/contracts/access/Ownable.sol\":1248:1271  owner() == _msgSender() */\n      0xffffffffffffffffffffffffffffffffffffffff\n      and\n      eq\n        /* \"@openzeppelin/contracts/access/Ownable.sol\":1240:1308  require(owner() == _msgSender(), \"Ownable: caller is not the owner\") */\n      tag_28\n      jumpi\n      mload(0x40)\n      0x08c379a000000000000000000000000000000000000000000000000000000000\n      dup2\n      mstore\n      0x04\n      add\n      tag_29\n      swap1\n      tag_30\n      jump\t// in\n    tag_29:\n      mload(0x40)\n      dup1\n      swap2\n      sub\n      swap1\n      revert\n    tag_28:\n        /* \"ExchangeNFTBeacon.sol\":620:626  beacon */\n      immutable(\"0xa9bbaa6544f2f8b29c05f1a13be9707eb10dfac9213907aecb24a613b51d37c6\")\n        /* \"ExchangeNFTBeacon.sol\":620:636  beacon.upgradeTo */\n      0xffffffffffffffffffffffffffffffffffffffff\n      and\n      0x3659cfe6\n        /* \"ExchangeNFTBeacon.sol\":637:655  _newImplementation */\n      dup3\n        /* \"ExchangeNFTBeacon.sol\":620:656  beacon.upgradeTo(_newImplementation) */\n      mload(0x40)\n      dup3\n      0xffffffff\n      and\n      0xe0\n      shl\n      dup2\n      mstore\n      0x04\n      add\n      tag_32\n      swap2\n      swap1\n      tag_15\n      jump\t// in\n    tag_32:\n      0x00\n      mload(0x40)\n      dup1\n      dup4\n      sub\n      dup2\n      0x00\n      dup8\n      dup1\n      extcodesize\n      iszero\n      dup1\n      iszero\n      tag_33\n      jumpi\n      0x00\n      dup1\n      revert\n    tag_33:\n      pop\n      gas\n      call\n      iszero\n      dup1\n      iszero\n      tag_35\n      jumpi\n      returndatasize\n      0x00\n      dup1\n      returndatacopy\n      revert(0x00, returndatasize)\n    tag_35:\n      pop\n      pop\n      pop\n      pop\n        /* \"ExchangeNFTBeacon.sol\":684:702  _newImplementation */\n      dup1\n        /* \"ExchangeNFTBeacon.sol\":667:681  implementation */\n      0x01\n      0x00\n        /* \"ExchangeNFTBeacon.sol\":667:702  implementation = _newImplementation */\n      0x0100\n      exp\n      dup2\n      sload\n      dup2\n      0xffffffffffffffffffffffffffffffffffffffff\n      mul\n      not\n      and\n      swap1\n      dup4\n      0xffffffffffffffffffffffffffffffffffffffff\n      and\n      mul\n      or\n      swap1\n      sstore\n      pop\n        /* \"ExchangeNFTBeacon.sol\":548:710  function update(address _newImplementation) public onlyOwner {\r... */\n      pop\n      jump\t// out\n        /* \"ExchangeNFTBeacon.sol\":317:347  address public  implementation */\n    tag_13:\n      0x01\n      0x00\n      swap1\n      sload\n      swap1\n      0x0100\n      exp\n      swap1\n      div\n      0xffffffffffffffffffffffffffffffffffffffff\n      and\n      dup2\n      jump\t// out\n        /* \"@openzeppelin/contracts/access/Ownable.sol\":1668:1769  function renounceOwnership() public virtual onlyOwner {... */\n    tag_17:\n        /* \"@openzeppelin/contracts/access/Ownable.sol\":1259:1271  _msgSender() */\n      tag_37\n        /* \"@openzeppelin/contracts/access/Ownable.sol\":1259:1269  _msgSender */\n      tag_26\n        /* \"@openzeppelin/contracts/access/Ownable.sol\":1259:1271  _msgSender() */\n      jump\t// in\n    tag_37:\n        /* \"@openzeppelin/contracts/access/Ownable.sol\":1248:1271  owner() == _msgSender() */\n      0xffffffffffffffffffffffffffffffffffffffff\n      and\n        /* \"@openzeppelin/contracts/access/Ownable.sol\":1248:1255  owner() */\n      tag_38\n        /* \"@openzeppelin/contracts/access/Ownable.sol\":1248:1253  owner */\n      tag_19\n        /* \"@openzeppelin/contracts/access/Ownable.sol\":1248:1255  owner() */\n      jump\t// in\n    tag_38:\n        /* \"@openzeppelin/contracts/access/Ownable.sol\":1248:1271  owner() == _msgSender() */\n      0xffffffffffffffffffffffffffffffffffffffff\n      and\n      eq\n        /* \"@openzeppelin/contracts/access/Ownable.sol\":1240:1308  require(owner() == _msgSender(), \"Ownable: caller is not the owner\") */\n      tag_39\n      jumpi\n      mload(0x40)\n      0x08c379a000000000000000000000000000000000000000000000000000000000\n      dup2\n      mstore\n      0x04\n      add\n      tag_40\n      swap1\n      tag_30\n      jump\t// in\n    tag_40:\n      mload(0x40)\n      dup1\n      swap2\n      sub\n      swap1\n      revert\n    tag_39:\n        /* \"@openzeppelin/contracts/access/Ownable.sol\":1732:1762  _transferOwnership(address(0)) */\n      tag_42\n        /* \"@openzeppelin/contracts/access/Ownable.sol\":1759:1760  0 */\n      0x00\n        /* \"@openzeppelin/contracts/access/Ownable.sol\":1732:1750  _transferOwnership */\n      tag_43\n        /* \"@openzeppelin/contracts/access/Ownable.sol\":1732:1762  _transferOwnership(address(0)) */\n      jump\t// in\n    tag_42:\n        /* \"@openzeppelin/contracts/access/Ownable.sol\":1668:1769  function renounceOwnership() public virtual onlyOwner {... */\n      jump\t// out\n        /* \"@openzeppelin/contracts/access/Ownable.sol\":1036:1121  function owner() public view virtual returns (address) {... */\n    tag_19:\n        /* \"@openzeppelin/contracts/access/Ownable.sol\":1082:1089  address */\n      0x00\n        /* \"@openzeppelin/contracts/access/Ownable.sol\":1108:1114  _owner */\n      dup1\n      0x00\n      swap1\n      sload\n      swap1\n      0x0100\n      exp\n      swap1\n      div\n      0xffffffffffffffffffffffffffffffffffffffff\n      and\n        /* \"@openzeppelin/contracts/access/Ownable.sol\":1101:1114  return _owner */\n      swap1\n      pop\n        /* \"@openzeppelin/contracts/access/Ownable.sol\":1036:1121  function owner() public view virtual returns (address) {... */\n      swap1\n      jump\t// out\n        /* \"@openzeppelin/contracts/access/Ownable.sol\":1918:2116  function transferOwnership(address newOwner) public virtual onlyOwner {... */\n    tag_23:\n        /* \"@openzeppelin/contracts/access/Ownable.sol\":1259:1271  _msgSender() */\n      tag_46\n        /* \"@openzeppelin/contracts/access/Ownable.sol\":1259:1269  _msgSender */\n      tag_26\n        /* \"@openzeppelin/contracts/access/Ownable.sol\":1259:1271  _msgSender() */\n      jump\t// in\n    tag_46:\n        /* \"@openzeppelin/contracts/access/Ownable.sol\":1248:1271  owner() == _msgSender() */\n      0xffffffffffffffffffffffffffffffffffffffff\n      and\n        /* \"@openzeppelin/contracts/access/Ownable.sol\":1248:1255  owner() */\n      tag_47\n        /* \"@openzeppelin/contracts/access/Ownable.sol\":1248:1253  owner */\n      tag_19\n        /* \"@openzeppelin/contracts/access/Ownable.sol\":1248:1255  owner() */\n      jump\t// in\n    tag_47:\n        /* \"@openzeppelin/contracts/access/Ownable.sol\":1248:1271  owner() == _msgSender() */\n      0xffffffffffffffffffffffffffffffffffffffff\n      and\n      eq\n        /* \"@openzeppelin/contracts/access/Ownable.sol\":1240:1308  require(owner() == _msgSender(), \"Ownable: caller is not the owner\") */\n      tag_48\n      jumpi\n      mload(0x40)\n      0x08c379a000000000000000000000000000000000000000000000000000000000\n      dup2\n      mstore\n      0x04\n      add\n      tag_49\n      swap1\n      tag_30\n      jump\t// in\n    tag_49:\n      mload(0x40)\n      dup1\n      swap2\n      sub\n      swap1\n      revert\n    tag_48:\n        /* \"@openzeppelin/contracts/access/Ownable.sol\":2026:2027  0 */\n      0x00\n        /* \"@openzeppelin/contracts/access/Ownable.sol\":2006:2028  newOwner != address(0) */\n      0xffffffffffffffffffffffffffffffffffffffff\n      and\n        /* \"@openzeppelin/contracts/access/Ownable.sol\":2006:2014  newOwner */\n      dup2\n        /* \"@openzeppelin/contracts/access/Ownable.sol\":2006:2028  newOwner != address(0) */\n      0xffffffffffffffffffffffffffffffffffffffff\n      and\n      eq\n      iszero\n        /* \"@openzeppelin/contracts/access/Ownable.sol\":1998:2071  require(newOwner != address(0), \"Ownable: new owner is the zero address\") */\n      tag_51\n      jumpi\n      mload(0x40)\n      0x08c379a000000000000000000000000000000000000000000000000000000000\n      dup2\n      mstore\n      0x04\n      add\n      tag_52\n      swap1\n      tag_53\n      jump\t// in\n    tag_52:\n      mload(0x40)\n      dup1\n      swap2\n      sub\n      swap1\n      revert\n    tag_51:\n        /* \"@openzeppelin/contracts/access/Ownable.sol\":2081:2109  _transferOwnership(newOwner) */\n      tag_54\n        /* \"@openzeppelin/contracts/access/Ownable.sol\":2100:2108  newOwner */\n      dup2\n        /* \"@openzeppelin/contracts/access/Ownable.sol\":2081:2099  _transferOwnership */\n      tag_43\n        /* \"@openzeppelin/contracts/access/Ownable.sol\":2081:2109  _transferOwnership(newOwner) */\n      jump\t// in\n    tag_54:\n        /* \"@openzeppelin/contracts/access/Ownable.sol\":1918:2116  function transferOwnership(address newOwner) public virtual onlyOwner {... */\n      pop\n      jump\t// out\n        /* \"@openzeppelin/contracts/utils/Context.sol\":640:736  function _msgSender() internal view virtual returns (address) {... */\n    tag_26:\n        /* \"@openzeppelin/contracts/utils/Context.sol\":693:700  address */\n      0x00\n        /* \"@openzeppelin/contracts/utils/Context.sol\":719:729  msg.sender */\n      caller\n        /* \"@openzeppelin/contracts/utils/Context.sol\":712:729  return msg.sender */\n      swap1\n      pop\n        /* \"@openzeppelin/contracts/utils/Context.sol\":640:736  function _msgSender() internal view virtual returns (address) {... */\n      swap1\n      jump\t// out\n        /* \"@openzeppelin/contracts/access/Ownable.sol\":2270:2457  function _transferOwnership(address newOwner) internal virtual {... */\n    tag_43:\n        /* \"@openzeppelin/contracts/access/Ownable.sol\":2343:2359  address oldOwner */\n      0x00\n        /* \"@openzeppelin/contracts/access/Ownable.sol\":2362:2368  _owner */\n      dup1\n      0x00\n      swap1\n      sload\n      swap1\n      0x0100\n      exp\n      swap1\n      div\n      0xffffffffffffffffffffffffffffffffffffffff\n      and\n        /* \"@openzeppelin/contracts/access/Ownable.sol\":2343:2368  address oldOwner = _owner */\n      swap1\n      pop\n        /* \"@openzeppelin/contracts/access/Ownable.sol\":2387:2395  newOwner */\n      dup2\n        /* \"@openzeppelin/contracts/access/Ownable.sol\":2378:2384  _owner */\n      0x00\n      dup1\n        /* \"@openzeppelin/contracts/access/Ownable.sol\":2378:2395  _owner = newOwner */\n      0x0100\n      exp\n      dup2\n      sload\n      dup2\n      0xffffffffffffffffffffffffffffffffffffffff\n      mul\n      not\n      and\n      swap1\n      dup4\n      0xffffffffffffffffffffffffffffffffffffffff\n      and\n      mul\n      or\n      swap1\n      sstore\n      pop\n        /* \"@openzeppelin/contracts/access/Ownable.sol\":2441:2449  newOwner */\n      dup2\n        /* \"@openzeppelin/contracts/access/Ownable.sol\":2410:2450  OwnershipTransferred(oldOwner, newOwner) */\n      0xffffffffffffffffffffffffffffffffffffffff\n      and\n        /* \"@openzeppelin/contracts/access/Ownable.sol\":2431:2439  oldOwner */\n      dup2\n        /* \"@openzeppelin/contracts/access/Ownable.sol\":2410:2450  OwnershipTransferred(oldOwner, newOwner) */\n      0xffffffffffffffffffffffffffffffffffffffff\n      and\n      0x8be0079c531659141344cd1fd0a4f28419497f9722a3daafe3b4186f6b6457e0\n      mload(0x40)\n      mload(0x40)\n      dup1\n      swap2\n      sub\n      swap1\n      log3\n        /* \"@openzeppelin/contracts/access/Ownable.sol\":2333:2457  {... */\n      pop\n        /* \"@openzeppelin/contracts/access/Ownable.sol\":2270:2457  function _transferOwnership(address newOwner) internal virtual {... */\n      pop\n      jump\t// out\n        /* \"#utility.yul\":7:146   */\n    tag_58:\n        /* \"#utility.yul\":53:58   */\n      0x00\n        /* \"#utility.yul\":91:97   */\n      dup2\n        /* \"#utility.yul\":78:98   */\n      calldataload\n        /* \"#utility.yul\":69:98   */\n      swap1\n      pop\n        /* \"#utility.yul\":107:140   */\n      tag_60\n        /* \"#utility.yul\":134:139   */\n      dup2\n        /* \"#utility.yul\":107:140   */\n      tag_61\n      jump\t// in\n    tag_60:\n        /* \"#utility.yul\":59:146   */\n      swap3\n      swap2\n      pop\n      pop\n      jump\t// out\n        /* \"#utility.yul\":152:481   */\n    tag_10:\n        /* \"#utility.yul\":211:217   */\n      0x00\n        /* \"#utility.yul\":260:262   */\n      0x20\n        /* \"#utility.yul\":248:257   */\n      dup3\n        /* \"#utility.yul\":239:246   */\n      dup5\n        /* \"#utility.yul\":235:258   */\n      sub\n        /* \"#utility.yul\":231:263   */\n      slt\n        /* \"#utility.yul\":228:230   */\n      iszero\n      tag_63\n      jumpi\n        /* \"#utility.yul\":266:345   */\n      tag_64\n      tag_65\n      jump\t// in\n    tag_64:\n        /* \"#utility.yul\":228:230   */\n    tag_63:\n        /* \"#utility.yul\":386:387   */\n      0x00\n        /* \"#utility.yul\":411:464   */\n      tag_66\n        /* \"#utility.yul\":456:463   */\n      dup5\n        /* \"#utility.yul\":447:453   */\n      dup3\n        /* \"#utility.yul\":436:445   */\n      dup6\n        /* \"#utility.yul\":432:454   */\n      add\n        /* \"#utility.yul\":411:464   */\n      tag_58\n      jump\t// in\n    tag_66:\n        /* \"#utility.yul\":401:464   */\n      swap2\n      pop\n        /* \"#utility.yul\":357:474   */\n      pop\n        /* \"#utility.yul\":218:481   */\n      swap3\n      swap2\n      pop\n      pop\n      jump\t// out\n        /* \"#utility.yul\":487:605   */\n    tag_67:\n        /* \"#utility.yul\":574:598   */\n      tag_69\n        /* \"#utility.yul\":592:597   */\n      dup2\n        /* \"#utility.yul\":574:598   */\n      tag_70\n      jump\t// in\n    tag_69:\n        /* \"#utility.yul\":569:572   */\n      dup3\n        /* \"#utility.yul\":562:599   */\n      mstore\n        /* \"#utility.yul\":552:605   */\n      pop\n      pop\n      jump\t// out\n        /* \"#utility.yul\":611:977   */\n    tag_71:\n        /* \"#utility.yul\":753:756   */\n      0x00\n        /* \"#utility.yul\":774:841   */\n      tag_73\n        /* \"#utility.yul\":838:840   */\n      0x26\n        /* \"#utility.yul\":833:836   */\n      dup4\n        /* \"#utility.yul\":774:841   */\n      tag_74\n      jump\t// in\n    tag_73:\n        /* \"#utility.yul\":767:841   */\n      swap2\n      pop\n        /* \"#utility.yul\":850:943   */\n      tag_75\n        /* \"#utility.yul\":939:942   */\n      dup3\n        /* \"#utility.yul\":850:943   */\n      tag_76\n      jump\t// in\n    tag_75:\n        /* \"#utility.yul\":968:970   */\n      0x40\n        /* \"#utility.yul\":963:966   */\n      dup3\n        /* \"#utility.yul\":959:971   */\n      add\n        /* \"#utility.yul\":952:971   */\n      swap1\n      pop\n        /* \"#utility.yul\":757:977   */\n      swap2\n      swap1\n      pop\n      jump\t// out\n        /* \"#utility.yul\":983:1349   */\n    tag_77:\n        /* \"#utility.yul\":1125:1128   */\n      0x00\n        /* \"#utility.yul\":1146:1213   */\n      tag_79\n        /* \"#utility.yul\":1210:1212   */\n      0x20\n        /* \"#utility.yul\":1205:1208   */\n      dup4\n        /* \"#utility.yul\":1146:1213   */\n      tag_74\n      jump\t// in\n    tag_79:\n        /* \"#utility.yul\":1139:1213   */\n      swap2\n      pop\n        /* \"#utility.yul\":1222:1315   */\n      tag_80\n        /* \"#utility.yul\":1311:1314   */\n      dup3\n        /* \"#utility.yul\":1222:1315   */\n      tag_81\n      jump\t// in\n    tag_80:\n        /* \"#utility.yul\":1340:1342   */\n      0x20\n        /* \"#utility.yul\":1335:1338   */\n      dup3\n        /* \"#utility.yul\":1331:1343   */\n      add\n        /* \"#utility.yul\":1324:1343   */\n      swap1\n      pop\n        /* \"#utility.yul\":1129:1349   */\n      swap2\n      swap1\n      pop\n      jump\t// out\n        /* \"#utility.yul\":1355:1577   */\n    tag_15:\n        /* \"#utility.yul\":1448:1452   */\n      0x00\n        /* \"#utility.yul\":1486:1488   */\n      0x20\n        /* \"#utility.yul\":1475:1484   */\n      dup3\n        /* \"#utility.yul\":1471:1489   */\n      add\n        /* \"#utility.yul\":1463:1489   */\n      swap1\n      pop\n        /* \"#utility.yul\":1499:1570   */\n      tag_83\n        /* \"#utility.yul\":1567:1568   */\n      0x00\n        /* \"#utility.yul\":1556:1565   */\n      dup4\n        /* \"#utility.yul\":1552:1569   */\n      add\n        /* \"#utility.yul\":1543:1549   */\n      dup5\n        /* \"#utility.yul\":1499:1570   */\n      tag_67\n      jump\t// in\n    tag_83:\n        /* \"#utility.yul\":1453:1577   */\n      swap3\n      swap2\n      pop\n      pop\n      jump\t// out\n        /* \"#utility.yul\":1583:2002   */\n    tag_53:\n        /* \"#utility.yul\":1749:1753   */\n      0x00\n        /* \"#utility.yul\":1787:1789   */\n      0x20\n        /* \"#utility.yul\":1776:1785   */\n      dup3\n        /* \"#utility.yul\":1772:1790   */\n      add\n        /* \"#utility.yul\":1764:1790   */\n      swap1\n      pop\n        /* \"#utility.yul\":1836:1845   */\n      dup2\n        /* \"#utility.yul\":1830:1834   */\n      dup2\n        /* \"#utility.yul\":1826:1846   */\n      sub\n        /* \"#utility.yul\":1822:1823   */\n      0x00\n        /* \"#utility.yul\":1811:1820   */\n      dup4\n        /* \"#utility.yul\":1807:1824   */\n      add\n        /* \"#utility.yul\":1800:1847   */\n      mstore\n        /* \"#utility.yul\":1864:1995   */\n      tag_85\n        /* \"#utility.yul\":1990:1994   */\n      dup2\n        /* \"#utility.yul\":1864:1995   */\n      tag_71\n      jump\t// in\n    tag_85:\n        /* \"#utility.yul\":1856:1995   */\n      swap1\n      pop\n        /* \"#utility.yul\":1754:2002   */\n      swap2\n      swap1\n      pop\n      jump\t// out\n        /* \"#utility.yul\":2008:2427   */\n    tag_30:\n        /* \"#utility.yul\":2174:2178   */\n      0x00\n        /* \"#utility.yul\":2212:2214   */\n      0x20\n        /* \"#utility.yul\":2201:2210   */\n      dup3\n        /* \"#utility.yul\":2197:2215   */\n      add\n        /* \"#utility.yul\":2189:2215   */\n      swap1\n      pop\n        /* \"#utility.yul\":2261:2270   */\n      dup2\n        /* \"#utility.yul\":2255:2259   */\n      dup2\n        /* \"#utility.yul\":2251:2271   */\n      sub\n        /* \"#utility.yul\":2247:2248   */\n      0x00\n        /* \"#utility.yul\":2236:2245   */\n      dup4\n        /* \"#utility.yul\":2232:2249   */\n      add\n        /* \"#utility.yul\":2225:2272   */\n      mstore\n        /* \"#utility.yul\":2289:2420   */\n      tag_87\n        /* \"#utility.yul\":2415:2419   */\n      dup2\n        /* \"#utility.yul\":2289:2420   */\n      tag_77\n      jump\t// in\n    tag_87:\n        /* \"#utility.yul\":2281:2420   */\n      swap1\n      pop\n        /* \"#utility.yul\":2179:2427   */\n      swap2\n      swap1\n      pop\n      jump\t// out\n        /* \"#utility.yul\":2514:2683   */\n    tag_74:\n        /* \"#utility.yul\":2598:2609   */\n      0x00\n        /* \"#utility.yul\":2632:2638   */\n      dup3\n        /* \"#utility.yul\":2627:2630   */\n      dup3\n        /* \"#utility.yul\":2620:2639   */\n      mstore\n        /* \"#utility.yul\":2672:2676   */\n      0x20\n        /* \"#utility.yul\":2667:2670   */\n      dup3\n        /* \"#utility.yul\":2663:2677   */\n      add\n        /* \"#utility.yul\":2648:2677   */\n      swap1\n      pop\n        /* \"#utility.yul\":2610:2683   */\n      swap3\n      swap2\n      pop\n      pop\n      jump\t// out\n        /* \"#utility.yul\":2689:2785   */\n    tag_70:\n        /* \"#utility.yul\":2726:2733   */\n      0x00\n        /* \"#utility.yul\":2755:2779   */\n      tag_92\n        /* \"#utility.yul\":2773:2778   */\n      dup3\n        /* \"#utility.yul\":2755:2779   */\n      tag_93\n      jump\t// in\n    tag_92:\n        /* \"#utility.yul\":2744:2779   */\n      swap1\n      pop\n        /* \"#utility.yul\":2734:2785   */\n      swap2\n      swap1\n      pop\n      jump\t// out\n        /* \"#utility.yul\":2791:2917   */\n    tag_93:\n        /* \"#utility.yul\":2828:2835   */\n      0x00\n        /* \"#utility.yul\":2868:2910   */\n      0xffffffffffffffffffffffffffffffffffffffff\n        /* \"#utility.yul\":2861:2866   */\n      dup3\n        /* \"#utility.yul\":2857:2911   */\n      and\n        /* \"#utility.yul\":2846:2911   */\n      swap1\n      pop\n        /* \"#utility.yul\":2836:2917   */\n      swap2\n      swap1\n      pop\n      jump\t// out\n        /* \"#utility.yul\":3046:3163   */\n    tag_65:\n        /* \"#utility.yul\":3155:3156   */\n      0x00\n        /* \"#utility.yul\":3152:3153   */\n      dup1\n        /* \"#utility.yul\":3145:3157   */\n      revert\n        /* \"#utility.yul\":3169:3394   */\n    tag_76:\n        /* \"#utility.yul\":3309:3343   */\n      0x4f776e61626c653a206e6577206f776e657220697320746865207a65726f2061\n        /* \"#utility.yul\":3305:3306   */\n      0x00\n        /* \"#utility.yul\":3297:3303   */\n      dup3\n        /* \"#utility.yul\":3293:3307   */\n      add\n        /* \"#utility.yul\":3286:3344   */\n      mstore\n        /* \"#utility.yul\":3378:3386   */\n      0x6464726573730000000000000000000000000000000000000000000000000000\n        /* \"#utility.yul\":3373:3375   */\n      0x20\n        /* \"#utility.yul\":3365:3371   */\n      dup3\n        /* \"#utility.yul\":3361:3376   */\n      add\n        /* \"#utility.yul\":3354:3387   */\n      mstore\n        /* \"#utility.yul\":3275:3394   */\n      pop\n      jump\t// out\n        /* \"#utility.yul\":3400:3582   */\n    tag_81:\n        /* \"#utility.yul\":3540:3574   */\n      0x4f776e61626c653a2063616c6c6572206973206e6f7420746865206f776e6572\n        /* \"#utility.yul\":3536:3537   */\n      0x00\n        /* \"#utility.yul\":3528:3534   */\n      dup3\n        /* \"#utility.yul\":3524:3538   */\n      add\n        /* \"#utility.yul\":3517:3575   */\n      mstore\n        /* \"#utility.yul\":3506:3582   */\n      pop\n      jump\t// out\n        /* \"#utility.yul\":3588:3710   */\n    tag_61:\n        /* \"#utility.yul\":3661:3685   */\n      tag_101\n        /* \"#utility.yul\":3679:3684   */\n      dup2\n        /* \"#utility.yul\":3661:3685   */\n      tag_70\n      jump\t// in\n    tag_101:\n        /* \"#utility.yul\":3654:3659   */\n      dup2\n        /* \"#utility.yul\":3651:3686   */\n      eq\n        /* \"#utility.yul\":3641:3643   */\n      tag_102\n      jumpi\n        /* \"#utility.yul\":3700:3701   */\n      0x00\n        /* \"#utility.yul\":3697:3698   */\n      dup1\n        /* \"#utility.yul\":3690:3702   */\n      revert\n        /* \"#utility.yul\":3641:3643   */\n    tag_102:\n        /* \"#utility.yul\":3631:3710   */\n      pop\n      jump\t// out\n\n    auxdata: 0xa2646970667358221220e35ef8bf2814170b7d5b6c17be082182363967022dc313f408f641233075e75d64736f6c63430008050033\n}\n\nsub_1: assembly {\n        /* \"@openzeppelin/contracts/proxy/beacon/UpgradeableBeacon.sol\":543:2039  contract UpgradeableBeacon is IBeacon, Ownable {... */\n      mstore(0x40, 0x80)\n        /* \"@openzeppelin/contracts/proxy/beacon/UpgradeableBeacon.sol\":931:1020  constructor(address implementation_) {... */\n      callvalue\n      dup1\n      iszero\n      tag_1\n      jumpi\n      0x00\n      dup1\n      revert\n    tag_1:\n      pop\n      mload(0x40)\n      sub(codesize, bytecodeSize)\n      dup1\n      bytecodeSize\n      dup4\n      codecopy\n      dup2\n      dup2\n      add\n      0x40\n      mstore\n      dup2\n      add\n      swap1\n      tag_2\n      swap2\n      swap1\n      tag_3\n      jump\t// in\n    tag_2:\n        /* \"@openzeppelin/contracts/access/Ownable.sol\":921:953  _transferOwnership(_msgSender()) */\n      tag_7\n        /* \"@openzeppelin/contracts/access/Ownable.sol\":940:952  _msgSender() */\n      tag_8\n        /* \"@openzeppelin/contracts/access/Ownable.sol\":940:950  _msgSender */\n      shl(0x20, tag_9)\n        /* \"@openzeppelin/contracts/access/Ownable.sol\":940:952  _msgSender() */\n      0x20\n      shr\n      jump\t// in\n    tag_8:\n        /* \"@openzeppelin/contracts/access/Ownable.sol\":921:939  _transferOwnership */\n      shl(0x20, tag_10)\n        /* \"@openzeppelin/contracts/access/Ownable.sol\":921:953  _transferOwnership(_msgSender()) */\n      0x20\n      shr\n      jump\t// in\n    tag_7:\n        /* \"@openzeppelin/contracts/proxy/beacon/UpgradeableBeacon.sol\":978:1013  _setImplementation(implementation_) */\n      tag_12\n        /* \"@openzeppelin/contracts/proxy/beacon/UpgradeableBeacon.sol\":997:1012  implementation_ */\n      dup2\n        /* \"@openzeppelin/contracts/proxy/beacon/UpgradeableBeacon.sol\":978:996  _setImplementation */\n      shl(0x20, tag_13)\n        /* \"@openzeppelin/contracts/proxy/beacon/UpgradeableBeacon.sol\":978:1013  _setImplementation(implementation_) */\n      0x20\n      shr\n      jump\t// in\n    tag_12:\n        /* \"@openzeppelin/contracts/proxy/beacon/UpgradeableBeacon.sol\":931:1020  constructor(address implementation_) {... */\n      pop\n        /* \"@openzeppelin/contracts/proxy/beacon/UpgradeableBeacon.sol\":543:2039  contract UpgradeableBeacon is IBeacon, Ownable {... */\n      jump(tag_14)\n        /* \"@openzeppelin/contracts/utils/Context.sol\":640:736  function _msgSender() internal view virtual returns (address) {... */\n    tag_9:\n        /* \"@openzeppelin/contracts/utils/Context.sol\":693:700  address */\n      0x00\n        /* \"@openzeppelin/contracts/utils/Context.sol\":719:729  msg.sender */\n      caller\n        /* \"@openzeppelin/contracts/utils/Context.sol\":712:729  return msg.sender */\n      swap1\n      pop\n        /* \"@openzeppelin/contracts/utils/Context.sol\":640:736  function _msgSender() internal view virtual returns (address) {... */\n      swap1\n      jump\t// out\n        /* \"@openzeppelin/contracts/access/Ownable.sol\":2270:2457  function _transferOwnership(address newOwner) internal virtual {... */\n    tag_10:\n        /* \"@openzeppelin/contracts/access/Ownable.sol\":2343:2359  address oldOwner */\n      0x00\n        /* \"@openzeppelin/contracts/access/Ownable.sol\":2362:2368  _owner */\n      dup1\n      0x00\n      swap1\n      sload\n      swap1\n      0x0100\n      exp\n      swap1\n      div\n      0xffffffffffffffffffffffffffffffffffffffff\n      and\n        /* \"@openzeppelin/contracts/access/Ownable.sol\":2343:2368  address oldOwner = _owner */\n      swap1\n      pop\n        /* \"@openzeppelin/contracts/access/Ownable.sol\":2387:2395  newOwner */\n      dup2\n        /* \"@openzeppelin/contracts/access/Ownable.sol\":2378:2384  _owner */\n      0x00\n      dup1\n        /* \"@openzeppelin/contracts/access/Ownable.sol\":2378:2395  _owner = newOwner */\n      0x0100\n      exp\n      dup2\n      sload\n      dup2\n      0xffffffffffffffffffffffffffffffffffffffff\n      mul\n      not\n      and\n      swap1\n      dup4\n      0xffffffffffffffffffffffffffffffffffffffff\n      and\n      mul\n      or\n      swap1\n      sstore\n      pop\n        /* \"@openzeppelin/contracts/access/Ownable.sol\":2441:2449  newOwner */\n      dup2\n        /* \"@openzeppelin/contracts/access/Ownable.sol\":2410:2450  OwnershipTransferred(oldOwner, newOwner) */\n      0xffffffffffffffffffffffffffffffffffffffff\n      and\n        /* \"@openzeppelin/contracts/access/Ownable.sol\":2431:2439  oldOwner */\n      dup2\n        /* \"@openzeppelin/contracts/access/Ownable.sol\":2410:2450  OwnershipTransferred(oldOwner, newOwner) */\n      0xffffffffffffffffffffffffffffffffffffffff\n      and\n      0x8be0079c531659141344cd1fd0a4f28419497f9722a3daafe3b4186f6b6457e0\n      mload(0x40)\n      mload(0x40)\n      dup1\n      swap2\n      sub\n      swap1\n      log3\n        /* \"@openzeppelin/contracts/access/Ownable.sol\":2333:2457  {... */\n      pop\n        /* \"@openzeppelin/contracts/access/Ownable.sol\":2270:2457  function _transferOwnership(address newOwner) internal virtual {... */\n      pop\n      jump\t// out\n        /* \"@openzeppelin/contracts/proxy/beacon/UpgradeableBeacon.sol\":1811:2037  function _setImplementation(address newImplementation) private {... */\n    tag_13:\n        /* \"@openzeppelin/contracts/proxy/beacon/UpgradeableBeacon.sol\":1892:1929  Address.isContract(newImplementation) */\n      tag_18\n        /* \"@openzeppelin/contracts/proxy/beacon/UpgradeableBeacon.sol\":1911:1928  newImplementation */\n      dup2\n        /* \"@openzeppelin/contracts/proxy/beacon/UpgradeableBeacon.sol\":1892:1910  Address.isContract */\n      or(tag_0_24, shl(0x20, tag_19))\n        /* \"@openzeppelin/contracts/proxy/beacon/UpgradeableBeacon.sol\":1892:1929  Address.isContract(newImplementation) */\n      0x20\n      shr\n      jump\t// in\n    tag_18:\n        /* \"@openzeppelin/contracts/proxy/beacon/UpgradeableBeacon.sol\":1884:1985  require(Address.isContract(newImplementation), \"UpgradeableBeacon: implementation is not a contract\") */\n      tag_20\n      jumpi\n      mload(0x40)\n      0x08c379a000000000000000000000000000000000000000000000000000000000\n      dup2\n      mstore\n      0x04\n      add\n      tag_21\n      swap1\n      tag_22\n      jump\t// in\n    tag_21:\n      mload(0x40)\n      dup1\n      swap2\n      sub\n      swap1\n      revert\n    tag_20:\n        /* \"@openzeppelin/contracts/proxy/beacon/UpgradeableBeacon.sol\":2013:2030  newImplementation */\n      dup1\n        /* \"@openzeppelin/contracts/proxy/beacon/UpgradeableBeacon.sol\":1995:2010  _implementation */\n      0x01\n      0x00\n        /* \"@openzeppelin/contracts/proxy/beacon/UpgradeableBeacon.sol\":1995:2030  _implementation = newImplementation */\n      0x0100\n      exp\n      dup2\n      sload\n      dup2\n      0xffffffffffffffffffffffffffffffffffffffff\n      mul\n      not\n      and\n      swap1\n      dup4\n      0xffffffffffffffffffffffffffffffffffffffff\n      and\n      mul\n      or\n      swap1\n      sstore\n      pop\n        /* \"@openzeppelin/contracts/proxy/beacon/UpgradeableBeacon.sol\":1811:2037  function _setImplementation(address newImplementation) private {... */\n      pop\n      jump\t// out\n        /* \"@openzeppelin/contracts/utils/Address.sol\":1175:1495  function isContract(address account) internal view returns (bool) {... */\n    tag_19:\n        /* \"@openzeppelin/contracts/utils/Address.sol\":1235:1239  bool */\n      0x00\n        /* \"@openzeppelin/contracts/utils/Address.sol\":1487:1488  0 */\n      dup1\n        /* \"@openzeppelin/contracts/utils/Address.sol\":1465:1472  account */\n      dup3\n        /* \"@openzeppelin/contracts/utils/Address.sol\":1465:1484  account.code.length */\n      0xffffffffffffffffffffffffffffffffffffffff\n      and\n      extcodesize\n        /* \"@openzeppelin/contracts/utils/Address.sol\":1465:1488  account.code.length > 0 */\n      gt\n        /* \"@openzeppelin/contracts/utils/Address.sol\":1458:1488  return account.code.length > 0 */\n      swap1\n      pop\n        /* \"@openzeppelin/contracts/utils/Address.sol\":1175:1495  function isContract(address account) internal view returns (bool) {... */\n      swap2\n      swap1\n      pop\n      jump\t// out\n        /* \"#utility.yul\":7:150   */\n    tag_25:\n        /* \"#utility.yul\":64:69   */\n      0x00\n        /* \"#utility.yul\":95:101   */\n      dup2\n        /* \"#utility.yul\":89:102   */\n      mload\n        /* \"#utility.yul\":80:102   */\n      swap1\n      pop\n        /* \"#utility.yul\":111:144   */\n      tag_27\n        /* \"#utility.yul\":138:143   */\n      dup2\n        /* \"#utility.yul\":111:144   */\n      tag_28\n      jump\t// in\n    tag_27:\n        /* \"#utility.yul\":70:150   */\n      swap3\n      swap2\n      pop\n      pop\n      jump\t// out\n        /* \"#utility.yul\":156:507   */\n    tag_3:\n        /* \"#utility.yul\":226:232   */\n      0x00\n        /* \"#utility.yul\":275:277   */\n      0x20\n        /* \"#utility.yul\":263:272   */\n      dup3\n        /* \"#utility.yul\":254:261   */\n      dup5\n        /* \"#utility.yul\":250:273   */\n      sub\n        /* \"#utility.yul\":246:278   */\n      slt\n        /* \"#utility.yul\":243:245   */\n      iszero\n      tag_30\n      jumpi\n        /* \"#utility.yul\":281:360   */\n      tag_31\n      tag_32\n      jump\t// in\n    tag_31:\n        /* \"#utility.yul\":243:245   */\n    tag_30:\n        /* \"#utility.yul\":401:402   */\n      0x00\n        /* \"#utility.yul\":426:490   */\n      tag_33\n        /* \"#utility.yul\":482:489   */\n      dup5\n        /* \"#utility.yul\":473:479   */\n      dup3\n        /* \"#utility.yul\":462:471   */\n      dup6\n        /* \"#utility.yul\":458:480   */\n      add\n        /* \"#utility.yul\":426:490   */\n      tag_25\n      jump\t// in\n    tag_33:\n        /* \"#utility.yul\":416:490   */\n      swap2\n      pop\n        /* \"#utility.yul\":372:500   */\n      pop\n        /* \"#utility.yul\":233:507   */\n      swap3\n      swap2\n      pop\n      pop\n      jump\t// out\n        /* \"#utility.yul\":513:879   */\n    tag_34:\n        /* \"#utility.yul\":655:658   */\n      0x00\n        /* \"#utility.yul\":676:743   */\n      tag_36\n        /* \"#utility.yul\":740:742   */\n      0x33\n        /* \"#utility.yul\":735:738   */\n      dup4\n        /* \"#utility.yul\":676:743   */\n      tag_37\n      jump\t// in\n    tag_36:\n        /* \"#utility.yul\":669:743   */\n      swap2\n      pop\n        /* \"#utility.yul\":752:845   */\n      tag_38\n        /* \"#utility.yul\":841:844   */\n      dup3\n        /* \"#utility.yul\":752:845   */\n      tag_39\n      jump\t// in\n    tag_38:\n        /* \"#utility.yul\":870:872   */\n      0x40\n        /* \"#utility.yul\":865:868   */\n      dup3\n        /* \"#utility.yul\":861:873   */\n      add\n        /* \"#utility.yul\":854:873   */\n      swap1\n      pop\n        /* \"#utility.yul\":659:879   */\n      swap2\n      swap1\n      pop\n      jump\t// out\n        /* \"#utility.yul\":885:1304   */\n    tag_22:\n        /* \"#utility.yul\":1051:1055   */\n      0x00\n        /* \"#utility.yul\":1089:1091   */\n      0x20\n        /* \"#utility.yul\":1078:1087   */\n      dup3\n        /* \"#utility.yul\":1074:1092   */\n      add\n        /* \"#utility.yul\":1066:1092   */\n      swap1\n      pop\n        /* \"#utility.yul\":1138:1147   */\n      dup2\n        /* \"#utility.yul\":1132:1136   */\n      dup2\n        /* \"#utility.yul\":1128:1148   */\n      sub\n        /* \"#utility.yul\":1124:1125   */\n      0x00\n        /* \"#utility.yul\":1113:1122   */\n      dup4\n        /* \"#utility.yul\":1109:1126   */\n      add\n        /* \"#utility.yul\":1102:1149   */\n      mstore\n        /* \"#utility.yul\":1166:1297   */\n      tag_41\n        /* \"#utility.yul\":1292:1296   */\n      dup2\n        /* \"#utility.yul\":1166:1297   */\n      tag_34\n      jump\t// in\n    tag_41:\n        /* \"#utility.yul\":1158:1297   */\n      swap1\n      pop\n        /* \"#utility.yul\":1056:1304   */\n      swap2\n      swap1\n      pop\n      jump\t// out\n        /* \"#utility.yul\":1391:1560   */\n    tag_37:\n        /* \"#utility.yul\":1475:1486   */\n      0x00\n        /* \"#utility.yul\":1509:1515   */\n      dup3\n        /* \"#utility.yul\":1504:1507   */\n      dup3\n        /* \"#utility.yul\":1497:1516   */\n      mstore\n        /* \"#utility.yul\":1549:1553   */\n      0x20\n        /* \"#utility.yul\":1544:1547   */\n      dup3\n        /* \"#utility.yul\":1540:1554   */\n      add\n        /* \"#utility.yul\":1525:1554   */\n      swap1\n      pop\n        /* \"#utility.yul\":1487:1560   */\n      swap3\n      swap2\n      pop\n      pop\n      jump\t// out\n        /* \"#utility.yul\":1566:1662   */\n    tag_45:\n        /* \"#utility.yul\":1603:1610   */\n      0x00\n        /* \"#utility.yul\":1632:1656   */\n      tag_47\n        /* \"#utility.yul\":1650:1655   */\n      dup3\n        /* \"#utility.yul\":1632:1656   */\n      tag_48\n      jump\t// in\n    tag_47:\n        /* \"#utility.yul\":1621:1656   */\n      swap1\n      pop\n        /* \"#utility.yul\":1611:1662   */\n      swap2\n      swap1\n      pop\n      jump\t// out\n        /* \"#utility.yul\":1668:1794   */\n    tag_48:\n        /* \"#utility.yul\":1705:1712   */\n      0x00\n        /* \"#utility.yul\":1745:1787   */\n      0xffffffffffffffffffffffffffffffffffffffff\n        /* \"#utility.yul\":1738:1743   */\n      dup3\n        /* \"#utility.yul\":1734:1788   */\n      and\n        /* \"#utility.yul\":1723:1788   */\n      swap1\n      pop\n        /* \"#utility.yul\":1713:1794   */\n      swap2\n      swap1\n      pop\n      jump\t// out\n        /* \"#utility.yul\":1923:2040   */\n    tag_32:\n        /* \"#utility.yul\":2032:2033   */\n      0x00\n        /* \"#utility.yul\":2029:2030   */\n      dup1\n        /* \"#utility.yul\":2022:2034   */\n      revert\n        /* \"#utility.yul\":2046:2284   */\n    tag_39:\n        /* \"#utility.yul\":2186:2220   */\n      0x5570677261646561626c65426561636f6e3a20696d706c656d656e746174696f\n        /* \"#utility.yul\":2182:2183   */\n      0x00\n        /* \"#utility.yul\":2174:2180   */\n      dup3\n        /* \"#utility.yul\":2170:2184   */\n      add\n        /* \"#utility.yul\":2163:2221   */\n      mstore\n        /* \"#utility.yul\":2255:2276   */\n      0x6e206973206e6f74206120636f6e747261637400000000000000000000000000\n        /* \"#utility.yul\":2250:2252   */\n      0x20\n        /* \"#utility.yul\":2242:2248   */\n      dup3\n        /* \"#utility.yul\":2238:2253   */\n      add\n        /* \"#utility.yul\":2231:2277   */\n      mstore\n        /* \"#utility.yul\":2152:2284   */\n      pop\n      jump\t// out\n        /* \"#utility.yul\":2290:2412   */\n    tag_28:\n        /* \"#utility.yul\":2363:2387   */\n      tag_55\n        /* \"#utility.yul\":2381:2386   */\n      dup2\n        /* \"#utility.yul\":2363:2387   */\n      tag_45\n      jump\t// in\n    tag_55:\n        /* \"#utility.yul\":2356:2361   */\n      dup2\n        /* \"#utility.yul\":2353:2388   */\n      eq\n        /* \"#utility.yul\":2343:2345   */\n      tag_56\n      jumpi\n        /* \"#utility.yul\":2402:2403   */\n      0x00\n        /* \"#utility.yul\":2399:2400   */\n      dup1\n        /* \"#utility.yul\":2392:2404   */\n      revert\n        /* \"#utility.yul\":2343:2345   */\n    tag_56:\n        /* \"#utility.yul\":2333:2412   */\n      pop\n      jump\t// out\n        /* \"@openzeppelin/contracts/proxy/beacon/UpgradeableBeacon.sol\":543:2039  contract UpgradeableBeacon is IBeacon, Ownable {... */\n    tag_14:\n      dataSize(sub_0)\n      dup1\n      dataOffset(sub_0)\n      0x00\n      codecopy\n      0x00\n      return\n    stop\n\n    sub_0: assembly {\n            /* \"@openzeppelin/contracts/proxy/beacon/UpgradeableBeacon.sol\":543:2039  contract UpgradeableBeacon is IBeacon, Ownable {... */\n          mstore(0x40, 0x80)\n          callvalue\n          dup1\n          iszero\n          tag_1\n          jumpi\n          0x00\n          dup1\n          revert\n        tag_1:\n          pop\n          jumpi(tag_2, lt(calldatasize, 0x04))\n          shr(0xe0, calldataload(0x00))\n          dup1\n          0x3659cfe6\n          eq\n          tag_3\n          jumpi\n          dup1\n          0x5c60da1b\n          eq\n          tag_4\n          jumpi\n          dup1\n          0x715018a6\n          eq\n          tag_5\n          jumpi\n          dup1\n          0x8da5cb5b\n          eq\n          tag_6\n          jumpi\n          dup1\n          0xf2fde38b\n          eq\n          tag_7\n          jumpi\n        tag_2:\n          0x00\n          dup1\n          revert\n            /* \"@openzeppelin/contracts/proxy/beacon/UpgradeableBeacon.sol\":1469:1636  function upgradeTo(address newImplementation) public virtual onlyOwner {... */\n        tag_3:\n          tag_8\n          0x04\n          dup1\n          calldatasize\n          sub\n          dup2\n          add\n          swap1\n          tag_9\n          swap2\n          swap1\n          tag_10\n          jump\t// in\n        tag_9:\n          tag_11\n          jump\t// in\n        tag_8:\n          stop\n            /* \"@openzeppelin/contracts/proxy/beacon/UpgradeableBeacon.sol\":1098:1210  function implementation() public view virtual override returns (address) {... */\n        tag_4:\n          tag_12\n          tag_13\n          jump\t// in\n        tag_12:\n          mload(0x40)\n          tag_14\n          swap2\n          swap1\n          tag_15\n          jump\t// in\n        tag_14:\n          mload(0x40)\n          dup1\n          swap2\n          sub\n          swap1\n          return\n            /* \"@openzeppelin/contracts/access/Ownable.sol\":1668:1769  function renounceOwnership() public virtual onlyOwner {... */\n        tag_5:\n          tag_16\n          tag_17\n          jump\t// in\n        tag_16:\n          stop\n            /* \"@openzeppelin/contracts/access/Ownable.sol\":1036:1121  function owner() public view virtual returns (address) {... */\n        tag_6:\n          tag_18\n          tag_19\n          jump\t// in\n        tag_18:\n          mload(0x40)\n          tag_20\n          swap2\n          swap1\n          tag_15\n          jump\t// in\n        tag_20:\n          mload(0x40)\n          dup1\n          swap2\n          sub\n          swap1\n          return\n            /* \"@openzeppelin/contracts/access/Ownable.sol\":1918:2116  function transferOwnership(address newOwner) public virtual onlyOwner {... */\n        tag_7:\n          tag_21\n          0x04\n          dup1\n          calldatasize\n          sub\n          dup2\n          add\n          swap1\n          tag_22\n          swap2\n          swap1\n          tag_10\n          jump\t// in\n        tag_22:\n          tag_23\n          jump\t// in\n        tag_21:\n          stop\n            /* \"@openzeppelin/contracts/proxy/beacon/UpgradeableBeacon.sol\":1469:1636  function upgradeTo(address newImplementation) public virtual onlyOwner {... */\n        tag_11:\n            /* \"@openzeppelin/contracts/access/Ownable.sol\":1259:1271  _msgSender() */\n          tag_26\n            /* \"@openzeppelin/contracts/access/Ownable.sol\":1259:1269  _msgSender */\n          tag_27\n            /* \"@openzeppelin/contracts/access/Ownable.sol\":1259:1271  _msgSender() */\n          jump\t// in\n        tag_26:\n            /* \"@openzeppelin/contracts/access/Ownable.sol\":1248:1271  owner() == _msgSender() */\n          0xffffffffffffffffffffffffffffffffffffffff\n          and\n            /* \"@openzeppelin/contracts/access/Ownable.sol\":1248:1255  owner() */\n          tag_28\n            /* \"@openzeppelin/contracts/access/Ownable.sol\":1248:1253  owner */\n          tag_19\n            /* \"@openzeppelin/contracts/access/Ownable.sol\":1248:1255  owner() */\n          jump\t// in\n        tag_28:\n            /* \"@openzeppelin/contracts/access/Ownable.sol\":1248:1271  owner() == _msgSender() */\n          0xffffffffffffffffffffffffffffffffffffffff\n          and\n          eq\n            /* \"@openzeppelin/contracts/access/Ownable.sol\":1240:1308  require(owner() == _msgSender(), \"Ownable: caller is not the owner\") */\n          tag_29\n          jumpi\n          mload(0x40)\n          0x08c379a000000000000000000000000000000000000000000000000000000000\n          dup2\n          mstore\n          0x04\n          add\n          tag_30\n          swap1\n          tag_31\n          jump\t// in\n        tag_30:\n          mload(0x40)\n          dup1\n          swap2\n          sub\n          swap1\n          revert\n        tag_29:\n            /* \"@openzeppelin/contracts/proxy/beacon/UpgradeableBeacon.sol\":1550:1587  _setImplementation(newImplementation) */\n          tag_33\n            /* \"@openzeppelin/contracts/proxy/beacon/UpgradeableBeacon.sol\":1569:1586  newImplementation */\n          dup2\n            /* \"@openzeppelin/contracts/proxy/beacon/UpgradeableBeacon.sol\":1550:1568  _setImplementation */\n          tag_34\n            /* \"@openzeppelin/contracts/proxy/beacon/UpgradeableBeacon.sol\":1550:1587  _setImplementation(newImplementation) */\n          jump\t// in\n        tag_33:\n            /* \"@openzeppelin/contracts/proxy/beacon/UpgradeableBeacon.sol\":1611:1628  newImplementation */\n          dup1\n            /* \"@openzeppelin/contracts/proxy/beacon/UpgradeableBeacon.sol\":1602:1629  Upgraded(newImplementation) */\n          0xffffffffffffffffffffffffffffffffffffffff\n          and\n          0xbc7cd75a20ee27fd9adebab32041f755214dbc6bffa90cc0225b39da2e5c2d3b\n          mload(0x40)\n          mload(0x40)\n          dup1\n          swap2\n          sub\n          swap1\n          log2\n            /* \"@openzeppelin/contracts/proxy/beacon/UpgradeableBeacon.sol\":1469:1636  function upgradeTo(address newImplementation) public virtual onlyOwner {... */\n          pop\n          jump\t// out\n            /* \"@openzeppelin/contracts/proxy/beacon/UpgradeableBeacon.sol\":1098:1210  function implementation() public view virtual override returns (address) {... */\n        tag_13:\n            /* \"@openzeppelin/contracts/proxy/beacon/UpgradeableBeacon.sol\":1162:1169  address */\n          0x00\n            /* \"@openzeppelin/contracts/proxy/beacon/UpgradeableBeacon.sol\":1188:1203  _implementation */\n          0x01\n          0x00\n          swap1\n          sload\n          swap1\n          0x0100\n          exp\n          swap1\n          div\n          0xffffffffffffffffffffffffffffffffffffffff\n          and\n            /* \"@openzeppelin/contracts/proxy/beacon/UpgradeableBeacon.sol\":1181:1203  return _implementation */\n          swap1\n          pop\n            /* \"@openzeppelin/contracts/proxy/beacon/UpgradeableBeacon.sol\":1098:1210  function implementation() public view virtual override returns (address) {... */\n          swap1\n          jump\t// out\n            /* \"@openzeppelin/contracts/access/Ownable.sol\":1668:1769  function renounceOwnership() public virtual onlyOwner {... */\n        tag_17:\n            /* \"@openzeppelin/contracts/access/Ownable.sol\":1259:1271  _msgSender() */\n          tag_37\n            /* \"@openzeppelin/contracts/access/Ownable.sol\":1259:1269  _msgSender */\n          tag_27\n            /* \"@openzeppelin/contracts/access/Ownable.sol\":1259:1271  _msgSender() */\n          jump\t// in\n        tag_37:\n            /* \"@openzeppelin/contracts/access/Ownable.sol\":1248:1271  owner() == _msgSender() */\n          0xffffffffffffffffffffffffffffffffffffffff\n          and\n            /* \"@openzeppelin/contracts/access/Ownable.sol\":1248:1255  owner() */\n          tag_38\n            /* \"@openzeppelin/contracts/access/Ownable.sol\":1248:1253  owner */\n          tag_19\n            /* \"@openzeppelin/contracts/access/Ownable.sol\":1248:1255  owner() */\n          jump\t// in\n        tag_38:\n            /* \"@openzeppelin/contracts/access/Ownable.sol\":1248:1271  owner() == _msgSender() */\n          0xffffffffffffffffffffffffffffffffffffffff\n          and\n          eq\n            /* \"@openzeppelin/contracts/access/Ownable.sol\":1240:1308  require(owner() == _msgSender(), \"Ownable: caller is not the owner\") */\n          tag_39\n          jumpi\n          mload(0x40)\n          0x08c379a000000000000000000000000000000000000000000000000000000000\n          dup2\n          mstore\n          0x04\n          add\n          tag_40\n          swap1\n          tag_31\n          jump\t// in\n        tag_40:\n          mload(0x40)\n          dup1\n          swap2\n          sub\n          swap1\n          revert\n        tag_39:\n            /* \"@openzeppelin/contracts/access/Ownable.sol\":1732:1762  _transferOwnership(address(0)) */\n          tag_42\n            /* \"@openzeppelin/contracts/access/Ownable.sol\":1759:1760  0 */\n          0x00\n            /* \"@openzeppelin/contracts/access/Ownable.sol\":1732:1750  _transferOwnership */\n          tag_43\n            /* \"@openzeppelin/contracts/access/Ownable.sol\":1732:1762  _transferOwnership(address(0)) */\n          jump\t// in\n        tag_42:\n            /* \"@openzeppelin/contracts/access/Ownable.sol\":1668:1769  function renounceOwnership() public virtual onlyOwner {... */\n          jump\t// out\n            /* \"@openzeppelin/contracts/access/Ownable.sol\":1036:1121  function owner() public view virtual returns (address) {... */\n        tag_19:\n            /* \"@openzeppelin/contracts/access/Ownable.sol\":1082:1089  address */\n          0x00\n            /* \"@openzeppelin/contracts/access/Ownable.sol\":1108:1114  _owner */\n          dup1\n          0x00\n          swap1\n          sload\n          swap1\n          0x0100\n          exp\n          swap1\n          div\n          0xffffffffffffffffffffffffffffffffffffffff\n          and\n            /* \"@openzeppelin/contracts/access/Ownable.sol\":1101:1114  return _owner */\n          swap1\n          pop\n            /* \"@openzeppelin/contracts/access/Ownable.sol\":1036:1121  function owner() public view virtual returns (address) {... */\n          swap1\n          jump\t// out\n            /* \"@openzeppelin/contracts/access/Ownable.sol\":1918:2116  function transferOwnership(address newOwner) public virtual onlyOwner {... */\n        tag_23:\n            /* \"@openzeppelin/contracts/access/Ownable.sol\":1259:1271  _msgSender() */\n          tag_46\n            /* \"@openzeppelin/contracts/access/Ownable.sol\":1259:1269  _msgSender */\n          tag_27\n            /* \"@openzeppelin/contracts/access/Ownable.sol\":1259:1271  _msgSender() */\n          jump\t// in\n        tag_46:\n            /* \"@openzeppelin/contracts/access/Ownable.sol\":1248:1271  owner() == _msgSender() */\n          0xffffffffffffffffffffffffffffffffffffffff\n          and\n            /* \"@openzeppelin/contracts/access/Ownable.sol\":1248:1255  owner() */\n          tag_47\n            /* \"@openzeppelin/contracts/access/Ownable.sol\":1248:1253  owner */\n          tag_19\n            /* \"@openzeppelin/contracts/access/Ownable.sol\":1248:1255  owner() */\n          jump\t// in\n        tag_47:\n            /* \"@openzeppelin/contracts/access/Ownable.sol\":1248:1271  owner() == _msgSender() */\n          0xffffffffffffffffffffffffffffffffffffffff\n          and\n          eq\n            /* \"@openzeppelin/contracts/access/Ownable.sol\":1240:1308  require(owner() == _msgSender(), \"Ownable: caller is not the owner\") */\n          tag_48\n          jumpi\n          mload(0x40)\n          0x08c379a000000000000000000000000000000000000000000000000000000000\n          dup2\n          mstore\n          0x04\n          add\n          tag_49\n          swap1\n          tag_31\n          jump\t// in\n        tag_49:\n          mload(0x40)\n          dup1\n          swap2\n          sub\n          swap1\n          revert\n        tag_48:\n            /* \"@openzeppelin/contracts/access/Ownable.sol\":2026:2027  0 */\n          0x00\n            /* \"@openzeppelin/contracts/access/Ownable.sol\":2006:2028  newOwner != address(0) */\n          0xffffffffffffffffffffffffffffffffffffffff\n          and\n            /* \"@openzeppelin/contracts/access/Ownable.sol\":2006:2014  newOwner */\n          dup2\n            /* \"@openzeppelin/contracts/access/Ownable.sol\":2006:2028  newOwner != address(0) */\n          0xffffffffffffffffffffffffffffffffffffffff\n          and\n          eq\n          iszero\n            /* \"@openzeppelin/contracts/access/Ownable.sol\":1998:2071  require(newOwner != address(0), \"Ownable: new owner is the zero address\") */\n          tag_51\n          jumpi\n          mload(0x40)\n          0x08c379a000000000000000000000000000000000000000000000000000000000\n          dup2\n          mstore\n          0x04\n          add\n          tag_52\n          swap1\n          tag_53\n          jump\t// in\n        tag_52:\n          mload(0x40)\n          dup1\n          swap2\n          sub\n          swap1\n          revert\n        tag_51:\n            /* \"@openzeppelin/contracts/access/Ownable.sol\":2081:2109  _transferOwnership(newOwner) */\n          tag_54\n            /* \"@openzeppelin/contracts/access/Ownable.sol\":2100:2108  newOwner */\n          dup2\n            /* \"@openzeppelin/contracts/access/Ownable.sol\":2081:2099  _transferOwnership */\n          tag_43\n            /* \"@openzeppelin/contracts/access/Ownable.sol\":2081:2109  _transferOwnership(newOwner) */\n          jump\t// in\n        tag_54:\n            /* \"@openzeppelin/contracts/access/Ownable.sol\":1918:2116  function transferOwnership(address newOwner) public virtual onlyOwner {... */\n          pop\n          jump\t// out\n            /* \"@openzeppelin/contracts/utils/Address.sol\":1175:1495  function isContract(address account) internal view returns (bool) {... */\n        tag_24:\n            /* \"@openzeppelin/contracts/utils/Address.sol\":1235:1239  bool */\n          0x00\n            /* \"@openzeppelin/contracts/utils/Address.sol\":1487:1488  0 */\n          dup1\n            /* \"@openzeppelin/contracts/utils/Address.sol\":1465:1472  account */\n          dup3\n            /* \"@openzeppelin/contracts/utils/Address.sol\":1465:1484  account.code.length */\n          0xffffffffffffffffffffffffffffffffffffffff\n          and\n          extcodesize\n            /* \"@openzeppelin/contracts/utils/Address.sol\":1465:1488  account.code.length > 0 */\n          gt\n            /* \"@openzeppelin/contracts/utils/Address.sol\":1458:1488  return account.code.length > 0 */\n          swap1\n          pop\n            /* \"@openzeppelin/contracts/utils/Address.sol\":1175:1495  function isContract(address account) internal view returns (bool) {... */\n          swap2\n          swap1\n          pop\n          jump\t// out\n            /* \"@openzeppelin/contracts/utils/Context.sol\":640:736  function _msgSender() internal view virtual returns (address) {... */\n        tag_27:\n            /* \"@openzeppelin/contracts/utils/Context.sol\":693:700  address */\n          0x00\n            /* \"@openzeppelin/contracts/utils/Context.sol\":719:729  msg.sender */\n          caller\n            /* \"@openzeppelin/contracts/utils/Context.sol\":712:729  return msg.sender */\n          swap1\n          pop\n            /* \"@openzeppelin/contracts/utils/Context.sol\":640:736  function _msgSender() internal view virtual returns (address) {... */\n          swap1\n          jump\t// out\n            /* \"@openzeppelin/contracts/proxy/beacon/UpgradeableBeacon.sol\":1811:2037  function _setImplementation(address newImplementation) private {... */\n        tag_34:\n            /* \"@openzeppelin/contracts/proxy/beacon/UpgradeableBeacon.sol\":1892:1929  Address.isContract(newImplementation) */\n          tag_58\n            /* \"@openzeppelin/contracts/proxy/beacon/UpgradeableBeacon.sol\":1911:1928  newImplementation */\n          dup2\n            /* \"@openzeppelin/contracts/proxy/beacon/UpgradeableBeacon.sol\":1892:1910  Address.isContract */\n          tag_24\n            /* \"@openzeppelin/contracts/proxy/beacon/UpgradeableBeacon.sol\":1892:1929  Address.isContract(newImplementation) */\n          jump\t// in\n        tag_58:\n            /* \"@openzeppelin/contracts/proxy/beacon/UpgradeableBeacon.sol\":1884:1985  require(Address.isContract(newImplementation), \"UpgradeableBeacon: implementation is not a contract\") */\n          tag_59\n          jumpi\n          mload(0x40)\n          0x08c379a000000000000000000000000000000000000000000000000000000000\n          dup2\n          mstore\n          0x04\n          add\n          tag_60\n          swap1\n          tag_61\n          jump\t// in\n        tag_60:\n          mload(0x40)\n          dup1\n          swap2\n          sub\n          swap1\n          revert\n        tag_59:\n            /* \"@openzeppelin/contracts/proxy/beacon/UpgradeableBeacon.sol\":2013:2030  newImplementation */\n          dup1\n            /* \"@openzeppelin/contracts/proxy/beacon/UpgradeableBeacon.sol\":1995:2010  _implementation */\n          0x01\n          0x00\n            /* \"@openzeppelin/contracts/proxy/beacon/UpgradeableBeacon.sol\":1995:2030  _implementation = newImplementation */\n          0x0100\n          exp\n          dup2\n          sload\n          dup2\n          0xffffffffffffffffffffffffffffffffffffffff\n          mul\n          not\n          and\n          swap1\n          dup4\n          0xffffffffffffffffffffffffffffffffffffffff\n          and\n          mul\n          or\n          swap1\n          sstore\n          pop\n            /* \"@openzeppelin/contracts/proxy/beacon/UpgradeableBeacon.sol\":1811:2037  function _setImplementation(address newImplementation) private {... */\n          pop\n          jump\t// out\n            /* \"@openzeppelin/contracts/access/Ownable.sol\":2270:2457  function _transferOwnership(address newOwner) internal virtual {... */\n        tag_43:\n            /* \"@openzeppelin/contracts/access/Ownable.sol\":2343:2359  address oldOwner */\n          0x00\n            /* \"@openzeppelin/contracts/access/Ownable.sol\":2362:2368  _owner */\n          dup1\n          0x00\n          swap1\n          sload\n          swap1\n          0x0100\n          exp\n          swap1\n          div\n          0xffffffffffffffffffffffffffffffffffffffff\n          and\n            /* \"@openzeppelin/contracts/access/Ownable.sol\":2343:2368  address oldOwner = _owner */\n          swap1\n          pop\n            /* \"@openzeppelin/contracts/access/Ownable.sol\":2387:2395  newOwner */\n          dup2\n            /* \"@openzeppelin/contracts/access/Ownable.sol\":2378:2384  _owner */\n          0x00\n          dup1\n            /* \"@openzeppelin/contracts/access/Ownable.sol\":2378:2395  _owner = newOwner */\n          0x0100\n          exp\n          dup2\n          sload\n          dup2\n          0xffffffffffffffffffffffffffffffffffffffff\n          mul\n          not\n          and\n          swap1\n          dup4\n          0xffffffffffffffffffffffffffffffffffffffff\n          and\n          mul\n          or\n          swap1\n          sstore\n          pop\n            /* \"@openzeppelin/contracts/access/Ownable.sol\":2441:2449  newOwner */\n          dup2\n            /* \"@openzeppelin/contracts/access/Ownable.sol\":2410:2450  OwnershipTransferred(oldOwner, newOwner) */\n          0xffffffffffffffffffffffffffffffffffffffff\n          and\n            /* \"@openzeppelin/contracts/access/Ownable.sol\":2431:2439  oldOwner */\n          dup2\n            /* \"@openzeppelin/contracts/access/Ownable.sol\":2410:2450  OwnershipTransferred(oldOwner, newOwner) */\n          0xffffffffffffffffffffffffffffffffffffffff\n          and\n          0x8be0079c531659141344cd1fd0a4f28419497f9722a3daafe3b4186f6b6457e0\n          mload(0x40)\n          mload(0x40)\n          dup1\n          swap2\n          sub\n          swap1\n          log3\n            /* \"@openzeppelin/contracts/access/Ownable.sol\":2333:2457  {... */\n          pop\n            /* \"@openzeppelin/contracts/access/Ownable.sol\":2270:2457  function _transferOwnership(address newOwner) internal virtual {... */\n          pop\n          jump\t// out\n            /* \"#utility.yul\":7:146   */\n        tag_64:\n            /* \"#utility.yul\":53:58   */\n          0x00\n            /* \"#utility.yul\":91:97   */\n          dup2\n            /* \"#utility.yul\":78:98   */\n          calldataload\n            /* \"#utility.yul\":69:98   */\n          swap1\n          pop\n            /* \"#utility.yul\":107:140   */\n          tag_66\n            /* \"#utility.yul\":134:139   */\n          dup2\n            /* \"#utility.yul\":107:140   */\n          tag_67\n          jump\t// in\n        tag_66:\n            /* \"#utility.yul\":59:146   */\n          swap3\n          swap2\n          pop\n          pop\n          jump\t// out\n            /* \"#utility.yul\":152:481   */\n        tag_10:\n            /* \"#utility.yul\":211:217   */\n          0x00\n            /* \"#utility.yul\":260:262   */\n          0x20\n            /* \"#utility.yul\":248:257   */\n          dup3\n            /* \"#utility.yul\":239:246   */\n          dup5\n            /* \"#utility.yul\":235:258   */\n          sub\n            /* \"#utility.yul\":231:263   */\n          slt\n            /* \"#utility.yul\":228:230   */\n          iszero\n          tag_69\n          jumpi\n            /* \"#utility.yul\":266:345   */\n          tag_70\n          tag_71\n          jump\t// in\n        tag_70:\n            /* \"#utility.yul\":228:230   */\n        tag_69:\n            /* \"#utility.yul\":386:387   */\n          0x00\n            /* \"#utility.yul\":411:464   */\n          tag_72\n            /* \"#utility.yul\":456:463   */\n          dup5\n            /* \"#utility.yul\":447:453   */\n          dup3\n            /* \"#utility.yul\":436:445   */\n          dup6\n            /* \"#utility.yul\":432:454   */\n          add\n            /* \"#utility.yul\":411:464   */\n          tag_64\n          jump\t// in\n        tag_72:\n            /* \"#utility.yul\":401:464   */\n          swap2\n          pop\n            /* \"#utility.yul\":357:474   */\n          pop\n            /* \"#utility.yul\":218:481   */\n          swap3\n          swap2\n          pop\n          pop\n          jump\t// out\n            /* \"#utility.yul\":487:605   */\n        tag_73:\n            /* \"#utility.yul\":574:598   */\n          tag_75\n            /* \"#utility.yul\":592:597   */\n          dup2\n            /* \"#utility.yul\":574:598   */\n          tag_76\n          jump\t// in\n        tag_75:\n            /* \"#utility.yul\":569:572   */\n          dup3\n            /* \"#utility.yul\":562:599   */\n          mstore\n            /* \"#utility.yul\":552:605   */\n          pop\n          pop\n          jump\t// out\n            /* \"#utility.yul\":611:977   */\n        tag_77:\n            /* \"#utility.yul\":753:756   */\n          0x00\n            /* \"#utility.yul\":774:841   */\n          tag_79\n            /* \"#utility.yul\":838:840   */\n          0x26\n            /* \"#utility.yul\":833:836   */\n          dup4\n            /* \"#utility.yul\":774:841   */\n          tag_80\n          jump\t// in\n        tag_79:\n            /* \"#utility.yul\":767:841   */\n          swap2\n          pop\n            /* \"#utility.yul\":850:943   */\n          tag_81\n            /* \"#utility.yul\":939:942   */\n          dup3\n            /* \"#utility.yul\":850:943   */\n          tag_82\n          jump\t// in\n        tag_81:\n            /* \"#utility.yul\":968:970   */\n          0x40\n            /* \"#utility.yul\":963:966   */\n          dup3\n            /* \"#utility.yul\":959:971   */\n          add\n            /* \"#utility.yul\":952:971   */\n          swap1\n          pop\n            /* \"#utility.yul\":757:977   */\n          swap2\n          swap1\n          pop\n          jump\t// out\n            /* \"#utility.yul\":983:1349   */\n        tag_83:\n            /* \"#utility.yul\":1125:1128   */\n          0x00\n            /* \"#utility.yul\":1146:1213   */\n          tag_85\n            /* \"#utility.yul\":1210:1212   */\n          0x33\n            /* \"#utility.yul\":1205:1208   */\n          dup4\n            /* \"#utility.yul\":1146:1213   */\n          tag_80\n          jump\t// in\n        tag_85:\n            /* \"#utility.yul\":1139:1213   */\n          swap2\n          pop\n            /* \"#utility.yul\":1222:1315   */\n          tag_86\n            /* \"#utility.yul\":1311:1314   */\n          dup3\n            /* \"#utility.yul\":1222:1315   */\n          tag_87\n          jump\t// in\n        tag_86:\n            /* \"#utility.yul\":1340:1342   */\n          0x40\n            /* \"#utility.yul\":1335:1338   */\n          dup3\n            /* \"#utility.yul\":1331:1343   */\n          add\n            /* \"#utility.yul\":1324:1343   */\n          swap1\n          pop\n            /* \"#utility.yul\":1129:1349   */\n          swap2\n          swap1\n          pop\n          jump\t// out\n            /* \"#utility.yul\":1355:1721   */\n        tag_88:\n            /* \"#utility.yul\":1497:1500   */\n          0x00\n            /* \"#utility.yul\":1518:1585   */\n          tag_90\n            /* \"#utility.yul\":1582:1584   */\n          0x20\n            /* \"#utility.yul\":1577:1580   */\n          dup4\n            /* \"#utility.yul\":1518:1585   */\n          tag_80\n          jump\t// in\n        tag_90:\n            /* \"#utility.yul\":1511:1585   */\n          swap2\n          pop\n            /* \"#utility.yul\":1594:1687   */\n          tag_91\n            /* \"#utility.yul\":1683:1686   */\n          dup3\n            /* \"#utility.yul\":1594:1687   */\n          tag_92\n          jump\t// in\n        tag_91:\n            /* \"#utility.yul\":1712:1714   */\n          0x20\n            /* \"#utility.yul\":1707:1710   */\n          dup3\n            /* \"#utility.yul\":1703:1715   */\n          add\n            /* \"#utility.yul\":1696:1715   */\n          swap1\n          pop\n            /* \"#utility.yul\":1501:1721   */\n          swap2\n          swap1\n          pop\n          jump\t// out\n            /* \"#utility.yul\":1727:1949   */\n        tag_15:\n            /* \"#utility.yul\":1820:1824   */\n          0x00\n            /* \"#utility.yul\":1858:1860   */\n          0x20\n            /* \"#utility.yul\":1847:1856   */\n          dup3\n            /* \"#utility.yul\":1843:1861   */\n          add\n            /* \"#utility.yul\":1835:1861   */\n          swap1\n          pop\n            /* \"#utility.yul\":1871:1942   */\n          tag_94\n            /* \"#utility.yul\":1939:1940   */\n          0x00\n            /* \"#utility.yul\":1928:1937   */\n          dup4\n            /* \"#utility.yul\":1924:1941   */\n          add\n            /* \"#utility.yul\":1915:1921   */\n          dup5\n            /* \"#utility.yul\":1871:1942   */\n          tag_73\n          jump\t// in\n        tag_94:\n            /* \"#utility.yul\":1825:1949   */\n          swap3\n          swap2\n          pop\n          pop\n          jump\t// out\n            /* \"#utility.yul\":1955:2374   */\n        tag_53:\n            /* \"#utility.yul\":2121:2125   */\n          0x00\n            /* \"#utility.yul\":2159:2161   */\n          0x20\n            /* \"#utility.yul\":2148:2157   */\n          dup3\n            /* \"#utility.yul\":2144:2162   */\n          add\n            /* \"#utility.yul\":2136:2162   */\n          swap1\n          pop\n            /* \"#utility.yul\":2208:2217   */\n          dup2\n            /* \"#utility.yul\":2202:2206   */\n          dup2\n            /* \"#utility.yul\":2198:2218   */\n          sub\n            /* \"#utility.yul\":2194:2195   */\n          0x00\n            /* \"#utility.yul\":2183:2192   */\n          dup4\n            /* \"#utility.yul\":2179:2196   */\n          add\n            /* \"#utility.yul\":2172:2219   */\n          mstore\n            /* \"#utility.yul\":2236:2367   */\n          tag_96\n            /* \"#utility.yul\":2362:2366   */\n          dup2\n            /* \"#utility.yul\":2236:2367   */\n          tag_77\n          jump\t// in\n        tag_96:\n            /* \"#utility.yul\":2228:2367   */\n          swap1\n          pop\n            /* \"#utility.yul\":2126:2374   */\n          swap2\n          swap1\n          pop\n          jump\t// out\n            /* \"#utility.yul\":2380:2799   */\n        tag_61:\n            /* \"#utility.yul\":2546:2550   */\n          0x00\n            /* \"#utility.yul\":2584:2586   */\n          0x20\n            /* \"#utility.yul\":2573:2582   */\n          dup3\n            /* \"#utility.yul\":2569:2587   */\n          add\n            /* \"#utility.yul\":2561:2587   */\n          swap1\n          pop\n            /* \"#utility.yul\":2633:2642   */\n          dup2\n            /* \"#utility.yul\":2627:2631   */\n          dup2\n            /* \"#utility.yul\":2623:2643   */\n          sub\n            /* \"#utility.yul\":2619:2620   */\n          0x00\n            /* \"#utility.yul\":2608:2617   */\n          dup4\n            /* \"#utility.yul\":2604:2621   */\n          add\n            /* \"#utility.yul\":2597:2644   */\n          mstore\n            /* \"#utility.yul\":2661:2792   */\n          tag_98\n            /* \"#utility.yul\":2787:2791   */\n          dup2\n            /* \"#utility.yul\":2661:2792   */\n          tag_83\n          jump\t// in\n        tag_98:\n            /* \"#utility.yul\":2653:2792   */\n          swap1\n          pop\n            /* \"#utility.yul\":2551:2799   */\n          swap2\n          swap1\n          pop\n          jump\t// out\n            /* \"#utility.yul\":2805:3224   */\n        tag_31:\n            /* \"#utility.yul\":2971:2975   */\n          0x00\n            /* \"#utility.yul\":3009:3011   */\n          0x20\n            /* \"#utility.yul\":2998:3007   */\n          dup3\n            /* \"#utility.yul\":2994:3012   */\n          add\n            /* \"#utility.yul\":2986:3012   */\n          swap1\n          pop\n            /* \"#utility.yul\":3058:3067   */\n          dup2\n            /* \"#utility.yul\":3052:3056   */\n          dup2\n            /* \"#utility.yul\":3048:3068   */\n          sub\n            /* \"#utility.yul\":3044:3045   */\n          0x00\n            /* \"#utility.yul\":3033:3042   */\n          dup4\n            /* \"#utility.yul\":3029:3046   */\n          add\n            /* \"#utility.yul\":3022:3069   */\n          mstore\n            /* \"#utility.yul\":3086:3217   */\n          tag_100\n            /* \"#utility.yul\":3212:3216   */\n          dup2\n            /* \"#utility.yul\":3086:3217   */\n          tag_88\n          jump\t// in\n        tag_100:\n            /* \"#utility.yul\":3078:3217   */\n          swap1\n          pop\n            /* \"#utility.yul\":2976:3224   */\n          swap2\n          swap1\n          pop\n          jump\t// out\n            /* \"#utility.yul\":3311:3480   */\n        tag_80:\n            /* \"#utility.yul\":3395:3406   */\n          0x00\n            /* \"#utility.yul\":3429:3435   */\n          dup3\n            /* \"#utility.yul\":3424:3427   */\n          dup3\n            /* \"#utility.yul\":3417:3436   */\n          mstore\n            /* \"#utility.yul\":3469:3473   */\n          0x20\n            /* \"#utility.yul\":3464:3467   */\n          dup3\n            /* \"#utility.yul\":3460:3474   */\n          add\n            /* \"#utility.yul\":3445:3474   */\n          swap1\n          pop\n            /* \"#utility.yul\":3407:3480   */\n          swap3\n          swap2\n          pop\n          pop\n          jump\t// out\n            /* \"#utility.yul\":3486:3582   */\n        tag_76:\n            /* \"#utility.yul\":3523:3530   */\n          0x00\n            /* \"#utility.yul\":3552:3576   */\n          tag_105\n            /* \"#utility.yul\":3570:3575   */\n          dup3\n            /* \"#utility.yul\":3552:3576   */\n          tag_106\n          jump\t// in\n        tag_105:\n            /* \"#utility.yul\":3541:3576   */\n          swap1\n          pop\n            /* \"#utility.yul\":3531:3582   */\n          swap2\n          swap1\n          pop\n          jump\t// out\n            /* \"#utility.yul\":3588:3714   */\n        tag_106:\n            /* \"#utility.yul\":3625:3632   */\n          0x00\n            /* \"#utility.yul\":3665:3707   */\n          0xffffffffffffffffffffffffffffffffffffffff\n            /* \"#utility.yul\":3658:3663   */\n          dup3\n            /* \"#utility.yul\":3654:3708   */\n          and\n            /* \"#utility.yul\":3643:3708   */\n          swap1\n          pop\n            /* \"#utility.yul\":3633:3714   */\n          swap2\n          swap1\n          pop\n          jump\t// out\n            /* \"#utility.yul\":3843:3960   */\n        tag_71:\n            /* \"#utility.yul\":3952:3953   */\n          0x00\n            /* \"#utility.yul\":3949:3950   */\n          dup1\n            /* \"#utility.yul\":3942:3954   */\n          revert\n            /* \"#utility.yul\":3966:4191   */\n        tag_82:\n            /* \"#utility.yul\":4106:4140   */\n          0x4f776e61626c653a206e6577206f776e657220697320746865207a65726f2061\n            /* \"#utility.yul\":4102:4103   */\n          0x00\n            /* \"#utility.yul\":4094:4100   */\n          dup3\n            /* \"#utility.yul\":4090:4104   */\n          add\n            /* \"#utility.yul\":4083:4141   */\n          mstore\n            /* \"#utility.yul\":4175:4183   */\n          0x6464726573730000000000000000000000000000000000000000000000000000\n            /* \"#utility.yul\":4170:4172   */\n          0x20\n            /* \"#utility.yul\":4162:4168   */\n          dup3\n            /* \"#utility.yul\":4158:4173   */\n          add\n            /* \"#utility.yul\":4151:4184   */\n          mstore\n            /* \"#utility.yul\":4072:4191   */\n          pop\n          jump\t// out\n            /* \"#utility.yul\":4197:4435   */\n        tag_87:\n            /* \"#utility.yul\":4337:4371   */\n          0x5570677261646561626c65426561636f6e3a20696d706c656d656e746174696f\n            /* \"#utility.yul\":4333:4334   */\n          0x00\n            /* \"#utility.yul\":4325:4331   */\n          dup3\n            /* \"#utility.yul\":4321:4335   */\n          add\n            /* \"#utility.yul\":4314:4372   */\n          mstore\n            /* \"#utility.yul\":4406:4427   */\n          0x6e206973206e6f74206120636f6e747261637400000000000000000000000000\n            /* \"#utility.yul\":4401:4403   */\n          0x20\n            /* \"#utility.yul\":4393:4399   */\n          dup3\n            /* \"#utility.yul\":4389:4404   */\n          add\n            /* \"#utility.yul\":4382:4428   */\n          mstore\n            /* \"#utility.yul\":4303:4435   */\n          pop\n          jump\t// out\n            /* \"#utility.yul\":4441:4623   */\n        tag_92:\n            /* \"#utility.yul\":4581:4615   */\n          0x4f776e61626c653a2063616c6c6572206973206e6f7420746865206f776e6572\n            /* \"#utility.yul\":4577:4578   */\n          0x00\n            /* \"#utility.yul\":4569:4575   */\n          dup3\n            /* \"#utility.yul\":4565:4579   */\n          add\n            /* \"#utility.yul\":4558:4616   */\n          mstore\n            /* \"#utility.yul\":4547:4623   */\n          pop\n          jump\t// out\n            /* \"#utility.yul\":4629:4751   */\n        tag_67:\n            /* \"#utility.yul\":4702:4726   */\n          tag_115\n            /* \"#utility.yul\":4720:4725   */\n          dup2\n            /* \"#utility.yul\":4702:4726   */\n          tag_76\n          jump\t// in\n        tag_115:\n            /* \"#utility.yul\":4695:4700   */\n          dup2\n            /* \"#utility.yul\":4692:4727   */\n          eq\n            /* \"#utility.yul\":4682:4684   */\n          tag_116\n          jumpi\n            /* \"#utility.yul\":4741:4742   */\n          0x00\n            /* \"#utility.yul\":4738:4739   */\n          dup1\n            /* \"#utility.yul\":4731:4743   */\n          revert\n            /* \"#utility.yul\":4682:4684   */\n        tag_116:\n            /* \"#utility.yul\":4672:4751   */\n          pop\n          jump\t// out\n\n        auxdata: 0xa2646970667358221220467e90d3f878a8f1241648bb76d45b96e786720df04532eea33fabbdf9baf7e964736f6c63430008050033\n    }\n}\n",
				"bytecode": {
					"linkReferences": {},
					"object": "60a06040523480156200001157600080fd5b50604051620016ce380380620016ce83398181016040528101906200003791906200034f565b620000576200004b6200011f60201b60201c565b6200012760201b60201c565b8060405162000066906200032a565b620000729190620003e0565b604051809103906000f0801580156200008f573d6000803e3d6000fd5b5073ffffffffffffffffffffffffffffffffffffffff1660808173ffffffffffffffffffffffffffffffffffffffff1660601b8152505080600160006101000a81548173ffffffffffffffffffffffffffffffffffffffff021916908373ffffffffffffffffffffffffffffffffffffffff1602179055506200011832620001eb60201b60201c565b506200051d565b600033905090565b60008060009054906101000a900473ffffffffffffffffffffffffffffffffffffffff169050816000806101000a81548173ffffffffffffffffffffffffffffffffffffffff021916908373ffffffffffffffffffffffffffffffffffffffff1602179055508173ffffffffffffffffffffffffffffffffffffffff168173ffffffffffffffffffffffffffffffffffffffff167f8be0079c531659141344cd1fd0a4f28419497f9722a3daafe3b4186f6b6457e060405160405180910390a35050565b620001fb6200011f60201b60201c565b73ffffffffffffffffffffffffffffffffffffffff16620002216200030160201b60201c565b73ffffffffffffffffffffffffffffffffffffffff16146200027a576040517f08c379a000000000000000000000000000000000000000000000000000000000815260040162000271906200041f565b60405180910390fd5b600073ffffffffffffffffffffffffffffffffffffffff168173ffffffffffffffffffffffffffffffffffffffff161415620002ed576040517f08c379a0000000000000000000000000000000000000000000000000000000008152600401620002e490620003fd565b60405180910390fd5b620002fe816200012760201b60201c565b50565b60008060009054906101000a900473ffffffffffffffffffffffffffffffffffffffff16905090565b610ad38062000bfb83390190565b600081519050620003498162000503565b92915050565b60006020828403121562000368576200036762000486565b5b6000620003788482850162000338565b91505092915050565b6200038c8162000452565b82525050565b6000620003a160268362000441565b9150620003ae826200048b565b604082019050919050565b6000620003c860208362000441565b9150620003d582620004da565b602082019050919050565b6000602082019050620003f7600083018462000381565b92915050565b60006020820190508181036000830152620004188162000392565b9050919050565b600060208201905081810360008301526200043a81620003b9565b9050919050565b600082825260208201905092915050565b60006200045f8262000466565b9050919050565b600073ffffffffffffffffffffffffffffffffffffffff82169050919050565b600080fd5b7f4f776e61626c653a206e6577206f776e657220697320746865207a65726f206160008201527f6464726573730000000000000000000000000000000000000000000000000000602082015250565b7f4f776e61626c653a2063616c6c6572206973206e6f7420746865206f776e6572600082015250565b6200050e8162000452565b81146200051a57600080fd5b50565b60805160601c6106bf6200053c600039600061015801526106bf6000f3fe608060405234801561001057600080fd5b50600436106100575760003560e01c80631c1b87721461005c5780635c60da1b14610078578063715018a6146100965780638da5cb5b146100a0578063f2fde38b146100be575b600080fd5b610076600480360381019061007191906104d5565b6100da565b005b610080610225565b60405161008d9190610557565b60405180910390f35b61009e61024b565b005b6100a86102d3565b6040516100b59190610557565b60405180910390f35b6100d860048036038101906100d391906104d5565b6102fc565b005b6100e26103f4565b73ffffffffffffffffffffffffffffffffffffffff166101006102d3565b73ffffffffffffffffffffffffffffffffffffffff1614610156576040517f08c379a000000000000000000000000000000000000000000000000000000000815260040161014d90610592565b60405180910390fd5b7f000000000000000000000000000000000000000000000000000000000000000073ffffffffffffffffffffffffffffffffffffffff16633659cfe6826040518263ffffffff1660e01b81526004016101af9190610557565b600060405180830381600087803b1580156101c957600080fd5b505af11580156101dd573d6000803e3d6000fd5b5050505080600160006101000a81548173ffffffffffffffffffffffffffffffffffffffff021916908373ffffffffffffffffffffffffffffffffffffffff16021790555050565b600160009054906101000a900473ffffffffffffffffffffffffffffffffffffffff1681565b6102536103f4565b73ffffffffffffffffffffffffffffffffffffffff166102716102d3565b73ffffffffffffffffffffffffffffffffffffffff16146102c7576040517f08c379a00000000000000000000000000000000000000000000000000000000081526004016102be90610592565b60405180910390fd5b6102d160006103fc565b565b60008060009054906101000a900473ffffffffffffffffffffffffffffffffffffffff16905090565b6103046103f4565b73ffffffffffffffffffffffffffffffffffffffff166103226102d3565b73ffffffffffffffffffffffffffffffffffffffff1614610378576040517f08c379a000000000000000000000000000000000000000000000000000000000815260040161036f90610592565b60405180910390fd5b600073ffffffffffffffffffffffffffffffffffffffff168173ffffffffffffffffffffffffffffffffffffffff1614156103e8576040517f08c379a00000000000000000000000000000000000000000000000000000000081526004016103df90610572565b60405180910390fd5b6103f1816103fc565b50565b600033905090565b60008060009054906101000a900473ffffffffffffffffffffffffffffffffffffffff169050816000806101000a81548173ffffffffffffffffffffffffffffffffffffffff021916908373ffffffffffffffffffffffffffffffffffffffff1602179055508173ffffffffffffffffffffffffffffffffffffffff168173ffffffffffffffffffffffffffffffffffffffff167f8be0079c531659141344cd1fd0a4f28419497f9722a3daafe3b4186f6b6457e060405160405180910390a35050565b6000813590506104cf81610672565b92915050565b6000602082840312156104eb576104ea6105f5565b5b60006104f9848285016104c0565b91505092915050565b61050b816105c3565b82525050565b600061051e6026836105b2565b9150610529826105fa565b604082019050919050565b60006105416020836105b2565b915061054c82610649565b602082019050919050565b600060208201905061056c6000830184610502565b92915050565b6000602082019050818103600083015261058b81610511565b9050919050565b600060208201905081810360008301526105ab81610534565b9050919050565b600082825260208201905092915050565b60006105ce826105d5565b9050919050565b600073ffffffffffffffffffffffffffffffffffffffff82169050919050565b600080fd5b7f4f776e61626c653a206e6577206f776e657220697320746865207a65726f206160008201527f6464726573730000000000000000000000000000000000000000000000000000602082015250565b7f4f776e61626c653a2063616c6c6572206973206e6f7420746865206f776e6572600082015250565b61067b816105c3565b811461068657600080fd5b5056fea2646970667358221220e35ef8bf2814170b7d5b6c17be082182363967022dc313f408f641233075e75d64736f6c6343000805003360806040523480156200001157600080fd5b5060405162000ad338038062000ad3833981810160405281019062000037919062000211565b620000576200004b6200006f60201b60201c565b6200007760201b60201c565b62000068816200013b60201b60201c565b506200033f565b600033905090565b60008060009054906101000a900473ffffffffffffffffffffffffffffffffffffffff169050816000806101000a81548173ffffffffffffffffffffffffffffffffffffffff021916908373ffffffffffffffffffffffffffffffffffffffff1602179055508173ffffffffffffffffffffffffffffffffffffffff168173ffffffffffffffffffffffffffffffffffffffff167f8be0079c531659141344cd1fd0a4f28419497f9722a3daafe3b4186f6b6457e060405160405180910390a35050565b6200015181620001d760201b620003781760201c565b62000193576040517f08c379a00000000000000000000000000000000000000000000000000000000081526004016200018a906200026a565b60405180910390fd5b80600160006101000a81548173ffffffffffffffffffffffffffffffffffffffff021916908373ffffffffffffffffffffffffffffffffffffffff16021790555050565b6000808273ffffffffffffffffffffffffffffffffffffffff163b119050919050565b6000815190506200020b8162000325565b92915050565b6000602082840312156200022a5762000229620002d1565b5b60006200023a84828501620001fa565b91505092915050565b6000620002526033836200028c565b91506200025f82620002d6565b604082019050919050565b60006020820190508181036000830152620002858162000243565b9050919050565b600082825260208201905092915050565b6000620002aa82620002b1565b9050919050565b600073ffffffffffffffffffffffffffffffffffffffff82169050919050565b600080fd5b7f5570677261646561626c65426561636f6e3a20696d706c656d656e746174696f60008201527f6e206973206e6f74206120636f6e747261637400000000000000000000000000602082015250565b62000330816200029d565b81146200033c57600080fd5b50565b610784806200034f6000396000f3fe608060405234801561001057600080fd5b50600436106100575760003560e01c80633659cfe61461005c5780635c60da1b14610078578063715018a6146100965780638da5cb5b146100a0578063f2fde38b146100be575b600080fd5b61007660048036038101906100719190610508565b6100da565b005b6100806101a5565b60405161008d91906105ad565b60405180910390f35b61009e6101cf565b005b6100a8610257565b6040516100b591906105ad565b60405180910390f35b6100d860048036038101906100d39190610508565b610280565b005b6100e261039b565b73ffffffffffffffffffffffffffffffffffffffff16610100610257565b73ffffffffffffffffffffffffffffffffffffffff1614610156576040517f08c379a000000000000000000000000000000000000000000000000000000000815260040161014d90610608565b60405180910390fd5b61015f816103a3565b8073ffffffffffffffffffffffffffffffffffffffff167fbc7cd75a20ee27fd9adebab32041f755214dbc6bffa90cc0225b39da2e5c2d3b60405160405180910390a250565b6000600160009054906101000a900473ffffffffffffffffffffffffffffffffffffffff16905090565b6101d761039b565b73ffffffffffffffffffffffffffffffffffffffff166101f5610257565b73ffffffffffffffffffffffffffffffffffffffff161461024b576040517f08c379a000000000000000000000000000000000000000000000000000000000815260040161024290610608565b60405180910390fd5b610255600061042f565b565b60008060009054906101000a900473ffffffffffffffffffffffffffffffffffffffff16905090565b61028861039b565b73ffffffffffffffffffffffffffffffffffffffff166102a6610257565b73ffffffffffffffffffffffffffffffffffffffff16146102fc576040517f08c379a00000000000000000000000000000000000000000000000000000000081526004016102f390610608565b60405180910390fd5b600073ffffffffffffffffffffffffffffffffffffffff168173ffffffffffffffffffffffffffffffffffffffff16141561036c576040517f08c379a0000000000000000000000000000000000000000000000000000000008152600401610363906105c8565b60405180910390fd5b6103758161042f565b50565b6000808273ffffffffffffffffffffffffffffffffffffffff163b119050919050565b600033905090565b6103ac81610378565b6103eb576040517f08c379a00000000000000000000000000000000000000000000000000000000081526004016103e2906105e8565b60405180910390fd5b80600160006101000a81548173ffffffffffffffffffffffffffffffffffffffff021916908373ffffffffffffffffffffffffffffffffffffffff16021790555050565b60008060009054906101000a900473ffffffffffffffffffffffffffffffffffffffff169050816000806101000a81548173ffffffffffffffffffffffffffffffffffffffff021916908373ffffffffffffffffffffffffffffffffffffffff1602179055508173ffffffffffffffffffffffffffffffffffffffff168173ffffffffffffffffffffffffffffffffffffffff167f8be0079c531659141344cd1fd0a4f28419497f9722a3daafe3b4186f6b6457e060405160405180910390a35050565b60008135905061050281610737565b92915050565b60006020828403121561051e5761051d61066b565b5b600061052c848285016104f3565b91505092915050565b61053e81610639565b82525050565b6000610551602683610628565b915061055c82610670565b604082019050919050565b6000610574603383610628565b915061057f826106bf565b604082019050919050565b6000610597602083610628565b91506105a28261070e565b602082019050919050565b60006020820190506105c26000830184610535565b92915050565b600060208201905081810360008301526105e181610544565b9050919050565b6000602082019050818103600083015261060181610567565b9050919050565b600060208201905081810360008301526106218161058a565b9050919050565b600082825260208201905092915050565b60006106448261064b565b9050919050565b600073ffffffffffffffffffffffffffffffffffffffff82169050919050565b600080fd5b7f4f776e61626c653a206e6577206f776e657220697320746865207a65726f206160008201527f6464726573730000000000000000000000000000000000000000000000000000602082015250565b7f5570677261646561626c65426561636f6e3a20696d706c656d656e746174696f60008201527f6e206973206e6f74206120636f6e747261637400000000000000000000000000602082015250565b7f4f776e61626c653a2063616c6c6572206973206e6f7420746865206f776e6572600082015250565b61074081610639565b811461074b57600080fd5b5056fea2646970667358221220467e90d3f878a8f1241648bb76d45b96e786720df04532eea33fabbdf9baf7e964736f6c63430008050033",
					"opcodes": "PUSH1 0xA0 PUSH1 0x40 MSTORE CALLVALUE DUP1 ISZERO PUSH3 0x11 JUMPI PUSH1 0x0 DUP1 REVERT JUMPDEST POP PUSH1 0x40 MLOAD PUSH3 0x16CE CODESIZE SUB DUP1 PUSH3 0x16CE DUP4 CODECOPY DUP2 DUP2 ADD PUSH1 0x40 MSTORE DUP2 ADD SWAP1 PUSH3 0x37 SWAP2 SWAP1 PUSH3 0x34F JUMP JUMPDEST PUSH3 0x57 PUSH3 0x4B PUSH3 0x11F PUSH1 0x20 SHL PUSH1 0x20 SHR JUMP JUMPDEST PUSH3 0x127 PUSH1 0x20 SHL PUSH1 0x20 SHR JUMP JUMPDEST DUP1 PUSH1 0x40 MLOAD PUSH3 0x66 SWAP1 PUSH3 0x32A JUMP JUMPDEST PUSH3 0x72 SWAP2 SWAP1 PUSH3 0x3E0 JUMP JUMPDEST PUSH1 0x40 MLOAD DUP1 SWAP2 SUB SWAP1 PUSH1 0x0 CREATE DUP1 ISZERO DUP1 ISZERO PUSH3 0x8F JUMPI RETURNDATASIZE PUSH1 0x0 DUP1 RETURNDATACOPY RETURNDATASIZE PUSH1 0x0 REVERT JUMPDEST POP PUSH20 0xFFFFFFFFFFFFFFFFFFFFFFFFFFFFFFFFFFFFFFFF AND PUSH1 0x80 DUP2 PUSH20 0xFFFFFFFFFFFFFFFFFFFFFFFFFFFFFFFFFFFFFFFF AND PUSH1 0x60 SHL DUP2 MSTORE POP POP DUP1 PUSH1 0x1 PUSH1 0x0 PUSH2 0x100 EXP DUP2 SLOAD DUP2 PUSH20 0xFFFFFFFFFFFFFFFFFFFFFFFFFFFFFFFFFFFFFFFF MUL NOT AND SWAP1 DUP4 PUSH20 0xFFFFFFFFFFFFFFFFFFFFFFFFFFFFFFFFFFFFFFFF AND MUL OR SWAP1 SSTORE POP PUSH3 0x118 ORIGIN PUSH3 0x1EB PUSH1 0x20 SHL PUSH1 0x20 SHR JUMP JUMPDEST POP PUSH3 0x51D JUMP JUMPDEST PUSH1 0x0 CALLER SWAP1 POP SWAP1 JUMP JUMPDEST PUSH1 0x0 DUP1 PUSH1 0x0 SWAP1 SLOAD SWAP1 PUSH2 0x100 EXP SWAP1 DIV PUSH20 0xFFFFFFFFFFFFFFFFFFFFFFFFFFFFFFFFFFFFFFFF AND SWAP1 POP DUP2 PUSH1 0x0 DUP1 PUSH2 0x100 EXP DUP2 SLOAD DUP2 PUSH20 0xFFFFFFFFFFFFFFFFFFFFFFFFFFFFFFFFFFFFFFFF MUL NOT AND SWAP1 DUP4 PUSH20 0xFFFFFFFFFFFFFFFFFFFFFFFFFFFFFFFFFFFFFFFF AND MUL OR SWAP1 SSTORE POP DUP2 PUSH20 0xFFFFFFFFFFFFFFFFFFFFFFFFFFFFFFFFFFFFFFFF AND DUP2 PUSH20 0xFFFFFFFFFFFFFFFFFFFFFFFFFFFFFFFFFFFFFFFF AND PUSH32 0x8BE0079C531659141344CD1FD0A4F28419497F9722A3DAAFE3B4186F6B6457E0 PUSH1 0x40 MLOAD PUSH1 0x40 MLOAD DUP1 SWAP2 SUB SWAP1 LOG3 POP POP JUMP JUMPDEST PUSH3 0x1FB PUSH3 0x11F PUSH1 0x20 SHL PUSH1 0x20 SHR JUMP JUMPDEST PUSH20 0xFFFFFFFFFFFFFFFFFFFFFFFFFFFFFFFFFFFFFFFF AND PUSH3 0x221 PUSH3 0x301 PUSH1 0x20 SHL PUSH1 0x20 SHR JUMP JUMPDEST PUSH20 0xFFFFFFFFFFFFFFFFFFFFFFFFFFFFFFFFFFFFFFFF AND EQ PUSH3 0x27A JUMPI PUSH1 0x40 MLOAD PUSH32 0x8C379A000000000000000000000000000000000000000000000000000000000 DUP2 MSTORE PUSH1 0x4 ADD PUSH3 0x271 SWAP1 PUSH3 0x41F JUMP JUMPDEST PUSH1 0x40 MLOAD DUP1 SWAP2 SUB SWAP1 REVERT JUMPDEST PUSH1 0x0 PUSH20 0xFFFFFFFFFFFFFFFFFFFFFFFFFFFFFFFFFFFFFFFF AND DUP2 PUSH20 0xFFFFFFFFFFFFFFFFFFFFFFFFFFFFFFFFFFFFFFFF AND EQ ISZERO PUSH3 0x2ED JUMPI PUSH1 0x40 MLOAD PUSH32 0x8C379A000000000000000000000000000000000000000000000000000000000 DUP2 MSTORE PUSH1 0x4 ADD PUSH3 0x2E4 SWAP1 PUSH3 0x3FD JUMP JUMPDEST PUSH1 0x40 MLOAD DUP1 SWAP2 SUB SWAP1 REVERT JUMPDEST PUSH3 0x2FE DUP2 PUSH3 0x127 PUSH1 0x20 SHL PUSH1 0x20 SHR JUMP JUMPDEST POP JUMP JUMPDEST PUSH1 0x0 DUP1 PUSH1 0x0 SWAP1 SLOAD SWAP1 PUSH2 0x100 EXP SWAP1 DIV PUSH20 0xFFFFFFFFFFFFFFFFFFFFFFFFFFFFFFFFFFFFFFFF AND SWAP1 POP SWAP1 JUMP JUMPDEST PUSH2 0xAD3 DUP1 PUSH3 0xBFB DUP4 CODECOPY ADD SWAP1 JUMP JUMPDEST PUSH1 0x0 DUP2 MLOAD SWAP1 POP PUSH3 0x349 DUP2 PUSH3 0x503 JUMP JUMPDEST SWAP3 SWAP2 POP POP JUMP JUMPDEST PUSH1 0x0 PUSH1 0x20 DUP3 DUP5 SUB SLT ISZERO PUSH3 0x368 JUMPI PUSH3 0x367 PUSH3 0x486 JUMP JUMPDEST JUMPDEST PUSH1 0x0 PUSH3 0x378 DUP5 DUP3 DUP6 ADD PUSH3 0x338 JUMP JUMPDEST SWAP2 POP POP SWAP3 SWAP2 POP POP JUMP JUMPDEST PUSH3 0x38C DUP2 PUSH3 0x452 JUMP JUMPDEST DUP3 MSTORE POP POP JUMP JUMPDEST PUSH1 0x0 PUSH3 0x3A1 PUSH1 0x26 DUP4 PUSH3 0x441 JUMP JUMPDEST SWAP2 POP PUSH3 0x3AE DUP3 PUSH3 0x48B JUMP JUMPDEST PUSH1 0x40 DUP3 ADD SWAP1 POP SWAP2 SWAP1 POP JUMP JUMPDEST PUSH1 0x0 PUSH3 0x3C8 PUSH1 0x20 DUP4 PUSH3 0x441 JUMP JUMPDEST SWAP2 POP PUSH3 0x3D5 DUP3 PUSH3 0x4DA JUMP JUMPDEST PUSH1 0x20 DUP3 ADD SWAP1 POP SWAP2 SWAP1 POP JUMP JUMPDEST PUSH1 0x0 PUSH1 0x20 DUP3 ADD SWAP1 POP PUSH3 0x3F7 PUSH1 0x0 DUP4 ADD DUP5 PUSH3 0x381 JUMP JUMPDEST SWAP3 SWAP2 POP POP JUMP JUMPDEST PUSH1 0x0 PUSH1 0x20 DUP3 ADD SWAP1 POP DUP2 DUP2 SUB PUSH1 0x0 DUP4 ADD MSTORE PUSH3 0x418 DUP2 PUSH3 0x392 JUMP JUMPDEST SWAP1 POP SWAP2 SWAP1 POP JUMP JUMPDEST PUSH1 0x0 PUSH1 0x20 DUP3 ADD SWAP1 POP DUP2 DUP2 SUB PUSH1 0x0 DUP4 ADD MSTORE PUSH3 0x43A DUP2 PUSH3 0x3B9 JUMP JUMPDEST SWAP1 POP SWAP2 SWAP1 POP JUMP JUMPDEST PUSH1 0x0 DUP3 DUP3 MSTORE PUSH1 0x20 DUP3 ADD SWAP1 POP SWAP3 SWAP2 POP POP JUMP JUMPDEST PUSH1 0x0 PUSH3 0x45F DUP3 PUSH3 0x466 JUMP JUMPDEST SWAP1 POP SWAP2 SWAP1 POP JUMP JUMPDEST PUSH1 0x0 PUSH20 0xFFFFFFFFFFFFFFFFFFFFFFFFFFFFFFFFFFFFFFFF DUP3 AND SWAP1 POP SWAP2 SWAP1 POP JUMP JUMPDEST PUSH1 0x0 DUP1 REVERT JUMPDEST PUSH32 0x4F776E61626C653A206E6577206F776E657220697320746865207A65726F2061 PUSH1 0x0 DUP3 ADD MSTORE PUSH32 0x6464726573730000000000000000000000000000000000000000000000000000 PUSH1 0x20 DUP3 ADD MSTORE POP JUMP JUMPDEST PUSH32 0x4F776E61626C653A2063616C6C6572206973206E6F7420746865206F776E6572 PUSH1 0x0 DUP3 ADD MSTORE POP JUMP JUMPDEST PUSH3 0x50E DUP2 PUSH3 0x452 JUMP JUMPDEST DUP2 EQ PUSH3 0x51A JUMPI PUSH1 0x0 DUP1 REVERT JUMPDEST POP JUMP JUMPDEST PUSH1 0x80 MLOAD PUSH1 0x60 SHR PUSH2 0x6BF PUSH3 0x53C PUSH1 0x0 CODECOPY PUSH1 0x0 PUSH2 0x158 ADD MSTORE PUSH2 0x6BF PUSH1 0x0 RETURN INVALID PUSH1 0x80 PUSH1 0x40 MSTORE CALLVALUE DUP1 ISZERO PUSH2 0x10 JUMPI PUSH1 0x0 DUP1 REVERT JUMPDEST POP PUSH1 0x4 CALLDATASIZE LT PUSH2 0x57 JUMPI PUSH1 0x0 CALLDATALOAD PUSH1 0xE0 SHR DUP1 PUSH4 0x1C1B8772 EQ PUSH2 0x5C JUMPI DUP1 PUSH4 0x5C60DA1B EQ PUSH2 0x78 JUMPI DUP1 PUSH4 0x715018A6 EQ PUSH2 0x96 JUMPI DUP1 PUSH4 0x8DA5CB5B EQ PUSH2 0xA0 JUMPI DUP1 PUSH4 0xF2FDE38B EQ PUSH2 0xBE JUMPI JUMPDEST PUSH1 0x0 DUP1 REVERT JUMPDEST PUSH2 0x76 PUSH1 0x4 DUP1 CALLDATASIZE SUB DUP2 ADD SWAP1 PUSH2 0x71 SWAP2 SWAP1 PUSH2 0x4D5 JUMP JUMPDEST PUSH2 0xDA JUMP JUMPDEST STOP JUMPDEST PUSH2 0x80 PUSH2 0x225 JUMP JUMPDEST PUSH1 0x40 MLOAD PUSH2 0x8D SWAP2 SWAP1 PUSH2 0x557 JUMP JUMPDEST PUSH1 0x40 MLOAD DUP1 SWAP2 SUB SWAP1 RETURN JUMPDEST PUSH2 0x9E PUSH2 0x24B JUMP JUMPDEST STOP JUMPDEST PUSH2 0xA8 PUSH2 0x2D3 JUMP JUMPDEST PUSH1 0x40 MLOAD PUSH2 0xB5 SWAP2 SWAP1 PUSH2 0x557 JUMP JUMPDEST PUSH1 0x40 MLOAD DUP1 SWAP2 SUB SWAP1 RETURN JUMPDEST PUSH2 0xD8 PUSH1 0x4 DUP1 CALLDATASIZE SUB DUP2 ADD SWAP1 PUSH2 0xD3 SWAP2 SWAP1 PUSH2 0x4D5 JUMP JUMPDEST PUSH2 0x2FC JUMP JUMPDEST STOP JUMPDEST PUSH2 0xE2 PUSH2 0x3F4 JUMP JUMPDEST PUSH20 0xFFFFFFFFFFFFFFFFFFFFFFFFFFFFFFFFFFFFFFFF AND PUSH2 0x100 PUSH2 0x2D3 JUMP JUMPDEST PUSH20 0xFFFFFFFFFFFFFFFFFFFFFFFFFFFFFFFFFFFFFFFF AND EQ PUSH2 0x156 JUMPI PUSH1 0x40 MLOAD PUSH32 0x8C379A000000000000000000000000000000000000000000000000000000000 DUP2 MSTORE PUSH1 0x4 ADD PUSH2 0x14D SWAP1 PUSH2 0x592 JUMP JUMPDEST PUSH1 0x40 MLOAD DUP1 SWAP2 SUB SWAP1 REVERT JUMPDEST PUSH32 0x0 PUSH20 0xFFFFFFFFFFFFFFFFFFFFFFFFFFFFFFFFFFFFFFFF AND PUSH4 0x3659CFE6 DUP3 PUSH1 0x40 MLOAD DUP3 PUSH4 0xFFFFFFFF AND PUSH1 0xE0 SHL DUP2 MSTORE PUSH1 0x4 ADD PUSH2 0x1AF SWAP2 SWAP1 PUSH2 0x557 JUMP JUMPDEST PUSH1 0x0 PUSH1 0x40 MLOAD DUP1 DUP4 SUB DUP2 PUSH1 0x0 DUP8 DUP1 EXTCODESIZE ISZERO DUP1 ISZERO PUSH2 0x1C9 JUMPI PUSH1 0x0 DUP1 REVERT JUMPDEST POP GAS CALL ISZERO DUP1 ISZERO PUSH2 0x1DD JUMPI RETURNDATASIZE PUSH1 0x0 DUP1 RETURNDATACOPY RETURNDATASIZE PUSH1 0x0 REVERT JUMPDEST POP POP POP POP DUP1 PUSH1 0x1 PUSH1 0x0 PUSH2 0x100 EXP DUP2 SLOAD DUP2 PUSH20 0xFFFFFFFFFFFFFFFFFFFFFFFFFFFFFFFFFFFFFFFF MUL NOT AND SWAP1 DUP4 PUSH20 0xFFFFFFFFFFFFFFFFFFFFFFFFFFFFFFFFFFFFFFFF AND MUL OR SWAP1 SSTORE POP POP JUMP JUMPDEST PUSH1 0x1 PUSH1 0x0 SWAP1 SLOAD SWAP1 PUSH2 0x100 EXP SWAP1 DIV PUSH20 0xFFFFFFFFFFFFFFFFFFFFFFFFFFFFFFFFFFFFFFFF AND DUP2 JUMP JUMPDEST PUSH2 0x253 PUSH2 0x3F4 JUMP JUMPDEST PUSH20 0xFFFFFFFFFFFFFFFFFFFFFFFFFFFFFFFFFFFFFFFF AND PUSH2 0x271 PUSH2 0x2D3 JUMP JUMPDEST PUSH20 0xFFFFFFFFFFFFFFFFFFFFFFFFFFFFFFFFFFFFFFFF AND EQ PUSH2 0x2C7 JUMPI PUSH1 0x40 MLOAD PUSH32 0x8C379A000000000000000000000000000000000000000000000000000000000 DUP2 MSTORE PUSH1 0x4 ADD PUSH2 0x2BE SWAP1 PUSH2 0x592 JUMP JUMPDEST PUSH1 0x40 MLOAD DUP1 SWAP2 SUB SWAP1 REVERT JUMPDEST PUSH2 0x2D1 PUSH1 0x0 PUSH2 0x3FC JUMP JUMPDEST JUMP JUMPDEST PUSH1 0x0 DUP1 PUSH1 0x0 SWAP1 SLOAD SWAP1 PUSH2 0x100 EXP SWAP1 DIV PUSH20 0xFFFFFFFFFFFFFFFFFFFFFFFFFFFFFFFFFFFFFFFF AND SWAP1 POP SWAP1 JUMP JUMPDEST PUSH2 0x304 PUSH2 0x3F4 JUMP JUMPDEST PUSH20 0xFFFFFFFFFFFFFFFFFFFFFFFFFFFFFFFFFFFFFFFF AND PUSH2 0x322 PUSH2 0x2D3 JUMP JUMPDEST PUSH20 0xFFFFFFFFFFFFFFFFFFFFFFFFFFFFFFFFFFFFFFFF AND EQ PUSH2 0x378 JUMPI PUSH1 0x40 MLOAD PUSH32 0x8C379A000000000000000000000000000000000000000000000000000000000 DUP2 MSTORE PUSH1 0x4 ADD PUSH2 0x36F SWAP1 PUSH2 0x592 JUMP JUMPDEST PUSH1 0x40 MLOAD DUP1 SWAP2 SUB SWAP1 REVERT JUMPDEST PUSH1 0x0 PUSH20 0xFFFFFFFFFFFFFFFFFFFFFFFFFFFFFFFFFFFFFFFF AND DUP2 PUSH20 0xFFFFFFFFFFFFFFFFFFFFFFFFFFFFFFFFFFFFFFFF AND EQ ISZERO PUSH2 0x3E8 JUMPI PUSH1 0x40 MLOAD PUSH32 0x8C379A000000000000000000000000000000000000000000000000000000000 DUP2 MSTORE PUSH1 0x4 ADD PUSH2 0x3DF SWAP1 PUSH2 0x572 JUMP JUMPDEST PUSH1 0x40 MLOAD DUP1 SWAP2 SUB SWAP1 REVERT JUMPDEST PUSH2 0x3F1 DUP2 PUSH2 0x3FC JUMP JUMPDEST POP JUMP JUMPDEST PUSH1 0x0 CALLER SWAP1 POP SWAP1 JUMP JUMPDEST PUSH1 0x0 DUP1 PUSH1 0x0 SWAP1 SLOAD SWAP1 PUSH2 0x100 EXP SWAP1 DIV PUSH20 0xFFFFFFFFFFFFFFFFFFFFFFFFFFFFFFFFFFFFFFFF AND SWAP1 POP DUP2 PUSH1 0x0 DUP1 PUSH2 0x100 EXP DUP2 SLOAD DUP2 PUSH20 0xFFFFFFFFFFFFFFFFFFFFFFFFFFFFFFFFFFFFFFFF MUL NOT AND SWAP1 DUP4 PUSH20 0xFFFFFFFFFFFFFFFFFFFFFFFFFFFFFFFFFFFFFFFF AND MUL OR SWAP1 SSTORE POP DUP2 PUSH20 0xFFFFFFFFFFFFFFFFFFFFFFFFFFFFFFFFFFFFFFFF AND DUP2 PUSH20 0xFFFFFFFFFFFFFFFFFFFFFFFFFFFFFFFFFFFFFFFF AND PUSH32 0x8BE0079C531659141344CD1FD0A4F28419497F9722A3DAAFE3B4186F6B6457E0 PUSH1 0x40 MLOAD PUSH1 0x40 MLOAD DUP1 SWAP2 SUB SWAP1 LOG3 POP POP JUMP JUMPDEST PUSH1 0x0 DUP2 CALLDATALOAD SWAP1 POP PUSH2 0x4CF DUP2 PUSH2 0x672 JUMP JUMPDEST SWAP3 SWAP2 POP POP JUMP JUMPDEST PUSH1 0x0 PUSH1 0x20 DUP3 DUP5 SUB SLT ISZERO PUSH2 0x4EB JUMPI PUSH2 0x4EA PUSH2 0x5F5 JUMP JUMPDEST JUMPDEST PUSH1 0x0 PUSH2 0x4F9 DUP5 DUP3 DUP6 ADD PUSH2 0x4C0 JUMP JUMPDEST SWAP2 POP POP SWAP3 SWAP2 POP POP JUMP JUMPDEST PUSH2 0x50B DUP2 PUSH2 0x5C3 JUMP JUMPDEST DUP3 MSTORE POP POP JUMP JUMPDEST PUSH1 0x0 PUSH2 0x51E PUSH1 0x26 DUP4 PUSH2 0x5B2 JUMP JUMPDEST SWAP2 POP PUSH2 0x529 DUP3 PUSH2 0x5FA JUMP JUMPDEST PUSH1 0x40 DUP3 ADD SWAP1 POP SWAP2 SWAP1 POP JUMP JUMPDEST PUSH1 0x0 PUSH2 0x541 PUSH1 0x20 DUP4 PUSH2 0x5B2 JUMP JUMPDEST SWAP2 POP PUSH2 0x54C DUP3 PUSH2 0x649 JUMP JUMPDEST PUSH1 0x20 DUP3 ADD SWAP1 POP SWAP2 SWAP1 POP JUMP JUMPDEST PUSH1 0x0 PUSH1 0x20 DUP3 ADD SWAP1 POP PUSH2 0x56C PUSH1 0x0 DUP4 ADD DUP5 PUSH2 0x502 JUMP JUMPDEST SWAP3 SWAP2 POP POP JUMP JUMPDEST PUSH1 0x0 PUSH1 0x20 DUP3 ADD SWAP1 POP DUP2 DUP2 SUB PUSH1 0x0 DUP4 ADD MSTORE PUSH2 0x58B DUP2 PUSH2 0x511 JUMP JUMPDEST SWAP1 POP SWAP2 SWAP1 POP JUMP JUMPDEST PUSH1 0x0 PUSH1 0x20 DUP3 ADD SWAP1 POP DUP2 DUP2 SUB PUSH1 0x0 DUP4 ADD MSTORE PUSH2 0x5AB DUP2 PUSH2 0x534 JUMP JUMPDEST SWAP1 POP SWAP2 SWAP1 POP JUMP JUMPDEST PUSH1 0x0 DUP3 DUP3 MSTORE PUSH1 0x20 DUP3 ADD SWAP1 POP SWAP3 SWAP2 POP POP JUMP JUMPDEST PUSH1 0x0 PUSH2 0x5CE DUP3 PUSH2 0x5D5 JUMP JUMPDEST SWAP1 POP SWAP2 SWAP1 POP JUMP JUMPDEST PUSH1 0x0 PUSH20 0xFFFFFFFFFFFFFFFFFFFFFFFFFFFFFFFFFFFFFFFF DUP3 AND SWAP1 POP SWAP2 SWAP1 POP JUMP JUMPDEST PUSH1 0x0 DUP1 REVERT JUMPDEST PUSH32 0x4F776E61626C653A206E6577206F776E657220697320746865207A65726F2061 PUSH1 0x0 DUP3 ADD MSTORE PUSH32 0x6464726573730000000000000000000000000000000000000000000000000000 PUSH1 0x20 DUP3 ADD MSTORE POP JUMP JUMPDEST PUSH32 0x4F776E61626C653A2063616C6C6572206973206E6F7420746865206F776E6572 PUSH1 0x0 DUP3 ADD MSTORE POP JUMP JUMPDEST PUSH2 0x67B DUP2 PUSH2 0x5C3 JUMP JUMPDEST DUP2 EQ PUSH2 0x686 JUMPI PUSH1 0x0 DUP1 REVERT JUMPDEST POP JUMP INVALID LOG2 PUSH5 0x6970667358 0x22 SLT KECCAK256 0xE3 0x5E 0xF8 0xBF 0x28 EQ OR SIGNEXTEND PUSH30 0x5B6C17BE082182363967022DC313F408F641233075E75D64736F6C634300 ADDMOD SDIV STOP CALLER PUSH1 0x80 PUSH1 0x40 MSTORE CALLVALUE DUP1 ISZERO PUSH3 0x11 JUMPI PUSH1 0x0 DUP1 REVERT JUMPDEST POP PUSH1 0x40 MLOAD PUSH3 0xAD3 CODESIZE SUB DUP1 PUSH3 0xAD3 DUP4 CODECOPY DUP2 DUP2 ADD PUSH1 0x40 MSTORE DUP2 ADD SWAP1 PUSH3 0x37 SWAP2 SWAP1 PUSH3 0x211 JUMP JUMPDEST PUSH3 0x57 PUSH3 0x4B PUSH3 0x6F PUSH1 0x20 SHL PUSH1 0x20 SHR JUMP JUMPDEST PUSH3 0x77 PUSH1 0x20 SHL PUSH1 0x20 SHR JUMP JUMPDEST PUSH3 0x68 DUP2 PUSH3 0x13B PUSH1 0x20 SHL PUSH1 0x20 SHR JUMP JUMPDEST POP PUSH3 0x33F JUMP JUMPDEST PUSH1 0x0 CALLER SWAP1 POP SWAP1 JUMP JUMPDEST PUSH1 0x0 DUP1 PUSH1 0x0 SWAP1 SLOAD SWAP1 PUSH2 0x100 EXP SWAP1 DIV PUSH20 0xFFFFFFFFFFFFFFFFFFFFFFFFFFFFFFFFFFFFFFFF AND SWAP1 POP DUP2 PUSH1 0x0 DUP1 PUSH2 0x100 EXP DUP2 SLOAD DUP2 PUSH20 0xFFFFFFFFFFFFFFFFFFFFFFFFFFFFFFFFFFFFFFFF MUL NOT AND SWAP1 DUP4 PUSH20 0xFFFFFFFFFFFFFFFFFFFFFFFFFFFFFFFFFFFFFFFF AND MUL OR SWAP1 SSTORE POP DUP2 PUSH20 0xFFFFFFFFFFFFFFFFFFFFFFFFFFFFFFFFFFFFFFFF AND DUP2 PUSH20 0xFFFFFFFFFFFFFFFFFFFFFFFFFFFFFFFFFFFFFFFF AND PUSH32 0x8BE0079C531659141344CD1FD0A4F28419497F9722A3DAAFE3B4186F6B6457E0 PUSH1 0x40 MLOAD PUSH1 0x40 MLOAD DUP1 SWAP2 SUB SWAP1 LOG3 POP POP JUMP JUMPDEST PUSH3 0x151 DUP2 PUSH3 0x1D7 PUSH1 0x20 SHL PUSH3 0x378 OR PUSH1 0x20 SHR JUMP JUMPDEST PUSH3 0x193 JUMPI PUSH1 0x40 MLOAD PUSH32 0x8C379A000000000000000000000000000000000000000000000000000000000 DUP2 MSTORE PUSH1 0x4 ADD PUSH3 0x18A SWAP1 PUSH3 0x26A JUMP JUMPDEST PUSH1 0x40 MLOAD DUP1 SWAP2 SUB SWAP1 REVERT JUMPDEST DUP1 PUSH1 0x1 PUSH1 0x0 PUSH2 0x100 EXP DUP2 SLOAD DUP2 PUSH20 0xFFFFFFFFFFFFFFFFFFFFFFFFFFFFFFFFFFFFFFFF MUL NOT AND SWAP1 DUP4 PUSH20 0xFFFFFFFFFFFFFFFFFFFFFFFFFFFFFFFFFFFFFFFF AND MUL OR SWAP1 SSTORE POP POP JUMP JUMPDEST PUSH1 0x0 DUP1 DUP3 PUSH20 0xFFFFFFFFFFFFFFFFFFFFFFFFFFFFFFFFFFFFFFFF AND EXTCODESIZE GT SWAP1 POP SWAP2 SWAP1 POP JUMP JUMPDEST PUSH1 0x0 DUP2 MLOAD SWAP1 POP PUSH3 0x20B DUP2 PUSH3 0x325 JUMP JUMPDEST SWAP3 SWAP2 POP POP JUMP JUMPDEST PUSH1 0x0 PUSH1 0x20 DUP3 DUP5 SUB SLT ISZERO PUSH3 0x22A JUMPI PUSH3 0x229 PUSH3 0x2D1 JUMP JUMPDEST JUMPDEST PUSH1 0x0 PUSH3 0x23A DUP5 DUP3 DUP6 ADD PUSH3 0x1FA JUMP JUMPDEST SWAP2 POP POP SWAP3 SWAP2 POP POP JUMP JUMPDEST PUSH1 0x0 PUSH3 0x252 PUSH1 0x33 DUP4 PUSH3 0x28C JUMP JUMPDEST SWAP2 POP PUSH3 0x25F DUP3 PUSH3 0x2D6 JUMP JUMPDEST PUSH1 0x40 DUP3 ADD SWAP1 POP SWAP2 SWAP1 POP JUMP JUMPDEST PUSH1 0x0 PUSH1 0x20 DUP3 ADD SWAP1 POP DUP2 DUP2 SUB PUSH1 0x0 DUP4 ADD MSTORE PUSH3 0x285 DUP2 PUSH3 0x243 JUMP JUMPDEST SWAP1 POP SWAP2 SWAP1 POP JUMP JUMPDEST PUSH1 0x0 DUP3 DUP3 MSTORE PUSH1 0x20 DUP3 ADD SWAP1 POP SWAP3 SWAP2 POP POP JUMP JUMPDEST PUSH1 0x0 PUSH3 0x2AA DUP3 PUSH3 0x2B1 JUMP JUMPDEST SWAP1 POP SWAP2 SWAP1 POP JUMP JUMPDEST PUSH1 0x0 PUSH20 0xFFFFFFFFFFFFFFFFFFFFFFFFFFFFFFFFFFFFFFFF DUP3 AND SWAP1 POP SWAP2 SWAP1 POP JUMP JUMPDEST PUSH1 0x0 DUP1 REVERT JUMPDEST PUSH32 0x5570677261646561626C65426561636F6E3A20696D706C656D656E746174696F PUSH1 0x0 DUP3 ADD MSTORE PUSH32 0x6E206973206E6F74206120636F6E747261637400000000000000000000000000 PUSH1 0x20 DUP3 ADD MSTORE POP JUMP JUMPDEST PUSH3 0x330 DUP2 PUSH3 0x29D JUMP JUMPDEST DUP2 EQ PUSH3 0x33C JUMPI PUSH1 0x0 DUP1 REVERT JUMPDEST POP JUMP JUMPDEST PUSH2 0x784 DUP1 PUSH3 0x34F PUSH1 0x0 CODECOPY PUSH1 0x0 RETURN INVALID PUSH1 0x80 PUSH1 0x40 MSTORE CALLVALUE DUP1 ISZERO PUSH2 0x10 JUMPI PUSH1 0x0 DUP1 REVERT JUMPDEST POP PUSH1 0x4 CALLDATASIZE LT PUSH2 0x57 JUMPI PUSH1 0x0 CALLDATALOAD PUSH1 0xE0 SHR DUP1 PUSH4 0x3659CFE6 EQ PUSH2 0x5C JUMPI DUP1 PUSH4 0x5C60DA1B EQ PUSH2 0x78 JUMPI DUP1 PUSH4 0x715018A6 EQ PUSH2 0x96 JUMPI DUP1 PUSH4 0x8DA5CB5B EQ PUSH2 0xA0 JUMPI DUP1 PUSH4 0xF2FDE38B EQ PUSH2 0xBE JUMPI JUMPDEST PUSH1 0x0 DUP1 REVERT JUMPDEST PUSH2 0x76 PUSH1 0x4 DUP1 CALLDATASIZE SUB DUP2 ADD SWAP1 PUSH2 0x71 SWAP2 SWAP1 PUSH2 0x508 JUMP JUMPDEST PUSH2 0xDA JUMP JUMPDEST STOP JUMPDEST PUSH2 0x80 PUSH2 0x1A5 JUMP JUMPDEST PUSH1 0x40 MLOAD PUSH2 0x8D SWAP2 SWAP1 PUSH2 0x5AD JUMP JUMPDEST PUSH1 0x40 MLOAD DUP1 SWAP2 SUB SWAP1 RETURN JUMPDEST PUSH2 0x9E PUSH2 0x1CF JUMP JUMPDEST STOP JUMPDEST PUSH2 0xA8 PUSH2 0x257 JUMP JUMPDEST PUSH1 0x40 MLOAD PUSH2 0xB5 SWAP2 SWAP1 PUSH2 0x5AD JUMP JUMPDEST PUSH1 0x40 MLOAD DUP1 SWAP2 SUB SWAP1 RETURN JUMPDEST PUSH2 0xD8 PUSH1 0x4 DUP1 CALLDATASIZE SUB DUP2 ADD SWAP1 PUSH2 0xD3 SWAP2 SWAP1 PUSH2 0x508 JUMP JUMPDEST PUSH2 0x280 JUMP JUMPDEST STOP JUMPDEST PUSH2 0xE2 PUSH2 0x39B JUMP JUMPDEST PUSH20 0xFFFFFFFFFFFFFFFFFFFFFFFFFFFFFFFFFFFFFFFF AND PUSH2 0x100 PUSH2 0x257 JUMP JUMPDEST PUSH20 0xFFFFFFFFFFFFFFFFFFFFFFFFFFFFFFFFFFFFFFFF AND EQ PUSH2 0x156 JUMPI PUSH1 0x40 MLOAD PUSH32 0x8C379A000000000000000000000000000000000000000000000000000000000 DUP2 MSTORE PUSH1 0x4 ADD PUSH2 0x14D SWAP1 PUSH2 0x608 JUMP JUMPDEST PUSH1 0x40 MLOAD DUP1 SWAP2 SUB SWAP1 REVERT JUMPDEST PUSH2 0x15F DUP2 PUSH2 0x3A3 JUMP JUMPDEST DUP1 PUSH20 0xFFFFFFFFFFFFFFFFFFFFFFFFFFFFFFFFFFFFFFFF AND PUSH32 0xBC7CD75A20EE27FD9ADEBAB32041F755214DBC6BFFA90CC0225B39DA2E5C2D3B PUSH1 0x40 MLOAD PUSH1 0x40 MLOAD DUP1 SWAP2 SUB SWAP1 LOG2 POP JUMP JUMPDEST PUSH1 0x0 PUSH1 0x1 PUSH1 0x0 SWAP1 SLOAD SWAP1 PUSH2 0x100 EXP SWAP1 DIV PUSH20 0xFFFFFFFFFFFFFFFFFFFFFFFFFFFFFFFFFFFFFFFF AND SWAP1 POP SWAP1 JUMP JUMPDEST PUSH2 0x1D7 PUSH2 0x39B JUMP JUMPDEST PUSH20 0xFFFFFFFFFFFFFFFFFFFFFFFFFFFFFFFFFFFFFFFF AND PUSH2 0x1F5 PUSH2 0x257 JUMP JUMPDEST PUSH20 0xFFFFFFFFFFFFFFFFFFFFFFFFFFFFFFFFFFFFFFFF AND EQ PUSH2 0x24B JUMPI PUSH1 0x40 MLOAD PUSH32 0x8C379A000000000000000000000000000000000000000000000000000000000 DUP2 MSTORE PUSH1 0x4 ADD PUSH2 0x242 SWAP1 PUSH2 0x608 JUMP JUMPDEST PUSH1 0x40 MLOAD DUP1 SWAP2 SUB SWAP1 REVERT JUMPDEST PUSH2 0x255 PUSH1 0x0 PUSH2 0x42F JUMP JUMPDEST JUMP JUMPDEST PUSH1 0x0 DUP1 PUSH1 0x0 SWAP1 SLOAD SWAP1 PUSH2 0x100 EXP SWAP1 DIV PUSH20 0xFFFFFFFFFFFFFFFFFFFFFFFFFFFFFFFFFFFFFFFF AND SWAP1 POP SWAP1 JUMP JUMPDEST PUSH2 0x288 PUSH2 0x39B JUMP JUMPDEST PUSH20 0xFFFFFFFFFFFFFFFFFFFFFFFFFFFFFFFFFFFFFFFF AND PUSH2 0x2A6 PUSH2 0x257 JUMP JUMPDEST PUSH20 0xFFFFFFFFFFFFFFFFFFFFFFFFFFFFFFFFFFFFFFFF AND EQ PUSH2 0x2FC JUMPI PUSH1 0x40 MLOAD PUSH32 0x8C379A000000000000000000000000000000000000000000000000000000000 DUP2 MSTORE PUSH1 0x4 ADD PUSH2 0x2F3 SWAP1 PUSH2 0x608 JUMP JUMPDEST PUSH1 0x40 MLOAD DUP1 SWAP2 SUB SWAP1 REVERT JUMPDEST PUSH1 0x0 PUSH20 0xFFFFFFFFFFFFFFFFFFFFFFFFFFFFFFFFFFFFFFFF AND DUP2 PUSH20 0xFFFFFFFFFFFFFFFFFFFFFFFFFFFFFFFFFFFFFFFF AND EQ ISZERO PUSH2 0x36C JUMPI PUSH1 0x40 MLOAD PUSH32 0x8C379A000000000000000000000000000000000000000000000000000000000 DUP2 MSTORE PUSH1 0x4 ADD PUSH2 0x363 SWAP1 PUSH2 0x5C8 JUMP JUMPDEST PUSH1 0x40 MLOAD DUP1 SWAP2 SUB SWAP1 REVERT JUMPDEST PUSH2 0x375 DUP2 PUSH2 0x42F JUMP JUMPDEST POP JUMP JUMPDEST PUSH1 0x0 DUP1 DUP3 PUSH20 0xFFFFFFFFFFFFFFFFFFFFFFFFFFFFFFFFFFFFFFFF AND EXTCODESIZE GT SWAP1 POP SWAP2 SWAP1 POP JUMP JUMPDEST PUSH1 0x0 CALLER SWAP1 POP SWAP1 JUMP JUMPDEST PUSH2 0x3AC DUP2 PUSH2 0x378 JUMP JUMPDEST PUSH2 0x3EB JUMPI PUSH1 0x40 MLOAD PUSH32 0x8C379A000000000000000000000000000000000000000000000000000000000 DUP2 MSTORE PUSH1 0x4 ADD PUSH2 0x3E2 SWAP1 PUSH2 0x5E8 JUMP JUMPDEST PUSH1 0x40 MLOAD DUP1 SWAP2 SUB SWAP1 REVERT JUMPDEST DUP1 PUSH1 0x1 PUSH1 0x0 PUSH2 0x100 EXP DUP2 SLOAD DUP2 PUSH20 0xFFFFFFFFFFFFFFFFFFFFFFFFFFFFFFFFFFFFFFFF MUL NOT AND SWAP1 DUP4 PUSH20 0xFFFFFFFFFFFFFFFFFFFFFFFFFFFFFFFFFFFFFFFF AND MUL OR SWAP1 SSTORE POP POP JUMP JUMPDEST PUSH1 0x0 DUP1 PUSH1 0x0 SWAP1 SLOAD SWAP1 PUSH2 0x100 EXP SWAP1 DIV PUSH20 0xFFFFFFFFFFFFFFFFFFFFFFFFFFFFFFFFFFFFFFFF AND SWAP1 POP DUP2 PUSH1 0x0 DUP1 PUSH2 0x100 EXP DUP2 SLOAD DUP2 PUSH20 0xFFFFFFFFFFFFFFFFFFFFFFFFFFFFFFFFFFFFFFFF MUL NOT AND SWAP1 DUP4 PUSH20 0xFFFFFFFFFFFFFFFFFFFFFFFFFFFFFFFFFFFFFFFF AND MUL OR SWAP1 SSTORE POP DUP2 PUSH20 0xFFFFFFFFFFFFFFFFFFFFFFFFFFFFFFFFFFFFFFFF AND DUP2 PUSH20 0xFFFFFFFFFFFFFFFFFFFFFFFFFFFFFFFFFFFFFFFF AND PUSH32 0x8BE0079C531659141344CD1FD0A4F28419497F9722A3DAAFE3B4186F6B6457E0 PUSH1 0x40 MLOAD PUSH1 0x40 MLOAD DUP1 SWAP2 SUB SWAP1 LOG3 POP POP JUMP JUMPDEST PUSH1 0x0 DUP2 CALLDATALOAD SWAP1 POP PUSH2 0x502 DUP2 PUSH2 0x737 JUMP JUMPDEST SWAP3 SWAP2 POP POP JUMP JUMPDEST PUSH1 0x0 PUSH1 0x20 DUP3 DUP5 SUB SLT ISZERO PUSH2 0x51E JUMPI PUSH2 0x51D PUSH2 0x66B JUMP JUMPDEST JUMPDEST PUSH1 0x0 PUSH2 0x52C DUP5 DUP3 DUP6 ADD PUSH2 0x4F3 JUMP JUMPDEST SWAP2 POP POP SWAP3 SWAP2 POP POP JUMP JUMPDEST PUSH2 0x53E DUP2 PUSH2 0x639 JUMP JUMPDEST DUP3 MSTORE POP POP JUMP JUMPDEST PUSH1 0x0 PUSH2 0x551 PUSH1 0x26 DUP4 PUSH2 0x628 JUMP JUMPDEST SWAP2 POP PUSH2 0x55C DUP3 PUSH2 0x670 JUMP JUMPDEST PUSH1 0x40 DUP3 ADD SWAP1 POP SWAP2 SWAP1 POP JUMP JUMPDEST PUSH1 0x0 PUSH2 0x574 PUSH1 0x33 DUP4 PUSH2 0x628 JUMP JUMPDEST SWAP2 POP PUSH2 0x57F DUP3 PUSH2 0x6BF JUMP JUMPDEST PUSH1 0x40 DUP3 ADD SWAP1 POP SWAP2 SWAP1 POP JUMP JUMPDEST PUSH1 0x0 PUSH2 0x597 PUSH1 0x20 DUP4 PUSH2 0x628 JUMP JUMPDEST SWAP2 POP PUSH2 0x5A2 DUP3 PUSH2 0x70E JUMP JUMPDEST PUSH1 0x20 DUP3 ADD SWAP1 POP SWAP2 SWAP1 POP JUMP JUMPDEST PUSH1 0x0 PUSH1 0x20 DUP3 ADD SWAP1 POP PUSH2 0x5C2 PUSH1 0x0 DUP4 ADD DUP5 PUSH2 0x535 JUMP JUMPDEST SWAP3 SWAP2 POP POP JUMP JUMPDEST PUSH1 0x0 PUSH1 0x20 DUP3 ADD SWAP1 POP DUP2 DUP2 SUB PUSH1 0x0 DUP4 ADD MSTORE PUSH2 0x5E1 DUP2 PUSH2 0x544 JUMP JUMPDEST SWAP1 POP SWAP2 SWAP1 POP JUMP JUMPDEST PUSH1 0x0 PUSH1 0x20 DUP3 ADD SWAP1 POP DUP2 DUP2 SUB PUSH1 0x0 DUP4 ADD MSTORE PUSH2 0x601 DUP2 PUSH2 0x567 JUMP JUMPDEST SWAP1 POP SWAP2 SWAP1 POP JUMP JUMPDEST PUSH1 0x0 PUSH1 0x20 DUP3 ADD SWAP1 POP DUP2 DUP2 SUB PUSH1 0x0 DUP4 ADD MSTORE PUSH2 0x621 DUP2 PUSH2 0x58A JUMP JUMPDEST SWAP1 POP SWAP2 SWAP1 POP JUMP JUMPDEST PUSH1 0x0 DUP3 DUP3 MSTORE PUSH1 0x20 DUP3 ADD SWAP1 POP SWAP3 SWAP2 POP POP JUMP JUMPDEST PUSH1 0x0 PUSH2 0x644 DUP3 PUSH2 0x64B JUMP JUMPDEST SWAP1 POP SWAP2 SWAP1 POP JUMP JUMPDEST PUSH1 0x0 PUSH20 0xFFFFFFFFFFFFFFFFFFFFFFFFFFFFFFFFFFFFFFFF DUP3 AND SWAP1 POP SWAP2 SWAP1 POP JUMP JUMPDEST PUSH1 0x0 DUP1 REVERT JUMPDEST PUSH32 0x4F776E61626C653A206E6577206F776E657220697320746865207A65726F2061 PUSH1 0x0 DUP3 ADD MSTORE PUSH32 0x6464726573730000000000000000000000000000000000000000000000000000 PUSH1 0x20 DUP3 ADD MSTORE POP JUMP JUMPDEST PUSH32 0x5570677261646561626C65426561636F6E3A20696D706C656D656E746174696F PUSH1 0x0 DUP3 ADD MSTORE PUSH32 0x6E206973206E6F74206120636F6E747261637400000000000000000000000000 PUSH1 0x20 DUP3 ADD MSTORE POP JUMP JUMPDEST PUSH32 0x4F776E61626C653A2063616C6C6572206973206E6F7420746865206F776E6572 PUSH1 0x0 DUP3 ADD MSTORE POP JUMP JUMPDEST PUSH2 0x740 DUP2 PUSH2 0x639 JUMP JUMPDEST DUP2 EQ PUSH2 0x74B JUMPI PUSH1 0x0 DUP1 REVERT JUMPDEST POP JUMP INVALID LOG2 PUSH5 0x6970667358 0x22 SLT KECCAK256 CHAINID PUSH31 0x90D3F878A8F1241648BB76D45B96E786720DF04532EEA33FABBDF9BAF7E964 PUSH20 0x6F6C634300080500330000000000000000000000 "
				},
				"gasEstimates": {
					"creation": {
						"codeDepositCost": "345400",
						"executionCost": "infinite",
						"totalCost": "infinite"
					},
					"external": {
						"implementation()": "2514",
						"owner()": "2566",
						"renounceOwnership()": "30396",
						"transferOwnership(address)": "30789",
						"update(address)": "infinite"
					}
				},
				"methodIdentifiers": {
					"implementation()": "5c60da1b",
					"owner()": "8da5cb5b",
					"renounceOwnership()": "715018a6",
					"transferOwnership(address)": "f2fde38b",
					"update(address)": "1c1b8772"
				}
			},
			"userdoc": {
				"kind": "user",
				"methods": {},
				"version": 1
			}
		}
	}
}