{
	"data": {
		"bytecode": {
			"linkReferences": {},
			"object": "6080604052600180556002805560026003556801158e460913d0000060065563240c84006009553480156200003357600080fd5b506000805460ff19169055620000493362000059565b62000053620000b2565b620001bf565b600080546001600160a01b03838116610100818102610100600160a81b0319851617855560405193049190911692909183917f8be0079c531659141344cd1fd0a4f28419497f9722a3daafe3b4186f6b6457e091a35050565b6000546001600160a01b03610100909104163314620001185760405162461bcd60e51b815260206004820181905260248201527f4f776e61626c653a2063616c6c6572206973206e6f7420746865206f776e657260448201526064015b60405180910390fd5b6200012262000124565b565b60005460ff16156200016c5760405162461bcd60e51b815260206004820152601060248201526f14185d5cd8589b194e881c185d5cd95960821b60448201526064016200010f565b6000805460ff191660011790557f62e78cea01bee320cd4e420270b5ea74000d11b0c9f74754ebdbfc544b05a258620001a23390565b6040516001600160a01b03909116815260200160405180910390a1565b61416c80620001cf6000396000f3fe6080604052600436106101815760003560e01c80637dc0cb2b116100d1578063c0f4ed311161008a578063d979f5aa11610064578063d979f5aa1461041b578063ddca3f431461043b578063eece7f2514610450578063f2fde38b1461047057600080fd5b8063c0f4ed31146103bb578063c2fffd6b146103db578063c843e81c146103fb57600080fd5b80637dc0cb2b146103155780638456cb59146103285780638da5cb5b1461033d5780638dcfe4d714610373578063b086613c14610386578063bff098b41461039b57600080fd5b80635c975abb1161013e5780636d3c7ec5116101185780636d3c7ec514610288578063715018a6146102a85780637a777d2c146102bd5780637adbf973146102f557600080fd5b80635c975abb1461023d57806369fe0e2d146102555780636d2070b71461027557600080fd5b80630d763e901461018657806314025dcd146101ae5780633abecc49146101d15780633f4ba83a146101e657806340b43701146101fd578063535565591461022a575b600080fd5b610199610194366004613826565b610490565b60405190151581526020015b60405180910390f35b3480156101ba57600080fd5b506101c361074b565b6040519081526020016101a5565b3480156101dd57600080fd5b506101c36107e2565b3480156101f257600080fd5b506101fb61083c565b005b34801561020957600080fd5b5061021d610218366004613826565b610876565b6040516101a591906138cd565b610199610238366004613826565b6109ec565b34801561024957600080fd5b5060005460ff16610199565b34801561026157600080fd5b50610199610270366004613826565b610ece565b610199610283366004613a54565b610f3d565b34801561029457600080fd5b506101996102a3366004613826565b6113a8565b3480156102b457600080fd5b506101fb6113e2565b3480156102c957600080fd5b506102dd6102d8366004613826565b61141c565b6040516101a59c9b9a99989796959493929190613ad3565b34801561030157600080fd5b50610199610310366004613b63565b611547565b6101fb610323366004613b80565b6115c7565b34801561033457600080fd5b506101fb611db7565b34801561034957600080fd5b5060005461010090046001600160a01b03166040516001600160a01b0390911681526020016101a5565b610199610381366004613bbe565b611def565b34801561039257600080fd5b506006546101c3565b3480156103a757600080fd5b506101996103b6366004613826565b6120d1565b3480156103c757600080fd5b506101fb6103d6366004613c11565b612142565b3480156103e757600080fd5b506101996103f6366004613826565b61252e565b34801561040757600080fd5b506101fb610416366004613c49565b61259e565b34801561042757600080fd5b50610199610436366004613b63565b6126a1565b34801561044757600080fd5b506101c3612721565b34801561045c57600080fd5b5061019961046b366004613826565b61277b565b34801561047c57600080fd5b506101fb61048b366004613b63565b612818565b6000805460ff16156104bd5760405162461bcd60e51b81526004016104b490613cc9565b60405180910390fd5b6007546000906001600160a01b031662fdd58e336040516001600160e01b031960e084901b1681526001600160a01b03909116600482015260248101869052604401602060405180830381865afa15801561051c573d6000803e3d6000fd5b505050506040513d601f19601f820116820180604052508101906105409190613cf3565b1161055d5760405162461bcd60e51b81526004016104b490613d0c565b6007546001600160a01b031663e985e9c533306040518363ffffffff1660e01b815260040161058d929190613d4d565b602060405180830381865afa1580156105aa573d6000803e3d6000fd5b505050506040513d601f19601f820116820180604052508101906105ce9190613d67565b15156001146105ef5760405162461bcd60e51b81526004016104b490613d84565b6105f761074b565b3410156106575760405162461bcd60e51b815260206004820152602860248201527f596f7520646f6e742068617665207375666963656e742062616c616e636520746044820152671bc818d85b98d95b60c21b60648201526084016104b4565b61065f6128b9565b506000828152600860208190526040822080546001600160a01b031916815560018101839055600281018390556003810183905560048101805462ffffff191690556005810183905560068101839055600781018390559081018290559060098201816106cc828261371e565b6106da60018301600061371e565b505050507f190146be942edf9abeda33af30e9bb9c74d3002860e3c57e74cfd8277226f06e6107063390565b604080516001600160a01b0390921682526020820185905242908201526000606082018190526080820181905260a082015260c00160405180910390a1506001919050565b60006002546064600560009054906101000a90046001600160a01b03166001600160a01b031663c338287f6040518163ffffffff1660e01b8152600401602060405180830381865afa1580156107a5573d6000803e3d6000fd5b505050506040513d601f19601f820116820180604052508101906107c99190613cf3565b6107d39190613dde565b6107dd9190613e00565b905090565b60006003546064600560009054906101000a90046001600160a01b03166001600160a01b031663c338287f6040518163ffffffff1660e01b8152600401602060405180830381865afa1580156107a5573d6000803e3d6000fd5b6000546001600160a01b0361010090910416331461086c5760405162461bcd60e51b81526004016104b490613e1f565b6108746128fa565b565b61087e61373c565b60008281526008602081815260409283902083516101808101855281546001600160a01b031681526001820154818401526002820154818601526003820154606080830191909152600483015460ff808216151560808501526101008083048216151560a08601526201000090920416151560c0840152600584015460e08401526006840154908301526007830154610120830152938201546101408201528451600983018054948502820186018752958101848152919592946101608701949193928492909184919084018282801561098157602002820191906000526020600020905b81546001600160a01b03168152600190910190602001808311610963575b50505050508152602001600182018054806020026020016040519081016040528092919081815260200182805480156109d957602002820191906000526020600020905b8154815260200190600101908083116109c5575b5050509190925250505090525092915050565b6000805460ff1615610a105760405162461bcd60e51b81526004016104b490613cc9565b610a186107e2565b341015610a375760405162461bcd60e51b81526004016104b490613e54565b6000828152600b602052604090206007015460ff161515600114610a965760405162461bcd60e51b8152602060048201526016602482015275139bdd08195e1a5cdd081d1a1a5cc81c995c5d595cdd60521b60448201526064016104b4565b6007546001600160a01b031663e985e9c533306040518363ffffffff1660e01b8152600401610ac6929190613d4d565b602060405180830381865afa158015610ae3573d6000803e3d6000fd5b505050506040513d601f19601f82011682018060405250810190610b079190613d67565b1515600114610b6b5760405162461bcd60e51b815260206004820152602a60248201527f4f6e776572206e6f7420617070726f766564206974656d7320666f72207468696044820152691cc818dbdb9d1c9858dd60b21b60648201526084016104b4565b6000828152600b602090815260408083208151610100810183528154815260018201548185015260028201548184015260038201546001600160a01b03166060820152600482015460808201526005820180548451818702810187019095528085529194929360a0860193909290830182828015610c0857602002820191906000526020600020905b815481526020019060010190808311610bf4575b5050505050815260200160068201805480602002602001604051908101604052809291908181526020018280548015610c6057602002820191906000526020600020905b815481526020019060010190808311610c4c575b505050918352505060079182015460ff16151560209091015254606082015160405163e985e9c560e01b81529293506001600160a01b039091169163e985e9c591610caf913090600401613d4d565b602060405180830381865afa158015610ccc573d6000803e3d6000fd5b505050506040513d601f19601f82011682018060405250810190610cf09190613d67565b1515600114610d5c5760405162461bcd60e51b815260206004820152603260248201527f526571756573742066726f6d206e6f7420617070726f766564206f666665727360448201527108199bdc881d1a1a5cc818dbdb9d1c9858dd60721b60648201526084016104b4565b4281602001518260400151610d719190613e99565b1015610dbf5760405162461bcd60e51b815260206004820152601960248201527f546869732072657175657374206973206e6f742076616c69640000000000000060448201526064016104b4565b610dd18160a00151826060015161298d565b50610de68160c00151610de13390565b61298d565b50610e03816080015182606001518360c001518460a00151612ada565b15610ec5577f91b79eb52e6f688b3499fa09f9dd6e10752549ff8fc87733769123286839efc583826020015142610e373390565b85608001518660a001518760c001516000604051610e5c989796959493929190613eec565b60405180910390a16000838152600b6020526040812081815560018101829055600281018290556003810180546001600160a01b03191690556004810182905590610eaa600583018261371e565b610eb860068301600061371e565b50600701805460ff191690555b50600192915050565b600080546001600160a01b03610100909104163314610eff5760405162461bcd60e51b81526004016104b490613e1f565b600182905560035460025460405184907f7db2709f6e7adf14b75ac6a4bc01b5f3ff9000017f9648c2b70f6ca8616d8f5790600090a4506001919050565b6000805460ff1615610f615760405162461bcd60e51b81526004016104b490613cc9565b610f69612721565b341015610f885760405162461bcd60e51b81526004016104b490613e54565b6000855111610fcb5760405162461bcd60e51b815260206004820152600f60248201526e4974656d732061726520656d70747960881b60448201526064016104b4565b6000861161101b5760405162461bcd60e51b815260206004820152601f60248201527f506f736974696f6e206d7573742062652067726561746572207468616e20300060448201526064016104b4565b60008451118061102c575060065483115b6110785760405162461bcd60e51b815260206004820152601e60248201527f416d6f756e74206f72206f66666572732061726520696e636f7272656374000060448201526064016104b4565b6000868152600b602052604090206007015460ff16156110ef5760405162461bcd60e51b815260206004820152602c60248201527f4f6666657220696e64657820697320696e76616c69642062792074686520736d60448201526b185c9d0818dbdb9d1c9858dd60a21b60648201526084016104b4565b6007546001600160a01b031663e985e9c533306040518363ffffffff1660e01b815260040161111f929190613d4d565b602060405180830381865afa15801561113c573d6000803e3d6000fd5b505050506040513d601f19601f820116820180604052508101906111609190613d67565b15156001146111815760405162461bcd60e51b81526004016104b490613d84565b61118a85612dde565b6111926128b9565b5061119c85612f76565b506111a7843361298d565b5060006040518061010001604052808881526020018481526020014281526020016111cf3390565b6001600160a01b039081168252602080830188905260408084018a905260608085018c90526001608095860181905260008e8152600b85528390208751815587850151918101919091559186015160028301558501516003820180546001600160a01b031916919094161790925591830151600482015560a0830151805193945084939192611266926005850192909101906137c6565b5060c082015180516112829160068401916020909101906137c6565b5060e091909101516007909101805460ff19169115159190911790557f2c3a17e11898bf86cf29f1e63cec893a178d91d7274852ae92cea5c78bb258f087844233888a8c60016040516112dc989796959493929190613eec565b60405180910390a16112ef8487876130da565b1561139b577f91b79eb52e6f688b3499fa09f9dd6e10752549ff8fc87733769123286839efc587844233888a8c6000604051611332989796959493929190613eec565b60405180910390a16000878152600b6020526040812081815560018101829055600281018290556003810180546001600160a01b03191690556004810182905590611380600583018261371e565b61138e60068301600061371e565b50600701805460ff191690555b5060019695505050505050565b600080546001600160a01b036101009091041633146113d95760405162461bcd60e51b81526004016104b490613e1f565b50600655600190565b6000546001600160a01b036101009091041633146114125760405162461bcd60e51b81526004016104b490613e1f565b610874600061358d565b60086020818152600092835260409283902080546001820154600283015460038401546004850154600586015460068701546007880154998801548b5160098a01805460609c810283018d018f529d82018e81526001600160a01b03909a169d989c979b969a60ff8088169b610100890482169b6201000090990490911699969895979495919484928491908401828280156114e157602002820191906000526020600020905b81546001600160a01b031681526001909101906020018083116114c3575b505050505081526020016001820180548060200260200160405190810160405280929190818152602001828054801561153957602002820191906000526020600020905b815481526020019060010190808311611525575b50505050508152505090508c565b600080546001600160a01b036101009091041633146115785760405162461bcd60e51b81526004016104b490613e1f565b600580546001600160a01b0319166001600160a01b0384169081179091556040517f6d4881172853e787189216de6d514b739b8ad6a331e19518c66d3dc2b93639b590600090a2506001919050565b60006115d283610876565b9050600080826101200151426115e89190613e99565b90506115f2612721565b3410156116415760405162461bcd60e51b815260206004820152601b60248201527f596f7520646f6e74206861766520656e6f75676820746f20706179000000000060448201526064016104b4565b4281106116895760405162461bcd60e51b815260206004820152601660248201527541756374696f6e20697320696e2070726f677265737360501b60448201526064016104b4565b600754604051627eeac760e11b8152336004820152602481018790526000916001600160a01b03169062fdd58e90604401602060405180830381865afa1580156116d7573d6000803e3d6000fd5b505050506040513d601f19601f820116820180604052508101906116fb9190613cf3565b116117415760405162461bcd60e51b81526020600482015260166024820152752737ba103a34329037bbb732b91037b3103a37b5b2b760511b60448201526064016104b4565b825161016084015160200151516000908190158015906117f75750611764612721565b8661014001516117749190613e99565b6001600160a01b038881166000818152600c6020526040908190206003015490516370a0823160e01b81526004810192909252909116906370a0823190602401602060405180830381865afa1580156117d1573d6000803e3d6000fd5b505050506040513d601f19601f820116820180604052508101906117f59190613cf3565b105b15611cbd576000600187610160015160200151516118159190613f52565b90505b8287610160015160200151828151811061183457611834613f69565b60200260200101511115611b3a5761184a612721565b87610160015160200151828151811061186557611865613f69565b60200260200101516118779190613e99565b600c600089610160015160000151848151811061189657611896613f69565b60200260200101516001600160a01b03166001600160a01b0316815260200190815260200160002060030160009054906101000a90046001600160a01b03166001600160a01b031663dd62ed3e8961016001516000015184815181106118fe576118fe613f69565b6020026020010151306040518363ffffffff1660e01b8152600401611924929190613d4d565b602060405180830381865afa158015611941573d6000803e3d6000fd5b505050506040513d601f19601f820116820180604052508101906119659190613cf3565b10611b3a57611972612721565b87610160015160200151828151811061198d5761198d613f69565b602002602001015161199f9190613e99565b600c60008961016001516000015184815181106119be576119be613f69565b60200260200101516001600160a01b03166001600160a01b0316815260200190815260200160002060030160009054906101000a90046001600160a01b03166001600160a01b03166370a08231896101600151600001518481518110611a2657611a26613f69565b60200260200101516040518263ffffffff1660e01b8152600401611a5991906001600160a01b0391909116815260200190565b602060405180830381865afa158015611a76573d6000803e3d6000fd5b505050506040513d601f19601f82011682018060405250810190611a9a9190613cf3565b10611b3a57866101600151602001518181518110611aba57611aba613f69565b60200260200101519250866101600151600001518181518110611adf57611adf613f69565b60200260200101519150600c6000886101600151600001518381518110611b0857611b08613f69565b6020908102919091018101516001600160a01b0390811683529082019290925260400160002060030154169550611b4c565b80611b4481613f7f565b915050611818565b506004546040516001600160a01b03909116903480156108fc02916000818181858888f19350505050158015611b86573d6000803e3d6000fd5b506040516323b872dd60e01b81526001600160a01b0382811660048301528481166024830152604482018490528616906323b872dd906064016020604051808303816000875af1158015611bde573d6000803e3d6000fd5b505050506040513d601f19601f82011682018060405250810190611c029190613d67565b506007546001600160a01b031663f242432a33838b60016040518563ffffffff1660e01b8152600401611c389493929190613f96565b600060405180830381600087803b158015611c5257600080fd5b505af1158015611c66573d6000803e3d6000fd5b5050600060c0890152507f71adafc70542ea4b4884c7de4c93f891c29599a79cb58df958bc54be04fefa55905042833384600160006001604051611cb09796959493929190613fce565b60405180910390a1611dad565b6004546040516001600160a01b03909116903480156108fc02916000818181858888f19350505050158015611cf6573d6000803e3d6000fd5b506007546001600160a01b031663f242432a33898b60016040518563ffffffff1660e01b8152600401611d2c9493929190613f96565b600060405180830381600087803b158015611d4657600080fd5b505af1158015611d5a573d6000803e3d6000fd5b5050600060c0890152507f71adafc70542ea4b4884c7de4c93f891c29599a79cb58df958bc54be04fefa5590504283338a600160006001604051611da49796959493929190613fce565b60405180910390a15b5050505050505050565b6000546001600160a01b03610100909104163314611de75760405162461bcd60e51b81526004016104b490613e1f565b6108746135e6565b6000805460ff1615611e135760405162461bcd60e51b81526004016104b490613cc9565b611e1b612721565b341015611e3a5760405162461bcd60e51b81526004016104b490613e54565b600654861015611e9c5760405162461bcd60e51b815260206004820152602760248201527f526f6f66206d7573742062652067726561746572207468616e2064656661756c6044820152667420707269636560c81b60648201526084016104b4565b6007546000906001600160a01b031662fdd58e336040516001600160e01b031960e084901b1681526001600160a01b039091166004820152602481018b9052604401602060405180830381865afa158015611efb573d6000803e3d6000fd5b505050506040513d601f19601f82011682018060405250810190611f1f9190613cf3565b11611f3c5760405162461bcd60e51b81526004016104b490613d0c565b6007546001600160a01b031663e985e9c533306040518363ffffffff1660e01b8152600401611f6c929190613d4d565b602060405180830381865afa158015611f89573d6000803e3d6000fd5b505050506040513d601f19601f82011682018060405250810190611fad9190613d67565b1515600114611fce5760405162461bcd60e51b81526004016104b490613d84565b611fd66128b9565b504233600089815260086020526040902080546001600160a01b0319166001600160a01b039290921691909117815560018101879055600281018290556003810188905560048101805461010162ffffff19909116620100008915150217179055600581018590556007018390557f7948983fc88f364d12d6955c4325d1555c9347aa584ad59edb4fecdaa5308a2333604080516001600160a01b039092168252602082018b905281018890526060810183905260808101899052600160a0820181905260c082015286151560e0820152610100810186905261012081018590526101400160405180910390a1506001979650505050505050565b600080546001600160a01b036101009091041633146121025760405162461bcd60e51b81526004016104b490613e1f565b6003829055600254600154604051849291907f7db2709f6e7adf14b75ac6a4bc01b5f3ff9000017f9648c2b70f6ca8616d8f5790600090a4506001919050565b600061214d82610876565b61010081015190915083906000906121659042613f52565b905080836101200151116121bb5760405162461bcd60e51b815260206004820152601a60248201527f4475726174696f6e2074696d65206861732066696e697368656400000000000060448201526064016104b4565b82610140015186116122285760405162461bcd60e51b815260206004820152603060248201527f416d6f756e74206f666665726564206e65656420746f2062652068696768657260448201526f103a3430b7103630b9ba1037b33332b960811b60648201526084016104b4565b856001600160a01b0383166370a08231336040516001600160e01b031960e084901b1681526001600160a01b039091166004820152602401602060405180830381865afa15801561227d573d6000803e3d6000fd5b505050506040513d601f19601f820116820180604052508101906122a19190613cf3565b10156122e75760405162461bcd60e51b8152602060048201526015602482015274084c2d8c2dcc6ca40d2e640dcdee840cadcdeeaced605b1b60448201526064016104b4565b600086116123285760405162461bcd60e51b815260206004820152600e60248201526d105b5bdd5b9d081a5b9d985b1a5960921b60448201526064016104b4565b6001600160a01b0385166123755760405162461bcd60e51b8152602060048201526014602482015273115490cc8c081859191c995cc81a5b9d985b1a5960621b60448201526064016104b4565b60c083015115156001146123d55760405162461bcd60e51b815260206004820152602160248201527f41756374696f6e206973206e6f742061626c6520666f722074686973206974656044820152606d60f81b60648201526084016104b4565b6101008301516123e757426101008401525b6040805160a08101825242815260208082018981528284018881526001600160a01b038a811660608601908152600160808701818152336000818152600c89528a81208a5181559751938801939093559451600287015591516003909501805492511515600160a01b026001600160a81b0319909316959093169490941717905561014088018b905288825260089092529290922090916009909101908154600180820184556000938452602080852090920180546001600160a01b0319166001600160a01b03948516179055888452600882526040808520600a0180548084018255908652948390209094018b905583514281529182018b9052928101889052908816606082015260808101919091527fb0d938a2bb8dfe369439eb670cbdf1c27d11d4763714af587fe2d9e431e4ba0b9060a00160405180910390a150505050505050565b600080546001600160a01b0361010090910416331461255f5760405162461bcd60e51b81526004016104b490613e1f565b60028290556003546001546040518491907f7db2709f6e7adf14b75ac6a4bc01b5f3ff9000017f9648c2b70f6ca8616d8f5790600090a4506001919050565b6000546001600160a01b036101009091041633146125ce5760405162461bcd60e51b81526004016104b490613e1f565b6125d7886126a1565b506125e185611547565b506125eb81610ece565b506125f58361252e565b506125ff826120d1565b506126098761363e565b50600a80546001600160a01b0319166001600160a01b03881617905561262e846113a8565b5061263761083c565b604080516001600160a01b03808b168252808a1660208301528089169282019290925290861660608201526080810184905260a0810183905260c081018290527f0f477fbcd19d554f77caf70fe6ee8e1c9723a092a2ddafa6d0295e46bb555c229060e001611da4565b600080546001600160a01b036101009091041633146126d25760405162461bcd60e51b81526004016104b490613e1f565b600480546001600160a01b0319166001600160a01b0384169081179091556040517f66743038d969508e26e3d032a34d950971853817a94fd22e88316055e1145bf490600090a2506001919050565b60006001546064600560009054906101000a90046001600160a01b03166001600160a01b031663c338287f6040518163ffffffff1660e01b8152600401602060405180830381865afa1580156107a5573d6000803e3d6000fd5b600080546001600160a01b036101009091041633146127ac5760405162461bcd60e51b81526004016104b490613e1f565b6000828152600860208190526040822080546001600160a01b031916815560018101839055600281018390556003810183905560048101805462ffffff191690556005810183905560068101839055600781018390559081018290559060098201816106cc828261371e565b6000546001600160a01b036101009091041633146128485760405162461bcd60e51b81526004016104b490613e1f565b6001600160a01b0381166128ad5760405162461bcd60e51b815260206004820152602660248201527f4f776e61626c653a206e6577206f776e657220697320746865207a65726f206160448201526564647265737360d01b60648201526084016104b4565b6128b68161358d565b50565b6004546040516000916001600160a01b0316903480156108fc029184818181858888f193505050501580156128f2573d6000803e3d6000fd5b506001905090565b60005460ff166129435760405162461bcd60e51b815260206004820152601460248201527314185d5cd8589b194e881b9bdd081c185d5cd95960621b60448201526064016104b4565b6000805460ff191690557f5db9ee0a495bf2e6ff9c91a7834c1ba4fdd244a5e8aa4e537bd38aeae4b073aa335b6040516001600160a01b03909116815260200160405180910390a1565b6000805b8351811015612ad05760008482815181106129ae576129ae613f69565b6020026020010151116129fc5760405162461bcd60e51b8152602060048201526016602482015275151a1a5cc81d1bdad95b9259081b9bdd08195e1a5cdd60521b60448201526064016104b4565b60075484516000916001600160a01b03169062fdd58e908690889086908110612a2757612a27613f69565b60200260200101516040518363ffffffff1660e01b8152600401612a609291906001600160a01b03929092168252602082015260400190565b602060405180830381865afa158015612a7d573d6000803e3d6000fd5b505050506040513d601f19601f82011682018060405250810190612aa19190613cf3565b11612abe5760405162461bcd60e51b81526004016104b490613d0c565b80612ac88161400c565b915050612991565b5060019392505050565b60008415612cf557612aeb83612dde565b600a54604051636eb1769f60e11b815286916001600160a01b03169063dd62ed3e90612b1d9088903090600401613d4d565b602060405180830381865afa158015612b3a573d6000803e3d6000fd5b505050506040513d601f19601f82011682018060405250810190612b5e9190613cf3565b1015612bac5760405162461bcd60e51b815260206004820152601c60248201527f46726f6d206e6f7420617070726f7665207468697320616d6f756e740000000060448201526064016104b4565b600a546040516370a0823160e01b81526001600160a01b038681166004830152879216906370a0823190602401602060405180830381865afa158015612bf6573d6000803e3d6000fd5b505050506040513d601f19601f82011682018060405250810190612c1a9190613cf3565b1015612c685760405162461bcd60e51b815260206004820152601e60248201527f46726f6d206e6f74206861766520737566666963656e7420616d6f756e74000060448201526064016104b4565b600a546001600160a01b03166323b872dd85336040516001600160e01b031960e085901b1681526001600160a01b03928316600482015291166024820152604481018890526064016020604051808303816000875af1158015612ccf573d6000803e3d6000fd5b505050506040513d601f19601f82011682018060405250810190612cf39190613d67565b505b6007546001600160a01b0316632eb2c2d6853385612d1287613690565b6040518563ffffffff1660e01b8152600401612d319493929190614027565b600060405180830381600087803b158015612d4b57600080fd5b505af1158015612d5f573d6000803e3d6000fd5b50506007546001600160a01b03169150632eb2c2d69050338686612d8288613690565b6040518563ffffffff1660e01b8152600401612da19493929190614027565b600060405180830381600087803b158015612dbb57600080fd5b505af1158015612dcf573d6000803e3d6000fd5b50600198975050505050505050565b60005b8151811015612f72576000612e0e838381518110612e0157612e01613f69565b6020026020010151610876565b80519091506001600160a01b031615612f5f57600754815184516000926001600160a01b03169162fdd58e91879087908110612e4c57612e4c613f69565b60200260200101516040518363ffffffff1660e01b8152600401612e859291906001600160a01b03929092168252602082015260400190565b602060405180830381865afa158015612ea2573d6000803e3d6000fd5b505050506040513d601f19601f82011682018060405250810190612ec69190613cf3565b11612f5f5760405162461bcd60e51b815260206004820152605b60248201527f546865206f776e6572206f662074686973206e6674206368616e67652c20747260448201527f7920746f20636f6d6d756e696361746520746f20746865206e6577206f776e6560648201527f7220746f2073656e64206f722072656365697665206f66666572730000000000608482015260a4016104b4565b5080612f6a8161400c565b915050612de1565b5050565b6000805b8251811015610ec5576000838281518110612f9757612f97613f69565b602002602001015111612fe55760405162461bcd60e51b8152602060048201526016602482015275151a1a5cc81d1bdad95b9259081b9bdd08195e1a5cdd60521b60448201526064016104b4565b60075483516000916001600160a01b03169063c87b56dd9086908590811061300f5761300f613f69565b60200260200101516040518263ffffffff1660e01b815260040161303591815260200190565b600060405180830381865afa158015613052573d6000803e3d6000fd5b505050506040513d6000823e601f3d908101601f1916820160405261307a9190810190614082565b51116130c85760405162461bcd60e51b815260206004820152601960248201527f54686973204361726420646f657374206e6f742065786973740000000000000060448201526064016104b4565b806130d28161400c565b915050612f7a565b60008251600114156135825760006130fe84600081518110612e0157612e01613f69565b90508060a0015115613580578060600151851061344a57600a54604051636eb1769f60e11b815286916001600160a01b03169063dd62ed3e906131479033903090600401613d4d565b602060405180830381865afa158015613164573d6000803e3d6000fd5b505050506040513d601f19601f820116820180604052508101906131889190613cf3565b10156131e05760405162461bcd60e51b815260206004820152602160248201527f546869732075736572206e6f7420617070726f7665207468697320616d6f756e6044820152601d60fa1b60648201526084016104b4565b600a5485906001600160a01b03166370a08231336040516001600160e01b031960e084901b1681526001600160a01b039091166004820152602401602060405180830381865afa158015613238573d6000803e3d6000fd5b505050506040513d601f19601f8201168201806040525081019061325c9190613cf3565b10156132b65760405162461bcd60e51b815260206004820152602360248201527f546869732075736572206e6f74206861766520737566666963656e7420616d6f6044820152621d5b9d60ea1b60648201526084016104b4565b8051600a546001600160a01b03166323b872dd336040516001600160e01b031960e084901b1681526001600160a01b0391821660048201529084166024820152604481018990526064016020604051808303816000875af115801561331f573d6000803e3d6000fd5b505050506040513d601f19601f820116820180604052508101906133439190613d67565b506007546001600160a01b0316632eb2c2d633838761336189613690565b6040518563ffffffff1660e01b81526004016133809493929190614027565b600060405180830381600087803b15801561339a57600080fd5b505af11580156133ae573d6000803e3d6000fd5b50506007546001600160a01b0316915063f242432a90508233886000815181106133da576133da613f69565b602002602001015160016040518563ffffffff1660e01b81526004016134039493929190613f96565b600060405180830381600087803b15801561341d57600080fd5b505af1158015613431573d6000803e3d6000fd5b5050505061343d61373c565b9150600192505050613586565b806060015134106135805780516040516001600160a01b038216903480156108fc02916000818181858888f1935050505015801561348c573d6000803e3d6000fd5b506007546001600160a01b0316632eb2c2d63383876134aa89613690565b6040518563ffffffff1660e01b81526004016134c99493929190614027565b600060405180830381600087803b1580156134e357600080fd5b505af11580156134f7573d6000803e3d6000fd5b50506007546001600160a01b0316915063f242432a905082338860008151811061352357613523613f69565b602002602001015160016040518563ffffffff1660e01b815260040161354c9493929190613f96565b600060405180830381600087803b15801561356657600080fd5b505af115801561357a573d6000803e3d6000fd5b50505050505b505b5060005b9392505050565b600080546001600160a01b03838116610100818102610100600160a81b0319851617855560405193049190911692909183917f8be0079c531659141344cd1fd0a4f28419497f9722a3daafe3b4186f6b6457e091a35050565b60005460ff16156136095760405162461bcd60e51b81526004016104b490613cc9565b6000805460ff191660011790557f62e78cea01bee320cd4e420270b5ea74000d11b0c9f74754ebdbfc544b05a2586129703390565b600780546001600160a01b0319166001600160a01b038316908117909155604051600091907fadfce766758cc4c5f09e2c4eb407adf4e52e07425240b614192262fd9bd90ddf908390a2506001919050565b60606000825167ffffffffffffffff8111156136ae576136ae61398d565b6040519080825280602002602001820160405280156136d7578160200160208202803683370190505b50905060005b83518110156137175760018282815181106136fa576136fa613f69565b60209081029190910101528061370f8161400c565b9150506136dd565b5092915050565b50805460008255906000526020600020908101906128b69190613811565b60405180610180016040528060006001600160a01b03168152602001600081526020016000815260200160008152602001600015158152602001600015158152602001600015158152602001600081526020016000815260200160008152602001600081526020016137c1604051806040016040528060608152602001606081525090565b905290565b828054828255906000526020600020908101928215613801579160200282015b828111156138015782518255916020019190600101906137e6565b5061380d929150613811565b5090565b5b8082111561380d5760008155600101613812565b60006020828403121561383857600080fd5b5035919050565b805160408084528151908401819052600091602091908201906060860190845b818110156138845783516001600160a01b03168352928401929184019160010161385f565b50508483015186820387850152805180835290840192506000918401905b808310156138c257835182529284019260019290920191908401906138a2565b509695505050505050565b602081526138e76020820183516001600160a01b03169052565b6020820151604082015260408201516060820152606082015160808201526000608083015161391a60a084018215159052565b5060a083015180151560c08401525060c083015180151560e08401525060e083015161010083810191909152830151610120808401919091528301516101408084019190915283015161016080840191909152830151610180808401526139856101a084018261383f565b949350505050565b634e487b7160e01b600052604160045260246000fd5b604051601f8201601f1916810167ffffffffffffffff811182821017156139cc576139cc61398d565b604052919050565b600082601f8301126139e557600080fd5b8135602067ffffffffffffffff821115613a0157613a0161398d565b8160051b613a108282016139a3565b9283528481018201928281019087851115613a2a57600080fd5b83870192505b84831015613a4957823582529183019190830190613a30565b979650505050505050565b600080600080600060a08688031215613a6c57600080fd5b85359450602086013567ffffffffffffffff80821115613a8b57600080fd5b613a9789838a016139d4565b95506040880135915080821115613aad57600080fd5b50613aba888289016139d4565b9598949750949560608101359550608001359392505050565b600061018060018060a01b038f1683528d60208401528c60408401528b60608401528a1515608084015289151560a084015288151560c08401528760e084015286610100840152856101208401528461014084015280610160840152613b3b8184018561383f565b9f9e505050505050505050505050505050565b6001600160a01b03811681146128b657600080fd5b600060208284031215613b7557600080fd5b813561358681613b4e565b60008060408385031215613b9357600080fd5b823591506020830135613ba581613b4e565b809150509250929050565b80151581146128b657600080fd5b60008060008060008060c08789031215613bd757600080fd5b8635955060208701359450604087013593506060870135613bf781613bb0565b9598949750929560808101359460a0909101359350915050565b600080600060608486031215613c2657600080fd5b833592506020840135613c3881613b4e565b929592945050506040919091013590565b600080600080600080600080610100898b031215613c6657600080fd5b8835613c7181613b4e565b97506020890135613c8181613b4e565b96506040890135613c9181613b4e565b95506060890135613ca181613b4e565b979a969950949760808101359660a0820135965060c0820135955060e0909101359350915050565b60208082526010908201526f14185d5cd8589b194e881c185d5cd95960821b604082015260600190565b600060208284031215613d0557600080fd5b5051919050565b60208082526021908201527f596f75206e6f742061726520746865206f776e6572206f662074686973206e666040820152601d60fa1b606082015260800190565b6001600160a01b0392831681529116602082015260400190565b600060208284031215613d7957600080fd5b815161358681613bb0565b60208082526024908201527f4e6f7420617070726f766564206974656d7320666f72207468697320636f6e746040820152631c9858dd60e21b606082015260800190565b634e487b7160e01b600052601160045260246000fd5b600082613dfb57634e487b7160e01b600052601260045260246000fd5b500490565b6000816000190483118215151615613e1a57613e1a613dc8565b500290565b6020808252818101527f4f776e61626c653a2063616c6c6572206973206e6f7420746865206f776e6572604082015260600190565b60208082526025908201527f596f7520646f6e74206861766520656e6f75676820746f2070617920636f6d6960408201526439b9b4b7b760d91b606082015260800190565b60008219821115613eac57613eac613dc8565b500190565b600081518084526020808501945080840160005b83811015613ee157815187529582019590820190600101613ec5565b509495945050505050565b60006101008a835289602084015288604084015260018060a01b03881660608401528660808401528060a0840152613f2681840187613eb1565b905082810360c0840152613f3a8186613eb1565b91505082151560e08301529998505050505050505050565b600082821015613f6457613f64613dc8565b500390565b634e487b7160e01b600052603260045260246000fd5b600081613f8e57613f8e613dc8565b506000190190565b6001600160a01b0394851681529290931660208301526040820152606081019190915260a06080820181905260009082015260c00190565b96875260208701959095526001600160a01b0393841660408701529190921660608501529015156080840152151560a083015260c082015260e00190565b600060001982141561402057614020613dc8565b5060010190565b6001600160a01b0385811682528416602082015260a06040820181905260009061405390830185613eb1565b82810360608401526140658185613eb1565b838103608090940193909352505060008152602001949350505050565b6000602080838503121561409557600080fd5b825167ffffffffffffffff808211156140ad57600080fd5b818501915085601f8301126140c157600080fd5b8151818111156140d3576140d361398d565b6140e5601f8201601f191685016139a3565b915080825286848285010111156140fb57600080fd5b60005b818110156141195783810185015183820186015284016140fe565b8181111561412a5760008583850101525b5090969550505050505056fea26469706673582212206f841d9e9d09dd754c37f65c5fbc1b17479062ab9dec7604290163f862f0906764736f6c634300080a0033",
			"opcodes": "PUSH1 0x80 PUSH1 0x40 MSTORE PUSH1 0x1 DUP1 SSTORE PUSH1 0x2 DUP1 SSTORE PUSH1 0x2 PUSH1 0x3 SSTORE PUSH9 0x1158E460913D00000 PUSH1 0x6 SSTORE PUSH4 0x240C8400 PUSH1 0x9 SSTORE CALLVALUE DUP1 ISZERO PUSH3 0x33 JUMPI PUSH1 0x0 DUP1 REVERT JUMPDEST POP PUSH1 0x0 DUP1 SLOAD PUSH1 0xFF NOT AND SWAP1 SSTORE PUSH3 0x49 CALLER PUSH3 0x59 JUMP JUMPDEST PUSH3 0x53 PUSH3 0xB2 JUMP JUMPDEST PUSH3 0x1BF JUMP JUMPDEST PUSH1 0x0 DUP1 SLOAD PUSH1 0x1 PUSH1 0x1 PUSH1 0xA0 SHL SUB DUP4 DUP2 AND PUSH2 0x100 DUP2 DUP2 MUL PUSH2 0x100 PUSH1 0x1 PUSH1 0xA8 SHL SUB NOT DUP6 AND OR DUP6 SSTORE PUSH1 0x40 MLOAD SWAP4 DIV SWAP2 SWAP1 SWAP2 AND SWAP3 SWAP1 SWAP2 DUP4 SWAP2 PUSH32 0x8BE0079C531659141344CD1FD0A4F28419497F9722A3DAAFE3B4186F6B6457E0 SWAP2 LOG3 POP POP JUMP JUMPDEST PUSH1 0x0 SLOAD PUSH1 0x1 PUSH1 0x1 PUSH1 0xA0 SHL SUB PUSH2 0x100 SWAP1 SWAP2 DIV AND CALLER EQ PUSH3 0x118 JUMPI PUSH1 0x40 MLOAD PUSH3 0x461BCD PUSH1 0xE5 SHL DUP2 MSTORE PUSH1 0x20 PUSH1 0x4 DUP3 ADD DUP2 SWAP1 MSTORE PUSH1 0x24 DUP3 ADD MSTORE PUSH32 0x4F776E61626C653A2063616C6C6572206973206E6F7420746865206F776E6572 PUSH1 0x44 DUP3 ADD MSTORE PUSH1 0x64 ADD JUMPDEST PUSH1 0x40 MLOAD DUP1 SWAP2 SUB SWAP1 REVERT JUMPDEST PUSH3 0x122 PUSH3 0x124 JUMP JUMPDEST JUMP JUMPDEST PUSH1 0x0 SLOAD PUSH1 0xFF AND ISZERO PUSH3 0x16C JUMPI PUSH1 0x40 MLOAD PUSH3 0x461BCD PUSH1 0xE5 SHL DUP2 MSTORE PUSH1 0x20 PUSH1 0x4 DUP3 ADD MSTORE PUSH1 0x10 PUSH1 0x24 DUP3 ADD MSTORE PUSH16 0x14185D5CD8589B194E881C185D5CD959 PUSH1 0x82 SHL PUSH1 0x44 DUP3 ADD MSTORE PUSH1 0x64 ADD PUSH3 0x10F JUMP JUMPDEST PUSH1 0x0 DUP1 SLOAD PUSH1 0xFF NOT AND PUSH1 0x1 OR SWAP1 SSTORE PUSH32 0x62E78CEA01BEE320CD4E420270B5EA74000D11B0C9F74754EBDBFC544B05A258 PUSH3 0x1A2 CALLER SWAP1 JUMP JUMPDEST PUSH1 0x40 MLOAD PUSH1 0x1 PUSH1 0x1 PUSH1 0xA0 SHL SUB SWAP1 SWAP2 AND DUP2 MSTORE PUSH1 0x20 ADD PUSH1 0x40 MLOAD DUP1 SWAP2 SUB SWAP1 LOG1 JUMP JUMPDEST PUSH2 0x416C DUP1 PUSH3 0x1CF PUSH1 0x0 CODECOPY PUSH1 0x0 RETURN INVALID PUSH1 0x80 PUSH1 0x40 MSTORE PUSH1 0x4 CALLDATASIZE LT PUSH2 0x181 JUMPI PUSH1 0x0 CALLDATALOAD PUSH1 0xE0 SHR DUP1 PUSH4 0x7DC0CB2B GT PUSH2 0xD1 JUMPI DUP1 PUSH4 0xC0F4ED31 GT PUSH2 0x8A JUMPI DUP1 PUSH4 0xD979F5AA GT PUSH2 0x64 JUMPI DUP1 PUSH4 0xD979F5AA EQ PUSH2 0x41B JUMPI DUP1 PUSH4 0xDDCA3F43 EQ PUSH2 0x43B JUMPI DUP1 PUSH4 0xEECE7F25 EQ PUSH2 0x450 JUMPI DUP1 PUSH4 0xF2FDE38B EQ PUSH2 0x470 JUMPI PUSH1 0x0 DUP1 REVERT JUMPDEST DUP1 PUSH4 0xC0F4ED31 EQ PUSH2 0x3BB JUMPI DUP1 PUSH4 0xC2FFFD6B EQ PUSH2 0x3DB JUMPI DUP1 PUSH4 0xC843E81C EQ PUSH2 0x3FB JUMPI PUSH1 0x0 DUP1 REVERT JUMPDEST DUP1 PUSH4 0x7DC0CB2B EQ PUSH2 0x315 JUMPI DUP1 PUSH4 0x8456CB59 EQ PUSH2 0x328 JUMPI DUP1 PUSH4 0x8DA5CB5B EQ PUSH2 0x33D JUMPI DUP1 PUSH4 0x8DCFE4D7 EQ PUSH2 0x373 JUMPI DUP1 PUSH4 0xB086613C EQ PUSH2 0x386 JUMPI DUP1 PUSH4 0xBFF098B4 EQ PUSH2 0x39B JUMPI PUSH1 0x0 DUP1 REVERT JUMPDEST DUP1 PUSH4 0x5C975ABB GT PUSH2 0x13E JUMPI DUP1 PUSH4 0x6D3C7EC5 GT PUSH2 0x118 JUMPI DUP1 PUSH4 0x6D3C7EC5 EQ PUSH2 0x288 JUMPI DUP1 PUSH4 0x715018A6 EQ PUSH2 0x2A8 JUMPI DUP1 PUSH4 0x7A777D2C EQ PUSH2 0x2BD JUMPI DUP1 PUSH4 0x7ADBF973 EQ PUSH2 0x2F5 JUMPI PUSH1 0x0 DUP1 REVERT JUMPDEST DUP1 PUSH4 0x5C975ABB EQ PUSH2 0x23D JUMPI DUP1 PUSH4 0x69FE0E2D EQ PUSH2 0x255 JUMPI DUP1 PUSH4 0x6D2070B7 EQ PUSH2 0x275 JUMPI PUSH1 0x0 DUP1 REVERT JUMPDEST DUP1 PUSH4 0xD763E90 EQ PUSH2 0x186 JUMPI DUP1 PUSH4 0x14025DCD EQ PUSH2 0x1AE JUMPI DUP1 PUSH4 0x3ABECC49 EQ PUSH2 0x1D1 JUMPI DUP1 PUSH4 0x3F4BA83A EQ PUSH2 0x1E6 JUMPI DUP1 PUSH4 0x40B43701 EQ PUSH2 0x1FD JUMPI DUP1 PUSH4 0x53556559 EQ PUSH2 0x22A JUMPI JUMPDEST PUSH1 0x0 DUP1 REVERT JUMPDEST PUSH2 0x199 PUSH2 0x194 CALLDATASIZE PUSH1 0x4 PUSH2 0x3826 JUMP JUMPDEST PUSH2 0x490 JUMP JUMPDEST PUSH1 0x40 MLOAD SWAP1 ISZERO ISZERO DUP2 MSTORE PUSH1 0x20 ADD JUMPDEST PUSH1 0x40 MLOAD DUP1 SWAP2 SUB SWAP1 RETURN JUMPDEST CALLVALUE DUP1 ISZERO PUSH2 0x1BA JUMPI PUSH1 0x0 DUP1 REVERT JUMPDEST POP PUSH2 0x1C3 PUSH2 0x74B JUMP JUMPDEST PUSH1 0x40 MLOAD SWAP1 DUP2 MSTORE PUSH1 0x20 ADD PUSH2 0x1A5 JUMP JUMPDEST CALLVALUE DUP1 ISZERO PUSH2 0x1DD JUMPI PUSH1 0x0 DUP1 REVERT JUMPDEST POP PUSH2 0x1C3 PUSH2 0x7E2 JUMP JUMPDEST CALLVALUE DUP1 ISZERO PUSH2 0x1F2 JUMPI PUSH1 0x0 DUP1 REVERT JUMPDEST POP PUSH2 0x1FB PUSH2 0x83C JUMP JUMPDEST STOP JUMPDEST CALLVALUE DUP1 ISZERO PUSH2 0x209 JUMPI PUSH1 0x0 DUP1 REVERT JUMPDEST POP PUSH2 0x21D PUSH2 0x218 CALLDATASIZE PUSH1 0x4 PUSH2 0x3826 JUMP JUMPDEST PUSH2 0x876 JUMP JUMPDEST PUSH1 0x40 MLOAD PUSH2 0x1A5 SWAP2 SWAP1 PUSH2 0x38CD JUMP JUMPDEST PUSH2 0x199 PUSH2 0x238 CALLDATASIZE PUSH1 0x4 PUSH2 0x3826 JUMP JUMPDEST PUSH2 0x9EC JUMP JUMPDEST CALLVALUE DUP1 ISZERO PUSH2 0x249 JUMPI PUSH1 0x0 DUP1 REVERT JUMPDEST POP PUSH1 0x0 SLOAD PUSH1 0xFF AND PUSH2 0x199 JUMP JUMPDEST CALLVALUE DUP1 ISZERO PUSH2 0x261 JUMPI PUSH1 0x0 DUP1 REVERT JUMPDEST POP PUSH2 0x199 PUSH2 0x270 CALLDATASIZE PUSH1 0x4 PUSH2 0x3826 JUMP JUMPDEST PUSH2 0xECE JUMP JUMPDEST PUSH2 0x199 PUSH2 0x283 CALLDATASIZE PUSH1 0x4 PUSH2 0x3A54 JUMP JUMPDEST PUSH2 0xF3D JUMP JUMPDEST CALLVALUE DUP1 ISZERO PUSH2 0x294 JUMPI PUSH1 0x0 DUP1 REVERT JUMPDEST POP PUSH2 0x199 PUSH2 0x2A3 CALLDATASIZE PUSH1 0x4 PUSH2 0x3826 JUMP JUMPDEST PUSH2 0x13A8 JUMP JUMPDEST CALLVALUE DUP1 ISZERO PUSH2 0x2B4 JUMPI PUSH1 0x0 DUP1 REVERT JUMPDEST POP PUSH2 0x1FB PUSH2 0x13E2 JUMP JUMPDEST CALLVALUE DUP1 ISZERO PUSH2 0x2C9 JUMPI PUSH1 0x0 DUP1 REVERT JUMPDEST POP PUSH2 0x2DD PUSH2 0x2D8 CALLDATASIZE PUSH1 0x4 PUSH2 0x3826 JUMP JUMPDEST PUSH2 0x141C JUMP JUMPDEST PUSH1 0x40 MLOAD PUSH2 0x1A5 SWAP13 SWAP12 SWAP11 SWAP10 SWAP9 SWAP8 SWAP7 SWAP6 SWAP5 SWAP4 SWAP3 SWAP2 SWAP1 PUSH2 0x3AD3 JUMP JUMPDEST CALLVALUE DUP1 ISZERO PUSH2 0x301 JUMPI PUSH1 0x0 DUP1 REVERT JUMPDEST POP PUSH2 0x199 PUSH2 0x310 CALLDATASIZE PUSH1 0x4 PUSH2 0x3B63 JUMP JUMPDEST PUSH2 0x1547 JUMP JUMPDEST PUSH2 0x1FB PUSH2 0x323 CALLDATASIZE PUSH1 0x4 PUSH2 0x3B80 JUMP JUMPDEST PUSH2 0x15C7 JUMP JUMPDEST CALLVALUE DUP1 ISZERO PUSH2 0x334 JUMPI PUSH1 0x0 DUP1 REVERT JUMPDEST POP PUSH2 0x1FB PUSH2 0x1DB7 JUMP JUMPDEST CALLVALUE DUP1 ISZERO PUSH2 0x349 JUMPI PUSH1 0x0 DUP1 REVERT JUMPDEST POP PUSH1 0x0 SLOAD PUSH2 0x100 SWAP1 DIV PUSH1 0x1 PUSH1 0x1 PUSH1 0xA0 SHL SUB AND PUSH1 0x40 MLOAD PUSH1 0x1 PUSH1 0x1 PUSH1 0xA0 SHL SUB SWAP1 SWAP2 AND DUP2 MSTORE PUSH1 0x20 ADD PUSH2 0x1A5 JUMP JUMPDEST PUSH2 0x199 PUSH2 0x381 CALLDATASIZE PUSH1 0x4 PUSH2 0x3BBE JUMP JUMPDEST PUSH2 0x1DEF JUMP JUMPDEST CALLVALUE DUP1 ISZERO PUSH2 0x392 JUMPI PUSH1 0x0 DUP1 REVERT JUMPDEST POP PUSH1 0x6 SLOAD PUSH2 0x1C3 JUMP JUMPDEST CALLVALUE DUP1 ISZERO PUSH2 0x3A7 JUMPI PUSH1 0x0 DUP1 REVERT JUMPDEST POP PUSH2 0x199 PUSH2 0x3B6 CALLDATASIZE PUSH1 0x4 PUSH2 0x3826 JUMP JUMPDEST PUSH2 0x20D1 JUMP JUMPDEST CALLVALUE DUP1 ISZERO PUSH2 0x3C7 JUMPI PUSH1 0x0 DUP1 REVERT JUMPDEST POP PUSH2 0x1FB PUSH2 0x3D6 CALLDATASIZE PUSH1 0x4 PUSH2 0x3C11 JUMP JUMPDEST PUSH2 0x2142 JUMP JUMPDEST CALLVALUE DUP1 ISZERO PUSH2 0x3E7 JUMPI PUSH1 0x0 DUP1 REVERT JUMPDEST POP PUSH2 0x199 PUSH2 0x3F6 CALLDATASIZE PUSH1 0x4 PUSH2 0x3826 JUMP JUMPDEST PUSH2 0x252E JUMP JUMPDEST CALLVALUE DUP1 ISZERO PUSH2 0x407 JUMPI PUSH1 0x0 DUP1 REVERT JUMPDEST POP PUSH2 0x1FB PUSH2 0x416 CALLDATASIZE PUSH1 0x4 PUSH2 0x3C49 JUMP JUMPDEST PUSH2 0x259E JUMP JUMPDEST CALLVALUE DUP1 ISZERO PUSH2 0x427 JUMPI PUSH1 0x0 DUP1 REVERT JUMPDEST POP PUSH2 0x199 PUSH2 0x436 CALLDATASIZE PUSH1 0x4 PUSH2 0x3B63 JUMP JUMPDEST PUSH2 0x26A1 JUMP JUMPDEST CALLVALUE DUP1 ISZERO PUSH2 0x447 JUMPI PUSH1 0x0 DUP1 REVERT JUMPDEST POP PUSH2 0x1C3 PUSH2 0x2721 JUMP JUMPDEST CALLVALUE DUP1 ISZERO PUSH2 0x45C JUMPI PUSH1 0x0 DUP1 REVERT JUMPDEST POP PUSH2 0x199 PUSH2 0x46B CALLDATASIZE PUSH1 0x4 PUSH2 0x3826 JUMP JUMPDEST PUSH2 0x277B JUMP JUMPDEST CALLVALUE DUP1 ISZERO PUSH2 0x47C JUMPI PUSH1 0x0 DUP1 REVERT JUMPDEST POP PUSH2 0x1FB PUSH2 0x48B CALLDATASIZE PUSH1 0x4 PUSH2 0x3B63 JUMP JUMPDEST PUSH2 0x2818 JUMP JUMPDEST PUSH1 0x0 DUP1 SLOAD PUSH1 0xFF AND ISZERO PUSH2 0x4BD JUMPI PUSH1 0x40 MLOAD PUSH3 0x461BCD PUSH1 0xE5 SHL DUP2 MSTORE PUSH1 0x4 ADD PUSH2 0x4B4 SWAP1 PUSH2 0x3CC9 JUMP JUMPDEST PUSH1 0x40 MLOAD DUP1 SWAP2 SUB SWAP1 REVERT JUMPDEST PUSH1 0x7 SLOAD PUSH1 0x0 SWAP1 PUSH1 0x1 PUSH1 0x1 PUSH1 0xA0 SHL SUB AND PUSH3 0xFDD58E CALLER PUSH1 0x40 MLOAD PUSH1 0x1 PUSH1 0x1 PUSH1 0xE0 SHL SUB NOT PUSH1 0xE0 DUP5 SWAP1 SHL AND DUP2 MSTORE PUSH1 0x1 PUSH1 0x1 PUSH1 0xA0 SHL SUB SWAP1 SWAP2 AND PUSH1 0x4 DUP3 ADD MSTORE PUSH1 0x24 DUP2 ADD DUP7 SWAP1 MSTORE PUSH1 0x44 ADD PUSH1 0x20 PUSH1 0x40 MLOAD DUP1 DUP4 SUB DUP2 DUP7 GAS STATICCALL ISZERO DUP1 ISZERO PUSH2 0x51C JUMPI RETURNDATASIZE PUSH1 0x0 DUP1 RETURNDATACOPY RETURNDATASIZE PUSH1 0x0 REVERT JUMPDEST POP POP POP POP PUSH1 0x40 MLOAD RETURNDATASIZE PUSH1 0x1F NOT PUSH1 0x1F DUP3 ADD AND DUP3 ADD DUP1 PUSH1 0x40 MSTORE POP DUP2 ADD SWAP1 PUSH2 0x540 SWAP2 SWAP1 PUSH2 0x3CF3 JUMP JUMPDEST GT PUSH2 0x55D JUMPI PUSH1 0x40 MLOAD PUSH3 0x461BCD PUSH1 0xE5 SHL DUP2 MSTORE PUSH1 0x4 ADD PUSH2 0x4B4 SWAP1 PUSH2 0x3D0C JUMP JUMPDEST PUSH1 0x7 SLOAD PUSH1 0x1 PUSH1 0x1 PUSH1 0xA0 SHL SUB AND PUSH4 0xE985E9C5 CALLER ADDRESS PUSH1 0x40 MLOAD DUP4 PUSH4 0xFFFFFFFF AND PUSH1 0xE0 SHL DUP2 MSTORE PUSH1 0x4 ADD PUSH2 0x58D SWAP3 SWAP2 SWAP1 PUSH2 0x3D4D JUMP JUMPDEST PUSH1 0x20 PUSH1 0x40 MLOAD DUP1 DUP4 SUB DUP2 DUP7 GAS STATICCALL ISZERO DUP1 ISZERO PUSH2 0x5AA JUMPI RETURNDATASIZE PUSH1 0x0 DUP1 RETURNDATACOPY RETURNDATASIZE PUSH1 0x0 REVERT JUMPDEST POP POP POP POP PUSH1 0x40 MLOAD RETURNDATASIZE PUSH1 0x1F NOT PUSH1 0x1F DUP3 ADD AND DUP3 ADD DUP1 PUSH1 0x40 MSTORE POP DUP2 ADD SWAP1 PUSH2 0x5CE SWAP2 SWAP1 PUSH2 0x3D67 JUMP JUMPDEST ISZERO ISZERO PUSH1 0x1 EQ PUSH2 0x5EF JUMPI PUSH1 0x40 MLOAD PUSH3 0x461BCD PUSH1 0xE5 SHL DUP2 MSTORE PUSH1 0x4 ADD PUSH2 0x4B4 SWAP1 PUSH2 0x3D84 JUMP JUMPDEST PUSH2 0x5F7 PUSH2 0x74B JUMP JUMPDEST CALLVALUE LT ISZERO PUSH2 0x657 JUMPI PUSH1 0x40 MLOAD PUSH3 0x461BCD PUSH1 0xE5 SHL DUP2 MSTORE PUSH1 0x20 PUSH1 0x4 DUP3 ADD MSTORE PUSH1 0x28 PUSH1 0x24 DUP3 ADD MSTORE PUSH32 0x596F7520646F6E742068617665207375666963656E742062616C616E63652074 PUSH1 0x44 DUP3 ADD MSTORE PUSH8 0x1BC818D85B98D95B PUSH1 0xC2 SHL PUSH1 0x64 DUP3 ADD MSTORE PUSH1 0x84 ADD PUSH2 0x4B4 JUMP JUMPDEST PUSH2 0x65F PUSH2 0x28B9 JUMP JUMPDEST POP PUSH1 0x0 DUP3 DUP2 MSTORE PUSH1 0x8 PUSH1 0x20 DUP2 SWAP1 MSTORE PUSH1 0x40 DUP3 KECCAK256 DUP1 SLOAD PUSH1 0x1 PUSH1 0x1 PUSH1 0xA0 SHL SUB NOT AND DUP2 SSTORE PUSH1 0x1 DUP2 ADD DUP4 SWAP1 SSTORE PUSH1 0x2 DUP2 ADD DUP4 SWAP1 SSTORE PUSH1 0x3 DUP2 ADD DUP4 SWAP1 SSTORE PUSH1 0x4 DUP2 ADD DUP1 SLOAD PUSH3 0xFFFFFF NOT AND SWAP1 SSTORE PUSH1 0x5 DUP2 ADD DUP4 SWAP1 SSTORE PUSH1 0x6 DUP2 ADD DUP4 SWAP1 SSTORE PUSH1 0x7 DUP2 ADD DUP4 SWAP1 SSTORE SWAP1 DUP2 ADD DUP3 SWAP1 SSTORE SWAP1 PUSH1 0x9 DUP3 ADD DUP2 PUSH2 0x6CC DUP3 DUP3 PUSH2 0x371E JUMP JUMPDEST PUSH2 0x6DA PUSH1 0x1 DUP4 ADD PUSH1 0x0 PUSH2 0x371E JUMP JUMPDEST POP POP POP POP PUSH32 0x190146BE942EDF9ABEDA33AF30E9BB9C74D3002860E3C57E74CFD8277226F06E PUSH2 0x706 CALLER SWAP1 JUMP JUMPDEST PUSH1 0x40 DUP1 MLOAD PUSH1 0x1 PUSH1 0x1 PUSH1 0xA0 SHL SUB SWAP1 SWAP3 AND DUP3 MSTORE PUSH1 0x20 DUP3 ADD DUP6 SWAP1 MSTORE TIMESTAMP SWAP1 DUP3 ADD MSTORE PUSH1 0x0 PUSH1 0x60 DUP3 ADD DUP2 SWAP1 MSTORE PUSH1 0x80 DUP3 ADD DUP2 SWAP1 MSTORE PUSH1 0xA0 DUP3 ADD MSTORE PUSH1 0xC0 ADD PUSH1 0x40 MLOAD DUP1 SWAP2 SUB SWAP1 LOG1 POP PUSH1 0x1 SWAP2 SWAP1 POP JUMP JUMPDEST PUSH1 0x0 PUSH1 0x2 SLOAD PUSH1 0x64 PUSH1 0x5 PUSH1 0x0 SWAP1 SLOAD SWAP1 PUSH2 0x100 EXP SWAP1 DIV PUSH1 0x1 PUSH1 0x1 PUSH1 0xA0 SHL SUB AND PUSH1 0x1 PUSH1 0x1 PUSH1 0xA0 SHL SUB AND PUSH4 0xC338287F PUSH1 0x40 MLOAD DUP2 PUSH4 0xFFFFFFFF AND PUSH1 0xE0 SHL DUP2 MSTORE PUSH1 0x4 ADD PUSH1 0x20 PUSH1 0x40 MLOAD DUP1 DUP4 SUB DUP2 DUP7 GAS STATICCALL ISZERO DUP1 ISZERO PUSH2 0x7A5 JUMPI RETURNDATASIZE PUSH1 0x0 DUP1 RETURNDATACOPY RETURNDATASIZE PUSH1 0x0 REVERT JUMPDEST POP POP POP POP PUSH1 0x40 MLOAD RETURNDATASIZE PUSH1 0x1F NOT PUSH1 0x1F DUP3 ADD AND DUP3 ADD DUP1 PUSH1 0x40 MSTORE POP DUP2 ADD SWAP1 PUSH2 0x7C9 SWAP2 SWAP1 PUSH2 0x3CF3 JUMP JUMPDEST PUSH2 0x7D3 SWAP2 SWAP1 PUSH2 0x3DDE JUMP JUMPDEST PUSH2 0x7DD SWAP2 SWAP1 PUSH2 0x3E00 JUMP JUMPDEST SWAP1 POP SWAP1 JUMP JUMPDEST PUSH1 0x0 PUSH1 0x3 SLOAD PUSH1 0x64 PUSH1 0x5 PUSH1 0x0 SWAP1 SLOAD SWAP1 PUSH2 0x100 EXP SWAP1 DIV PUSH1 0x1 PUSH1 0x1 PUSH1 0xA0 SHL SUB AND PUSH1 0x1 PUSH1 0x1 PUSH1 0xA0 SHL SUB AND PUSH4 0xC338287F PUSH1 0x40 MLOAD DUP2 PUSH4 0xFFFFFFFF AND PUSH1 0xE0 SHL DUP2 MSTORE PUSH1 0x4 ADD PUSH1 0x20 PUSH1 0x40 MLOAD DUP1 DUP4 SUB DUP2 DUP7 GAS STATICCALL ISZERO DUP1 ISZERO PUSH2 0x7A5 JUMPI RETURNDATASIZE PUSH1 0x0 DUP1 RETURNDATACOPY RETURNDATASIZE PUSH1 0x0 REVERT JUMPDEST PUSH1 0x0 SLOAD PUSH1 0x1 PUSH1 0x1 PUSH1 0xA0 SHL SUB PUSH2 0x100 SWAP1 SWAP2 DIV AND CALLER EQ PUSH2 0x86C JUMPI PUSH1 0x40 MLOAD PUSH3 0x461BCD PUSH1 0xE5 SHL DUP2 MSTORE PUSH1 0x4 ADD PUSH2 0x4B4 SWAP1 PUSH2 0x3E1F JUMP JUMPDEST PUSH2 0x874 PUSH2 0x28FA JUMP JUMPDEST JUMP JUMPDEST PUSH2 0x87E PUSH2 0x373C JUMP JUMPDEST PUSH1 0x0 DUP3 DUP2 MSTORE PUSH1 0x8 PUSH1 0x20 DUP2 DUP2 MSTORE PUSH1 0x40 SWAP3 DUP4 SWAP1 KECCAK256 DUP4 MLOAD PUSH2 0x180 DUP2 ADD DUP6 MSTORE DUP2 SLOAD PUSH1 0x1 PUSH1 0x1 PUSH1 0xA0 SHL SUB AND DUP2 MSTORE PUSH1 0x1 DUP3 ADD SLOAD DUP2 DUP5 ADD MSTORE PUSH1 0x2 DUP3 ADD SLOAD DUP2 DUP7 ADD MSTORE PUSH1 0x3 DUP3 ADD SLOAD PUSH1 0x60 DUP1 DUP4 ADD SWAP2 SWAP1 SWAP2 MSTORE PUSH1 0x4 DUP4 ADD SLOAD PUSH1 0xFF DUP1 DUP3 AND ISZERO ISZERO PUSH1 0x80 DUP6 ADD MSTORE PUSH2 0x100 DUP1 DUP4 DIV DUP3 AND ISZERO ISZERO PUSH1 0xA0 DUP7 ADD MSTORE PUSH3 0x10000 SWAP1 SWAP3 DIV AND ISZERO ISZERO PUSH1 0xC0 DUP5 ADD MSTORE PUSH1 0x5 DUP5 ADD SLOAD PUSH1 0xE0 DUP5 ADD MSTORE PUSH1 0x6 DUP5 ADD SLOAD SWAP1 DUP4 ADD MSTORE PUSH1 0x7 DUP4 ADD SLOAD PUSH2 0x120 DUP4 ADD MSTORE SWAP4 DUP3 ADD SLOAD PUSH2 0x140 DUP3 ADD MSTORE DUP5 MLOAD PUSH1 0x9 DUP4 ADD DUP1 SLOAD SWAP5 DUP6 MUL DUP3 ADD DUP7 ADD DUP8 MSTORE SWAP6 DUP2 ADD DUP5 DUP2 MSTORE SWAP2 SWAP6 SWAP3 SWAP5 PUSH2 0x160 DUP8 ADD SWAP5 SWAP2 SWAP4 SWAP3 DUP5 SWAP3 SWAP1 SWAP2 DUP5 SWAP2 SWAP1 DUP5 ADD DUP3 DUP3 DUP1 ISZERO PUSH2 0x981 JUMPI PUSH1 0x20 MUL DUP3 ADD SWAP2 SWAP1 PUSH1 0x0 MSTORE PUSH1 0x20 PUSH1 0x0 KECCAK256 SWAP1 JUMPDEST DUP2 SLOAD PUSH1 0x1 PUSH1 0x1 PUSH1 0xA0 SHL SUB AND DUP2 MSTORE PUSH1 0x1 SWAP1 SWAP2 ADD SWAP1 PUSH1 0x20 ADD DUP1 DUP4 GT PUSH2 0x963 JUMPI JUMPDEST POP POP POP POP POP DUP2 MSTORE PUSH1 0x20 ADD PUSH1 0x1 DUP3 ADD DUP1 SLOAD DUP1 PUSH1 0x20 MUL PUSH1 0x20 ADD PUSH1 0x40 MLOAD SWAP1 DUP2 ADD PUSH1 0x40 MSTORE DUP1 SWAP3 SWAP2 SWAP1 DUP2 DUP2 MSTORE PUSH1 0x20 ADD DUP3 DUP1 SLOAD DUP1 ISZERO PUSH2 0x9D9 JUMPI PUSH1 0x20 MUL DUP3 ADD SWAP2 SWAP1 PUSH1 0x0 MSTORE PUSH1 0x20 PUSH1 0x0 KECCAK256 SWAP1 JUMPDEST DUP2 SLOAD DUP2 MSTORE PUSH1 0x20 ADD SWAP1 PUSH1 0x1 ADD SWAP1 DUP1 DUP4 GT PUSH2 0x9C5 JUMPI JUMPDEST POP POP POP SWAP2 SWAP1 SWAP3 MSTORE POP POP POP SWAP1 MSTORE POP SWAP3 SWAP2 POP POP JUMP JUMPDEST PUSH1 0x0 DUP1 SLOAD PUSH1 0xFF AND ISZERO PUSH2 0xA10 JUMPI PUSH1 0x40 MLOAD PUSH3 0x461BCD PUSH1 0xE5 SHL DUP2 MSTORE PUSH1 0x4 ADD PUSH2 0x4B4 SWAP1 PUSH2 0x3CC9 JUMP JUMPDEST PUSH2 0xA18 PUSH2 0x7E2 JUMP JUMPDEST CALLVALUE LT ISZERO PUSH2 0xA37 JUMPI PUSH1 0x40 MLOAD PUSH3 0x461BCD PUSH1 0xE5 SHL DUP2 MSTORE PUSH1 0x4 ADD PUSH2 0x4B4 SWAP1 PUSH2 0x3E54 JUMP JUMPDEST PUSH1 0x0 DUP3 DUP2 MSTORE PUSH1 0xB PUSH1 0x20 MSTORE PUSH1 0x40 SWAP1 KECCAK256 PUSH1 0x7 ADD SLOAD PUSH1 0xFF AND ISZERO ISZERO PUSH1 0x1 EQ PUSH2 0xA96 JUMPI PUSH1 0x40 MLOAD PUSH3 0x461BCD PUSH1 0xE5 SHL DUP2 MSTORE PUSH1 0x20 PUSH1 0x4 DUP3 ADD MSTORE PUSH1 0x16 PUSH1 0x24 DUP3 ADD MSTORE PUSH22 0x139BDD08195E1A5CDD081D1A1A5CC81C995C5D595CDD PUSH1 0x52 SHL PUSH1 0x44 DUP3 ADD MSTORE PUSH1 0x64 ADD PUSH2 0x4B4 JUMP JUMPDEST PUSH1 0x7 SLOAD PUSH1 0x1 PUSH1 0x1 PUSH1 0xA0 SHL SUB AND PUSH4 0xE985E9C5 CALLER ADDRESS PUSH1 0x40 MLOAD DUP4 PUSH4 0xFFFFFFFF AND PUSH1 0xE0 SHL DUP2 MSTORE PUSH1 0x4 ADD PUSH2 0xAC6 SWAP3 SWAP2 SWAP1 PUSH2 0x3D4D JUMP JUMPDEST PUSH1 0x20 PUSH1 0x40 MLOAD DUP1 DUP4 SUB DUP2 DUP7 GAS STATICCALL ISZERO DUP1 ISZERO PUSH2 0xAE3 JUMPI RETURNDATASIZE PUSH1 0x0 DUP1 RETURNDATACOPY RETURNDATASIZE PUSH1 0x0 REVERT JUMPDEST POP POP POP POP PUSH1 0x40 MLOAD RETURNDATASIZE PUSH1 0x1F NOT PUSH1 0x1F DUP3 ADD AND DUP3 ADD DUP1 PUSH1 0x40 MSTORE POP DUP2 ADD SWAP1 PUSH2 0xB07 SWAP2 SWAP1 PUSH2 0x3D67 JUMP JUMPDEST ISZERO ISZERO PUSH1 0x1 EQ PUSH2 0xB6B JUMPI PUSH1 0x40 MLOAD PUSH3 0x461BCD PUSH1 0xE5 SHL DUP2 MSTORE PUSH1 0x20 PUSH1 0x4 DUP3 ADD MSTORE PUSH1 0x2A PUSH1 0x24 DUP3 ADD MSTORE PUSH32 0x4F6E776572206E6F7420617070726F766564206974656D7320666F7220746869 PUSH1 0x44 DUP3 ADD MSTORE PUSH10 0x1CC818DBDB9D1C9858DD PUSH1 0xB2 SHL PUSH1 0x64 DUP3 ADD MSTORE PUSH1 0x84 ADD PUSH2 0x4B4 JUMP JUMPDEST PUSH1 0x0 DUP3 DUP2 MSTORE PUSH1 0xB PUSH1 0x20 SWAP1 DUP2 MSTORE PUSH1 0x40 DUP1 DUP4 KECCAK256 DUP2 MLOAD PUSH2 0x100 DUP2 ADD DUP4 MSTORE DUP2 SLOAD DUP2 MSTORE PUSH1 0x1 DUP3 ADD SLOAD DUP2 DUP6 ADD MSTORE PUSH1 0x2 DUP3 ADD SLOAD DUP2 DUP5 ADD MSTORE PUSH1 0x3 DUP3 ADD SLOAD PUSH1 0x1 PUSH1 0x1 PUSH1 0xA0 SHL SUB AND PUSH1 0x60 DUP3 ADD MSTORE PUSH1 0x4 DUP3 ADD SLOAD PUSH1 0x80 DUP3 ADD MSTORE PUSH1 0x5 DUP3 ADD DUP1 SLOAD DUP5 MLOAD DUP2 DUP8 MUL DUP2 ADD DUP8 ADD SWAP1 SWAP6 MSTORE DUP1 DUP6 MSTORE SWAP2 SWAP5 SWAP3 SWAP4 PUSH1 0xA0 DUP7 ADD SWAP4 SWAP1 SWAP3 SWAP1 DUP4 ADD DUP3 DUP3 DUP1 ISZERO PUSH2 0xC08 JUMPI PUSH1 0x20 MUL DUP3 ADD SWAP2 SWAP1 PUSH1 0x0 MSTORE PUSH1 0x20 PUSH1 0x0 KECCAK256 SWAP1 JUMPDEST DUP2 SLOAD DUP2 MSTORE PUSH1 0x20 ADD SWAP1 PUSH1 0x1 ADD SWAP1 DUP1 DUP4 GT PUSH2 0xBF4 JUMPI JUMPDEST POP POP POP POP POP DUP2 MSTORE PUSH1 0x20 ADD PUSH1 0x6 DUP3 ADD DUP1 SLOAD DUP1 PUSH1 0x20 MUL PUSH1 0x20 ADD PUSH1 0x40 MLOAD SWAP1 DUP2 ADD PUSH1 0x40 MSTORE DUP1 SWAP3 SWAP2 SWAP1 DUP2 DUP2 MSTORE PUSH1 0x20 ADD DUP3 DUP1 SLOAD DUP1 ISZERO PUSH2 0xC60 JUMPI PUSH1 0x20 MUL DUP3 ADD SWAP2 SWAP1 PUSH1 0x0 MSTORE PUSH1 0x20 PUSH1 0x0 KECCAK256 SWAP1 JUMPDEST DUP2 SLOAD DUP2 MSTORE PUSH1 0x20 ADD SWAP1 PUSH1 0x1 ADD SWAP1 DUP1 DUP4 GT PUSH2 0xC4C JUMPI JUMPDEST POP POP POP SWAP2 DUP4 MSTORE POP POP PUSH1 0x7 SWAP2 DUP3 ADD SLOAD PUSH1 0xFF AND ISZERO ISZERO PUSH1 0x20 SWAP1 SWAP2 ADD MSTORE SLOAD PUSH1 0x60 DUP3 ADD MLOAD PUSH1 0x40 MLOAD PUSH4 0xE985E9C5 PUSH1 0xE0 SHL DUP2 MSTORE SWAP3 SWAP4 POP PUSH1 0x1 PUSH1 0x1 PUSH1 0xA0 SHL SUB SWAP1 SWAP2 AND SWAP2 PUSH4 0xE985E9C5 SWAP2 PUSH2 0xCAF SWAP2 ADDRESS SWAP1 PUSH1 0x4 ADD PUSH2 0x3D4D JUMP JUMPDEST PUSH1 0x20 PUSH1 0x40 MLOAD DUP1 DUP4 SUB DUP2 DUP7 GAS STATICCALL ISZERO DUP1 ISZERO PUSH2 0xCCC JUMPI RETURNDATASIZE PUSH1 0x0 DUP1 RETURNDATACOPY RETURNDATASIZE PUSH1 0x0 REVERT JUMPDEST POP POP POP POP PUSH1 0x40 MLOAD RETURNDATASIZE PUSH1 0x1F NOT PUSH1 0x1F DUP3 ADD AND DUP3 ADD DUP1 PUSH1 0x40 MSTORE POP DUP2 ADD SWAP1 PUSH2 0xCF0 SWAP2 SWAP1 PUSH2 0x3D67 JUMP JUMPDEST ISZERO ISZERO PUSH1 0x1 EQ PUSH2 0xD5C JUMPI PUSH1 0x40 MLOAD PUSH3 0x461BCD PUSH1 0xE5 SHL DUP2 MSTORE PUSH1 0x20 PUSH1 0x4 DUP3 ADD MSTORE PUSH1 0x32 PUSH1 0x24 DUP3 ADD MSTORE PUSH32 0x526571756573742066726F6D206E6F7420617070726F766564206F6666657273 PUSH1 0x44 DUP3 ADD MSTORE PUSH18 0x8199BDC881D1A1A5CC818DBDB9D1C9858DD PUSH1 0x72 SHL PUSH1 0x64 DUP3 ADD MSTORE PUSH1 0x84 ADD PUSH2 0x4B4 JUMP JUMPDEST TIMESTAMP DUP2 PUSH1 0x20 ADD MLOAD DUP3 PUSH1 0x40 ADD MLOAD PUSH2 0xD71 SWAP2 SWAP1 PUSH2 0x3E99 JUMP JUMPDEST LT ISZERO PUSH2 0xDBF JUMPI PUSH1 0x40 MLOAD PUSH3 0x461BCD PUSH1 0xE5 SHL DUP2 MSTORE PUSH1 0x20 PUSH1 0x4 DUP3 ADD MSTORE PUSH1 0x19 PUSH1 0x24 DUP3 ADD MSTORE PUSH32 0x546869732072657175657374206973206E6F742076616C696400000000000000 PUSH1 0x44 DUP3 ADD MSTORE PUSH1 0x64 ADD PUSH2 0x4B4 JUMP JUMPDEST PUSH2 0xDD1 DUP2 PUSH1 0xA0 ADD MLOAD DUP3 PUSH1 0x60 ADD MLOAD PUSH2 0x298D JUMP JUMPDEST POP PUSH2 0xDE6 DUP2 PUSH1 0xC0 ADD MLOAD PUSH2 0xDE1 CALLER SWAP1 JUMP JUMPDEST PUSH2 0x298D JUMP JUMPDEST POP PUSH2 0xE03 DUP2 PUSH1 0x80 ADD MLOAD DUP3 PUSH1 0x60 ADD MLOAD DUP4 PUSH1 0xC0 ADD MLOAD DUP5 PUSH1 0xA0 ADD MLOAD PUSH2 0x2ADA JUMP JUMPDEST ISZERO PUSH2 0xEC5 JUMPI PUSH32 0x91B79EB52E6F688B3499FA09F9DD6E10752549FF8FC87733769123286839EFC5 DUP4 DUP3 PUSH1 0x20 ADD MLOAD TIMESTAMP PUSH2 0xE37 CALLER SWAP1 JUMP JUMPDEST DUP6 PUSH1 0x80 ADD MLOAD DUP7 PUSH1 0xA0 ADD MLOAD DUP8 PUSH1 0xC0 ADD MLOAD PUSH1 0x0 PUSH1 0x40 MLOAD PUSH2 0xE5C SWAP9 SWAP8 SWAP7 SWAP6 SWAP5 SWAP4 SWAP3 SWAP2 SWAP1 PUSH2 0x3EEC JUMP JUMPDEST PUSH1 0x40 MLOAD DUP1 SWAP2 SUB SWAP1 LOG1 PUSH1 0x0 DUP4 DUP2 MSTORE PUSH1 0xB PUSH1 0x20 MSTORE PUSH1 0x40 DUP2 KECCAK256 DUP2 DUP2 SSTORE PUSH1 0x1 DUP2 ADD DUP3 SWAP1 SSTORE PUSH1 0x2 DUP2 ADD DUP3 SWAP1 SSTORE PUSH1 0x3 DUP2 ADD DUP1 SLOAD PUSH1 0x1 PUSH1 0x1 PUSH1 0xA0 SHL SUB NOT AND SWAP1 SSTORE PUSH1 0x4 DUP2 ADD DUP3 SWAP1 SSTORE SWAP1 PUSH2 0xEAA PUSH1 0x5 DUP4 ADD DUP3 PUSH2 0x371E JUMP JUMPDEST PUSH2 0xEB8 PUSH1 0x6 DUP4 ADD PUSH1 0x0 PUSH2 0x371E JUMP JUMPDEST POP PUSH1 0x7 ADD DUP1 SLOAD PUSH1 0xFF NOT AND SWAP1 SSTORE JUMPDEST POP PUSH1 0x1 SWAP3 SWAP2 POP POP JUMP JUMPDEST PUSH1 0x0 DUP1 SLOAD PUSH1 0x1 PUSH1 0x1 PUSH1 0xA0 SHL SUB PUSH2 0x100 SWAP1 SWAP2 DIV AND CALLER EQ PUSH2 0xEFF JUMPI PUSH1 0x40 MLOAD PUSH3 0x461BCD PUSH1 0xE5 SHL DUP2 MSTORE PUSH1 0x4 ADD PUSH2 0x4B4 SWAP1 PUSH2 0x3E1F JUMP JUMPDEST PUSH1 0x1 DUP3 SWAP1 SSTORE PUSH1 0x3 SLOAD PUSH1 0x2 SLOAD PUSH1 0x40 MLOAD DUP5 SWAP1 PUSH32 0x7DB2709F6E7ADF14B75AC6A4BC01B5F3FF9000017F9648C2B70F6CA8616D8F57 SWAP1 PUSH1 0x0 SWAP1 LOG4 POP PUSH1 0x1 SWAP2 SWAP1 POP JUMP JUMPDEST PUSH1 0x0 DUP1 SLOAD PUSH1 0xFF AND ISZERO PUSH2 0xF61 JUMPI PUSH1 0x40 MLOAD PUSH3 0x461BCD PUSH1 0xE5 SHL DUP2 MSTORE PUSH1 0x4 ADD PUSH2 0x4B4 SWAP1 PUSH2 0x3CC9 JUMP JUMPDEST PUSH2 0xF69 PUSH2 0x2721 JUMP JUMPDEST CALLVALUE LT ISZERO PUSH2 0xF88 JUMPI PUSH1 0x40 MLOAD PUSH3 0x461BCD PUSH1 0xE5 SHL DUP2 MSTORE PUSH1 0x4 ADD PUSH2 0x4B4 SWAP1 PUSH2 0x3E54 JUMP JUMPDEST PUSH1 0x0 DUP6 MLOAD GT PUSH2 0xFCB JUMPI PUSH1 0x40 MLOAD PUSH3 0x461BCD PUSH1 0xE5 SHL DUP2 MSTORE PUSH1 0x20 PUSH1 0x4 DUP3 ADD MSTORE PUSH1 0xF PUSH1 0x24 DUP3 ADD MSTORE PUSH15 0x4974656D732061726520656D707479 PUSH1 0x88 SHL PUSH1 0x44 DUP3 ADD MSTORE PUSH1 0x64 ADD PUSH2 0x4B4 JUMP JUMPDEST PUSH1 0x0 DUP7 GT PUSH2 0x101B JUMPI PUSH1 0x40 MLOAD PUSH3 0x461BCD PUSH1 0xE5 SHL DUP2 MSTORE PUSH1 0x20 PUSH1 0x4 DUP3 ADD MSTORE PUSH1 0x1F PUSH1 0x24 DUP3 ADD MSTORE PUSH32 0x506F736974696F6E206D7573742062652067726561746572207468616E203000 PUSH1 0x44 DUP3 ADD MSTORE PUSH1 0x64 ADD PUSH2 0x4B4 JUMP JUMPDEST PUSH1 0x0 DUP5 MLOAD GT DUP1 PUSH2 0x102C JUMPI POP PUSH1 0x6 SLOAD DUP4 GT JUMPDEST PUSH2 0x1078 JUMPI PUSH1 0x40 MLOAD PUSH3 0x461BCD PUSH1 0xE5 SHL DUP2 MSTORE PUSH1 0x20 PUSH1 0x4 DUP3 ADD MSTORE PUSH1 0x1E PUSH1 0x24 DUP3 ADD MSTORE PUSH32 0x416D6F756E74206F72206F66666572732061726520696E636F72726563740000 PUSH1 0x44 DUP3 ADD MSTORE PUSH1 0x64 ADD PUSH2 0x4B4 JUMP JUMPDEST PUSH1 0x0 DUP7 DUP2 MSTORE PUSH1 0xB PUSH1 0x20 MSTORE PUSH1 0x40 SWAP1 KECCAK256 PUSH1 0x7 ADD SLOAD PUSH1 0xFF AND ISZERO PUSH2 0x10EF JUMPI PUSH1 0x40 MLOAD PUSH3 0x461BCD PUSH1 0xE5 SHL DUP2 MSTORE PUSH1 0x20 PUSH1 0x4 DUP3 ADD MSTORE PUSH1 0x2C PUSH1 0x24 DUP3 ADD MSTORE PUSH32 0x4F6666657220696E64657820697320696E76616C69642062792074686520736D PUSH1 0x44 DUP3 ADD MSTORE PUSH12 0x185C9D0818DBDB9D1C9858DD PUSH1 0xA2 SHL PUSH1 0x64 DUP3 ADD MSTORE PUSH1 0x84 ADD PUSH2 0x4B4 JUMP JUMPDEST PUSH1 0x7 SLOAD PUSH1 0x1 PUSH1 0x1 PUSH1 0xA0 SHL SUB AND PUSH4 0xE985E9C5 CALLER ADDRESS PUSH1 0x40 MLOAD DUP4 PUSH4 0xFFFFFFFF AND PUSH1 0xE0 SHL DUP2 MSTORE PUSH1 0x4 ADD PUSH2 0x111F SWAP3 SWAP2 SWAP1 PUSH2 0x3D4D JUMP JUMPDEST PUSH1 0x20 PUSH1 0x40 MLOAD DUP1 DUP4 SUB DUP2 DUP7 GAS STATICCALL ISZERO DUP1 ISZERO PUSH2 0x113C JUMPI RETURNDATASIZE PUSH1 0x0 DUP1 RETURNDATACOPY RETURNDATASIZE PUSH1 0x0 REVERT JUMPDEST POP POP POP POP PUSH1 0x40 MLOAD RETURNDATASIZE PUSH1 0x1F NOT PUSH1 0x1F DUP3 ADD AND DUP3 ADD DUP1 PUSH1 0x40 MSTORE POP DUP2 ADD SWAP1 PUSH2 0x1160 SWAP2 SWAP1 PUSH2 0x3D67 JUMP JUMPDEST ISZERO ISZERO PUSH1 0x1 EQ PUSH2 0x1181 JUMPI PUSH1 0x40 MLOAD PUSH3 0x461BCD PUSH1 0xE5 SHL DUP2 MSTORE PUSH1 0x4 ADD PUSH2 0x4B4 SWAP1 PUSH2 0x3D84 JUMP JUMPDEST PUSH2 0x118A DUP6 PUSH2 0x2DDE JUMP JUMPDEST PUSH2 0x1192 PUSH2 0x28B9 JUMP JUMPDEST POP PUSH2 0x119C DUP6 PUSH2 0x2F76 JUMP JUMPDEST POP PUSH2 0x11A7 DUP5 CALLER PUSH2 0x298D JUMP JUMPDEST POP PUSH1 0x0 PUSH1 0x40 MLOAD DUP1 PUSH2 0x100 ADD PUSH1 0x40 MSTORE DUP1 DUP9 DUP2 MSTORE PUSH1 0x20 ADD DUP5 DUP2 MSTORE PUSH1 0x20 ADD TIMESTAMP DUP2 MSTORE PUSH1 0x20 ADD PUSH2 0x11CF CALLER SWAP1 JUMP JUMPDEST PUSH1 0x1 PUSH1 0x1 PUSH1 0xA0 SHL SUB SWAP1 DUP2 AND DUP3 MSTORE PUSH1 0x20 DUP1 DUP4 ADD DUP9 SWAP1 MSTORE PUSH1 0x40 DUP1 DUP5 ADD DUP11 SWAP1 MSTORE PUSH1 0x60 DUP1 DUP6 ADD DUP13 SWAP1 MSTORE PUSH1 0x1 PUSH1 0x80 SWAP6 DUP7 ADD DUP2 SWAP1 MSTORE PUSH1 0x0 DUP15 DUP2 MSTORE PUSH1 0xB DUP6 MSTORE DUP4 SWAP1 KECCAK256 DUP8 MLOAD DUP2 SSTORE DUP8 DUP6 ADD MLOAD SWAP2 DUP2 ADD SWAP2 SWAP1 SWAP2 SSTORE SWAP2 DUP7 ADD MLOAD PUSH1 0x2 DUP4 ADD SSTORE DUP6 ADD MLOAD PUSH1 0x3 DUP3 ADD DUP1 SLOAD PUSH1 0x1 PUSH1 0x1 PUSH1 0xA0 SHL SUB NOT AND SWAP2 SWAP1 SWAP5 AND OR SWAP1 SWAP3 SSTORE SWAP2 DUP4 ADD MLOAD PUSH1 0x4 DUP3 ADD SSTORE PUSH1 0xA0 DUP4 ADD MLOAD DUP1 MLOAD SWAP4 SWAP5 POP DUP5 SWAP4 SWAP2 SWAP3 PUSH2 0x1266 SWAP3 PUSH1 0x5 DUP6 ADD SWAP3 SWAP1 SWAP2 ADD SWAP1 PUSH2 0x37C6 JUMP JUMPDEST POP PUSH1 0xC0 DUP3 ADD MLOAD DUP1 MLOAD PUSH2 0x1282 SWAP2 PUSH1 0x6 DUP5 ADD SWAP2 PUSH1 0x20 SWAP1 SWAP2 ADD SWAP1 PUSH2 0x37C6 JUMP JUMPDEST POP PUSH1 0xE0 SWAP2 SWAP1 SWAP2 ADD MLOAD PUSH1 0x7 SWAP1 SWAP2 ADD DUP1 SLOAD PUSH1 0xFF NOT AND SWAP2 ISZERO ISZERO SWAP2 SWAP1 SWAP2 OR SWAP1 SSTORE PUSH32 0x2C3A17E11898BF86CF29F1E63CEC893A178D91D7274852AE92CEA5C78BB258F0 DUP8 DUP5 TIMESTAMP CALLER DUP9 DUP11 DUP13 PUSH1 0x1 PUSH1 0x40 MLOAD PUSH2 0x12DC SWAP9 SWAP8 SWAP7 SWAP6 SWAP5 SWAP4 SWAP3 SWAP2 SWAP1 PUSH2 0x3EEC JUMP JUMPDEST PUSH1 0x40 MLOAD DUP1 SWAP2 SUB SWAP1 LOG1 PUSH2 0x12EF DUP5 DUP8 DUP8 PUSH2 0x30DA JUMP JUMPDEST ISZERO PUSH2 0x139B JUMPI PUSH32 0x91B79EB52E6F688B3499FA09F9DD6E10752549FF8FC87733769123286839EFC5 DUP8 DUP5 TIMESTAMP CALLER DUP9 DUP11 DUP13 PUSH1 0x0 PUSH1 0x40 MLOAD PUSH2 0x1332 SWAP9 SWAP8 SWAP7 SWAP6 SWAP5 SWAP4 SWAP3 SWAP2 SWAP1 PUSH2 0x3EEC JUMP JUMPDEST PUSH1 0x40 MLOAD DUP1 SWAP2 SUB SWAP1 LOG1 PUSH1 0x0 DUP8 DUP2 MSTORE PUSH1 0xB PUSH1 0x20 MSTORE PUSH1 0x40 DUP2 KECCAK256 DUP2 DUP2 SSTORE PUSH1 0x1 DUP2 ADD DUP3 SWAP1 SSTORE PUSH1 0x2 DUP2 ADD DUP3 SWAP1 SSTORE PUSH1 0x3 DUP2 ADD DUP1 SLOAD PUSH1 0x1 PUSH1 0x1 PUSH1 0xA0 SHL SUB NOT AND SWAP1 SSTORE PUSH1 0x4 DUP2 ADD DUP3 SWAP1 SSTORE SWAP1 PUSH2 0x1380 PUSH1 0x5 DUP4 ADD DUP3 PUSH2 0x371E JUMP JUMPDEST PUSH2 0x138E PUSH1 0x6 DUP4 ADD PUSH1 0x0 PUSH2 0x371E JUMP JUMPDEST POP PUSH1 0x7 ADD DUP1 SLOAD PUSH1 0xFF NOT AND SWAP1 SSTORE JUMPDEST POP PUSH1 0x1 SWAP7 SWAP6 POP POP POP POP POP POP JUMP JUMPDEST PUSH1 0x0 DUP1 SLOAD PUSH1 0x1 PUSH1 0x1 PUSH1 0xA0 SHL SUB PUSH2 0x100 SWAP1 SWAP2 DIV AND CALLER EQ PUSH2 0x13D9 JUMPI PUSH1 0x40 MLOAD PUSH3 0x461BCD PUSH1 0xE5 SHL DUP2 MSTORE PUSH1 0x4 ADD PUSH2 0x4B4 SWAP1 PUSH2 0x3E1F JUMP JUMPDEST POP PUSH1 0x6 SSTORE PUSH1 0x1 SWAP1 JUMP JUMPDEST PUSH1 0x0 SLOAD PUSH1 0x1 PUSH1 0x1 PUSH1 0xA0 SHL SUB PUSH2 0x100 SWAP1 SWAP2 DIV AND CALLER EQ PUSH2 0x1412 JUMPI PUSH1 0x40 MLOAD PUSH3 0x461BCD PUSH1 0xE5 SHL DUP2 MSTORE PUSH1 0x4 ADD PUSH2 0x4B4 SWAP1 PUSH2 0x3E1F JUMP JUMPDEST PUSH2 0x874 PUSH1 0x0 PUSH2 0x358D JUMP JUMPDEST PUSH1 0x8 PUSH1 0x20 DUP2 DUP2 MSTORE PUSH1 0x0 SWAP3 DUP4 MSTORE PUSH1 0x40 SWAP3 DUP4 SWAP1 KECCAK256 DUP1 SLOAD PUSH1 0x1 DUP3 ADD SLOAD PUSH1 0x2 DUP4 ADD SLOAD PUSH1 0x3 DUP5 ADD SLOAD PUSH1 0x4 DUP6 ADD SLOAD PUSH1 0x5 DUP7 ADD SLOAD PUSH1 0x6 DUP8 ADD SLOAD PUSH1 0x7 DUP9 ADD SLOAD SWAP10 DUP9 ADD SLOAD DUP12 MLOAD PUSH1 0x9 DUP11 ADD DUP1 SLOAD PUSH1 0x60 SWAP13 DUP2 MUL DUP4 ADD DUP14 ADD DUP16 MSTORE SWAP14 DUP3 ADD DUP15 DUP2 MSTORE PUSH1 0x1 PUSH1 0x1 PUSH1 0xA0 SHL SUB SWAP1 SWAP11 AND SWAP14 SWAP9 SWAP13 SWAP8 SWAP12 SWAP7 SWAP11 PUSH1 0xFF DUP1 DUP9 AND SWAP12 PUSH2 0x100 DUP10 DIV DUP3 AND SWAP12 PUSH3 0x10000 SWAP1 SWAP10 DIV SWAP1 SWAP2 AND SWAP10 SWAP7 SWAP9 SWAP6 SWAP8 SWAP5 SWAP6 SWAP2 SWAP5 DUP5 SWAP3 DUP5 SWAP2 SWAP1 DUP5 ADD DUP3 DUP3 DUP1 ISZERO PUSH2 0x14E1 JUMPI PUSH1 0x20 MUL DUP3 ADD SWAP2 SWAP1 PUSH1 0x0 MSTORE PUSH1 0x20 PUSH1 0x0 KECCAK256 SWAP1 JUMPDEST DUP2 SLOAD PUSH1 0x1 PUSH1 0x1 PUSH1 0xA0 SHL SUB AND DUP2 MSTORE PUSH1 0x1 SWAP1 SWAP2 ADD SWAP1 PUSH1 0x20 ADD DUP1 DUP4 GT PUSH2 0x14C3 JUMPI JUMPDEST POP POP POP POP POP DUP2 MSTORE PUSH1 0x20 ADD PUSH1 0x1 DUP3 ADD DUP1 SLOAD DUP1 PUSH1 0x20 MUL PUSH1 0x20 ADD PUSH1 0x40 MLOAD SWAP1 DUP2 ADD PUSH1 0x40 MSTORE DUP1 SWAP3 SWAP2 SWAP1 DUP2 DUP2 MSTORE PUSH1 0x20 ADD DUP3 DUP1 SLOAD DUP1 ISZERO PUSH2 0x1539 JUMPI PUSH1 0x20 MUL DUP3 ADD SWAP2 SWAP1 PUSH1 0x0 MSTORE PUSH1 0x20 PUSH1 0x0 KECCAK256 SWAP1 JUMPDEST DUP2 SLOAD DUP2 MSTORE PUSH1 0x20 ADD SWAP1 PUSH1 0x1 ADD SWAP1 DUP1 DUP4 GT PUSH2 0x1525 JUMPI JUMPDEST POP POP POP POP POP DUP2 MSTORE POP POP SWAP1 POP DUP13 JUMP JUMPDEST PUSH1 0x0 DUP1 SLOAD PUSH1 0x1 PUSH1 0x1 PUSH1 0xA0 SHL SUB PUSH2 0x100 SWAP1 SWAP2 DIV AND CALLER EQ PUSH2 0x1578 JUMPI PUSH1 0x40 MLOAD PUSH3 0x461BCD PUSH1 0xE5 SHL DUP2 MSTORE PUSH1 0x4 ADD PUSH2 0x4B4 SWAP1 PUSH2 0x3E1F JUMP JUMPDEST PUSH1 0x5 DUP1 SLOAD PUSH1 0x1 PUSH1 0x1 PUSH1 0xA0 SHL SUB NOT AND PUSH1 0x1 PUSH1 0x1 PUSH1 0xA0 SHL SUB DUP5 AND SWAP1 DUP2 OR SWAP1 SWAP2 SSTORE PUSH1 0x40 MLOAD PUSH32 0x6D4881172853E787189216DE6D514B739B8AD6A331E19518C66D3DC2B93639B5 SWAP1 PUSH1 0x0 SWAP1 LOG2 POP PUSH1 0x1 SWAP2 SWAP1 POP JUMP JUMPDEST PUSH1 0x0 PUSH2 0x15D2 DUP4 PUSH2 0x876 JUMP JUMPDEST SWAP1 POP PUSH1 0x0 DUP1 DUP3 PUSH2 0x120 ADD MLOAD TIMESTAMP PUSH2 0x15E8 SWAP2 SWAP1 PUSH2 0x3E99 JUMP JUMPDEST SWAP1 POP PUSH2 0x15F2 PUSH2 0x2721 JUMP JUMPDEST CALLVALUE LT ISZERO PUSH2 0x1641 JUMPI PUSH1 0x40 MLOAD PUSH3 0x461BCD PUSH1 0xE5 SHL DUP2 MSTORE PUSH1 0x20 PUSH1 0x4 DUP3 ADD MSTORE PUSH1 0x1B PUSH1 0x24 DUP3 ADD MSTORE PUSH32 0x596F7520646F6E74206861766520656E6F75676820746F207061790000000000 PUSH1 0x44 DUP3 ADD MSTORE PUSH1 0x64 ADD PUSH2 0x4B4 JUMP JUMPDEST TIMESTAMP DUP2 LT PUSH2 0x1689 JUMPI PUSH1 0x40 MLOAD PUSH3 0x461BCD PUSH1 0xE5 SHL DUP2 MSTORE PUSH1 0x20 PUSH1 0x4 DUP3 ADD MSTORE PUSH1 0x16 PUSH1 0x24 DUP3 ADD MSTORE PUSH22 0x41756374696F6E20697320696E2070726F6772657373 PUSH1 0x50 SHL PUSH1 0x44 DUP3 ADD MSTORE PUSH1 0x64 ADD PUSH2 0x4B4 JUMP JUMPDEST PUSH1 0x7 SLOAD PUSH1 0x40 MLOAD PUSH3 0x7EEAC7 PUSH1 0xE1 SHL DUP2 MSTORE CALLER PUSH1 0x4 DUP3 ADD MSTORE PUSH1 0x24 DUP2 ADD DUP8 SWAP1 MSTORE PUSH1 0x0 SWAP2 PUSH1 0x1 PUSH1 0x1 PUSH1 0xA0 SHL SUB AND SWAP1 PUSH3 0xFDD58E SWAP1 PUSH1 0x44 ADD PUSH1 0x20 PUSH1 0x40 MLOAD DUP1 DUP4 SUB DUP2 DUP7 GAS STATICCALL ISZERO DUP1 ISZERO PUSH2 0x16D7 JUMPI RETURNDATASIZE PUSH1 0x0 DUP1 RETURNDATACOPY RETURNDATASIZE PUSH1 0x0 REVERT JUMPDEST POP POP POP POP PUSH1 0x40 MLOAD RETURNDATASIZE PUSH1 0x1F NOT PUSH1 0x1F DUP3 ADD AND DUP3 ADD DUP1 PUSH1 0x40 MSTORE POP DUP2 ADD SWAP1 PUSH2 0x16FB SWAP2 SWAP1 PUSH2 0x3CF3 JUMP JUMPDEST GT PUSH2 0x1741 JUMPI PUSH1 0x40 MLOAD PUSH3 0x461BCD PUSH1 0xE5 SHL DUP2 MSTORE PUSH1 0x20 PUSH1 0x4 DUP3 ADD MSTORE PUSH1 0x16 PUSH1 0x24 DUP3 ADD MSTORE PUSH22 0x2737BA103A34329037BBB732B91037B3103A37B5B2B7 PUSH1 0x51 SHL PUSH1 0x44 DUP3 ADD MSTORE PUSH1 0x64 ADD PUSH2 0x4B4 JUMP JUMPDEST DUP3 MLOAD PUSH2 0x160 DUP5 ADD MLOAD PUSH1 0x20 ADD MLOAD MLOAD PUSH1 0x0 SWAP1 DUP2 SWAP1 ISZERO DUP1 ISZERO SWAP1 PUSH2 0x17F7 JUMPI POP PUSH2 0x1764 PUSH2 0x2721 JUMP JUMPDEST DUP7 PUSH2 0x140 ADD MLOAD PUSH2 0x1774 SWAP2 SWAP1 PUSH2 0x3E99 JUMP JUMPDEST PUSH1 0x1 PUSH1 0x1 PUSH1 0xA0 SHL SUB DUP9 DUP2 AND PUSH1 0x0 DUP2 DUP2 MSTORE PUSH1 0xC PUSH1 0x20 MSTORE PUSH1 0x40 SWAP1 DUP2 SWAP1 KECCAK256 PUSH1 0x3 ADD SLOAD SWAP1 MLOAD PUSH4 0x70A08231 PUSH1 0xE0 SHL DUP2 MSTORE PUSH1 0x4 DUP2 ADD SWAP3 SWAP1 SWAP3 MSTORE SWAP1 SWAP2 AND SWAP1 PUSH4 0x70A08231 SWAP1 PUSH1 0x24 ADD PUSH1 0x20 PUSH1 0x40 MLOAD DUP1 DUP4 SUB DUP2 DUP7 GAS STATICCALL ISZERO DUP1 ISZERO PUSH2 0x17D1 JUMPI RETURNDATASIZE PUSH1 0x0 DUP1 RETURNDATACOPY RETURNDATASIZE PUSH1 0x0 REVERT JUMPDEST POP POP POP POP PUSH1 0x40 MLOAD RETURNDATASIZE PUSH1 0x1F NOT PUSH1 0x1F DUP3 ADD AND DUP3 ADD DUP1 PUSH1 0x40 MSTORE POP DUP2 ADD SWAP1 PUSH2 0x17F5 SWAP2 SWAP1 PUSH2 0x3CF3 JUMP JUMPDEST LT JUMPDEST ISZERO PUSH2 0x1CBD JUMPI PUSH1 0x0 PUSH1 0x1 DUP8 PUSH2 0x160 ADD MLOAD PUSH1 0x20 ADD MLOAD MLOAD PUSH2 0x1815 SWAP2 SWAP1 PUSH2 0x3F52 JUMP JUMPDEST SWAP1 POP JUMPDEST DUP3 DUP8 PUSH2 0x160 ADD MLOAD PUSH1 0x20 ADD MLOAD DUP3 DUP2 MLOAD DUP2 LT PUSH2 0x1834 JUMPI PUSH2 0x1834 PUSH2 0x3F69 JUMP JUMPDEST PUSH1 0x20 MUL PUSH1 0x20 ADD ADD MLOAD GT ISZERO PUSH2 0x1B3A JUMPI PUSH2 0x184A PUSH2 0x2721 JUMP JUMPDEST DUP8 PUSH2 0x160 ADD MLOAD PUSH1 0x20 ADD MLOAD DUP3 DUP2 MLOAD DUP2 LT PUSH2 0x1865 JUMPI PUSH2 0x1865 PUSH2 0x3F69 JUMP JUMPDEST PUSH1 0x20 MUL PUSH1 0x20 ADD ADD MLOAD PUSH2 0x1877 SWAP2 SWAP1 PUSH2 0x3E99 JUMP JUMPDEST PUSH1 0xC PUSH1 0x0 DUP10 PUSH2 0x160 ADD MLOAD PUSH1 0x0 ADD MLOAD DUP5 DUP2 MLOAD DUP2 LT PUSH2 0x1896 JUMPI PUSH2 0x1896 PUSH2 0x3F69 JUMP JUMPDEST PUSH1 0x20 MUL PUSH1 0x20 ADD ADD MLOAD PUSH1 0x1 PUSH1 0x1 PUSH1 0xA0 SHL SUB AND PUSH1 0x1 PUSH1 0x1 PUSH1 0xA0 SHL SUB AND DUP2 MSTORE PUSH1 0x20 ADD SWAP1 DUP2 MSTORE PUSH1 0x20 ADD PUSH1 0x0 KECCAK256 PUSH1 0x3 ADD PUSH1 0x0 SWAP1 SLOAD SWAP1 PUSH2 0x100 EXP SWAP1 DIV PUSH1 0x1 PUSH1 0x1 PUSH1 0xA0 SHL SUB AND PUSH1 0x1 PUSH1 0x1 PUSH1 0xA0 SHL SUB AND PUSH4 0xDD62ED3E DUP10 PUSH2 0x160 ADD MLOAD PUSH1 0x0 ADD MLOAD DUP5 DUP2 MLOAD DUP2 LT PUSH2 0x18FE JUMPI PUSH2 0x18FE PUSH2 0x3F69 JUMP JUMPDEST PUSH1 0x20 MUL PUSH1 0x20 ADD ADD MLOAD ADDRESS PUSH1 0x40 MLOAD DUP4 PUSH4 0xFFFFFFFF AND PUSH1 0xE0 SHL DUP2 MSTORE PUSH1 0x4 ADD PUSH2 0x1924 SWAP3 SWAP2 SWAP1 PUSH2 0x3D4D JUMP JUMPDEST PUSH1 0x20 PUSH1 0x40 MLOAD DUP1 DUP4 SUB DUP2 DUP7 GAS STATICCALL ISZERO DUP1 ISZERO PUSH2 0x1941 JUMPI RETURNDATASIZE PUSH1 0x0 DUP1 RETURNDATACOPY RETURNDATASIZE PUSH1 0x0 REVERT JUMPDEST POP POP POP POP PUSH1 0x40 MLOAD RETURNDATASIZE PUSH1 0x1F NOT PUSH1 0x1F DUP3 ADD AND DUP3 ADD DUP1 PUSH1 0x40 MSTORE POP DUP2 ADD SWAP1 PUSH2 0x1965 SWAP2 SWAP1 PUSH2 0x3CF3 JUMP JUMPDEST LT PUSH2 0x1B3A JUMPI PUSH2 0x1972 PUSH2 0x2721 JUMP JUMPDEST DUP8 PUSH2 0x160 ADD MLOAD PUSH1 0x20 ADD MLOAD DUP3 DUP2 MLOAD DUP2 LT PUSH2 0x198D JUMPI PUSH2 0x198D PUSH2 0x3F69 JUMP JUMPDEST PUSH1 0x20 MUL PUSH1 0x20 ADD ADD MLOAD PUSH2 0x199F SWAP2 SWAP1 PUSH2 0x3E99 JUMP JUMPDEST PUSH1 0xC PUSH1 0x0 DUP10 PUSH2 0x160 ADD MLOAD PUSH1 0x0 ADD MLOAD DUP5 DUP2 MLOAD DUP2 LT PUSH2 0x19BE JUMPI PUSH2 0x19BE PUSH2 0x3F69 JUMP JUMPDEST PUSH1 0x20 MUL PUSH1 0x20 ADD ADD MLOAD PUSH1 0x1 PUSH1 0x1 PUSH1 0xA0 SHL SUB AND PUSH1 0x1 PUSH1 0x1 PUSH1 0xA0 SHL SUB AND DUP2 MSTORE PUSH1 0x20 ADD SWAP1 DUP2 MSTORE PUSH1 0x20 ADD PUSH1 0x0 KECCAK256 PUSH1 0x3 ADD PUSH1 0x0 SWAP1 SLOAD SWAP1 PUSH2 0x100 EXP SWAP1 DIV PUSH1 0x1 PUSH1 0x1 PUSH1 0xA0 SHL SUB AND PUSH1 0x1 PUSH1 0x1 PUSH1 0xA0 SHL SUB AND PUSH4 0x70A08231 DUP10 PUSH2 0x160 ADD MLOAD PUSH1 0x0 ADD MLOAD DUP5 DUP2 MLOAD DUP2 LT PUSH2 0x1A26 JUMPI PUSH2 0x1A26 PUSH2 0x3F69 JUMP JUMPDEST PUSH1 0x20 MUL PUSH1 0x20 ADD ADD MLOAD PUSH1 0x40 MLOAD DUP3 PUSH4 0xFFFFFFFF AND PUSH1 0xE0 SHL DUP2 MSTORE PUSH1 0x4 ADD PUSH2 0x1A59 SWAP2 SWAP1 PUSH1 0x1 PUSH1 0x1 PUSH1 0xA0 SHL SUB SWAP2 SWAP1 SWAP2 AND DUP2 MSTORE PUSH1 0x20 ADD SWAP1 JUMP JUMPDEST PUSH1 0x20 PUSH1 0x40 MLOAD DUP1 DUP4 SUB DUP2 DUP7 GAS STATICCALL ISZERO DUP1 ISZERO PUSH2 0x1A76 JUMPI RETURNDATASIZE PUSH1 0x0 DUP1 RETURNDATACOPY RETURNDATASIZE PUSH1 0x0 REVERT JUMPDEST POP POP POP POP PUSH1 0x40 MLOAD RETURNDATASIZE PUSH1 0x1F NOT PUSH1 0x1F DUP3 ADD AND DUP3 ADD DUP1 PUSH1 0x40 MSTORE POP DUP2 ADD SWAP1 PUSH2 0x1A9A SWAP2 SWAP1 PUSH2 0x3CF3 JUMP JUMPDEST LT PUSH2 0x1B3A JUMPI DUP7 PUSH2 0x160 ADD MLOAD PUSH1 0x20 ADD MLOAD DUP2 DUP2 MLOAD DUP2 LT PUSH2 0x1ABA JUMPI PUSH2 0x1ABA PUSH2 0x3F69 JUMP JUMPDEST PUSH1 0x20 MUL PUSH1 0x20 ADD ADD MLOAD SWAP3 POP DUP7 PUSH2 0x160 ADD MLOAD PUSH1 0x0 ADD MLOAD DUP2 DUP2 MLOAD DUP2 LT PUSH2 0x1ADF JUMPI PUSH2 0x1ADF PUSH2 0x3F69 JUMP JUMPDEST PUSH1 0x20 MUL PUSH1 0x20 ADD ADD MLOAD SWAP2 POP PUSH1 0xC PUSH1 0x0 DUP9 PUSH2 0x160 ADD MLOAD PUSH1 0x0 ADD MLOAD DUP4 DUP2 MLOAD DUP2 LT PUSH2 0x1B08 JUMPI PUSH2 0x1B08 PUSH2 0x3F69 JUMP JUMPDEST PUSH1 0x20 SWAP1 DUP2 MUL SWAP2 SWAP1 SWAP2 ADD DUP2 ADD MLOAD PUSH1 0x1 PUSH1 0x1 PUSH1 0xA0 SHL SUB SWAP1 DUP2 AND DUP4 MSTORE SWAP1 DUP3 ADD SWAP3 SWAP1 SWAP3 MSTORE PUSH1 0x40 ADD PUSH1 0x0 KECCAK256 PUSH1 0x3 ADD SLOAD AND SWAP6 POP PUSH2 0x1B4C JUMP JUMPDEST DUP1 PUSH2 0x1B44 DUP2 PUSH2 0x3F7F JUMP JUMPDEST SWAP2 POP POP PUSH2 0x1818 JUMP JUMPDEST POP PUSH1 0x4 SLOAD PUSH1 0x40 MLOAD PUSH1 0x1 PUSH1 0x1 PUSH1 0xA0 SHL SUB SWAP1 SWAP2 AND SWAP1 CALLVALUE DUP1 ISZERO PUSH2 0x8FC MUL SWAP2 PUSH1 0x0 DUP2 DUP2 DUP2 DUP6 DUP9 DUP9 CALL SWAP4 POP POP POP POP ISZERO DUP1 ISZERO PUSH2 0x1B86 JUMPI RETURNDATASIZE PUSH1 0x0 DUP1 RETURNDATACOPY RETURNDATASIZE PUSH1 0x0 REVERT JUMPDEST POP PUSH1 0x40 MLOAD PUSH4 0x23B872DD PUSH1 0xE0 SHL DUP2 MSTORE PUSH1 0x1 PUSH1 0x1 PUSH1 0xA0 SHL SUB DUP3 DUP2 AND PUSH1 0x4 DUP4 ADD MSTORE DUP5 DUP2 AND PUSH1 0x24 DUP4 ADD MSTORE PUSH1 0x44 DUP3 ADD DUP5 SWAP1 MSTORE DUP7 AND SWAP1 PUSH4 0x23B872DD SWAP1 PUSH1 0x64 ADD PUSH1 0x20 PUSH1 0x40 MLOAD DUP1 DUP4 SUB DUP2 PUSH1 0x0 DUP8 GAS CALL ISZERO DUP1 ISZERO PUSH2 0x1BDE JUMPI RETURNDATASIZE PUSH1 0x0 DUP1 RETURNDATACOPY RETURNDATASIZE PUSH1 0x0 REVERT JUMPDEST POP POP POP POP PUSH1 0x40 MLOAD RETURNDATASIZE PUSH1 0x1F NOT PUSH1 0x1F DUP3 ADD AND DUP3 ADD DUP1 PUSH1 0x40 MSTORE POP DUP2 ADD SWAP1 PUSH2 0x1C02 SWAP2 SWAP1 PUSH2 0x3D67 JUMP JUMPDEST POP PUSH1 0x7 SLOAD PUSH1 0x1 PUSH1 0x1 PUSH1 0xA0 SHL SUB AND PUSH4 0xF242432A CALLER DUP4 DUP12 PUSH1 0x1 PUSH1 0x40 MLOAD DUP6 PUSH4 0xFFFFFFFF AND PUSH1 0xE0 SHL DUP2 MSTORE PUSH1 0x4 ADD PUSH2 0x1C38 SWAP5 SWAP4 SWAP3 SWAP2 SWAP1 PUSH2 0x3F96 JUMP JUMPDEST PUSH1 0x0 PUSH1 0x40 MLOAD DUP1 DUP4 SUB DUP2 PUSH1 0x0 DUP8 DUP1 EXTCODESIZE ISZERO DUP1 ISZERO PUSH2 0x1C52 JUMPI PUSH1 0x0 DUP1 REVERT JUMPDEST POP GAS CALL ISZERO DUP1 ISZERO PUSH2 0x1C66 JUMPI RETURNDATASIZE PUSH1 0x0 DUP1 RETURNDATACOPY RETURNDATASIZE PUSH1 0x0 REVERT JUMPDEST POP POP PUSH1 0x0 PUSH1 0xC0 DUP10 ADD MSTORE POP PUSH32 0x71ADAFC70542EA4B4884C7DE4C93F891C29599A79CB58DF958BC54BE04FEFA55 SWAP1 POP TIMESTAMP DUP4 CALLER DUP5 PUSH1 0x1 PUSH1 0x0 PUSH1 0x1 PUSH1 0x40 MLOAD PUSH2 0x1CB0 SWAP8 SWAP7 SWAP6 SWAP5 SWAP4 SWAP3 SWAP2 SWAP1 PUSH2 0x3FCE JUMP JUMPDEST PUSH1 0x40 MLOAD DUP1 SWAP2 SUB SWAP1 LOG1 PUSH2 0x1DAD JUMP JUMPDEST PUSH1 0x4 SLOAD PUSH1 0x40 MLOAD PUSH1 0x1 PUSH1 0x1 PUSH1 0xA0 SHL SUB SWAP1 SWAP2 AND SWAP1 CALLVALUE DUP1 ISZERO PUSH2 0x8FC MUL SWAP2 PUSH1 0x0 DUP2 DUP2 DUP2 DUP6 DUP9 DUP9 CALL SWAP4 POP POP POP POP ISZERO DUP1 ISZERO PUSH2 0x1CF6 JUMPI RETURNDATASIZE PUSH1 0x0 DUP1 RETURNDATACOPY RETURNDATASIZE PUSH1 0x0 REVERT JUMPDEST POP PUSH1 0x7 SLOAD PUSH1 0x1 PUSH1 0x1 PUSH1 0xA0 SHL SUB AND PUSH4 0xF242432A CALLER DUP10 DUP12 PUSH1 0x1 PUSH1 0x40 MLOAD DUP6 PUSH4 0xFFFFFFFF AND PUSH1 0xE0 SHL DUP2 MSTORE PUSH1 0x4 ADD PUSH2 0x1D2C SWAP5 SWAP4 SWAP3 SWAP2 SWAP1 PUSH2 0x3F96 JUMP JUMPDEST PUSH1 0x0 PUSH1 0x40 MLOAD DUP1 DUP4 SUB DUP2 PUSH1 0x0 DUP8 DUP1 EXTCODESIZE ISZERO DUP1 ISZERO PUSH2 0x1D46 JUMPI PUSH1 0x0 DUP1 REVERT JUMPDEST POP GAS CALL ISZERO DUP1 ISZERO PUSH2 0x1D5A JUMPI RETURNDATASIZE PUSH1 0x0 DUP1 RETURNDATACOPY RETURNDATASIZE PUSH1 0x0 REVERT JUMPDEST POP POP PUSH1 0x0 PUSH1 0xC0 DUP10 ADD MSTORE POP PUSH32 0x71ADAFC70542EA4B4884C7DE4C93F891C29599A79CB58DF958BC54BE04FEFA55 SWAP1 POP TIMESTAMP DUP4 CALLER DUP11 PUSH1 0x1 PUSH1 0x0 PUSH1 0x1 PUSH1 0x40 MLOAD PUSH2 0x1DA4 SWAP8 SWAP7 SWAP6 SWAP5 SWAP4 SWAP3 SWAP2 SWAP1 PUSH2 0x3FCE JUMP JUMPDEST PUSH1 0x40 MLOAD DUP1 SWAP2 SUB SWAP1 LOG1 JUMPDEST POP POP POP POP POP POP POP POP JUMP JUMPDEST PUSH1 0x0 SLOAD PUSH1 0x1 PUSH1 0x1 PUSH1 0xA0 SHL SUB PUSH2 0x100 SWAP1 SWAP2 DIV AND CALLER EQ PUSH2 0x1DE7 JUMPI PUSH1 0x40 MLOAD PUSH3 0x461BCD PUSH1 0xE5 SHL DUP2 MSTORE PUSH1 0x4 ADD PUSH2 0x4B4 SWAP1 PUSH2 0x3E1F JUMP JUMPDEST PUSH2 0x874 PUSH2 0x35E6 JUMP JUMPDEST PUSH1 0x0 DUP1 SLOAD PUSH1 0xFF AND ISZERO PUSH2 0x1E13 JUMPI PUSH1 0x40 MLOAD PUSH3 0x461BCD PUSH1 0xE5 SHL DUP2 MSTORE PUSH1 0x4 ADD PUSH2 0x4B4 SWAP1 PUSH2 0x3CC9 JUMP JUMPDEST PUSH2 0x1E1B PUSH2 0x2721 JUMP JUMPDEST CALLVALUE LT ISZERO PUSH2 0x1E3A JUMPI PUSH1 0x40 MLOAD PUSH3 0x461BCD PUSH1 0xE5 SHL DUP2 MSTORE PUSH1 0x4 ADD PUSH2 0x4B4 SWAP1 PUSH2 0x3E54 JUMP JUMPDEST PUSH1 0x6 SLOAD DUP7 LT ISZERO PUSH2 0x1E9C JUMPI PUSH1 0x40 MLOAD PUSH3 0x461BCD PUSH1 0xE5 SHL DUP2 MSTORE PUSH1 0x20 PUSH1 0x4 DUP3 ADD MSTORE PUSH1 0x27 PUSH1 0x24 DUP3 ADD MSTORE PUSH32 0x526F6F66206D7573742062652067726561746572207468616E2064656661756C PUSH1 0x44 DUP3 ADD MSTORE PUSH7 0x74207072696365 PUSH1 0xC8 SHL PUSH1 0x64 DUP3 ADD MSTORE PUSH1 0x84 ADD PUSH2 0x4B4 JUMP JUMPDEST PUSH1 0x7 SLOAD PUSH1 0x0 SWAP1 PUSH1 0x1 PUSH1 0x1 PUSH1 0xA0 SHL SUB AND PUSH3 0xFDD58E CALLER PUSH1 0x40 MLOAD PUSH1 0x1 PUSH1 0x1 PUSH1 0xE0 SHL SUB NOT PUSH1 0xE0 DUP5 SWAP1 SHL AND DUP2 MSTORE PUSH1 0x1 PUSH1 0x1 PUSH1 0xA0 SHL SUB SWAP1 SWAP2 AND PUSH1 0x4 DUP3 ADD MSTORE PUSH1 0x24 DUP2 ADD DUP12 SWAP1 MSTORE PUSH1 0x44 ADD PUSH1 0x20 PUSH1 0x40 MLOAD DUP1 DUP4 SUB DUP2 DUP7 GAS STATICCALL ISZERO DUP1 ISZERO PUSH2 0x1EFB JUMPI RETURNDATASIZE PUSH1 0x0 DUP1 RETURNDATACOPY RETURNDATASIZE PUSH1 0x0 REVERT JUMPDEST POP POP POP POP PUSH1 0x40 MLOAD RETURNDATASIZE PUSH1 0x1F NOT PUSH1 0x1F DUP3 ADD AND DUP3 ADD DUP1 PUSH1 0x40 MSTORE POP DUP2 ADD SWAP1 PUSH2 0x1F1F SWAP2 SWAP1 PUSH2 0x3CF3 JUMP JUMPDEST GT PUSH2 0x1F3C JUMPI PUSH1 0x40 MLOAD PUSH3 0x461BCD PUSH1 0xE5 SHL DUP2 MSTORE PUSH1 0x4 ADD PUSH2 0x4B4 SWAP1 PUSH2 0x3D0C JUMP JUMPDEST PUSH1 0x7 SLOAD PUSH1 0x1 PUSH1 0x1 PUSH1 0xA0 SHL SUB AND PUSH4 0xE985E9C5 CALLER ADDRESS PUSH1 0x40 MLOAD DUP4 PUSH4 0xFFFFFFFF AND PUSH1 0xE0 SHL DUP2 MSTORE PUSH1 0x4 ADD PUSH2 0x1F6C SWAP3 SWAP2 SWAP1 PUSH2 0x3D4D JUMP JUMPDEST PUSH1 0x20 PUSH1 0x40 MLOAD DUP1 DUP4 SUB DUP2 DUP7 GAS STATICCALL ISZERO DUP1 ISZERO PUSH2 0x1F89 JUMPI RETURNDATASIZE PUSH1 0x0 DUP1 RETURNDATACOPY RETURNDATASIZE PUSH1 0x0 REVERT JUMPDEST POP POP POP POP PUSH1 0x40 MLOAD RETURNDATASIZE PUSH1 0x1F NOT PUSH1 0x1F DUP3 ADD AND DUP3 ADD DUP1 PUSH1 0x40 MSTORE POP DUP2 ADD SWAP1 PUSH2 0x1FAD SWAP2 SWAP1 PUSH2 0x3D67 JUMP JUMPDEST ISZERO ISZERO PUSH1 0x1 EQ PUSH2 0x1FCE JUMPI PUSH1 0x40 MLOAD PUSH3 0x461BCD PUSH1 0xE5 SHL DUP2 MSTORE PUSH1 0x4 ADD PUSH2 0x4B4 SWAP1 PUSH2 0x3D84 JUMP JUMPDEST PUSH2 0x1FD6 PUSH2 0x28B9 JUMP JUMPDEST POP TIMESTAMP CALLER PUSH1 0x0 DUP10 DUP2 MSTORE PUSH1 0x8 PUSH1 0x20 MSTORE PUSH1 0x40 SWAP1 KECCAK256 DUP1 SLOAD PUSH1 0x1 PUSH1 0x1 PUSH1 0xA0 SHL SUB NOT AND PUSH1 0x1 PUSH1 0x1 PUSH1 0xA0 SHL SUB SWAP3 SWAP1 SWAP3 AND SWAP2 SWAP1 SWAP2 OR DUP2 SSTORE PUSH1 0x1 DUP2 ADD DUP8 SWAP1 SSTORE PUSH1 0x2 DUP2 ADD DUP3 SWAP1 SSTORE PUSH1 0x3 DUP2 ADD DUP9 SWAP1 SSTORE PUSH1 0x4 DUP2 ADD DUP1 SLOAD PUSH2 0x101 PUSH3 0xFFFFFF NOT SWAP1 SWAP2 AND PUSH3 0x10000 DUP10 ISZERO ISZERO MUL OR OR SWAP1 SSTORE PUSH1 0x5 DUP2 ADD DUP6 SWAP1 SSTORE PUSH1 0x7 ADD DUP4 SWAP1 SSTORE PUSH32 0x7948983FC88F364D12D6955C4325D1555C9347AA584AD59EDB4FECDAA5308A23 CALLER PUSH1 0x40 DUP1 MLOAD PUSH1 0x1 PUSH1 0x1 PUSH1 0xA0 SHL SUB SWAP1 SWAP3 AND DUP3 MSTORE PUSH1 0x20 DUP3 ADD DUP12 SWAP1 MSTORE DUP2 ADD DUP9 SWAP1 MSTORE PUSH1 0x60 DUP2 ADD DUP4 SWAP1 MSTORE PUSH1 0x80 DUP2 ADD DUP10 SWAP1 MSTORE PUSH1 0x1 PUSH1 0xA0 DUP3 ADD DUP2 SWAP1 MSTORE PUSH1 0xC0 DUP3 ADD MSTORE DUP7 ISZERO ISZERO PUSH1 0xE0 DUP3 ADD MSTORE PUSH2 0x100 DUP2 ADD DUP7 SWAP1 MSTORE PUSH2 0x120 DUP2 ADD DUP6 SWAP1 MSTORE PUSH2 0x140 ADD PUSH1 0x40 MLOAD DUP1 SWAP2 SUB SWAP1 LOG1 POP PUSH1 0x1 SWAP8 SWAP7 POP POP POP POP POP POP POP JUMP JUMPDEST PUSH1 0x0 DUP1 SLOAD PUSH1 0x1 PUSH1 0x1 PUSH1 0xA0 SHL SUB PUSH2 0x100 SWAP1 SWAP2 DIV AND CALLER EQ PUSH2 0x2102 JUMPI PUSH1 0x40 MLOAD PUSH3 0x461BCD PUSH1 0xE5 SHL DUP2 MSTORE PUSH1 0x4 ADD PUSH2 0x4B4 SWAP1 PUSH2 0x3E1F JUMP JUMPDEST PUSH1 0x3 DUP3 SWAP1 SSTORE PUSH1 0x2 SLOAD PUSH1 0x1 SLOAD PUSH1 0x40 MLOAD DUP5 SWAP3 SWAP2 SWAP1 PUSH32 0x7DB2709F6E7ADF14B75AC6A4BC01B5F3FF9000017F9648C2B70F6CA8616D8F57 SWAP1 PUSH1 0x0 SWAP1 LOG4 POP PUSH1 0x1 SWAP2 SWAP1 POP JUMP JUMPDEST PUSH1 0x0 PUSH2 0x214D DUP3 PUSH2 0x876 JUMP JUMPDEST PUSH2 0x100 DUP2 ADD MLOAD SWAP1 SWAP2 POP DUP4 SWAP1 PUSH1 0x0 SWAP1 PUSH2 0x2165 SWAP1 TIMESTAMP PUSH2 0x3F52 JUMP JUMPDEST SWAP1 POP DUP1 DUP4 PUSH2 0x120 ADD MLOAD GT PUSH2 0x21BB JUMPI PUSH1 0x40 MLOAD PUSH3 0x461BCD PUSH1 0xE5 SHL DUP2 MSTORE PUSH1 0x20 PUSH1 0x4 DUP3 ADD MSTORE PUSH1 0x1A PUSH1 0x24 DUP3 ADD MSTORE PUSH32 0x4475726174696F6E2074696D65206861732066696E6973686564000000000000 PUSH1 0x44 DUP3 ADD MSTORE PUSH1 0x64 ADD PUSH2 0x4B4 JUMP JUMPDEST DUP3 PUSH2 0x140 ADD MLOAD DUP7 GT PUSH2 0x2228 JUMPI PUSH1 0x40 MLOAD PUSH3 0x461BCD PUSH1 0xE5 SHL DUP2 MSTORE PUSH1 0x20 PUSH1 0x4 DUP3 ADD MSTORE PUSH1 0x30 PUSH1 0x24 DUP3 ADD MSTORE PUSH32 0x416D6F756E74206F666665726564206E65656420746F20626520686967686572 PUSH1 0x44 DUP3 ADD MSTORE PUSH16 0x103A3430B7103630B9BA1037B33332B9 PUSH1 0x81 SHL PUSH1 0x64 DUP3 ADD MSTORE PUSH1 0x84 ADD PUSH2 0x4B4 JUMP JUMPDEST DUP6 PUSH1 0x1 PUSH1 0x1 PUSH1 0xA0 SHL SUB DUP4 AND PUSH4 0x70A08231 CALLER PUSH1 0x40 MLOAD PUSH1 0x1 PUSH1 0x1 PUSH1 0xE0 SHL SUB NOT PUSH1 0xE0 DUP5 SWAP1 SHL AND DUP2 MSTORE PUSH1 0x1 PUSH1 0x1 PUSH1 0xA0 SHL SUB SWAP1 SWAP2 AND PUSH1 0x4 DUP3 ADD MSTORE PUSH1 0x24 ADD PUSH1 0x20 PUSH1 0x40 MLOAD DUP1 DUP4 SUB DUP2 DUP7 GAS STATICCALL ISZERO DUP1 ISZERO PUSH2 0x227D JUMPI RETURNDATASIZE PUSH1 0x0 DUP1 RETURNDATACOPY RETURNDATASIZE PUSH1 0x0 REVERT JUMPDEST POP POP POP POP PUSH1 0x40 MLOAD RETURNDATASIZE PUSH1 0x1F NOT PUSH1 0x1F DUP3 ADD AND DUP3 ADD DUP1 PUSH1 0x40 MSTORE POP DUP2 ADD SWAP1 PUSH2 0x22A1 SWAP2 SWAP1 PUSH2 0x3CF3 JUMP JUMPDEST LT ISZERO PUSH2 0x22E7 JUMPI PUSH1 0x40 MLOAD PUSH3 0x461BCD PUSH1 0xE5 SHL DUP2 MSTORE PUSH1 0x20 PUSH1 0x4 DUP3 ADD MSTORE PUSH1 0x15 PUSH1 0x24 DUP3 ADD MSTORE PUSH21 0x84C2D8C2DCC6CA40D2E640DCDEE840CADCDEEACED PUSH1 0x5B SHL PUSH1 0x44 DUP3 ADD MSTORE PUSH1 0x64 ADD PUSH2 0x4B4 JUMP JUMPDEST PUSH1 0x0 DUP7 GT PUSH2 0x2328 JUMPI PUSH1 0x40 MLOAD PUSH3 0x461BCD PUSH1 0xE5 SHL DUP2 MSTORE PUSH1 0x20 PUSH1 0x4 DUP3 ADD MSTORE PUSH1 0xE PUSH1 0x24 DUP3 ADD MSTORE PUSH14 0x105B5BDD5B9D081A5B9D985B1A59 PUSH1 0x92 SHL PUSH1 0x44 DUP3 ADD MSTORE PUSH1 0x64 ADD PUSH2 0x4B4 JUMP JUMPDEST PUSH1 0x1 PUSH1 0x1 PUSH1 0xA0 SHL SUB DUP6 AND PUSH2 0x2375 JUMPI PUSH1 0x40 MLOAD PUSH3 0x461BCD PUSH1 0xE5 SHL DUP2 MSTORE PUSH1 0x20 PUSH1 0x4 DUP3 ADD MSTORE PUSH1 0x14 PUSH1 0x24 DUP3 ADD MSTORE PUSH20 0x115490CC8C081859191C995CC81A5B9D985B1A59 PUSH1 0x62 SHL PUSH1 0x44 DUP3 ADD MSTORE PUSH1 0x64 ADD PUSH2 0x4B4 JUMP JUMPDEST PUSH1 0xC0 DUP4 ADD MLOAD ISZERO ISZERO PUSH1 0x1 EQ PUSH2 0x23D5 JUMPI PUSH1 0x40 MLOAD PUSH3 0x461BCD PUSH1 0xE5 SHL DUP2 MSTORE PUSH1 0x20 PUSH1 0x4 DUP3 ADD MSTORE PUSH1 0x21 PUSH1 0x24 DUP3 ADD MSTORE PUSH32 0x41756374696F6E206973206E6F742061626C6520666F72207468697320697465 PUSH1 0x44 DUP3 ADD MSTORE PUSH1 0x6D PUSH1 0xF8 SHL PUSH1 0x64 DUP3 ADD MSTORE PUSH1 0x84 ADD PUSH2 0x4B4 JUMP JUMPDEST PUSH2 0x100 DUP4 ADD MLOAD PUSH2 0x23E7 JUMPI TIMESTAMP PUSH2 0x100 DUP5 ADD MSTORE JUMPDEST PUSH1 0x40 DUP1 MLOAD PUSH1 0xA0 DUP2 ADD DUP3 MSTORE TIMESTAMP DUP2 MSTORE PUSH1 0x20 DUP1 DUP3 ADD DUP10 DUP2 MSTORE DUP3 DUP5 ADD DUP9 DUP2 MSTORE PUSH1 0x1 PUSH1 0x1 PUSH1 0xA0 SHL SUB DUP11 DUP2 AND PUSH1 0x60 DUP7 ADD SWAP1 DUP2 MSTORE PUSH1 0x1 PUSH1 0x80 DUP8 ADD DUP2 DUP2 MSTORE CALLER PUSH1 0x0 DUP2 DUP2 MSTORE PUSH1 0xC DUP10 MSTORE DUP11 DUP2 KECCAK256 DUP11 MLOAD DUP2 SSTORE SWAP8 MLOAD SWAP4 DUP9 ADD SWAP4 SWAP1 SWAP4 SSTORE SWAP5 MLOAD PUSH1 0x2 DUP8 ADD SSTORE SWAP2 MLOAD PUSH1 0x3 SWAP1 SWAP6 ADD DUP1 SLOAD SWAP3 MLOAD ISZERO ISZERO PUSH1 0x1 PUSH1 0xA0 SHL MUL PUSH1 0x1 PUSH1 0x1 PUSH1 0xA8 SHL SUB NOT SWAP1 SWAP4 AND SWAP6 SWAP1 SWAP4 AND SWAP5 SWAP1 SWAP5 OR OR SWAP1 SSTORE PUSH2 0x140 DUP9 ADD DUP12 SWAP1 MSTORE DUP9 DUP3 MSTORE PUSH1 0x8 SWAP1 SWAP3 MSTORE SWAP3 SWAP1 SWAP3 KECCAK256 SWAP1 SWAP2 PUSH1 0x9 SWAP1 SWAP2 ADD SWAP1 DUP2 SLOAD PUSH1 0x1 DUP1 DUP3 ADD DUP5 SSTORE PUSH1 0x0 SWAP4 DUP5 MSTORE PUSH1 0x20 DUP1 DUP6 KECCAK256 SWAP1 SWAP3 ADD DUP1 SLOAD PUSH1 0x1 PUSH1 0x1 PUSH1 0xA0 SHL SUB NOT AND PUSH1 0x1 PUSH1 0x1 PUSH1 0xA0 SHL SUB SWAP5 DUP6 AND OR SWAP1 SSTORE DUP9 DUP5 MSTORE PUSH1 0x8 DUP3 MSTORE PUSH1 0x40 DUP1 DUP6 KECCAK256 PUSH1 0xA ADD DUP1 SLOAD DUP1 DUP5 ADD DUP3 SSTORE SWAP1 DUP7 MSTORE SWAP5 DUP4 SWAP1 KECCAK256 SWAP1 SWAP5 ADD DUP12 SWAP1 SSTORE DUP4 MLOAD TIMESTAMP DUP2 MSTORE SWAP2 DUP3 ADD DUP12 SWAP1 MSTORE SWAP3 DUP2 ADD DUP9 SWAP1 MSTORE SWAP1 DUP9 AND PUSH1 0x60 DUP3 ADD MSTORE PUSH1 0x80 DUP2 ADD SWAP2 SWAP1 SWAP2 MSTORE PUSH32 0xB0D938A2BB8DFE369439EB670CBDF1C27D11D4763714AF587FE2D9E431E4BA0B SWAP1 PUSH1 0xA0 ADD PUSH1 0x40 MLOAD DUP1 SWAP2 SUB SWAP1 LOG1 POP POP POP POP POP POP POP JUMP JUMPDEST PUSH1 0x0 DUP1 SLOAD PUSH1 0x1 PUSH1 0x1 PUSH1 0xA0 SHL SUB PUSH2 0x100 SWAP1 SWAP2 DIV AND CALLER EQ PUSH2 0x255F JUMPI PUSH1 0x40 MLOAD PUSH3 0x461BCD PUSH1 0xE5 SHL DUP2 MSTORE PUSH1 0x4 ADD PUSH2 0x4B4 SWAP1 PUSH2 0x3E1F JUMP JUMPDEST PUSH1 0x2 DUP3 SWAP1 SSTORE PUSH1 0x3 SLOAD PUSH1 0x1 SLOAD PUSH1 0x40 MLOAD DUP5 SWAP2 SWAP1 PUSH32 0x7DB2709F6E7ADF14B75AC6A4BC01B5F3FF9000017F9648C2B70F6CA8616D8F57 SWAP1 PUSH1 0x0 SWAP1 LOG4 POP PUSH1 0x1 SWAP2 SWAP1 POP JUMP JUMPDEST PUSH1 0x0 SLOAD PUSH1 0x1 PUSH1 0x1 PUSH1 0xA0 SHL SUB PUSH2 0x100 SWAP1 SWAP2 DIV AND CALLER EQ PUSH2 0x25CE JUMPI PUSH1 0x40 MLOAD PUSH3 0x461BCD PUSH1 0xE5 SHL DUP2 MSTORE PUSH1 0x4 ADD PUSH2 0x4B4 SWAP1 PUSH2 0x3E1F JUMP JUMPDEST PUSH2 0x25D7 DUP9 PUSH2 0x26A1 JUMP JUMPDEST POP PUSH2 0x25E1 DUP6 PUSH2 0x1547 JUMP JUMPDEST POP PUSH2 0x25EB DUP2 PUSH2 0xECE JUMP JUMPDEST POP PUSH2 0x25F5 DUP4 PUSH2 0x252E JUMP JUMPDEST POP PUSH2 0x25FF DUP3 PUSH2 0x20D1 JUMP JUMPDEST POP PUSH2 0x2609 DUP8 PUSH2 0x363E JUMP JUMPDEST POP PUSH1 0xA DUP1 SLOAD PUSH1 0x1 PUSH1 0x1 PUSH1 0xA0 SHL SUB NOT AND PUSH1 0x1 PUSH1 0x1 PUSH1 0xA0 SHL SUB DUP9 AND OR SWAP1 SSTORE PUSH2 0x262E DUP5 PUSH2 0x13A8 JUMP JUMPDEST POP PUSH2 0x2637 PUSH2 0x83C JUMP JUMPDEST PUSH1 0x40 DUP1 MLOAD PUSH1 0x1 PUSH1 0x1 PUSH1 0xA0 SHL SUB DUP1 DUP12 AND DUP3 MSTORE DUP1 DUP11 AND PUSH1 0x20 DUP4 ADD MSTORE DUP1 DUP10 AND SWAP3 DUP3 ADD SWAP3 SWAP1 SWAP3 MSTORE SWAP1 DUP7 AND PUSH1 0x60 DUP3 ADD MSTORE PUSH1 0x80 DUP2 ADD DUP5 SWAP1 MSTORE PUSH1 0xA0 DUP2 ADD DUP4 SWAP1 MSTORE PUSH1 0xC0 DUP2 ADD DUP3 SWAP1 MSTORE PUSH32 0xF477FBCD19D554F77CAF70FE6EE8E1C9723A092A2DDAFA6D0295E46BB555C22 SWAP1 PUSH1 0xE0 ADD PUSH2 0x1DA4 JUMP JUMPDEST PUSH1 0x0 DUP1 SLOAD PUSH1 0x1 PUSH1 0x1 PUSH1 0xA0 SHL SUB PUSH2 0x100 SWAP1 SWAP2 DIV AND CALLER EQ PUSH2 0x26D2 JUMPI PUSH1 0x40 MLOAD PUSH3 0x461BCD PUSH1 0xE5 SHL DUP2 MSTORE PUSH1 0x4 ADD PUSH2 0x4B4 SWAP1 PUSH2 0x3E1F JUMP JUMPDEST PUSH1 0x4 DUP1 SLOAD PUSH1 0x1 PUSH1 0x1 PUSH1 0xA0 SHL SUB NOT AND PUSH1 0x1 PUSH1 0x1 PUSH1 0xA0 SHL SUB DUP5 AND SWAP1 DUP2 OR SWAP1 SWAP2 SSTORE PUSH1 0x40 MLOAD PUSH32 0x66743038D969508E26E3D032A34D950971853817A94FD22E88316055E1145BF4 SWAP1 PUSH1 0x0 SWAP1 LOG2 POP PUSH1 0x1 SWAP2 SWAP1 POP JUMP JUMPDEST PUSH1 0x0 PUSH1 0x1 SLOAD PUSH1 0x64 PUSH1 0x5 PUSH1 0x0 SWAP1 SLOAD SWAP1 PUSH2 0x100 EXP SWAP1 DIV PUSH1 0x1 PUSH1 0x1 PUSH1 0xA0 SHL SUB AND PUSH1 0x1 PUSH1 0x1 PUSH1 0xA0 SHL SUB AND PUSH4 0xC338287F PUSH1 0x40 MLOAD DUP2 PUSH4 0xFFFFFFFF AND PUSH1 0xE0 SHL DUP2 MSTORE PUSH1 0x4 ADD PUSH1 0x20 PUSH1 0x40 MLOAD DUP1 DUP4 SUB DUP2 DUP7 GAS STATICCALL ISZERO DUP1 ISZERO PUSH2 0x7A5 JUMPI RETURNDATASIZE PUSH1 0x0 DUP1 RETURNDATACOPY RETURNDATASIZE PUSH1 0x0 REVERT JUMPDEST PUSH1 0x0 DUP1 SLOAD PUSH1 0x1 PUSH1 0x1 PUSH1 0xA0 SHL SUB PUSH2 0x100 SWAP1 SWAP2 DIV AND CALLER EQ PUSH2 0x27AC JUMPI PUSH1 0x40 MLOAD PUSH3 0x461BCD PUSH1 0xE5 SHL DUP2 MSTORE PUSH1 0x4 ADD PUSH2 0x4B4 SWAP1 PUSH2 0x3E1F JUMP JUMPDEST PUSH1 0x0 DUP3 DUP2 MSTORE PUSH1 0x8 PUSH1 0x20 DUP2 SWAP1 MSTORE PUSH1 0x40 DUP3 KECCAK256 DUP1 SLOAD PUSH1 0x1 PUSH1 0x1 PUSH1 0xA0 SHL SUB NOT AND DUP2 SSTORE PUSH1 0x1 DUP2 ADD DUP4 SWAP1 SSTORE PUSH1 0x2 DUP2 ADD DUP4 SWAP1 SSTORE PUSH1 0x3 DUP2 ADD DUP4 SWAP1 SSTORE PUSH1 0x4 DUP2 ADD DUP1 SLOAD PUSH3 0xFFFFFF NOT AND SWAP1 SSTORE PUSH1 0x5 DUP2 ADD DUP4 SWAP1 SSTORE PUSH1 0x6 DUP2 ADD DUP4 SWAP1 SSTORE PUSH1 0x7 DUP2 ADD DUP4 SWAP1 SSTORE SWAP1 DUP2 ADD DUP3 SWAP1 SSTORE SWAP1 PUSH1 0x9 DUP3 ADD DUP2 PUSH2 0x6CC DUP3 DUP3 PUSH2 0x371E JUMP JUMPDEST PUSH1 0x0 SLOAD PUSH1 0x1 PUSH1 0x1 PUSH1 0xA0 SHL SUB PUSH2 0x100 SWAP1 SWAP2 DIV AND CALLER EQ PUSH2 0x2848 JUMPI PUSH1 0x40 MLOAD PUSH3 0x461BCD PUSH1 0xE5 SHL DUP2 MSTORE PUSH1 0x4 ADD PUSH2 0x4B4 SWAP1 PUSH2 0x3E1F JUMP JUMPDEST PUSH1 0x1 PUSH1 0x1 PUSH1 0xA0 SHL SUB DUP2 AND PUSH2 0x28AD JUMPI PUSH1 0x40 MLOAD PUSH3 0x461BCD PUSH1 0xE5 SHL DUP2 MSTORE PUSH1 0x20 PUSH1 0x4 DUP3 ADD MSTORE PUSH1 0x26 PUSH1 0x24 DUP3 ADD MSTORE PUSH32 0x4F776E61626C653A206E6577206F776E657220697320746865207A65726F2061 PUSH1 0x44 DUP3 ADD MSTORE PUSH6 0x646472657373 PUSH1 0xD0 SHL PUSH1 0x64 DUP3 ADD MSTORE PUSH1 0x84 ADD PUSH2 0x4B4 JUMP JUMPDEST PUSH2 0x28B6 DUP2 PUSH2 0x358D JUMP JUMPDEST POP JUMP JUMPDEST PUSH1 0x4 SLOAD PUSH1 0x40 MLOAD PUSH1 0x0 SWAP2 PUSH1 0x1 PUSH1 0x1 PUSH1 0xA0 SHL SUB AND SWAP1 CALLVALUE DUP1 ISZERO PUSH2 0x8FC MUL SWAP2 DUP5 DUP2 DUP2 DUP2 DUP6 DUP9 DUP9 CALL SWAP4 POP POP POP POP ISZERO DUP1 ISZERO PUSH2 0x28F2 JUMPI RETURNDATASIZE PUSH1 0x0 DUP1 RETURNDATACOPY RETURNDATASIZE PUSH1 0x0 REVERT JUMPDEST POP PUSH1 0x1 SWAP1 POP SWAP1 JUMP JUMPDEST PUSH1 0x0 SLOAD PUSH1 0xFF AND PUSH2 0x2943 JUMPI PUSH1 0x40 MLOAD PUSH3 0x461BCD PUSH1 0xE5 SHL DUP2 MSTORE PUSH1 0x20 PUSH1 0x4 DUP3 ADD MSTORE PUSH1 0x14 PUSH1 0x24 DUP3 ADD MSTORE PUSH20 0x14185D5CD8589B194E881B9BDD081C185D5CD959 PUSH1 0x62 SHL PUSH1 0x44 DUP3 ADD MSTORE PUSH1 0x64 ADD PUSH2 0x4B4 JUMP JUMPDEST PUSH1 0x0 DUP1 SLOAD PUSH1 0xFF NOT AND SWAP1 SSTORE PUSH32 0x5DB9EE0A495BF2E6FF9C91A7834C1BA4FDD244A5E8AA4E537BD38AEAE4B073AA CALLER JUMPDEST PUSH1 0x40 MLOAD PUSH1 0x1 PUSH1 0x1 PUSH1 0xA0 SHL SUB SWAP1 SWAP2 AND DUP2 MSTORE PUSH1 0x20 ADD PUSH1 0x40 MLOAD DUP1 SWAP2 SUB SWAP1 LOG1 JUMP JUMPDEST PUSH1 0x0 DUP1 JUMPDEST DUP4 MLOAD DUP2 LT ISZERO PUSH2 0x2AD0 JUMPI PUSH1 0x0 DUP5 DUP3 DUP2 MLOAD DUP2 LT PUSH2 0x29AE JUMPI PUSH2 0x29AE PUSH2 0x3F69 JUMP JUMPDEST PUSH1 0x20 MUL PUSH1 0x20 ADD ADD MLOAD GT PUSH2 0x29FC JUMPI PUSH1 0x40 MLOAD PUSH3 0x461BCD PUSH1 0xE5 SHL DUP2 MSTORE PUSH1 0x20 PUSH1 0x4 DUP3 ADD MSTORE PUSH1 0x16 PUSH1 0x24 DUP3 ADD MSTORE PUSH22 0x151A1A5CC81D1BDAD95B9259081B9BDD08195E1A5CDD PUSH1 0x52 SHL PUSH1 0x44 DUP3 ADD MSTORE PUSH1 0x64 ADD PUSH2 0x4B4 JUMP JUMPDEST PUSH1 0x7 SLOAD DUP5 MLOAD PUSH1 0x0 SWAP2 PUSH1 0x1 PUSH1 0x1 PUSH1 0xA0 SHL SUB AND SWAP1 PUSH3 0xFDD58E SWAP1 DUP7 SWAP1 DUP9 SWAP1 DUP7 SWAP1 DUP2 LT PUSH2 0x2A27 JUMPI PUSH2 0x2A27 PUSH2 0x3F69 JUMP JUMPDEST PUSH1 0x20 MUL PUSH1 0x20 ADD ADD MLOAD PUSH1 0x40 MLOAD DUP4 PUSH4 0xFFFFFFFF AND PUSH1 0xE0 SHL DUP2 MSTORE PUSH1 0x4 ADD PUSH2 0x2A60 SWAP3 SWAP2 SWAP1 PUSH1 0x1 PUSH1 0x1 PUSH1 0xA0 SHL SUB SWAP3 SWAP1 SWAP3 AND DUP3 MSTORE PUSH1 0x20 DUP3 ADD MSTORE PUSH1 0x40 ADD SWAP1 JUMP JUMPDEST PUSH1 0x20 PUSH1 0x40 MLOAD DUP1 DUP4 SUB DUP2 DUP7 GAS STATICCALL ISZERO DUP1 ISZERO PUSH2 0x2A7D JUMPI RETURNDATASIZE PUSH1 0x0 DUP1 RETURNDATACOPY RETURNDATASIZE PUSH1 0x0 REVERT JUMPDEST POP POP POP POP PUSH1 0x40 MLOAD RETURNDATASIZE PUSH1 0x1F NOT PUSH1 0x1F DUP3 ADD AND DUP3 ADD DUP1 PUSH1 0x40 MSTORE POP DUP2 ADD SWAP1 PUSH2 0x2AA1 SWAP2 SWAP1 PUSH2 0x3CF3 JUMP JUMPDEST GT PUSH2 0x2ABE JUMPI PUSH1 0x40 MLOAD PUSH3 0x461BCD PUSH1 0xE5 SHL DUP2 MSTORE PUSH1 0x4 ADD PUSH2 0x4B4 SWAP1 PUSH2 0x3D0C JUMP JUMPDEST DUP1 PUSH2 0x2AC8 DUP2 PUSH2 0x400C JUMP JUMPDEST SWAP2 POP POP PUSH2 0x2991 JUMP JUMPDEST POP PUSH1 0x1 SWAP4 SWAP3 POP POP POP JUMP JUMPDEST PUSH1 0x0 DUP5 ISZERO PUSH2 0x2CF5 JUMPI PUSH2 0x2AEB DUP4 PUSH2 0x2DDE JUMP JUMPDEST PUSH1 0xA SLOAD PUSH1 0x40 MLOAD PUSH4 0x6EB1769F PUSH1 0xE1 SHL DUP2 MSTORE DUP7 SWAP2 PUSH1 0x1 PUSH1 0x1 PUSH1 0xA0 SHL SUB AND SWAP1 PUSH4 0xDD62ED3E SWAP1 PUSH2 0x2B1D SWAP1 DUP9 SWAP1 ADDRESS SWAP1 PUSH1 0x4 ADD PUSH2 0x3D4D JUMP JUMPDEST PUSH1 0x20 PUSH1 0x40 MLOAD DUP1 DUP4 SUB DUP2 DUP7 GAS STATICCALL ISZERO DUP1 ISZERO PUSH2 0x2B3A JUMPI RETURNDATASIZE PUSH1 0x0 DUP1 RETURNDATACOPY RETURNDATASIZE PUSH1 0x0 REVERT JUMPDEST POP POP POP POP PUSH1 0x40 MLOAD RETURNDATASIZE PUSH1 0x1F NOT PUSH1 0x1F DUP3 ADD AND DUP3 ADD DUP1 PUSH1 0x40 MSTORE POP DUP2 ADD SWAP1 PUSH2 0x2B5E SWAP2 SWAP1 PUSH2 0x3CF3 JUMP JUMPDEST LT ISZERO PUSH2 0x2BAC JUMPI PUSH1 0x40 MLOAD PUSH3 0x461BCD PUSH1 0xE5 SHL DUP2 MSTORE PUSH1 0x20 PUSH1 0x4 DUP3 ADD MSTORE PUSH1 0x1C PUSH1 0x24 DUP3 ADD MSTORE PUSH32 0x46726F6D206E6F7420617070726F7665207468697320616D6F756E7400000000 PUSH1 0x44 DUP3 ADD MSTORE PUSH1 0x64 ADD PUSH2 0x4B4 JUMP JUMPDEST PUSH1 0xA SLOAD PUSH1 0x40 MLOAD PUSH4 0x70A08231 PUSH1 0xE0 SHL DUP2 MSTORE PUSH1 0x1 PUSH1 0x1 PUSH1 0xA0 SHL SUB DUP7 DUP2 AND PUSH1 0x4 DUP4 ADD MSTORE DUP8 SWAP3 AND SWAP1 PUSH4 0x70A08231 SWAP1 PUSH1 0x24 ADD PUSH1 0x20 PUSH1 0x40 MLOAD DUP1 DUP4 SUB DUP2 DUP7 GAS STATICCALL ISZERO DUP1 ISZERO PUSH2 0x2BF6 JUMPI RETURNDATASIZE PUSH1 0x0 DUP1 RETURNDATACOPY RETURNDATASIZE PUSH1 0x0 REVERT JUMPDEST POP POP POP POP PUSH1 0x40 MLOAD RETURNDATASIZE PUSH1 0x1F NOT PUSH1 0x1F DUP3 ADD AND DUP3 ADD DUP1 PUSH1 0x40 MSTORE POP DUP2 ADD SWAP1 PUSH2 0x2C1A SWAP2 SWAP1 PUSH2 0x3CF3 JUMP JUMPDEST LT ISZERO PUSH2 0x2C68 JUMPI PUSH1 0x40 MLOAD PUSH3 0x461BCD PUSH1 0xE5 SHL DUP2 MSTORE PUSH1 0x20 PUSH1 0x4 DUP3 ADD MSTORE PUSH1 0x1E PUSH1 0x24 DUP3 ADD MSTORE PUSH32 0x46726F6D206E6F74206861766520737566666963656E7420616D6F756E740000 PUSH1 0x44 DUP3 ADD MSTORE PUSH1 0x64 ADD PUSH2 0x4B4 JUMP JUMPDEST PUSH1 0xA SLOAD PUSH1 0x1 PUSH1 0x1 PUSH1 0xA0 SHL SUB AND PUSH4 0x23B872DD DUP6 CALLER PUSH1 0x40 MLOAD PUSH1 0x1 PUSH1 0x1 PUSH1 0xE0 SHL SUB NOT PUSH1 0xE0 DUP6 SWAP1 SHL AND DUP2 MSTORE PUSH1 0x1 PUSH1 0x1 PUSH1 0xA0 SHL SUB SWAP3 DUP4 AND PUSH1 0x4 DUP3 ADD MSTORE SWAP2 AND PUSH1 0x24 DUP3 ADD MSTORE PUSH1 0x44 DUP2 ADD DUP9 SWAP1 MSTORE PUSH1 0x64 ADD PUSH1 0x20 PUSH1 0x40 MLOAD DUP1 DUP4 SUB DUP2 PUSH1 0x0 DUP8 GAS CALL ISZERO DUP1 ISZERO PUSH2 0x2CCF JUMPI RETURNDATASIZE PUSH1 0x0 DUP1 RETURNDATACOPY RETURNDATASIZE PUSH1 0x0 REVERT JUMPDEST POP POP POP POP PUSH1 0x40 MLOAD RETURNDATASIZE PUSH1 0x1F NOT PUSH1 0x1F DUP3 ADD AND DUP3 ADD DUP1 PUSH1 0x40 MSTORE POP DUP2 ADD SWAP1 PUSH2 0x2CF3 SWAP2 SWAP1 PUSH2 0x3D67 JUMP JUMPDEST POP JUMPDEST PUSH1 0x7 SLOAD PUSH1 0x1 PUSH1 0x1 PUSH1 0xA0 SHL SUB AND PUSH4 0x2EB2C2D6 DUP6 CALLER DUP6 PUSH2 0x2D12 DUP8 PUSH2 0x3690 JUMP JUMPDEST PUSH1 0x40 MLOAD DUP6 PUSH4 0xFFFFFFFF AND PUSH1 0xE0 SHL DUP2 MSTORE PUSH1 0x4 ADD PUSH2 0x2D31 SWAP5 SWAP4 SWAP3 SWAP2 SWAP1 PUSH2 0x4027 JUMP JUMPDEST PUSH1 0x0 PUSH1 0x40 MLOAD DUP1 DUP4 SUB DUP2 PUSH1 0x0 DUP8 DUP1 EXTCODESIZE ISZERO DUP1 ISZERO PUSH2 0x2D4B JUMPI PUSH1 0x0 DUP1 REVERT JUMPDEST POP GAS CALL ISZERO DUP1 ISZERO PUSH2 0x2D5F JUMPI RETURNDATASIZE PUSH1 0x0 DUP1 RETURNDATACOPY RETURNDATASIZE PUSH1 0x0 REVERT JUMPDEST POP POP PUSH1 0x7 SLOAD PUSH1 0x1 PUSH1 0x1 PUSH1 0xA0 SHL SUB AND SWAP2 POP PUSH4 0x2EB2C2D6 SWAP1 POP CALLER DUP7 DUP7 PUSH2 0x2D82 DUP9 PUSH2 0x3690 JUMP JUMPDEST PUSH1 0x40 MLOAD DUP6 PUSH4 0xFFFFFFFF AND PUSH1 0xE0 SHL DUP2 MSTORE PUSH1 0x4 ADD PUSH2 0x2DA1 SWAP5 SWAP4 SWAP3 SWAP2 SWAP1 PUSH2 0x4027 JUMP JUMPDEST PUSH1 0x0 PUSH1 0x40 MLOAD DUP1 DUP4 SUB DUP2 PUSH1 0x0 DUP8 DUP1 EXTCODESIZE ISZERO DUP1 ISZERO PUSH2 0x2DBB JUMPI PUSH1 0x0 DUP1 REVERT JUMPDEST POP GAS CALL ISZERO DUP1 ISZERO PUSH2 0x2DCF JUMPI RETURNDATASIZE PUSH1 0x0 DUP1 RETURNDATACOPY RETURNDATASIZE PUSH1 0x0 REVERT JUMPDEST POP PUSH1 0x1 SWAP9 SWAP8 POP POP POP POP POP POP POP POP JUMP JUMPDEST PUSH1 0x0 JUMPDEST DUP2 MLOAD DUP2 LT ISZERO PUSH2 0x2F72 JUMPI PUSH1 0x0 PUSH2 0x2E0E DUP4 DUP4 DUP2 MLOAD DUP2 LT PUSH2 0x2E01 JUMPI PUSH2 0x2E01 PUSH2 0x3F69 JUMP JUMPDEST PUSH1 0x20 MUL PUSH1 0x20 ADD ADD MLOAD PUSH2 0x876 JUMP JUMPDEST DUP1 MLOAD SWAP1 SWAP2 POP PUSH1 0x1 PUSH1 0x1 PUSH1 0xA0 SHL SUB AND ISZERO PUSH2 0x2F5F JUMPI PUSH1 0x7 SLOAD DUP2 MLOAD DUP5 MLOAD PUSH1 0x0 SWAP3 PUSH1 0x1 PUSH1 0x1 PUSH1 0xA0 SHL SUB AND SWAP2 PUSH3 0xFDD58E SWAP2 DUP8 SWAP1 DUP8 SWAP1 DUP2 LT PUSH2 0x2E4C JUMPI PUSH2 0x2E4C PUSH2 0x3F69 JUMP JUMPDEST PUSH1 0x20 MUL PUSH1 0x20 ADD ADD MLOAD PUSH1 0x40 MLOAD DUP4 PUSH4 0xFFFFFFFF AND PUSH1 0xE0 SHL DUP2 MSTORE PUSH1 0x4 ADD PUSH2 0x2E85 SWAP3 SWAP2 SWAP1 PUSH1 0x1 PUSH1 0x1 PUSH1 0xA0 SHL SUB SWAP3 SWAP1 SWAP3 AND DUP3 MSTORE PUSH1 0x20 DUP3 ADD MSTORE PUSH1 0x40 ADD SWAP1 JUMP JUMPDEST PUSH1 0x20 PUSH1 0x40 MLOAD DUP1 DUP4 SUB DUP2 DUP7 GAS STATICCALL ISZERO DUP1 ISZERO PUSH2 0x2EA2 JUMPI RETURNDATASIZE PUSH1 0x0 DUP1 RETURNDATACOPY RETURNDATASIZE PUSH1 0x0 REVERT JUMPDEST POP POP POP POP PUSH1 0x40 MLOAD RETURNDATASIZE PUSH1 0x1F NOT PUSH1 0x1F DUP3 ADD AND DUP3 ADD DUP1 PUSH1 0x40 MSTORE POP DUP2 ADD SWAP1 PUSH2 0x2EC6 SWAP2 SWAP1 PUSH2 0x3CF3 JUMP JUMPDEST GT PUSH2 0x2F5F JUMPI PUSH1 0x40 MLOAD PUSH3 0x461BCD PUSH1 0xE5 SHL DUP2 MSTORE PUSH1 0x20 PUSH1 0x4 DUP3 ADD MSTORE PUSH1 0x5B PUSH1 0x24 DUP3 ADD MSTORE PUSH32 0x546865206F776E6572206F662074686973206E6674206368616E67652C207472 PUSH1 0x44 DUP3 ADD MSTORE PUSH32 0x7920746F20636F6D6D756E696361746520746F20746865206E6577206F776E65 PUSH1 0x64 DUP3 ADD MSTORE PUSH32 0x7220746F2073656E64206F722072656365697665206F66666572730000000000 PUSH1 0x84 DUP3 ADD MSTORE PUSH1 0xA4 ADD PUSH2 0x4B4 JUMP JUMPDEST POP DUP1 PUSH2 0x2F6A DUP2 PUSH2 0x400C JUMP JUMPDEST SWAP2 POP POP PUSH2 0x2DE1 JUMP JUMPDEST POP POP JUMP JUMPDEST PUSH1 0x0 DUP1 JUMPDEST DUP3 MLOAD DUP2 LT ISZERO PUSH2 0xEC5 JUMPI PUSH1 0x0 DUP4 DUP3 DUP2 MLOAD DUP2 LT PUSH2 0x2F97 JUMPI PUSH2 0x2F97 PUSH2 0x3F69 JUMP JUMPDEST PUSH1 0x20 MUL PUSH1 0x20 ADD ADD MLOAD GT PUSH2 0x2FE5 JUMPI PUSH1 0x40 MLOAD PUSH3 0x461BCD PUSH1 0xE5 SHL DUP2 MSTORE PUSH1 0x20 PUSH1 0x4 DUP3 ADD MSTORE PUSH1 0x16 PUSH1 0x24 DUP3 ADD MSTORE PUSH22 0x151A1A5CC81D1BDAD95B9259081B9BDD08195E1A5CDD PUSH1 0x52 SHL PUSH1 0x44 DUP3 ADD MSTORE PUSH1 0x64 ADD PUSH2 0x4B4 JUMP JUMPDEST PUSH1 0x7 SLOAD DUP4 MLOAD PUSH1 0x0 SWAP2 PUSH1 0x1 PUSH1 0x1 PUSH1 0xA0 SHL SUB AND SWAP1 PUSH4 0xC87B56DD SWAP1 DUP7 SWAP1 DUP6 SWAP1 DUP2 LT PUSH2 0x300F JUMPI PUSH2 0x300F PUSH2 0x3F69 JUMP JUMPDEST PUSH1 0x20 MUL PUSH1 0x20 ADD ADD MLOAD PUSH1 0x40 MLOAD DUP3 PUSH4 0xFFFFFFFF AND PUSH1 0xE0 SHL DUP2 MSTORE PUSH1 0x4 ADD PUSH2 0x3035 SWAP2 DUP2 MSTORE PUSH1 0x20 ADD SWAP1 JUMP JUMPDEST PUSH1 0x0 PUSH1 0x40 MLOAD DUP1 DUP4 SUB DUP2 DUP7 GAS STATICCALL ISZERO DUP1 ISZERO PUSH2 0x3052 JUMPI RETURNDATASIZE PUSH1 0x0 DUP1 RETURNDATACOPY RETURNDATASIZE PUSH1 0x0 REVERT JUMPDEST POP POP POP POP PUSH1 0x40 MLOAD RETURNDATASIZE PUSH1 0x0 DUP3 RETURNDATACOPY PUSH1 0x1F RETURNDATASIZE SWAP1 DUP2 ADD PUSH1 0x1F NOT AND DUP3 ADD PUSH1 0x40 MSTORE PUSH2 0x307A SWAP2 SWAP1 DUP2 ADD SWAP1 PUSH2 0x4082 JUMP JUMPDEST MLOAD GT PUSH2 0x30C8 JUMPI PUSH1 0x40 MLOAD PUSH3 0x461BCD PUSH1 0xE5 SHL DUP2 MSTORE PUSH1 0x20 PUSH1 0x4 DUP3 ADD MSTORE PUSH1 0x19 PUSH1 0x24 DUP3 ADD MSTORE PUSH32 0x54686973204361726420646F657374206E6F7420657869737400000000000000 PUSH1 0x44 DUP3 ADD MSTORE PUSH1 0x64 ADD PUSH2 0x4B4 JUMP JUMPDEST DUP1 PUSH2 0x30D2 DUP2 PUSH2 0x400C JUMP JUMPDEST SWAP2 POP POP PUSH2 0x2F7A JUMP JUMPDEST PUSH1 0x0 DUP3 MLOAD PUSH1 0x1 EQ ISZERO PUSH2 0x3582 JUMPI PUSH1 0x0 PUSH2 0x30FE DUP5 PUSH1 0x0 DUP2 MLOAD DUP2 LT PUSH2 0x2E01 JUMPI PUSH2 0x2E01 PUSH2 0x3F69 JUMP JUMPDEST SWAP1 POP DUP1 PUSH1 0xA0 ADD MLOAD ISZERO PUSH2 0x3580 JUMPI DUP1 PUSH1 0x60 ADD MLOAD DUP6 LT PUSH2 0x344A JUMPI PUSH1 0xA SLOAD PUSH1 0x40 MLOAD PUSH4 0x6EB1769F PUSH1 0xE1 SHL DUP2 MSTORE DUP7 SWAP2 PUSH1 0x1 PUSH1 0x1 PUSH1 0xA0 SHL SUB AND SWAP1 PUSH4 0xDD62ED3E SWAP1 PUSH2 0x3147 SWAP1 CALLER SWAP1 ADDRESS SWAP1 PUSH1 0x4 ADD PUSH2 0x3D4D JUMP JUMPDEST PUSH1 0x20 PUSH1 0x40 MLOAD DUP1 DUP4 SUB DUP2 DUP7 GAS STATICCALL ISZERO DUP1 ISZERO PUSH2 0x3164 JUMPI RETURNDATASIZE PUSH1 0x0 DUP1 RETURNDATACOPY RETURNDATASIZE PUSH1 0x0 REVERT JUMPDEST POP POP POP POP PUSH1 0x40 MLOAD RETURNDATASIZE PUSH1 0x1F NOT PUSH1 0x1F DUP3 ADD AND DUP3 ADD DUP1 PUSH1 0x40 MSTORE POP DUP2 ADD SWAP1 PUSH2 0x3188 SWAP2 SWAP1 PUSH2 0x3CF3 JUMP JUMPDEST LT ISZERO PUSH2 0x31E0 JUMPI PUSH1 0x40 MLOAD PUSH3 0x461BCD PUSH1 0xE5 SHL DUP2 MSTORE PUSH1 0x20 PUSH1 0x4 DUP3 ADD MSTORE PUSH1 0x21 PUSH1 0x24 DUP3 ADD MSTORE PUSH32 0x546869732075736572206E6F7420617070726F7665207468697320616D6F756E PUSH1 0x44 DUP3 ADD MSTORE PUSH1 0x1D PUSH1 0xFA SHL PUSH1 0x64 DUP3 ADD MSTORE PUSH1 0x84 ADD PUSH2 0x4B4 JUMP JUMPDEST PUSH1 0xA SLOAD DUP6 SWAP1 PUSH1 0x1 PUSH1 0x1 PUSH1 0xA0 SHL SUB AND PUSH4 0x70A08231 CALLER PUSH1 0x40 MLOAD PUSH1 0x1 PUSH1 0x1 PUSH1 0xE0 SHL SUB NOT PUSH1 0xE0 DUP5 SWAP1 SHL AND DUP2 MSTORE PUSH1 0x1 PUSH1 0x1 PUSH1 0xA0 SHL SUB SWAP1 SWAP2 AND PUSH1 0x4 DUP3 ADD MSTORE PUSH1 0x24 ADD PUSH1 0x20 PUSH1 0x40 MLOAD DUP1 DUP4 SUB DUP2 DUP7 GAS STATICCALL ISZERO DUP1 ISZERO PUSH2 0x3238 JUMPI RETURNDATASIZE PUSH1 0x0 DUP1 RETURNDATACOPY RETURNDATASIZE PUSH1 0x0 REVERT JUMPDEST POP POP POP POP PUSH1 0x40 MLOAD RETURNDATASIZE PUSH1 0x1F NOT PUSH1 0x1F DUP3 ADD AND DUP3 ADD DUP1 PUSH1 0x40 MSTORE POP DUP2 ADD SWAP1 PUSH2 0x325C SWAP2 SWAP1 PUSH2 0x3CF3 JUMP JUMPDEST LT ISZERO PUSH2 0x32B6 JUMPI PUSH1 0x40 MLOAD PUSH3 0x461BCD PUSH1 0xE5 SHL DUP2 MSTORE PUSH1 0x20 PUSH1 0x4 DUP3 ADD MSTORE PUSH1 0x23 PUSH1 0x24 DUP3 ADD MSTORE PUSH32 0x546869732075736572206E6F74206861766520737566666963656E7420616D6F PUSH1 0x44 DUP3 ADD MSTORE PUSH3 0x1D5B9D PUSH1 0xEA SHL PUSH1 0x64 DUP3 ADD MSTORE PUSH1 0x84 ADD PUSH2 0x4B4 JUMP JUMPDEST DUP1 MLOAD PUSH1 0xA SLOAD PUSH1 0x1 PUSH1 0x1 PUSH1 0xA0 SHL SUB AND PUSH4 0x23B872DD CALLER PUSH1 0x40 MLOAD PUSH1 0x1 PUSH1 0x1 PUSH1 0xE0 SHL SUB NOT PUSH1 0xE0 DUP5 SWAP1 SHL AND DUP2 MSTORE PUSH1 0x1 PUSH1 0x1 PUSH1 0xA0 SHL SUB SWAP2 DUP3 AND PUSH1 0x4 DUP3 ADD MSTORE SWAP1 DUP5 AND PUSH1 0x24 DUP3 ADD MSTORE PUSH1 0x44 DUP2 ADD DUP10 SWAP1 MSTORE PUSH1 0x64 ADD PUSH1 0x20 PUSH1 0x40 MLOAD DUP1 DUP4 SUB DUP2 PUSH1 0x0 DUP8 GAS CALL ISZERO DUP1 ISZERO PUSH2 0x331F JUMPI RETURNDATASIZE PUSH1 0x0 DUP1 RETURNDATACOPY RETURNDATASIZE PUSH1 0x0 REVERT JUMPDEST POP POP POP POP PUSH1 0x40 MLOAD RETURNDATASIZE PUSH1 0x1F NOT PUSH1 0x1F DUP3 ADD AND DUP3 ADD DUP1 PUSH1 0x40 MSTORE POP DUP2 ADD SWAP1 PUSH2 0x3343 SWAP2 SWAP1 PUSH2 0x3D67 JUMP JUMPDEST POP PUSH1 0x7 SLOAD PUSH1 0x1 PUSH1 0x1 PUSH1 0xA0 SHL SUB AND PUSH4 0x2EB2C2D6 CALLER DUP4 DUP8 PUSH2 0x3361 DUP10 PUSH2 0x3690 JUMP JUMPDEST PUSH1 0x40 MLOAD DUP6 PUSH4 0xFFFFFFFF AND PUSH1 0xE0 SHL DUP2 MSTORE PUSH1 0x4 ADD PUSH2 0x3380 SWAP5 SWAP4 SWAP3 SWAP2 SWAP1 PUSH2 0x4027 JUMP JUMPDEST PUSH1 0x0 PUSH1 0x40 MLOAD DUP1 DUP4 SUB DUP2 PUSH1 0x0 DUP8 DUP1 EXTCODESIZE ISZERO DUP1 ISZERO PUSH2 0x339A JUMPI PUSH1 0x0 DUP1 REVERT JUMPDEST POP GAS CALL ISZERO DUP1 ISZERO PUSH2 0x33AE JUMPI RETURNDATASIZE PUSH1 0x0 DUP1 RETURNDATACOPY RETURNDATASIZE PUSH1 0x0 REVERT JUMPDEST POP POP PUSH1 0x7 SLOAD PUSH1 0x1 PUSH1 0x1 PUSH1 0xA0 SHL SUB AND SWAP2 POP PUSH4 0xF242432A SWAP1 POP DUP3 CALLER DUP9 PUSH1 0x0 DUP2 MLOAD DUP2 LT PUSH2 0x33DA JUMPI PUSH2 0x33DA PUSH2 0x3F69 JUMP JUMPDEST PUSH1 0x20 MUL PUSH1 0x20 ADD ADD MLOAD PUSH1 0x1 PUSH1 0x40 MLOAD DUP6 PUSH4 0xFFFFFFFF AND PUSH1 0xE0 SHL DUP2 MSTORE PUSH1 0x4 ADD PUSH2 0x3403 SWAP5 SWAP4 SWAP3 SWAP2 SWAP1 PUSH2 0x3F96 JUMP JUMPDEST PUSH1 0x0 PUSH1 0x40 MLOAD DUP1 DUP4 SUB DUP2 PUSH1 0x0 DUP8 DUP1 EXTCODESIZE ISZERO DUP1 ISZERO PUSH2 0x341D JUMPI PUSH1 0x0 DUP1 REVERT JUMPDEST POP GAS CALL ISZERO DUP1 ISZERO PUSH2 0x3431 JUMPI RETURNDATASIZE PUSH1 0x0 DUP1 RETURNDATACOPY RETURNDATASIZE PUSH1 0x0 REVERT JUMPDEST POP POP POP POP PUSH2 0x343D PUSH2 0x373C JUMP JUMPDEST SWAP2 POP PUSH1 0x1 SWAP3 POP POP POP PUSH2 0x3586 JUMP JUMPDEST DUP1 PUSH1 0x60 ADD MLOAD CALLVALUE LT PUSH2 0x3580 JUMPI DUP1 MLOAD PUSH1 0x40 MLOAD PUSH1 0x1 PUSH1 0x1 PUSH1 0xA0 SHL SUB DUP3 AND SWAP1 CALLVALUE DUP1 ISZERO PUSH2 0x8FC MUL SWAP2 PUSH1 0x0 DUP2 DUP2 DUP2 DUP6 DUP9 DUP9 CALL SWAP4 POP POP POP POP ISZERO DUP1 ISZERO PUSH2 0x348C JUMPI RETURNDATASIZE PUSH1 0x0 DUP1 RETURNDATACOPY RETURNDATASIZE PUSH1 0x0 REVERT JUMPDEST POP PUSH1 0x7 SLOAD PUSH1 0x1 PUSH1 0x1 PUSH1 0xA0 SHL SUB AND PUSH4 0x2EB2C2D6 CALLER DUP4 DUP8 PUSH2 0x34AA DUP10 PUSH2 0x3690 JUMP JUMPDEST PUSH1 0x40 MLOAD DUP6 PUSH4 0xFFFFFFFF AND PUSH1 0xE0 SHL DUP2 MSTORE PUSH1 0x4 ADD PUSH2 0x34C9 SWAP5 SWAP4 SWAP3 SWAP2 SWAP1 PUSH2 0x4027 JUMP JUMPDEST PUSH1 0x0 PUSH1 0x40 MLOAD DUP1 DUP4 SUB DUP2 PUSH1 0x0 DUP8 DUP1 EXTCODESIZE ISZERO DUP1 ISZERO PUSH2 0x34E3 JUMPI PUSH1 0x0 DUP1 REVERT JUMPDEST POP GAS CALL ISZERO DUP1 ISZERO PUSH2 0x34F7 JUMPI RETURNDATASIZE PUSH1 0x0 DUP1 RETURNDATACOPY RETURNDATASIZE PUSH1 0x0 REVERT JUMPDEST POP POP PUSH1 0x7 SLOAD PUSH1 0x1 PUSH1 0x1 PUSH1 0xA0 SHL SUB AND SWAP2 POP PUSH4 0xF242432A SWAP1 POP DUP3 CALLER DUP9 PUSH1 0x0 DUP2 MLOAD DUP2 LT PUSH2 0x3523 JUMPI PUSH2 0x3523 PUSH2 0x3F69 JUMP JUMPDEST PUSH1 0x20 MUL PUSH1 0x20 ADD ADD MLOAD PUSH1 0x1 PUSH1 0x40 MLOAD DUP6 PUSH4 0xFFFFFFFF AND PUSH1 0xE0 SHL DUP2 MSTORE PUSH1 0x4 ADD PUSH2 0x354C SWAP5 SWAP4 SWAP3 SWAP2 SWAP1 PUSH2 0x3F96 JUMP JUMPDEST PUSH1 0x0 PUSH1 0x40 MLOAD DUP1 DUP4 SUB DUP2 PUSH1 0x0 DUP8 DUP1 EXTCODESIZE ISZERO DUP1 ISZERO PUSH2 0x3566 JUMPI PUSH1 0x0 DUP1 REVERT JUMPDEST POP GAS CALL ISZERO DUP1 ISZERO PUSH2 0x357A JUMPI RETURNDATASIZE PUSH1 0x0 DUP1 RETURNDATACOPY RETURNDATASIZE PUSH1 0x0 REVERT JUMPDEST POP POP POP POP POP JUMPDEST POP JUMPDEST POP PUSH1 0x0 JUMPDEST SWAP4 SWAP3 POP POP POP JUMP JUMPDEST PUSH1 0x0 DUP1 SLOAD PUSH1 0x1 PUSH1 0x1 PUSH1 0xA0 SHL SUB DUP4 DUP2 AND PUSH2 0x100 DUP2 DUP2 MUL PUSH2 0x100 PUSH1 0x1 PUSH1 0xA8 SHL SUB NOT DUP6 AND OR DUP6 SSTORE PUSH1 0x40 MLOAD SWAP4 DIV SWAP2 SWAP1 SWAP2 AND SWAP3 SWAP1 SWAP2 DUP4 SWAP2 PUSH32 0x8BE0079C531659141344CD1FD0A4F28419497F9722A3DAAFE3B4186F6B6457E0 SWAP2 LOG3 POP POP JUMP JUMPDEST PUSH1 0x0 SLOAD PUSH1 0xFF AND ISZERO PUSH2 0x3609 JUMPI PUSH1 0x40 MLOAD PUSH3 0x461BCD PUSH1 0xE5 SHL DUP2 MSTORE PUSH1 0x4 ADD PUSH2 0x4B4 SWAP1 PUSH2 0x3CC9 JUMP JUMPDEST PUSH1 0x0 DUP1 SLOAD PUSH1 0xFF NOT AND PUSH1 0x1 OR SWAP1 SSTORE PUSH32 0x62E78CEA01BEE320CD4E420270B5EA74000D11B0C9F74754EBDBFC544B05A258 PUSH2 0x2970 CALLER SWAP1 JUMP JUMPDEST PUSH1 0x7 DUP1 SLOAD PUSH1 0x1 PUSH1 0x1 PUSH1 0xA0 SHL SUB NOT AND PUSH1 0x1 PUSH1 0x1 PUSH1 0xA0 SHL SUB DUP4 AND SWAP1 DUP2 OR SWAP1 SWAP2 SSTORE PUSH1 0x40 MLOAD PUSH1 0x0 SWAP2 SWAP1 PUSH32 0xADFCE766758CC4C5F09E2C4EB407ADF4E52E07425240B614192262FD9BD90DDF SWAP1 DUP4 SWAP1 LOG2 POP PUSH1 0x1 SWAP2 SWAP1 POP JUMP JUMPDEST PUSH1 0x60 PUSH1 0x0 DUP3 MLOAD PUSH8 0xFFFFFFFFFFFFFFFF DUP2 GT ISZERO PUSH2 0x36AE JUMPI PUSH2 0x36AE PUSH2 0x398D JUMP JUMPDEST PUSH1 0x40 MLOAD SWAP1 DUP1 DUP3 MSTORE DUP1 PUSH1 0x20 MUL PUSH1 0x20 ADD DUP3 ADD PUSH1 0x40 MSTORE DUP1 ISZERO PUSH2 0x36D7 JUMPI DUP2 PUSH1 0x20 ADD PUSH1 0x20 DUP3 MUL DUP1 CALLDATASIZE DUP4 CALLDATACOPY ADD SWAP1 POP JUMPDEST POP SWAP1 POP PUSH1 0x0 JUMPDEST DUP4 MLOAD DUP2 LT ISZERO PUSH2 0x3717 JUMPI PUSH1 0x1 DUP3 DUP3 DUP2 MLOAD DUP2 LT PUSH2 0x36FA JUMPI PUSH2 0x36FA PUSH2 0x3F69 JUMP JUMPDEST PUSH1 0x20 SWAP1 DUP2 MUL SWAP2 SWAP1 SWAP2 ADD ADD MSTORE DUP1 PUSH2 0x370F DUP2 PUSH2 0x400C JUMP JUMPDEST SWAP2 POP POP PUSH2 0x36DD JUMP JUMPDEST POP SWAP3 SWAP2 POP POP JUMP JUMPDEST POP DUP1 SLOAD PUSH1 0x0 DUP3 SSTORE SWAP1 PUSH1 0x0 MSTORE PUSH1 0x20 PUSH1 0x0 KECCAK256 SWAP1 DUP2 ADD SWAP1 PUSH2 0x28B6 SWAP2 SWAP1 PUSH2 0x3811 JUMP JUMPDEST PUSH1 0x40 MLOAD DUP1 PUSH2 0x180 ADD PUSH1 0x40 MSTORE DUP1 PUSH1 0x0 PUSH1 0x1 PUSH1 0x1 PUSH1 0xA0 SHL SUB AND DUP2 MSTORE PUSH1 0x20 ADD PUSH1 0x0 DUP2 MSTORE PUSH1 0x20 ADD PUSH1 0x0 DUP2 MSTORE PUSH1 0x20 ADD PUSH1 0x0 DUP2 MSTORE PUSH1 0x20 ADD PUSH1 0x0 ISZERO ISZERO DUP2 MSTORE PUSH1 0x20 ADD PUSH1 0x0 ISZERO ISZERO DUP2 MSTORE PUSH1 0x20 ADD PUSH1 0x0 ISZERO ISZERO DUP2 MSTORE PUSH1 0x20 ADD PUSH1 0x0 DUP2 MSTORE PUSH1 0x20 ADD PUSH1 0x0 DUP2 MSTORE PUSH1 0x20 ADD PUSH1 0x0 DUP2 MSTORE PUSH1 0x20 ADD PUSH1 0x0 DUP2 MSTORE PUSH1 0x20 ADD PUSH2 0x37C1 PUSH1 0x40 MLOAD DUP1 PUSH1 0x40 ADD PUSH1 0x40 MSTORE DUP1 PUSH1 0x60 DUP2 MSTORE PUSH1 0x20 ADD PUSH1 0x60 DUP2 MSTORE POP SWAP1 JUMP JUMPDEST SWAP1 MSTORE SWAP1 JUMP JUMPDEST DUP3 DUP1 SLOAD DUP3 DUP3 SSTORE SWAP1 PUSH1 0x0 MSTORE PUSH1 0x20 PUSH1 0x0 KECCAK256 SWAP1 DUP2 ADD SWAP3 DUP3 ISZERO PUSH2 0x3801 JUMPI SWAP2 PUSH1 0x20 MUL DUP3 ADD JUMPDEST DUP3 DUP2 GT ISZERO PUSH2 0x3801 JUMPI DUP3 MLOAD DUP3 SSTORE SWAP2 PUSH1 0x20 ADD SWAP2 SWAP1 PUSH1 0x1 ADD SWAP1 PUSH2 0x37E6 JUMP JUMPDEST POP PUSH2 0x380D SWAP3 SWAP2 POP PUSH2 0x3811 JUMP JUMPDEST POP SWAP1 JUMP JUMPDEST JUMPDEST DUP1 DUP3 GT ISZERO PUSH2 0x380D JUMPI PUSH1 0x0 DUP2 SSTORE PUSH1 0x1 ADD PUSH2 0x3812 JUMP JUMPDEST PUSH1 0x0 PUSH1 0x20 DUP3 DUP5 SUB SLT ISZERO PUSH2 0x3838 JUMPI PUSH1 0x0 DUP1 REVERT JUMPDEST POP CALLDATALOAD SWAP2 SWAP1 POP JUMP JUMPDEST DUP1 MLOAD PUSH1 0x40 DUP1 DUP5 MSTORE DUP2 MLOAD SWAP1 DUP5 ADD DUP2 SWAP1 MSTORE PUSH1 0x0 SWAP2 PUSH1 0x20 SWAP2 SWAP1 DUP3 ADD SWAP1 PUSH1 0x60 DUP7 ADD SWAP1 DUP5 JUMPDEST DUP2 DUP2 LT ISZERO PUSH2 0x3884 JUMPI DUP4 MLOAD PUSH1 0x1 PUSH1 0x1 PUSH1 0xA0 SHL SUB AND DUP4 MSTORE SWAP3 DUP5 ADD SWAP3 SWAP2 DUP5 ADD SWAP2 PUSH1 0x1 ADD PUSH2 0x385F JUMP JUMPDEST POP POP DUP5 DUP4 ADD MLOAD DUP7 DUP3 SUB DUP8 DUP6 ADD MSTORE DUP1 MLOAD DUP1 DUP4 MSTORE SWAP1 DUP5 ADD SWAP3 POP PUSH1 0x0 SWAP2 DUP5 ADD SWAP1 JUMPDEST DUP1 DUP4 LT ISZERO PUSH2 0x38C2 JUMPI DUP4 MLOAD DUP3 MSTORE SWAP3 DUP5 ADD SWAP3 PUSH1 0x1 SWAP3 SWAP1 SWAP3 ADD SWAP2 SWAP1 DUP5 ADD SWAP1 PUSH2 0x38A2 JUMP JUMPDEST POP SWAP7 SWAP6 POP POP POP POP POP POP JUMP JUMPDEST PUSH1 0x20 DUP2 MSTORE PUSH2 0x38E7 PUSH1 0x20 DUP3 ADD DUP4 MLOAD PUSH1 0x1 PUSH1 0x1 PUSH1 0xA0 SHL SUB AND SWAP1 MSTORE JUMP JUMPDEST PUSH1 0x20 DUP3 ADD MLOAD PUSH1 0x40 DUP3 ADD MSTORE PUSH1 0x40 DUP3 ADD MLOAD PUSH1 0x60 DUP3 ADD MSTORE PUSH1 0x60 DUP3 ADD MLOAD PUSH1 0x80 DUP3 ADD MSTORE PUSH1 0x0 PUSH1 0x80 DUP4 ADD MLOAD PUSH2 0x391A PUSH1 0xA0 DUP5 ADD DUP3 ISZERO ISZERO SWAP1 MSTORE JUMP JUMPDEST POP PUSH1 0xA0 DUP4 ADD MLOAD DUP1 ISZERO ISZERO PUSH1 0xC0 DUP5 ADD MSTORE POP PUSH1 0xC0 DUP4 ADD MLOAD DUP1 ISZERO ISZERO PUSH1 0xE0 DUP5 ADD MSTORE POP PUSH1 0xE0 DUP4 ADD MLOAD PUSH2 0x100 DUP4 DUP2 ADD SWAP2 SWAP1 SWAP2 MSTORE DUP4 ADD MLOAD PUSH2 0x120 DUP1 DUP5 ADD SWAP2 SWAP1 SWAP2 MSTORE DUP4 ADD MLOAD PUSH2 0x140 DUP1 DUP5 ADD SWAP2 SWAP1 SWAP2 MSTORE DUP4 ADD MLOAD PUSH2 0x160 DUP1 DUP5 ADD SWAP2 SWAP1 SWAP2 MSTORE DUP4 ADD MLOAD PUSH2 0x180 DUP1 DUP5 ADD MSTORE PUSH2 0x3985 PUSH2 0x1A0 DUP5 ADD DUP3 PUSH2 0x383F JUMP JUMPDEST SWAP5 SWAP4 POP POP POP POP JUMP JUMPDEST PUSH4 0x4E487B71 PUSH1 0xE0 SHL PUSH1 0x0 MSTORE PUSH1 0x41 PUSH1 0x4 MSTORE PUSH1 0x24 PUSH1 0x0 REVERT JUMPDEST PUSH1 0x40 MLOAD PUSH1 0x1F DUP3 ADD PUSH1 0x1F NOT AND DUP2 ADD PUSH8 0xFFFFFFFFFFFFFFFF DUP2 GT DUP3 DUP3 LT OR ISZERO PUSH2 0x39CC JUMPI PUSH2 0x39CC PUSH2 0x398D JUMP JUMPDEST PUSH1 0x40 MSTORE SWAP2 SWAP1 POP JUMP JUMPDEST PUSH1 0x0 DUP3 PUSH1 0x1F DUP4 ADD SLT PUSH2 0x39E5 JUMPI PUSH1 0x0 DUP1 REVERT JUMPDEST DUP2 CALLDATALOAD PUSH1 0x20 PUSH8 0xFFFFFFFFFFFFFFFF DUP3 GT ISZERO PUSH2 0x3A01 JUMPI PUSH2 0x3A01 PUSH2 0x398D JUMP JUMPDEST DUP2 PUSH1 0x5 SHL PUSH2 0x3A10 DUP3 DUP3 ADD PUSH2 0x39A3 JUMP JUMPDEST SWAP3 DUP4 MSTORE DUP5 DUP2 ADD DUP3 ADD SWAP3 DUP3 DUP2 ADD SWAP1 DUP8 DUP6 GT ISZERO PUSH2 0x3A2A JUMPI PUSH1 0x0 DUP1 REVERT JUMPDEST DUP4 DUP8 ADD SWAP3 POP JUMPDEST DUP5 DUP4 LT ISZERO PUSH2 0x3A49 JUMPI DUP3 CALLDATALOAD DUP3 MSTORE SWAP2 DUP4 ADD SWAP2 SWAP1 DUP4 ADD SWAP1 PUSH2 0x3A30 JUMP JUMPDEST SWAP8 SWAP7 POP POP POP POP POP POP POP JUMP JUMPDEST PUSH1 0x0 DUP1 PUSH1 0x0 DUP1 PUSH1 0x0 PUSH1 0xA0 DUP7 DUP9 SUB SLT ISZERO PUSH2 0x3A6C JUMPI PUSH1 0x0 DUP1 REVERT JUMPDEST DUP6 CALLDATALOAD SWAP5 POP PUSH1 0x20 DUP7 ADD CALLDATALOAD PUSH8 0xFFFFFFFFFFFFFFFF DUP1 DUP3 GT ISZERO PUSH2 0x3A8B JUMPI PUSH1 0x0 DUP1 REVERT JUMPDEST PUSH2 0x3A97 DUP10 DUP4 DUP11 ADD PUSH2 0x39D4 JUMP JUMPDEST SWAP6 POP PUSH1 0x40 DUP9 ADD CALLDATALOAD SWAP2 POP DUP1 DUP3 GT ISZERO PUSH2 0x3AAD JUMPI PUSH1 0x0 DUP1 REVERT JUMPDEST POP PUSH2 0x3ABA DUP9 DUP3 DUP10 ADD PUSH2 0x39D4 JUMP JUMPDEST SWAP6 SWAP9 SWAP5 SWAP8 POP SWAP5 SWAP6 PUSH1 0x60 DUP2 ADD CALLDATALOAD SWAP6 POP PUSH1 0x80 ADD CALLDATALOAD SWAP4 SWAP3 POP POP POP JUMP JUMPDEST PUSH1 0x0 PUSH2 0x180 PUSH1 0x1 DUP1 PUSH1 0xA0 SHL SUB DUP16 AND DUP4 MSTORE DUP14 PUSH1 0x20 DUP5 ADD MSTORE DUP13 PUSH1 0x40 DUP5 ADD MSTORE DUP12 PUSH1 0x60 DUP5 ADD MSTORE DUP11 ISZERO ISZERO PUSH1 0x80 DUP5 ADD MSTORE DUP10 ISZERO ISZERO PUSH1 0xA0 DUP5 ADD MSTORE DUP9 ISZERO ISZERO PUSH1 0xC0 DUP5 ADD MSTORE DUP8 PUSH1 0xE0 DUP5 ADD MSTORE DUP7 PUSH2 0x100 DUP5 ADD MSTORE DUP6 PUSH2 0x120 DUP5 ADD MSTORE DUP5 PUSH2 0x140 DUP5 ADD MSTORE DUP1 PUSH2 0x160 DUP5 ADD MSTORE PUSH2 0x3B3B DUP2 DUP5 ADD DUP6 PUSH2 0x383F JUMP JUMPDEST SWAP16 SWAP15 POP POP POP POP POP POP POP POP POP POP POP POP POP POP POP JUMP JUMPDEST PUSH1 0x1 PUSH1 0x1 PUSH1 0xA0 SHL SUB DUP2 AND DUP2 EQ PUSH2 0x28B6 JUMPI PUSH1 0x0 DUP1 REVERT JUMPDEST PUSH1 0x0 PUSH1 0x20 DUP3 DUP5 SUB SLT ISZERO PUSH2 0x3B75 JUMPI PUSH1 0x0 DUP1 REVERT JUMPDEST DUP2 CALLDATALOAD PUSH2 0x3586 DUP2 PUSH2 0x3B4E JUMP JUMPDEST PUSH1 0x0 DUP1 PUSH1 0x40 DUP4 DUP6 SUB SLT ISZERO PUSH2 0x3B93 JUMPI PUSH1 0x0 DUP1 REVERT JUMPDEST DUP3 CALLDATALOAD SWAP2 POP PUSH1 0x20 DUP4 ADD CALLDATALOAD PUSH2 0x3BA5 DUP2 PUSH2 0x3B4E JUMP JUMPDEST DUP1 SWAP2 POP POP SWAP3 POP SWAP3 SWAP1 POP JUMP JUMPDEST DUP1 ISZERO ISZERO DUP2 EQ PUSH2 0x28B6 JUMPI PUSH1 0x0 DUP1 REVERT JUMPDEST PUSH1 0x0 DUP1 PUSH1 0x0 DUP1 PUSH1 0x0 DUP1 PUSH1 0xC0 DUP8 DUP10 SUB SLT ISZERO PUSH2 0x3BD7 JUMPI PUSH1 0x0 DUP1 REVERT JUMPDEST DUP7 CALLDATALOAD SWAP6 POP PUSH1 0x20 DUP8 ADD CALLDATALOAD SWAP5 POP PUSH1 0x40 DUP8 ADD CALLDATALOAD SWAP4 POP PUSH1 0x60 DUP8 ADD CALLDATALOAD PUSH2 0x3BF7 DUP2 PUSH2 0x3BB0 JUMP JUMPDEST SWAP6 SWAP9 SWAP5 SWAP8 POP SWAP3 SWAP6 PUSH1 0x80 DUP2 ADD CALLDATALOAD SWAP5 PUSH1 0xA0 SWAP1 SWAP2 ADD CALLDATALOAD SWAP4 POP SWAP2 POP POP JUMP JUMPDEST PUSH1 0x0 DUP1 PUSH1 0x0 PUSH1 0x60 DUP5 DUP7 SUB SLT ISZERO PUSH2 0x3C26 JUMPI PUSH1 0x0 DUP1 REVERT JUMPDEST DUP4 CALLDATALOAD SWAP3 POP PUSH1 0x20 DUP5 ADD CALLDATALOAD PUSH2 0x3C38 DUP2 PUSH2 0x3B4E JUMP JUMPDEST SWAP3 SWAP6 SWAP3 SWAP5 POP POP POP PUSH1 0x40 SWAP2 SWAP1 SWAP2 ADD CALLDATALOAD SWAP1 JUMP JUMPDEST PUSH1 0x0 DUP1 PUSH1 0x0 DUP1 PUSH1 0x0 DUP1 PUSH1 0x0 DUP1 PUSH2 0x100 DUP10 DUP12 SUB SLT ISZERO PUSH2 0x3C66 JUMPI PUSH1 0x0 DUP1 REVERT JUMPDEST DUP9 CALLDATALOAD PUSH2 0x3C71 DUP2 PUSH2 0x3B4E JUMP JUMPDEST SWAP8 POP PUSH1 0x20 DUP10 ADD CALLDATALOAD PUSH2 0x3C81 DUP2 PUSH2 0x3B4E JUMP JUMPDEST SWAP7 POP PUSH1 0x40 DUP10 ADD CALLDATALOAD PUSH2 0x3C91 DUP2 PUSH2 0x3B4E JUMP JUMPDEST SWAP6 POP PUSH1 0x60 DUP10 ADD CALLDATALOAD PUSH2 0x3CA1 DUP2 PUSH2 0x3B4E JUMP JUMPDEST SWAP8 SWAP11 SWAP7 SWAP10 POP SWAP5 SWAP8 PUSH1 0x80 DUP2 ADD CALLDATALOAD SWAP7 PUSH1 0xA0 DUP3 ADD CALLDATALOAD SWAP7 POP PUSH1 0xC0 DUP3 ADD CALLDATALOAD SWAP6 POP PUSH1 0xE0 SWAP1 SWAP2 ADD CALLDATALOAD SWAP4 POP SWAP2 POP POP JUMP JUMPDEST PUSH1 0x20 DUP1 DUP3 MSTORE PUSH1 0x10 SWAP1 DUP3 ADD MSTORE PUSH16 0x14185D5CD8589B194E881C185D5CD959 PUSH1 0x82 SHL PUSH1 0x40 DUP3 ADD MSTORE PUSH1 0x60 ADD SWAP1 JUMP JUMPDEST PUSH1 0x0 PUSH1 0x20 DUP3 DUP5 SUB SLT ISZERO PUSH2 0x3D05 JUMPI PUSH1 0x0 DUP1 REVERT JUMPDEST POP MLOAD SWAP2 SWAP1 POP JUMP JUMPDEST PUSH1 0x20 DUP1 DUP3 MSTORE PUSH1 0x21 SWAP1 DUP3 ADD MSTORE PUSH32 0x596F75206E6F742061726520746865206F776E6572206F662074686973206E66 PUSH1 0x40 DUP3 ADD MSTORE PUSH1 0x1D PUSH1 0xFA SHL PUSH1 0x60 DUP3 ADD MSTORE PUSH1 0x80 ADD SWAP1 JUMP JUMPDEST PUSH1 0x1 PUSH1 0x1 PUSH1 0xA0 SHL SUB SWAP3 DUP4 AND DUP2 MSTORE SWAP2 AND PUSH1 0x20 DUP3 ADD MSTORE PUSH1 0x40 ADD SWAP1 JUMP JUMPDEST PUSH1 0x0 PUSH1 0x20 DUP3 DUP5 SUB SLT ISZERO PUSH2 0x3D79 JUMPI PUSH1 0x0 DUP1 REVERT JUMPDEST DUP2 MLOAD PUSH2 0x3586 DUP2 PUSH2 0x3BB0 JUMP JUMPDEST PUSH1 0x20 DUP1 DUP3 MSTORE PUSH1 0x24 SWAP1 DUP3 ADD MSTORE PUSH32 0x4E6F7420617070726F766564206974656D7320666F72207468697320636F6E74 PUSH1 0x40 DUP3 ADD MSTORE PUSH4 0x1C9858DD PUSH1 0xE2 SHL PUSH1 0x60 DUP3 ADD MSTORE PUSH1 0x80 ADD SWAP1 JUMP JUMPDEST PUSH4 0x4E487B71 PUSH1 0xE0 SHL PUSH1 0x0 MSTORE PUSH1 0x11 PUSH1 0x4 MSTORE PUSH1 0x24 PUSH1 0x0 REVERT JUMPDEST PUSH1 0x0 DUP3 PUSH2 0x3DFB JUMPI PUSH4 0x4E487B71 PUSH1 0xE0 SHL PUSH1 0x0 MSTORE PUSH1 0x12 PUSH1 0x4 MSTORE PUSH1 0x24 PUSH1 0x0 REVERT JUMPDEST POP DIV SWAP1 JUMP JUMPDEST PUSH1 0x0 DUP2 PUSH1 0x0 NOT DIV DUP4 GT DUP3 ISZERO ISZERO AND ISZERO PUSH2 0x3E1A JUMPI PUSH2 0x3E1A PUSH2 0x3DC8 JUMP JUMPDEST POP MUL SWAP1 JUMP JUMPDEST PUSH1 0x20 DUP1 DUP3 MSTORE DUP2 DUP2 ADD MSTORE PUSH32 0x4F776E61626C653A2063616C6C6572206973206E6F7420746865206F776E6572 PUSH1 0x40 DUP3 ADD MSTORE PUSH1 0x60 ADD SWAP1 JUMP JUMPDEST PUSH1 0x20 DUP1 DUP3 MSTORE PUSH1 0x25 SWAP1 DUP3 ADD MSTORE PUSH32 0x596F7520646F6E74206861766520656E6F75676820746F2070617920636F6D69 PUSH1 0x40 DUP3 ADD MSTORE PUSH5 0x39B9B4B7B7 PUSH1 0xD9 SHL PUSH1 0x60 DUP3 ADD MSTORE PUSH1 0x80 ADD SWAP1 JUMP JUMPDEST PUSH1 0x0 DUP3 NOT DUP3 GT ISZERO PUSH2 0x3EAC JUMPI PUSH2 0x3EAC PUSH2 0x3DC8 JUMP JUMPDEST POP ADD SWAP1 JUMP JUMPDEST PUSH1 0x0 DUP2 MLOAD DUP1 DUP5 MSTORE PUSH1 0x20 DUP1 DUP6 ADD SWAP5 POP DUP1 DUP5 ADD PUSH1 0x0 JUMPDEST DUP4 DUP2 LT ISZERO PUSH2 0x3EE1 JUMPI DUP2 MLOAD DUP8 MSTORE SWAP6 DUP3 ADD SWAP6 SWAP1 DUP3 ADD SWAP1 PUSH1 0x1 ADD PUSH2 0x3EC5 JUMP JUMPDEST POP SWAP5 SWAP6 SWAP5 POP POP POP POP POP JUMP JUMPDEST PUSH1 0x0 PUSH2 0x100 DUP11 DUP4 MSTORE DUP10 PUSH1 0x20 DUP5 ADD MSTORE DUP9 PUSH1 0x40 DUP5 ADD MSTORE PUSH1 0x1 DUP1 PUSH1 0xA0 SHL SUB DUP9 AND PUSH1 0x60 DUP5 ADD MSTORE DUP7 PUSH1 0x80 DUP5 ADD MSTORE DUP1 PUSH1 0xA0 DUP5 ADD MSTORE PUSH2 0x3F26 DUP2 DUP5 ADD DUP8 PUSH2 0x3EB1 JUMP JUMPDEST SWAP1 POP DUP3 DUP2 SUB PUSH1 0xC0 DUP5 ADD MSTORE PUSH2 0x3F3A DUP2 DUP7 PUSH2 0x3EB1 JUMP JUMPDEST SWAP2 POP POP DUP3 ISZERO ISZERO PUSH1 0xE0 DUP4 ADD MSTORE SWAP10 SWAP9 POP POP POP POP POP POP POP POP POP JUMP JUMPDEST PUSH1 0x0 DUP3 DUP3 LT ISZERO PUSH2 0x3F64 JUMPI PUSH2 0x3F64 PUSH2 0x3DC8 JUMP JUMPDEST POP SUB SWAP1 JUMP JUMPDEST PUSH4 0x4E487B71 PUSH1 0xE0 SHL PUSH1 0x0 MSTORE PUSH1 0x32 PUSH1 0x4 MSTORE PUSH1 0x24 PUSH1 0x0 REVERT JUMPDEST PUSH1 0x0 DUP2 PUSH2 0x3F8E JUMPI PUSH2 0x3F8E PUSH2 0x3DC8 JUMP JUMPDEST POP PUSH1 0x0 NOT ADD SWAP1 JUMP JUMPDEST PUSH1 0x1 PUSH1 0x1 PUSH1 0xA0 SHL SUB SWAP5 DUP6 AND DUP2 MSTORE SWAP3 SWAP1 SWAP4 AND PUSH1 0x20 DUP4 ADD MSTORE PUSH1 0x40 DUP3 ADD MSTORE PUSH1 0x60 DUP2 ADD SWAP2 SWAP1 SWAP2 MSTORE PUSH1 0xA0 PUSH1 0x80 DUP3 ADD DUP2 SWAP1 MSTORE PUSH1 0x0 SWAP1 DUP3 ADD MSTORE PUSH1 0xC0 ADD SWAP1 JUMP JUMPDEST SWAP7 DUP8 MSTORE PUSH1 0x20 DUP8 ADD SWAP6 SWAP1 SWAP6 MSTORE PUSH1 0x1 PUSH1 0x1 PUSH1 0xA0 SHL SUB SWAP4 DUP5 AND PUSH1 0x40 DUP8 ADD MSTORE SWAP2 SWAP1 SWAP3 AND PUSH1 0x60 DUP6 ADD MSTORE SWAP1 ISZERO ISZERO PUSH1 0x80 DUP5 ADD MSTORE ISZERO ISZERO PUSH1 0xA0 DUP4 ADD MSTORE PUSH1 0xC0 DUP3 ADD MSTORE PUSH1 0xE0 ADD SWAP1 JUMP JUMPDEST PUSH1 0x0 PUSH1 0x0 NOT DUP3 EQ ISZERO PUSH2 0x4020 JUMPI PUSH2 0x4020 PUSH2 0x3DC8 JUMP JUMPDEST POP PUSH1 0x1 ADD SWAP1 JUMP JUMPDEST PUSH1 0x1 PUSH1 0x1 PUSH1 0xA0 SHL SUB DUP6 DUP2 AND DUP3 MSTORE DUP5 AND PUSH1 0x20 DUP3 ADD MSTORE PUSH1 0xA0 PUSH1 0x40 DUP3 ADD DUP2 SWAP1 MSTORE PUSH1 0x0 SWAP1 PUSH2 0x4053 SWAP1 DUP4 ADD DUP6 PUSH2 0x3EB1 JUMP JUMPDEST DUP3 DUP2 SUB PUSH1 0x60 DUP5 ADD MSTORE PUSH2 0x4065 DUP2 DUP6 PUSH2 0x3EB1 JUMP JUMPDEST DUP4 DUP2 SUB PUSH1 0x80 SWAP1 SWAP5 ADD SWAP4 SWAP1 SWAP4 MSTORE POP POP PUSH1 0x0 DUP2 MSTORE PUSH1 0x20 ADD SWAP5 SWAP4 POP POP POP POP JUMP JUMPDEST PUSH1 0x0 PUSH1 0x20 DUP1 DUP4 DUP6 SUB SLT ISZERO PUSH2 0x4095 JUMPI PUSH1 0x0 DUP1 REVERT JUMPDEST DUP3 MLOAD PUSH8 0xFFFFFFFFFFFFFFFF DUP1 DUP3 GT ISZERO PUSH2 0x40AD JUMPI PUSH1 0x0 DUP1 REVERT JUMPDEST DUP2 DUP6 ADD SWAP2 POP DUP6 PUSH1 0x1F DUP4 ADD SLT PUSH2 0x40C1 JUMPI PUSH1 0x0 DUP1 REVERT JUMPDEST DUP2 MLOAD DUP2 DUP2 GT ISZERO PUSH2 0x40D3 JUMPI PUSH2 0x40D3 PUSH2 0x398D JUMP JUMPDEST PUSH2 0x40E5 PUSH1 0x1F DUP3 ADD PUSH1 0x1F NOT AND DUP6 ADD PUSH2 0x39A3 JUMP JUMPDEST SWAP2 POP DUP1 DUP3 MSTORE DUP7 DUP5 DUP3 DUP6 ADD ADD GT ISZERO PUSH2 0x40FB JUMPI PUSH1 0x0 DUP1 REVERT JUMPDEST PUSH1 0x0 JUMPDEST DUP2 DUP2 LT ISZERO PUSH2 0x4119 JUMPI DUP4 DUP2 ADD DUP6 ADD MLOAD DUP4 DUP3 ADD DUP7 ADD MSTORE DUP5 ADD PUSH2 0x40FE JUMP JUMPDEST DUP2 DUP2 GT ISZERO PUSH2 0x412A JUMPI PUSH1 0x0 DUP6 DUP4 DUP6 ADD ADD MSTORE JUMPDEST POP SWAP1 SWAP7 SWAP6 POP POP POP POP POP POP JUMP INVALID LOG2 PUSH5 0x6970667358 0x22 SLT KECCAK256 PUSH16 0x841D9E9D09DD754C37F65C5FBC1B1747 SWAP1 PUSH3 0xAB9DEC PUSH23 0x4290163F862F0906764736F6C634300080A0033000000 "
		},
		"gasEstimates": {
			"creation": {
				"codeDepositCost": "3349600",
				"executionCost": "193980",
				"totalCost": "3543580"
			},
			"external": {
				"acceptFee()": "infinite",
				"acceptedBid(uint256,address)": "infinite",
				"activeSettingOfNFT(uint256,uint256,uint256,bool,uint256,uint256)": "infinite",
				"bid(uint256,address,uint256)": "infinite",
				"cancelFee()": "infinite",
				"exchange(uint256)": "infinite",
				"fee()": "infinite",
				"getDefaultPrice()": "2403",
				"getSetting(uint256)": "infinite",
				"initialize(address,address,address,address,uint256,uint256,uint256,uint256)": "infinite",
				"owner()": "2397",
				"pause()": "29809",
				"paused()": "2339",
				"renounceOwnership()": "28217",
				"request(uint256,uint256[],uint256[],uint256,uint256)": "infinite",
				"setAcceptFee(uint256)": "30796",
				"setCancelFee(uint256)": "30727",
				"setDefaultPrice(uint256)": "24586",
				"setFee(uint256)": "30725",
				"setHolder(address)": "27968",
				"setOracle(address)": "28035",
				"settings(uint256)": "infinite",
				"transferOwnership(address)": "infinite",
				"unActiveSettingOfNFT(uint256)": "infinite",
				"unForceActiveSettingOfNFT(uint256)": "infinite",
				"unpause()": "29831"
			},
			"internal": {
				"amountsOfId(uint256[] memory)": "infinite",
				"atomicMatch(uint256,address,uint256[] memory,uint256[] memory)": "infinite",
				"atomictMatchAuto(uint256,uint256[] memory,uint256[] memory)": "infinite",
				"setWrapped(address)": "infinite",
				"validateItems(uint256[] memory)": "infinite",
				"validateOffers(uint256[] memory,address)": "infinite",
				"validateOwnerOfSetting(uint256[] memory)": "infinite"
			}
		},
		"methodIdentifiers": {
			"acceptFee()": "3abecc49",
			"acceptedBid(uint256,address)": "7dc0cb2b",
			"activeSettingOfNFT(uint256,uint256,uint256,bool,uint256,uint256)": "8dcfe4d7",
			"bid(uint256,address,uint256)": "c0f4ed31",
			"cancelFee()": "14025dcd",
			"exchange(uint256)": "53556559",
			"fee()": "ddca3f43",
			"getDefaultPrice()": "b086613c",
			"getSetting(uint256)": "40b43701",
			"initialize(address,address,address,address,uint256,uint256,uint256,uint256)": "c843e81c",
			"owner()": "8da5cb5b",
			"pause()": "8456cb59",
			"paused()": "5c975abb",
			"renounceOwnership()": "715018a6",
			"request(uint256,uint256[],uint256[],uint256,uint256)": "6d2070b7",
			"setAcceptFee(uint256)": "bff098b4",
			"setCancelFee(uint256)": "c2fffd6b",
			"setDefaultPrice(uint256)": "6d3c7ec5",
			"setFee(uint256)": "69fe0e2d",
			"setHolder(address)": "d979f5aa",
			"setOracle(address)": "7adbf973",
			"settings(uint256)": "7a777d2c",
			"transferOwnership(address)": "f2fde38b",
			"unActiveSettingOfNFT(uint256)": "0d763e90",
			"unForceActiveSettingOfNFT(uint256)": "eece7f25",
			"unpause()": "3f4ba83a"
		}
	},
	"abi": [
		{
			"inputs": [],
			"stateMutability": "nonpayable",
			"type": "constructor"
		},
		{
			"anonymous": false,
			"inputs": [
				{
					"indexed": false,
					"internalType": "uint256",
					"name": "createdAt",
					"type": "uint256"
				},
				{
					"indexed": false,
					"internalType": "uint256",
					"name": "amountOffered",
					"type": "uint256"
				},
				{
					"indexed": false,
					"internalType": "uint256",
					"name": "tokenId",
					"type": "uint256"
				},
				{
					"indexed": false,
					"internalType": "address",
					"name": "erc_20",
					"type": "address"
				},
				{
					"indexed": false,
					"internalType": "bool",
					"name": "status",
					"type": "bool"
				}
			],
			"name": "BidSucceed",
			"type": "event"
		},
		{
			"anonymous": false,
			"inputs": [
				{
					"indexed": true,
					"internalType": "address",
					"name": "collection",
					"type": "address"
				}
			],
			"name": "Collection",
			"type": "event"
		},
		{
			"anonymous": false,
			"inputs": [
				{
					"indexed": false,
					"internalType": "uint256",
					"name": "position",
					"type": "uint256"
				},
				{
					"indexed": false,
					"internalType": "uint256",
					"name": "timeLive",
					"type": "uint256"
				},
				{
					"indexed": false,
					"internalType": "uint256",
					"name": "createdAt",
					"type": "uint256"
				},
				{
					"indexed": false,
					"internalType": "address",
					"name": "from",
					"type": "address"
				},
				{
					"indexed": false,
					"internalType": "uint256",
					"name": "amountOffer",
					"type": "uint256"
				},
				{
					"indexed": false,
					"internalType": "uint256[]",
					"name": "offers",
					"type": "uint256[]"
				},
				{
					"indexed": false,
					"internalType": "uint256[]",
					"name": "items",
					"type": "uint256[]"
				},
				{
					"indexed": false,
					"internalType": "bool",
					"name": "status",
					"type": "bool"
				}
			],
			"name": "ExecuteRequest",
			"type": "event"
		},
		{
			"anonymous": false,
			"inputs": [
				{
					"indexed": true,
					"internalType": "uint256",
					"name": "fee",
					"type": "uint256"
				},
				{
					"indexed": true,
					"internalType": "uint256",
					"name": "_cancelFee",
					"type": "uint256"
				},
				{
					"indexed": true,
					"internalType": "uint256",
					"name": "_acceptFee",
					"type": "uint256"
				}
			],
			"name": "Fee",
			"type": "event"
		},
		{
			"anonymous": false,
			"inputs": [
				{
					"indexed": true,
					"internalType": "address",
					"name": "holder",
					"type": "address"
				}
			],
			"name": "Holder",
			"type": "event"
		},
		{
			"anonymous": false,
			"inputs": [
				{
					"indexed": false,
					"internalType": "address",
					"name": "holder",
					"type": "address"
				},
				{
					"indexed": false,
					"internalType": "address",
					"name": "collection",
					"type": "address"
				},
				{
					"indexed": false,
					"internalType": "address",
					"name": "wrapped",
					"type": "address"
				},
				{
					"indexed": false,
					"internalType": "address",
					"name": "oracle",
					"type": "address"
				},
				{
					"indexed": false,
					"internalType": "uint256",
					"name": "cancelFee",
					"type": "uint256"
				},
				{
					"indexed": false,
					"internalType": "uint256",
					"name": "acceptFee",
					"type": "uint256"
				},
				{
					"indexed": false,
					"internalType": "uint256",
					"name": "fee",
					"type": "uint256"
				}
			],
			"name": "Initialize",
			"type": "event"
		},
		{
			"anonymous": false,
			"inputs": [
				{
					"indexed": true,
					"internalType": "address",
					"name": "oracle",
					"type": "address"
				}
			],
			"name": "Oracle",
			"type": "event"
		},
		{
			"anonymous": false,
			"inputs": [
				{
					"indexed": true,
					"internalType": "address",
					"name": "previousOwner",
					"type": "address"
				},
				{
					"indexed": true,
					"internalType": "address",
					"name": "newOwner",
					"type": "address"
				}
			],
			"name": "OwnershipTransferred",
			"type": "event"
		},
		{
			"anonymous": false,
			"inputs": [
				{
					"indexed": false,
					"internalType": "address",
					"name": "account",
					"type": "address"
				}
			],
			"name": "Paused",
			"type": "event"
		},
		{
			"anonymous": false,
			"inputs": [
				{
					"indexed": false,
					"internalType": "uint256",
					"name": "position",
					"type": "uint256"
				},
				{
					"indexed": false,
					"internalType": "uint256",
					"name": "timeLive",
					"type": "uint256"
				},
				{
					"indexed": false,
					"internalType": "uint256",
					"name": "createdAt",
					"type": "uint256"
				},
				{
					"indexed": false,
					"internalType": "address",
					"name": "from",
					"type": "address"
				},
				{
					"indexed": false,
					"internalType": "uint256",
					"name": "amountOffer",
					"type": "uint256"
				},
				{
					"indexed": false,
					"internalType": "uint256[]",
					"name": "offers",
					"type": "uint256[]"
				},
				{
					"indexed": false,
					"internalType": "uint256[]",
					"name": "items",
					"type": "uint256[]"
				},
				{
					"indexed": false,
					"internalType": "bool",
					"name": "status",
					"type": "bool"
				}
			],
			"name": "RequestSuccess",
			"type": "event"
		},
		{
			"anonymous": false,
			"inputs": [
				{
					"indexed": false,
					"internalType": "address",
					"name": "owner",
					"type": "address"
				},
				{
					"indexed": false,
					"internalType": "uint256",
					"name": "tokenId",
					"type": "uint256"
				},
				{
					"indexed": false,
					"internalType": "uint256",
					"name": "timeLive",
					"type": "uint256"
				},
				{
					"indexed": false,
					"internalType": "uint256",
					"name": "createdAt",
					"type": "uint256"
				},
				{
					"indexed": false,
					"internalType": "uint256",
					"name": "roof",
					"type": "uint256"
				},
				{
					"indexed": false,
					"internalType": "bool",
					"name": "automaticSell",
					"type": "bool"
				},
				{
					"indexed": false,
					"internalType": "bool",
					"name": "status",
					"type": "bool"
				},
				{
					"indexed": false,
					"internalType": "bool",
					"name": "isAuction",
					"type": "bool"
				},
				{
					"indexed": false,
					"internalType": "uint256",
					"name": "initialPrice",
					"type": "uint256"
				},
				{
					"indexed": false,
					"internalType": "uint256",
					"name": "durationTime",
					"type": "uint256"
				}
			],
			"name": "SettingNFTActive",
			"type": "event"
		},
		{
			"anonymous": false,
			"inputs": [
				{
					"indexed": false,
					"internalType": "address",
					"name": "owner",
					"type": "address"
				},
				{
					"indexed": false,
					"internalType": "uint256",
					"name": "tokenId",
					"type": "uint256"
				},
				{
					"indexed": false,
					"internalType": "uint256",
					"name": "createdAt",
					"type": "uint256"
				},
				{
					"indexed": false,
					"internalType": "bool",
					"name": "automaticSell",
					"type": "bool"
				},
				{
					"indexed": false,
					"internalType": "bool",
					"name": "status",
					"type": "bool"
				},
				{
					"indexed": false,
					"internalType": "bool",
					"name": "isAuction",
					"type": "bool"
				}
			],
			"name": "SettingNFTInactive",
			"type": "event"
		},
		{
			"anonymous": false,
			"inputs": [
				{
					"indexed": false,
					"internalType": "address",
					"name": "account",
					"type": "address"
				}
			],
			"name": "Unpaused",
			"type": "event"
		},
		{
			"anonymous": false,
			"inputs": [
				{
					"indexed": false,
					"internalType": "uint256",
					"name": "auctionSucceedAt",
					"type": "uint256"
				},
				{
					"indexed": false,
					"internalType": "uint256",
					"name": "offerTaken",
					"type": "uint256"
				},
				{
					"indexed": false,
					"internalType": "address",
					"name": "from",
					"type": "address"
				},
				{
					"indexed": false,
					"internalType": "address",
					"name": "to",
					"type": "address"
				},
				{
					"indexed": false,
					"internalType": "bool",
					"name": "status",
					"type": "bool"
				},
				{
					"indexed": false,
					"internalType": "bool",
					"name": "_isAuctionNow",
					"type": "bool"
				},
				{
					"indexed": false,
					"internalType": "uint256",
					"name": "itemsSold",
					"type": "uint256"
				}
			],
			"name": "auctionSucceed",
			"type": "event"
		},
		{
			"inputs": [],
			"name": "acceptFee",
			"outputs": [
				{
					"internalType": "uint256",
					"name": "",
					"type": "uint256"
				}
			],
			"stateMutability": "view",
			"type": "function"
		},
		{
			"inputs": [
				{
					"internalType": "uint256",
					"name": "tokenId",
					"type": "uint256"
				},
				{
					"internalType": "address",
					"name": "newRecipient",
					"type": "address"
				}
			],
			"name": "acceptedBid",
			"outputs": [],
			"stateMutability": "payable",
			"type": "function"
		},
		{
			"inputs": [
				{
					"internalType": "uint256",
					"name": "tokenId",
					"type": "uint256"
				},
				{
					"internalType": "uint256",
					"name": "roof",
					"type": "uint256"
				},
				{
					"internalType": "uint256",
					"name": "timeLive",
					"type": "uint256"
				},
				{
					"internalType": "bool",
					"name": "_isAuction",
					"type": "bool"
				},
				{
					"internalType": "uint256",
					"name": "_initialPrice",
					"type": "uint256"
				},
				{
					"internalType": "uint256",
					"name": "_durationTime",
					"type": "uint256"
				}
			],
			"name": "activeSettingOfNFT",
			"outputs": [
				{
					"internalType": "bool",
					"name": "",
					"type": "bool"
				}
			],
			"stateMutability": "payable",
			"type": "function"
		},
		{
			"inputs": [
				{
					"internalType": "uint256",
					"name": "amount",
					"type": "uint256"
				},
				{
					"internalType": "address",
					"name": "_erc_20",
					"type": "address"
				},
				{
					"internalType": "uint256",
					"name": "tokenId",
					"type": "uint256"
				}
			],
			"name": "bid",
			"outputs": [],
			"stateMutability": "nonpayable",
			"type": "function"
		},
		{
			"inputs": [],
			"name": "cancelFee",
			"outputs": [
				{
					"internalType": "uint256",
					"name": "",
					"type": "uint256"
				}
			],
			"stateMutability": "view",
			"type": "function"
		},
		{
			"inputs": [
				{
					"internalType": "uint256",
					"name": "position",
					"type": "uint256"
				}
			],
			"name": "exchange",
			"outputs": [
				{
					"internalType": "bool",
					"name": "",
					"type": "bool"
				}
			],
			"stateMutability": "payable",
			"type": "function"
		},
		{
			"inputs": [],
			"name": "fee",
			"outputs": [
				{
					"internalType": "uint256",
					"name": "",
					"type": "uint256"
				}
			],
			"stateMutability": "view",
			"type": "function"
		},
		{
			"inputs": [],
			"name": "getDefaultPrice",
			"outputs": [
				{
					"internalType": "uint256",
					"name": "",
					"type": "uint256"
				}
			],
			"stateMutability": "view",
			"type": "function"
		},
		{
			"inputs": [
				{
					"internalType": "uint256",
					"name": "tokenId",
					"type": "uint256"
				}
			],
			"name": "getSetting",
			"outputs": [
				{
					"components": [
						{
							"internalType": "address payable",
							"name": "owner",
							"type": "address"
						},
						{
							"internalType": "uint256",
							"name": "timeLive",
							"type": "uint256"
						},
						{
							"internalType": "uint256",
							"name": "createdAt",
							"type": "uint256"
						},
						{
							"internalType": "uint256",
							"name": "roof",
							"type": "uint256"
						},
						{
							"internalType": "bool",
							"name": "automaticSell",
							"type": "bool"
						},
						{
							"internalType": "bool",
							"name": "status",
							"type": "bool"
						},
						{
							"internalType": "bool",
							"name": "isAuction",
							"type": "bool"
						},
						{
							"internalType": "uint256",
							"name": "initialPrice",
							"type": "uint256"
						},
						{
							"internalType": "uint256",
							"name": "startAt",
							"type": "uint256"
						},
						{
							"internalType": "uint256",
							"name": "durationTime",
							"type": "uint256"
						},
						{
							"internalType": "uint256",
							"name": "lastOffer",
							"type": "uint256"
						},
						{
							"components": [
								{
									"internalType": "address[]",
									"name": "biders",
									"type": "address[]"
								},
								{
									"internalType": "uint256[]",
									"name": "offers",
									"type": "uint256[]"
								}
							],
							"internalType": "struct ConfigurationNFT.Biders",
							"name": "biders",
							"type": "tuple"
						}
					],
					"internalType": "struct ConfigurationNFT.SettingNFT",
					"name": "",
					"type": "tuple"
				}
			],
			"stateMutability": "view",
			"type": "function"
		},
		{
			"inputs": [
				{
					"internalType": "address payable",
					"name": "_holder",
					"type": "address"
				},
				{
					"internalType": "address",
					"name": "_collection",
					"type": "address"
				},
				{
					"internalType": "address",
					"name": "_wrapped",
					"type": "address"
				},
				{
					"internalType": "address",
					"name": "_oracle",
					"type": "address"
				},
				{
					"internalType": "uint256",
					"name": "_defaultPrice",
					"type": "uint256"
				},
				{
					"internalType": "uint256",
					"name": "_cancelFee",
					"type": "uint256"
				},
				{
					"internalType": "uint256",
					"name": "_acceptFee",
					"type": "uint256"
				},
				{
					"internalType": "uint256",
					"name": "_fee",
					"type": "uint256"
				}
			],
			"name": "initialize",
			"outputs": [],
			"stateMutability": "nonpayable",
			"type": "function"
		},
		{
			"inputs": [],
			"name": "owner",
			"outputs": [
				{
					"internalType": "address",
					"name": "",
					"type": "address"
				}
			],
			"stateMutability": "view",
			"type": "function"
		},
		{
			"inputs": [],
			"name": "pause",
			"outputs": [],
			"stateMutability": "nonpayable",
			"type": "function"
		},
		{
			"inputs": [],
			"name": "paused",
			"outputs": [
				{
					"internalType": "bool",
					"name": "",
					"type": "bool"
				}
			],
			"stateMutability": "view",
			"type": "function"
		},
		{
			"inputs": [],
			"name": "renounceOwnership",
			"outputs": [],
			"stateMutability": "nonpayable",
			"type": "function"
		},
		{
			"inputs": [
				{
					"internalType": "uint256",
					"name": "position",
					"type": "uint256"
				},
				{
					"internalType": "uint256[]",
					"name": "items",
					"type": "uint256[]"
				},
				{
					"internalType": "uint256[]",
					"name": "offers",
					"type": "uint256[]"
				},
				{
					"internalType": "uint256",
					"name": "amountOffer",
					"type": "uint256"
				},
				{
					"internalType": "uint256",
					"name": "timeLive",
					"type": "uint256"
				}
			],
			"name": "request",
			"outputs": [
				{
					"internalType": "bool",
					"name": "",
					"type": "bool"
				}
			],
			"stateMutability": "payable",
			"type": "function"
		},
		{
			"inputs": [
				{
					"internalType": "uint256",
					"name": "_acceptFee",
					"type": "uint256"
				}
			],
			"name": "setAcceptFee",
			"outputs": [
				{
					"internalType": "bool",
					"name": "",
					"type": "bool"
				}
			],
			"stateMutability": "nonpayable",
			"type": "function"
		},
		{
			"inputs": [
				{
					"internalType": "uint256",
					"name": "_cancelFee",
					"type": "uint256"
				}
			],
			"name": "setCancelFee",
			"outputs": [
				{
					"internalType": "bool",
					"name": "",
					"type": "bool"
				}
			],
			"stateMutability": "nonpayable",
			"type": "function"
		},
		{
			"inputs": [
				{
					"internalType": "uint256",
					"name": "defaultPrice",
					"type": "uint256"
				}
			],
			"name": "setDefaultPrice",
			"outputs": [
				{
					"internalType": "bool",
					"name": "",
					"type": "bool"
				}
			],
			"stateMutability": "nonpayable",
			"type": "function"
		},
		{
			"inputs": [
				{
					"internalType": "uint256",
					"name": "_fee",
					"type": "uint256"
				}
			],
			"name": "setFee",
			"outputs": [
				{
					"internalType": "bool",
					"name": "",
					"type": "bool"
				}
			],
			"stateMutability": "nonpayable",
			"type": "function"
		},
		{
			"inputs": [
				{
					"internalType": "address payable",
					"name": "newHolder",
					"type": "address"
				}
			],
			"name": "setHolder",
			"outputs": [
				{
					"internalType": "bool",
					"name": "",
					"type": "bool"
				}
			],
			"stateMutability": "nonpayable",
			"type": "function"
		},
		{
			"inputs": [
				{
					"internalType": "address",
					"name": "newOracle",
					"type": "address"
				}
			],
			"name": "setOracle",
			"outputs": [
				{
					"internalType": "bool",
					"name": "",
					"type": "bool"
				}
			],
			"stateMutability": "nonpayable",
			"type": "function"
		},
		{
			"inputs": [
				{
					"internalType": "uint256",
					"name": "",
					"type": "uint256"
				}
			],
			"name": "settings",
			"outputs": [
				{
					"internalType": "address payable",
					"name": "owner",
					"type": "address"
				},
				{
					"internalType": "uint256",
					"name": "timeLive",
					"type": "uint256"
				},
				{
					"internalType": "uint256",
					"name": "createdAt",
					"type": "uint256"
				},
				{
					"internalType": "uint256",
					"name": "roof",
					"type": "uint256"
				},
				{
					"internalType": "bool",
					"name": "automaticSell",
					"type": "bool"
				},
				{
					"internalType": "bool",
					"name": "status",
					"type": "bool"
				},
				{
					"internalType": "bool",
					"name": "isAuction",
					"type": "bool"
				},
				{
					"internalType": "uint256",
					"name": "initialPrice",
					"type": "uint256"
				},
				{
					"internalType": "uint256",
					"name": "startAt",
					"type": "uint256"
				},
				{
					"internalType": "uint256",
					"name": "durationTime",
					"type": "uint256"
				},
				{
					"internalType": "uint256",
					"name": "lastOffer",
					"type": "uint256"
				},
				{
					"components": [
						{
							"internalType": "address[]",
							"name": "biders",
							"type": "address[]"
						},
						{
							"internalType": "uint256[]",
							"name": "offers",
							"type": "uint256[]"
						}
					],
					"internalType": "struct ConfigurationNFT.Biders",
					"name": "biders",
					"type": "tuple"
				}
			],
			"stateMutability": "view",
			"type": "function"
		},
		{
			"inputs": [
				{
					"internalType": "address",
					"name": "newOwner",
					"type": "address"
				}
			],
			"name": "transferOwnership",
			"outputs": [],
			"stateMutability": "nonpayable",
			"type": "function"
		},
		{
			"inputs": [
				{
					"internalType": "uint256",
					"name": "tokenId",
					"type": "uint256"
				}
			],
			"name": "unActiveSettingOfNFT",
			"outputs": [
				{
					"internalType": "bool",
					"name": "",
					"type": "bool"
				}
			],
			"stateMutability": "payable",
			"type": "function"
		},
		{
			"inputs": [
				{
					"internalType": "uint256",
					"name": "tokenId",
					"type": "uint256"
				}
			],
			"name": "unForceActiveSettingOfNFT",
			"outputs": [
				{
					"internalType": "bool",
					"name": "",
					"type": "bool"
				}
			],
			"stateMutability": "nonpayable",
			"type": "function"
		},
		{
			"inputs": [],
			"name": "unpause",
			"outputs": [],
			"stateMutability": "nonpayable",
			"type": "function"
		}
	]
}